{"src/contracts/Shop.sol":{"Shop":{"abi":[{"inputs":[{"internalType":"uint256","name":"_fee","type":"uint256"}],"stateMutability":"nonpayable","type":"constructor"},{"anonymous":false,"inputs":[{"indexed":false,"internalType":"uint256","name":"id","type":"uint256"},{"indexed":true,"internalType":"address","name":"buyer","type":"address"},{"indexed":true,"internalType":"address","name":"seller","type":"address"},{"indexed":false,"internalType":"uint256","name":"price","type":"uint256"},{"indexed":false,"internalType":"uint256","name":"timestamp","type":"uint256"}],"name":"Sale","type":"event"},{"inputs":[{"internalType":"uint256","name":"id","type":"uint256"}],"name":"cancelOrder","outputs":[{"internalType":"bool","name":"","type":"bool"}],"stateMutability":"nonpayable","type":"function"},{"inputs":[{"internalType":"uint256[]","name":"ids","type":"uint256[]"},{"internalType":"uint256[]","name":"qtys","type":"uint256[]"},{"internalType":"string","name":"destination","type":"string"},{"internalType":"string","name":"phone","type":"string"}],"name":"createOrder","outputs":[{"internalType":"bool","name":"","type":"bool"}],"stateMutability":"payable","type":"function"},{"inputs":[{"internalType":"string","name":"sku","type":"string"},{"internalType":"string","name":"name","type":"string"},{"internalType":"string","name":"description","type":"string"},{"internalType":"string","name":"imageURL","type":"string"},{"internalType":"uint256","name":"price","type":"uint256"},{"internalType":"uint256","name":"stock","type":"uint256"}],"name":"createProduct","outputs":[{"internalType":"bool","name":"","type":"bool"}],"stateMutability":"payable","type":"function"},{"inputs":[{"internalType":"uint256","name":"id","type":"uint256"}],"name":"deleteProduct","outputs":[{"internalType":"bool","name":"","type":"bool"}],"stateMutability":"nonpayable","type":"function"},{"inputs":[],"name":"fee","outputs":[{"internalType":"uint256","name":"","type":"uint256"}],"stateMutability":"view","type":"function"},{"inputs":[{"internalType":"uint256","name":"id","type":"uint256"}],"name":"getBuyers","outputs":[{"components":[{"internalType":"address","name":"buyer","type":"address"},{"internalType":"uint256","name":"price","type":"uint256"},{"internalType":"uint256","name":"qty","type":"uint256"},{"internalType":"uint256","name":"timestamp","type":"uint256"}],"internalType":"struct Shop.BuyerStruct[]","name":"buyers","type":"tuple[]"}],"stateMutability":"view","type":"function"},{"inputs":[{"internalType":"uint256","name":"id","type":"uint256"}],"name":"getOrder","outputs":[{"components":[{"internalType":"uint256","name":"id","type":"uint256"},{"internalType":"string","name":"sku","type":"string"},{"internalType":"string","name":"name","type":"string"},{"internalType":"string","name":"imageURL","type":"string"},{"internalType":"address","name":"buyer","type":"address"},{"internalType":"address","name":"seller","type":"address"},{"internalType":"uint256","name":"qty","type":"uint256"},{"internalType":"uint256","name":"total","type":"uint256"},{"internalType":"uint256","name":"timestamp","type":"uint256"},{"internalType":"string","name":"destination","type":"string"},{"internalType":"string","name":"phone","type":"string"},{"internalType":"enum Shop.OrderEnum","name":"status","type":"uint8"}],"internalType":"struct Shop.OrderStruct","name":"order","type":"tuple"}],"stateMutability":"view","type":"function"},{"inputs":[],"name":"getOrders","outputs":[{"components":[{"internalType":"uint256","name":"id","type":"uint256"},{"internalType":"string","name":"sku","type":"string"},{"internalType":"string","name":"name","type":"string"},{"internalType":"string","name":"imageURL","type":"string"},{"internalType":"address","name":"buyer","type":"address"},{"internalType":"address","name":"seller","type":"address"},{"internalType":"uint256","name":"qty","type":"uint256"},{"internalType":"uint256","name":"total","type":"uint256"},{"internalType":"uint256","name":"timestamp","type":"uint256"},{"internalType":"string","name":"destination","type":"string"},{"internalType":"string","name":"phone","type":"string"},{"internalType":"enum Shop.OrderEnum","name":"status","type":"uint8"}],"internalType":"struct Shop.OrderStruct[]","name":"","type":"tuple[]"}],"stateMutability":"view","type":"function"},{"inputs":[{"internalType":"uint256","name":"id","type":"uint256"}],"name":"getProduct","outputs":[{"components":[{"internalType":"uint256","name":"id","type":"uint256"},{"internalType":"string","name":"sku","type":"string"},{"internalType":"address","name":"seller","type":"address"},{"internalType":"string","name":"name","type":"string"},{"internalType":"string","name":"imageURL","type":"string"},{"internalType":"string","name":"description","type":"string"},{"internalType":"uint256","name":"price","type":"uint256"},{"internalType":"uint256","name":"timestamp","type":"uint256"},{"internalType":"bool","name":"deleted","type":"bool"},{"internalType":"uint256","name":"stock","type":"uint256"}],"internalType":"struct Shop.ProductStruct","name":"","type":"tuple"}],"stateMutability":"view","type":"function"},{"inputs":[],"name":"getProducts","outputs":[{"components":[{"internalType":"uint256","name":"id","type":"uint256"},{"internalType":"string","name":"sku","type":"string"},{"internalType":"address","name":"seller","type":"address"},{"internalType":"string","name":"name","type":"string"},{"internalType":"string","name":"imageURL","type":"string"},{"internalType":"string","name":"description","type":"string"},{"internalType":"uint256","name":"price","type":"uint256"},{"internalType":"uint256","name":"timestamp","type":"uint256"},{"internalType":"bool","name":"deleted","type":"bool"},{"internalType":"uint256","name":"stock","type":"uint256"}],"internalType":"struct Shop.ProductStruct[]","name":"","type":"tuple[]"}],"stateMutability":"view","type":"function"},{"inputs":[{"internalType":"uint256","name":"id","type":"uint256"}],"name":"getSale","outputs":[{"components":[{"internalType":"uint256","name":"id","type":"uint256"},{"internalType":"string","name":"sku","type":"string"},{"internalType":"string","name":"name","type":"string"},{"internalType":"string","name":"imageURL","type":"string"},{"internalType":"address","name":"buyer","type":"address"},{"internalType":"address","name":"seller","type":"address"},{"internalType":"uint256","name":"qty","type":"uint256"},{"internalType":"uint256","name":"total","type":"uint256"},{"internalType":"uint256","name":"timestamp","type":"uint256"},{"internalType":"string","name":"destination","type":"string"},{"internalType":"string","name":"phone","type":"string"},{"internalType":"enum Shop.OrderEnum","name":"status","type":"uint8"}],"internalType":"struct Shop.OrderStruct","name":"order","type":"tuple"}],"stateMutability":"view","type":"function"},{"inputs":[],"name":"getSales","outputs":[{"components":[{"internalType":"uint256","name":"id","type":"uint256"},{"internalType":"string","name":"sku","type":"string"},{"internalType":"string","name":"name","type":"string"},{"internalType":"string","name":"imageURL","type":"string"},{"internalType":"address","name":"buyer","type":"address"},{"internalType":"address","name":"seller","type":"address"},{"internalType":"uint256","name":"qty","type":"uint256"},{"internalType":"uint256","name":"total","type":"uint256"},{"internalType":"uint256","name":"timestamp","type":"uint256"},{"internalType":"string","name":"destination","type":"string"},{"internalType":"string","name":"phone","type":"string"},{"internalType":"enum Shop.OrderEnum","name":"status","type":"uint8"}],"internalType":"struct Shop.OrderStruct[]","name":"","type":"tuple[]"}],"stateMutability":"view","type":"function"},{"inputs":[{"internalType":"uint256","name":"id","type":"uint256"},{"internalType":"enum Shop.OrderEnum","name":"status","type":"uint8"}],"name":"markOrderAs","outputs":[{"internalType":"bool","name":"","type":"bool"}],"stateMutability":"nonpayable","type":"function"},{"inputs":[],"name":"owner","outputs":[{"internalType":"address","name":"","type":"address"}],"stateMutability":"view","type":"function"},{"inputs":[],"name":"stats","outputs":[{"internalType":"uint256","name":"products","type":"uint256"},{"internalType":"uint256","name":"orders","type":"uint256"},{"internalType":"uint256","name":"sellers","type":"uint256"},{"internalType":"uint256","name":"sales","type":"uint256"},{"internalType":"uint256","name":"paid","type":"uint256"},{"internalType":"uint256","name":"balance","type":"uint256"}],"stateMutability":"view","type":"function"},{"inputs":[{"internalType":"address","name":"","type":"address"}],"name":"statsOf","outputs":[{"internalType":"uint256","name":"products","type":"uint256"},{"internalType":"uint256","name":"orders","type":"uint256"},{"internalType":"uint256","name":"sellers","type":"uint256"},{"internalType":"uint256","name":"sales","type":"uint256"},{"internalType":"uint256","name":"paid","type":"uint256"},{"internalType":"uint256","name":"balance","type":"uint256"}],"stateMutability":"view","type":"function"},{"inputs":[{"internalType":"uint256","name":"id","type":"uint256"},{"internalType":"string","name":"name","type":"string"},{"internalType":"string","name":"description","type":"string"},{"internalType":"string","name":"imageURL","type":"string"},{"internalType":"uint256","name":"price","type":"uint256"},{"internalType":"uint256","name":"stock","type":"uint256"}],"name":"updateProduct","outputs":[{"internalType":"bool","name":"","type":"bool"}],"stateMutability":"nonpayable","type":"function"}],"evm":{"bytecode":{"linkReferences":{},"object":"60806040523480156200001157600080fd5b5060405162003bea38038062003bea83398101604081905262000034916200004f565b600080546001600160a01b0319163317905560075562000069565b6000602082840312156200006257600080fd5b5051919050565b613b7180620000796000396000f3fe6080604052600436106100fe5760003560e01c8063bab8d87211610095578063d80528ae11610064578063d80528ae14610324578063d8f6d5961461034f578063ddca3f431461036f578063e0e83bb314610393578063ed90c7b7146103a657600080fd5b8063bab8d872146102a2578063c29b2f20146102c2578063c39e0b2b146102e4578063d09ef241146102f757600080fd5b806365f3fcd7116100d157806365f3fcd7146101f05780637feafd20146102105780638da5cb5b1461023d578063b9db15b41461027557600080fd5b80630d83304c1461010357806315cfc4051461012e5780632e2dc43e146101ab578063514fcac7146101c0575b600080fd5b34801561010f57600080fd5b506101186103c6565b60405161012591906134e3565b60405180910390f35b34801561013a57600080fd5b5061017e610149366004613545565b600c60205260009081526040902080546001820154600283015460038401546004850154600590950154939492939192909186565b604080519687526020870195909552938501929092526060840152608083015260a082015260c001610125565b3480156101b757600080fd5b5061011861078a565b3480156101cc57600080fd5b506101e06101db366004613575565b610b45565b6040519015158152602001610125565b3480156101fc57600080fd5b506101e061020b36600461358e565b610eec565b34801561021c57600080fd5b5061023061022b366004613575565b611463565b60405161012591906135c2565b34801561024957600080fd5b5060005461025d906001600160a01b031681565b6040516001600160a01b039091168152602001610125565b34801561028157600080fd5b50610295610290366004613575565b61154e565b60405161012591906136f9565b3480156102ae57600080fd5b506101e06102bd3660046137c3565b611872565b3480156102ce57600080fd5b506102d7611b59565b6040516101259190613867565b6101e06102f23660046138bc565b611e4c565b34801561030357600080fd5b50610317610312366004613575565b61216c565b604051610125919061390f565b34801561033057600080fd5b5060015460025460035460045460055460065461017e95949392919086565b34801561035b57600080fd5b5061031761036a366004613575565b61257c565b34801561037b57600080fd5b5061038560075481565b604051908152602001610125565b6101e06103a13660046139a2565b61260d565b3480156103b257600080fd5b506101e06103c1366004613575565b613040565b336000908152600b60209081526040808320805482518185028101850190935280835260609492939192909184015b8282101561078157838290600052602060002090600c0201604051806101800160405290816000820154815260200160018201805461043390613a4f565b80601f016020809104026020016040519081016040528092919081815260200182805461045f90613a4f565b80156104ac5780601f10610481576101008083540402835291602001916104ac565b820191906000526020600020905b81548152906001019060200180831161048f57829003601f168201915b505050505081526020016002820180546104c590613a4f565b80601f01602080910402602001604051908101604052809291908181526020018280546104f190613a4f565b801561053e5780601f106105135761010080835404028352916020019161053e565b820191906000526020600020905b81548152906001019060200180831161052157829003601f168201915b5050505050815260200160038201805461055790613a4f565b80601f016020809104026020016040519081016040528092919081815260200182805461058390613a4f565b80156105d05780601f106105a5576101008083540402835291602001916105d0565b820191906000526020600020905b8154815290600101906020018083116105b357829003601f168201915b505050918352505060048201546001600160a01b03908116602083015260058301541660408201526006820154606082015260078201546080820152600882015460a082015260098201805460c09092019161062b90613a4f565b80601f016020809104026020016040519081016040528092919081815260200182805461065790613a4f565b80156106a45780601f10610679576101008083540402835291602001916106a4565b820191906000526020600020905b81548152906001019060200180831161068757829003601f168201915b50505050508152602001600a820180546106bd90613a4f565b80601f01602080910402602001604051908101604052809291908181526020018280546106e990613a4f565b80156107365780601f1061070b57610100808354040283529160200191610736565b820191906000526020600020905b81548152906001019060200180831161071957829003601f168201915b5050509183525050600b82015460209091019060ff16600381111561075d5761075d6133a9565b600381111561076e5761076e6133a9565b81525050815260200190600101906103f5565b50505050905090565b336000908152600a60209081526040808320805482518185028101850190935280835260609492939192909184015b8282101561078157838290600052602060002090600c020160405180610180016040529081600082015481526020016001820180546107f790613a4f565b80601f016020809104026020016040519081016040528092919081815260200182805461082390613a4f565b80156108705780601f1061084557610100808354040283529160200191610870565b820191906000526020600020905b81548152906001019060200180831161085357829003601f168201915b5050505050815260200160028201805461088990613a4f565b80601f01602080910402602001604051908101604052809291908181526020018280546108b590613a4f565b80156109025780601f106108d757610100808354040283529160200191610902565b820191906000526020600020905b8154815290600101906020018083116108e557829003601f168201915b5050505050815260200160038201805461091b90613a4f565b80601f016020809104026020016040519081016040528092919081815260200182805461094790613a4f565b80156109945780601f1061096957610100808354040283529160200191610994565b820191906000526020600020905b81548152906001019060200180831161097757829003601f168201915b505050918352505060048201546001600160a01b03908116602083015260058301541660408201526006820154606082015260078201546080820152600882015460a082015260098201805460c0909201916109ef90613a4f565b80601f0160208091040260200160405190810160405280929190818152602001828054610a1b90613a4f565b8015610a685780601f10610a3d57610100808354040283529160200191610a68565b820191906000526020600020905b815481529060010190602001808311610a4b57829003601f168201915b50505050508152602001600a82018054610a8190613a4f565b80601f0160208091040260200160405190810160405280929190818152602001828054610aad90613a4f565b8015610afa5780601f10610acf57610100808354040283529160200191610afa565b820191906000526020600020905b815481529060010190602001808311610add57829003601f168201915b5050509183525050600b82015460209091019060ff166003811115610b2157610b216133a9565b6003811115610b3257610b326133a9565b81525050815260200190600101906107b9565b6000818152600e602052604081205460ff16610b9c5760405162461bcd60e51b8152602060048201526011602482015270141c9bd91d58dd081b9bdd08199bdd5b99607a1b60448201526064015b60405180910390fd5b336000818152600a60205260409020805484908110610bbd57610bbd613a84565b600091825260209091206004600c9092020101546001600160a01b031614610c205760405162461bcd60e51b8152602060048201526016602482015275155b985d5d1a1bdc9a5e99590814195c9cdbdb9b995b60521b6044820152606401610b93565b6001336000908152600a60205260409020805484908110610c4357610c43613a84565b60009182526020909120600b600c90920201015460ff166003811115610c6b57610c6b6133a9565b10610cb85760405162461bcd60e51b815260206004820152601860248201527f4f726465722064656c69766572656420616c72656164792100000000000000006044820152606401610b93565b336000908152600a6020526040902080546002919084908110610cdd57610cdd613a84565b60009182526020909120600b600c9092020101805460ff19166001836003811115610d0a57610d0a6133a9565b0217905550336000908152600a602052604081208054600292600b92909186908110610d3857610d38613a84565b600091825260208083206005600c9093020191909101546001600160a01b031683528201929092526040019020805484908110610d7757610d77613a84565b60009182526020909120600b600c9092020101805460ff19166001836003811115610da457610da46133a9565b02179055506002336000908152600a60205260409020805484908110610dcc57610dcc613a84565b60009182526020909120600b600c90920201015460ff166003811115610df457610df46133a9565b1415610ee457336000908152600a60205260409020805483908110610e1b57610e1b613a84565b90600052602060002090600c02016006015460088381548110610e4057610e40613a84565b90600052602060002090600a02016009016000828254610e609190613ab0565b9091555050336000908152600a602052604090208054610ee4919084908110610e8b57610e8b613a84565b600091825260208083206004600c909302019190910154338352600a909152604090912080546001600160a01b039092169185908110610ecd57610ecd613a84565b90600052602060002090600c0201600701546130ff565b506001919050565b336000908152600f6020908152604080832085845290915281205460ff16610f485760405162461bcd60e51b815260206004820152600f60248201526e13dc99195c881b9bdd08199bdd5b99608a1b6044820152606401610b93565b60005b336000908152600b602052604090205481101561133d57336000908152600b60205260409020805485919083908110610f8657610f86613a84565b90600052602060002090600c020160000154141561132b57336000908152600b60205260409020805484919083908110610fc257610fc2613a84565b60009182526020909120600b600c9092020101805460ff19166001836003811115610fef57610fef6133a9565b0217905550336000908152600b6020526040812080548592600a9290918590811061101c5761101c613a84565b600091825260208083206004600c9093020191909101546001600160a01b03168352820192909252604001902080548390811061105b5761105b613a84565b60009182526020909120600b600c9092020101805460ff19166001836003811115611088576110886133a9565b021790555060018360038111156110a1576110a16133a9565b141561132b57336000908152600b60205260409020805461110f9190839081106110cd576110cd613a84565b600091825260208083206005600c909302019190910154338352600b909152604090912080546001600160a01b039092169184908110610ecd57610ecd613a84565b336000908152600b6020526040902080548290811061113057611130613a84565b90600052602060002090600c020160070154600160050160008282546111569190613ac8565b9091555050336000908152600b6020526040902080548290811061117c5761117c613a84565b60009182526020808320600c9283020160070154338452919052604082206004018054919290916111ae908490613ab0565b9091555050336000908152600c602052604081206003018054916111d183613adf565b9091555050600480549060006111e683613adf565b90915550506000848152600d602090815260408083208151608081018352338552600b909352922080548291908590811061122357611223613a84565b600091825260208083206004600c9093020191909101546001600160a01b03168352338252600b81526040909120805492909101918590811061126857611268613a84565b90600052602060002090600c0201600701548152602001600b6000336001600160a01b03166001600160a01b0316815260200190815260200160002084815481106112b5576112b5613a84565b60009182526020808320600c92909202909101600601548352429281019290925283546001808201865594825290829020835160049092020180546001600160a01b0319166001600160a01b03909216919091178155908201519281019290925560408101516002830155606001516003909101555b8061133581613adf565b915050610f4b565b5060005b336000908152600a602052604090205481101561145957336000908152600a6020526040902080548591908390811061137c5761137c613a84565b90600052602060002090600c02016000015414156113ef57336000908152600a602052604090208054849190839081106113b8576113b8613a84565b60009182526020909120600b600c9092020101805460ff191660018360038111156113e5576113e56133a9565b0217905550611447565b60405162461bcd60e51b815260206004820152602760248201527f42757965723a204f72646572206e6f7420666f756e6420776974682070726f766044820152661a59195908125960ca1b6064820152608401610b93565b8061145181613adf565b915050611341565b5060019392505050565b6000818152600e602052604090205460609060ff166114bd5760405162461bcd60e51b8152602060048201526016602482015275141c9bd91d58dd08191bd95cc81b9bdd08195e1a5cdd60521b6044820152606401610b93565b6000828152600d6020908152604080832080548251818502810185019093528083529193909284015b82821015611543576000848152602090819020604080516080810182526004860290920180546001600160a01b031683526001808201548486015260028201549284019290925260030154606083015290835290920191016114e6565b505050509050919050565b6115566131e2565b6000828152600e602052604090205460ff166115a85760405162461bcd60e51b8152602060048201526011602482015270141c9bd91d58dd081b9bdd08199bdd5b99607a1b6044820152606401610b93565b600882815481106115bb576115bb613a84565b90600052602060002090600a020160405180610140016040529081600082015481526020016001820180546115ef90613a4f565b80601f016020809104026020016040519081016040528092919081815260200182805461161b90613a4f565b80156116685780601f1061163d57610100808354040283529160200191611668565b820191906000526020600020905b81548152906001019060200180831161164b57829003601f168201915b505050918352505060028201546001600160a01b0316602082015260038201805460409092019161169890613a4f565b80601f01602080910402602001604051908101604052809291908181526020018280546116c490613a4f565b80156117115780601f106116e657610100808354040283529160200191611711565b820191906000526020600020905b8154815290600101906020018083116116f457829003601f168201915b5050505050815260200160048201805461172a90613a4f565b80601f016020809104026020016040519081016040528092919081815260200182805461175690613a4f565b80156117a35780601f10611778576101008083540402835291602001916117a3565b820191906000526020600020905b81548152906001019060200180831161178657829003601f168201915b505050505081526020016005820180546117bc90613a4f565b80601f01602080910402602001604051908101604052809291908181526020018280546117e890613a4f565b80156118355780601f1061180a57610100808354040283529160200191611835565b820191906000526020600020905b81548152906001019060200180831161181857829003601f168201915b50505091835250506006820154602082015260078201546040820152600882015460ff161515606082015260099091015460809091015292915050565b6000336001600160a01b03166008888154811061189157611891613a84565b600091825260209091206002600a9092020101546001600160a01b0316146118f25760405162461bcd60e51b8152602060048201526014602482015273155b985d5d1a1bdc9a5e994814195c9cdbdb995b60621b6044820152606401610b93565b600086511161193a5760405162461bcd60e51b81526020600482015260146024820152736e616d652063616e6e6f7420626520656d70747960601b6044820152606401610b93565b600085511161198b5760405162461bcd60e51b815260206004820152601b60248201527f6465736372697074696f6e2063616e6e6f7420626520656d70747900000000006044820152606401610b93565b600083116119d25760405162461bcd60e51b815260206004820152601460248201527370726963652063616e6e6f74206265207a65726f60601b6044820152606401610b93565b60008211611a195760405162461bcd60e51b815260206004820152601460248201527373746f636b2063616e6e6f74206265207a65726f60601b6044820152606401610b93565b611a216131e2565b336040820152606081018790526080810185905260a0810186905260c081018490526101208101839052600880548291908a908110611a6257611a62613a84565b90600052602060002090600a0201600082015181600001556020820151816001019080519060200190611a96929190613240565b5060408201516002820180546001600160a01b0319166001600160a01b0390921691909117905560608201518051611ad8916003840191602090910190613240565b5060808201518051611af4916004840191602090910190613240565b5060a08201518051611b10916005840191602090910190613240565b5060c0820151600682015560e0820151600782015561010082015160088201805460ff191691151591909117905561012090910151600990910155506001979650505050505050565b60606008805480602002602001604051908101604052809291908181526020016000905b8282101561078157838290600052602060002090600a02016040518061014001604052908160008201548152602001600182018054611bbb90613a4f565b80601f0160208091040260200160405190810160405280929190818152602001828054611be790613a4f565b8015611c345780601f10611c0957610100808354040283529160200191611c34565b820191906000526020600020905b815481529060010190602001808311611c1757829003601f168201915b505050918352505060028201546001600160a01b03166020820152600382018054604090920191611c6490613a4f565b80601f0160208091040260200160405190810160405280929190818152602001828054611c9090613a4f565b8015611cdd5780601f10611cb257610100808354040283529160200191611cdd565b820191906000526020600020905b815481529060010190602001808311611cc057829003601f168201915b50505050508152602001600482018054611cf690613a4f565b80601f0160208091040260200160405190810160405280929190818152602001828054611d2290613a4f565b8015611d6f5780601f10611d4457610100808354040283529160200191611d6f565b820191906000526020600020905b815481529060010190602001808311611d5257829003601f168201915b50505050508152602001600582018054611d8890613a4f565b80601f0160208091040260200160405190810160405280929190818152602001828054611db490613a4f565b8015611e015780601f10611dd657610100808354040283529160200191611e01565b820191906000526020600020905b815481529060010190602001808311611de457829003601f168201915b5050509183525050600682015460208083019190915260078301546040830152600883015460ff16151560608301526009909201546080909101529082526001929092019101611b7d565b6000600754341015611e945760405162461bcd60e51b8152602060048201526011602482015270125b9cdd59999a58da595b9d08199d5b99607a1b6044820152606401610b93565b6000875111611edb5760405162461bcd60e51b8152602060048201526013602482015272736b752063616e6e6f7420626520656d70747960681b6044820152606401610b93565b6000865111611f235760405162461bcd60e51b81526020600482015260146024820152736e616d652063616e6e6f7420626520656d70747960601b6044820152606401610b93565b6000855111611f745760405162461bcd60e51b815260206004820152601b60248201527f6465736372697074696f6e2063616e6e6f7420626520656d70747900000000006044820152606401610b93565b6000845111611fc55760405162461bcd60e51b815260206004820152601960248201527f696d6167652055524c2063616e6e6f7420626520656d707479000000000000006044820152606401610b93565b6000831161200c5760405162461bcd60e51b815260206004820152601460248201527370726963652063616e6e6f74206265207a65726f60601b6044820152606401610b93565b600082116120535760405162461bcd60e51b815260206004820152601460248201527373746f636b2063616e6e6f74206265207a65726f60601b6044820152606401610b93565b600180546000908152600e60209081526040808320805460ff1916909417909355338252600c905290812080549161208a83613adf565b90915550506003805490600061209f83613adf565b91905055506120ac6131e2565b600180549060006120bc83613adf565b9091555081526020808201898152336040840152606083018990526080830187905260a0830188905260c0830186905261012083018590524260e08401526008805460018101825560009190915283517ff3f7a9fe364faab93b216da50a3214154f22a0a2b415b23a84c8169e8b636ee3600a909202918201908155915180518594611a96937ff3f7a9fe364faab93b216da50a3214154f22a0a2b415b23a84c8169e8b636ee401920190613240565b6121746132c4565b60005b336000908152600a602052604090205481101561257657336000908152600a602052604090208054849190839081106121b2576121b2613a84565b90600052602060002090600c020160000154141561256457336000908152600a602052604090208054829081106121eb576121eb613a84565b90600052602060002090600c0201604051806101800160405290816000820154815260200160018201805461221f90613a4f565b80601f016020809104026020016040519081016040528092919081815260200182805461224b90613a4f565b80156122985780601f1061226d57610100808354040283529160200191612298565b820191906000526020600020905b81548152906001019060200180831161227b57829003601f168201915b505050505081526020016002820180546122b190613a4f565b80601f01602080910402602001604051908101604052809291908181526020018280546122dd90613a4f565b801561232a5780601f106122ff5761010080835404028352916020019161232a565b820191906000526020600020905b81548152906001019060200180831161230d57829003601f168201915b5050505050815260200160038201805461234390613a4f565b80601f016020809104026020016040519081016040528092919081815260200182805461236f90613a4f565b80156123bc5780601f10612391576101008083540402835291602001916123bc565b820191906000526020600020905b81548152906001019060200180831161239f57829003601f168201915b505050918352505060048201546001600160a01b03908116602083015260058301541660408201526006820154606082015260078201546080820152600882015460a082015260098201805460c09092019161241790613a4f565b80601f016020809104026020016040519081016040528092919081815260200182805461244390613a4f565b80156124905780601f1061246557610100808354040283529160200191612490565b820191906000526020600020905b81548152906001019060200180831161247357829003601f168201915b50505050508152602001600a820180546124a990613a4f565b80601f01602080910402602001604051908101604052809291908181526020018280546124d590613a4f565b80156125225780601f106124f757610100808354040283529160200191612522565b820191906000526020600020905b81548152906001019060200180831161250557829003601f168201915b5050509183525050600b82015460209091019060ff166003811115612549576125496133a9565b600381111561255a5761255a6133a9565b9052509392505050565b8061256e81613adf565b915050612177565b50919050565b6125846132c4565b60005b336000908152600b602052604090205481101561257657336000908152600b602052604090208054849190839081106125c2576125c2613a84565b90600052602060002090600c02016000015414156125fb57336000908152600b602052604090208054829081106121eb576121eb613a84565b8061260581613adf565b915050612587565b60006126198585613164565b34101561265e5760405162461bcd60e51b8152602060048201526013602482015272125b9cdd59999a58da595b9d08185b5bdd5b9d606a1b6044820152606401610b93565b60008351116126af5760405162461bcd60e51b815260206004820152601b60248201527f64657374696e6174696f6e2063616e6e6f7420626520656d70747900000000006044820152606401610b93565b60008251116126f85760405162461bcd60e51b815260206004820152601560248201527470686f6e652063616e6e6f7420626520656d70747960581b6044820152606401610b93565b6127028585613164565b60068054600090612714908490613ab0565b90915550600090505b855181101561303457600e600087838151811061273c5761273c613a84565b60209081029190910181015182528101919091526040016000205460ff1680156127bc575084818151811061277357612773613a84565b6020026020010151600887838151811061278f5761278f613a84565b6020026020010151815481106127a7576127a7613a84565b90600052602060002090600a02016009015410155b15613022578481815181106127d3576127d3613a84565b602002602001015160088783815181106127ef576127ef613a84565b60200260200101518154811061280757612807613a84565b90600052602060002090600a020160090160008282546128279190613ac8565b925050819055506001600f6000600889858151811061284857612848613a84565b60200260200101518154811061286057612860613a84565b600091825260208083206002600a909302018201546001600160a01b031684528381019490945260409283018220338352600c8552838320600101548352909352908120805493151560ff19909416939093179092558054916128c283613adf565b9091555050336000908152600c602052604081206001018054916128e583613adf565b91905055506128f26132c4565b6002805490600061290283613adf565b909155508152865160089088908490811061291f5761291f613a84565b60200260200101518154811061293757612937613a84565b90600052602060002090600a0201600101805461295390613a4f565b80601f016020809104026020016040519081016040528092919081815260200182805461297f90613a4f565b80156129cc5780601f106129a1576101008083540402835291602001916129cc565b820191906000526020600020905b8154815290600101906020018083116129af57829003601f168201915b5050505050602082015233608082015286516008908890849081106129f3576129f3613a84565b602002602001015181548110612a0b57612a0b613a84565b600091825260209091206002600a9092020101546001600160a01b031660a08201528651600890889084908110612a4457612a44613a84565b602002602001015181548110612a5c57612a5c613a84565b90600052602060002090600a02016003018054612a7890613a4f565b80601f0160208091040260200160405190810160405280929190818152602001828054612aa490613a4f565b8015612af15780601f10612ac657610100808354040283529160200191612af1565b820191906000526020600020905b815481529060010190602001808311612ad457829003601f168201915b505050505081604001819052506008878381518110612b1257612b12613a84565b602002602001015181548110612b2a57612b2a613a84565b90600052602060002090600a02016004018054612b4690613a4f565b80601f0160208091040260200160405190810160405280929190818152602001828054612b7290613a4f565b8015612bbf5780601f10612b9457610100808354040283529160200191612bbf565b820191906000526020600020905b815481529060010190602001808311612ba257829003601f168201915b50505050508160600181905250858281518110612bde57612bde613a84565b60200260200101518160c00181815250506008878381518110612c0357612c03613a84565b602002602001015181548110612c1b57612c1b613a84565b90600052602060002090600a020160060154868381518110612c3f57612c3f613a84565b6020026020010151612c519190613afa565b60e0820152426101008201526101208101859052610140810184905260808101516001600160a01b03166000908152600a602090815260408220805460018181018355918452928290208451600c90940201928355818401518051859493612cbd938501920190613240565b5060408201518051612cd9916002840191602090910190613240565b5060608201518051612cf5916003840191602090910190613240565b5060808201516004820180546001600160a01b039283166001600160a01b03199182161790915560a084015160058401805491909316911617905560c0820151600682015560e0820151600782015561010082015160088201556101208201518051612d6b916009840191602090910190613240565b506101408201518051612d8891600a840191602090910190613240565b50610160820151600b8201805460ff19166001836003811115612dad57612dad6133a9565b0217905550505060a08101516001600160a01b03166000908152600b602090815260408220805460018181018355918452928290208451600c90940201928355818401518051859493612e04938501920190613240565b5060408201518051612e20916002840191602090910190613240565b5060608201518051612e3c916003840191602090910190613240565b5060808201516004820180546001600160a01b039283166001600160a01b03199182161790915560a084015160058401805491909316911617905560c0820151600682015560e0820151600782015561010082015160088201556101208201518051612eb2916009840191602090910190613240565b506101408201518051612ecf91600a840191602090910190613240565b50610160820151600b8201805460ff19166001836003811115612ef457612ef46133a9565b02179055505050600d6000888481518110612f1157612f11613a84565b60200260200101518152602001908152602001600020604051806080016040528083608001516001600160a01b031681526020018360c001518460e00151612f599190613b19565b815260c0840151602080830191909152426040928301819052845460018082018755600096875295839020855160049092020180546001600160a01b0319166001600160a01b03928316178155858401519681019690965584840151600287015560609485015160039096019590955560a08601516080870151875160e08901518651918252948101949094529383019190915284169391909116917ff3debaf22196a6ddf52a60fa71058cd7edf5e25bb98f4e96c994a5d4a9b0dd3e910160405180910390a3505b8061302c81613adf565b91505061271d565b50600195945050505050565b6000336001600160a01b03166008838154811061305f5761305f613a84565b600091825260209091206002600a9092020101546001600160a01b0316146130c05760405162461bcd60e51b8152602060048201526014602482015273155b985d5d1a1bdc9a5e994814195c9cdbdb995b60621b6044820152606401610b93565b6001600883815481106130d5576130d5613a84565b60009182526020909120600a90910201600801805460ff1916911515919091179055506001919050565b6000826001600160a01b03168260405160006040518083038185875af1925050503d806000811461314c576040519150601f19603f3d011682016040523d82523d6000602084013e613151565b606091505b505090508061315f57600080fd5b505050565b60008060005b84518110156131da5783818151811061318557613185613a84565b6020026020010151600882815481106131a0576131a0613a84565b90600052602060002090600a0201600601546131bc9190613afa565b6131c69083613ab0565b9150806131d281613adf565b91505061316a565b509392505050565b604051806101400160405280600081526020016060815260200160006001600160a01b031681526020016060815260200160608152602001606081526020016000815260200160008152602001600015158152602001600081525090565b82805461324c90613a4f565b90600052602060002090601f01602090048101928261326e57600085556132b4565b82601f1061328757805160ff19168380011785556132b4565b828001600101855582156132b4579182015b828111156132b4578251825591602001919060010190613299565b506132c0929150613347565b5090565b6040518061018001604052806000815260200160608152602001606081526020016060815260200160006001600160a01b0316815260200160006001600160a01b03168152602001600081526020016000815260200160008152602001606081526020016060815260200160006003811115613342576133426133a9565b905290565b5b808211156132c05760008155600101613348565b6000815180845260005b8181101561338257602081850181015186830182015201613366565b81811115613394576000602083870101525b50601f01601f19169290920160200192915050565b634e487b7160e01b600052602160045260246000fd5b600481106133dd57634e487b7160e01b600052602160045260246000fd5b9052565b60006101808251845260208301518160208601526134018286018261335c565b9150506040830151848203604086015261341b828261335c565b91505060608301518482036060860152613435828261335c565b915050608083015161345260808601826001600160a01b03169052565b5060a083015161346d60a08601826001600160a01b03169052565b5060c083015160c085015260e083015160e085015261010080840151818601525061012080840151858303828701526134a6838261335c565b9250505061014080840151858303828701526134c2838261335c565b92505050610160808401516134d9828701826133bf565b5090949350505050565b6000602080830181845280855180835260408601915060408160051b870101925083870160005b8281101561353857603f198886030184526135268583516133e1565b9450928501929085019060010161350a565b5092979650505050505050565b60006020828403121561355757600080fd5b81356001600160a01b038116811461356e57600080fd5b9392505050565b60006020828403121561358757600080fd5b5035919050565b600080604083850312156135a157600080fd5b823591506020830135600481106135b757600080fd5b809150509250929050565b602080825282518282018190526000919060409081850190868401855b8281101561362257815180516001600160a01b031685528681015187860152858101518686015260609081015190850152608090930192908501906001016135df565b5091979650505050505050565b600061014082518452602083015181602086015261364f8286018261335c565b915050604083015161366c60408601826001600160a01b03169052565b5060608301518482036060860152613684828261335c565b9150506080830151848203608086015261369e828261335c565b91505060a083015184820360a08601526136b8828261335c565b91505060c083015160c085015260e083015160e0850152610100808401516136e38287018215159052565b5050610120928301519390920192909252919050565b60208152600061356e602083018461362f565b634e487b7160e01b600052604160045260246000fd5b604051601f8201601f1916810167ffffffffffffffff8111828210171561374b5761374b61370c565b604052919050565b600082601f83011261376457600080fd5b813567ffffffffffffffff81111561377e5761377e61370c565b613791601f8201601f1916602001613722565b8181528460208386010111156137a657600080fd5b816020850160208301376000918101602001919091529392505050565b60008060008060008060c087890312156137dc57600080fd5b86359550602087013567ffffffffffffffff808211156137fb57600080fd5b6138078a838b01613753565b9650604089013591508082111561381d57600080fd5b6138298a838b01613753565b9550606089013591508082111561383f57600080fd5b5061384c89828a01613753565b9350506080870135915060a087013590509295509295509295565b6000602080830181845280855180835260408601915060408160051b870101925083870160005b8281101561353857603f198886030184526138aa85835161362f565b9450928501929085019060010161388e565b60008060008060008060c087890312156138d557600080fd5b863567ffffffffffffffff808211156138ed57600080fd5b6138f98a838b01613753565b975060208901359150808211156137fb57600080fd5b60208152600061356e60208301846133e1565b600082601f83011261393357600080fd5b8135602067ffffffffffffffff82111561394f5761394f61370c565b8160051b61395e828201613722565b928352848101820192828101908785111561397857600080fd5b83870192505b848310156139975782358252918301919083019061397e565b979650505050505050565b600080600080608085870312156139b857600080fd5b843567ffffffffffffffff808211156139d057600080fd5b6139dc88838901613922565b955060208701359150808211156139f257600080fd5b6139fe88838901613922565b94506040870135915080821115613a1457600080fd5b613a2088838901613753565b93506060870135915080821115613a3657600080fd5b50613a4387828801613753565b91505092959194509250565b600181811c90821680613a6357607f821691505b6020821081141561257657634e487b7160e01b600052602260045260246000fd5b634e487b7160e01b600052603260045260246000fd5b634e487b7160e01b600052601160045260246000fd5b60008219821115613ac357613ac3613a9a565b500190565b600082821015613ada57613ada613a9a565b500390565b6000600019821415613af357613af3613a9a565b5060010190565b6000816000190483118215151615613b1457613b14613a9a565b500290565b600082613b3657634e487b7160e01b600052601260045260246000fd5b50049056fea2646970667358221220415f06b06e90655e1543c10ac20ac0c9534fbe4b5fbd16eb3c48a60971ffc31d64736f6c634300080b0033","opcodes":"PUSH1 0x80 PUSH1 0x40 MSTORE CALLVALUE DUP1 ISZERO PUSH3 0x11 JUMPI PUSH1 0x0 DUP1 REVERT JUMPDEST POP PUSH1 0x40 MLOAD PUSH3 0x3BEA CODESIZE SUB DUP1 PUSH3 0x3BEA DUP4 CODECOPY DUP2 ADD PUSH1 0x40 DUP2 SWAP1 MSTORE PUSH3 0x34 SWAP2 PUSH3 0x4F JUMP JUMPDEST PUSH1 0x0 DUP1 SLOAD PUSH1 0x1 PUSH1 0x1 PUSH1 0xA0 SHL SUB NOT AND CALLER OR SWAP1 SSTORE PUSH1 0x7 SSTORE PUSH3 0x69 JUMP JUMPDEST PUSH1 0x0 PUSH1 0x20 DUP3 DUP5 SUB SLT ISZERO PUSH3 0x62 JUMPI PUSH1 0x0 DUP1 REVERT JUMPDEST POP MLOAD SWAP2 SWAP1 POP JUMP JUMPDEST PUSH2 0x3B71 DUP1 PUSH3 0x79 PUSH1 0x0 CODECOPY PUSH1 0x0 RETURN INVALID PUSH1 0x80 PUSH1 0x40 MSTORE PUSH1 0x4 CALLDATASIZE LT PUSH2 0xFE JUMPI PUSH1 0x0 CALLDATALOAD PUSH1 0xE0 SHR DUP1 PUSH4 0xBAB8D872 GT PUSH2 0x95 JUMPI DUP1 PUSH4 0xD80528AE GT PUSH2 0x64 JUMPI DUP1 PUSH4 0xD80528AE EQ PUSH2 0x324 JUMPI DUP1 PUSH4 0xD8F6D596 EQ PUSH2 0x34F JUMPI DUP1 PUSH4 0xDDCA3F43 EQ PUSH2 0x36F JUMPI DUP1 PUSH4 0xE0E83BB3 EQ PUSH2 0x393 JUMPI DUP1 PUSH4 0xED90C7B7 EQ PUSH2 0x3A6 JUMPI PUSH1 0x0 DUP1 REVERT JUMPDEST DUP1 PUSH4 0xBAB8D872 EQ PUSH2 0x2A2 JUMPI DUP1 PUSH4 0xC29B2F20 EQ PUSH2 0x2C2 JUMPI DUP1 PUSH4 0xC39E0B2B EQ PUSH2 0x2E4 JUMPI DUP1 PUSH4 0xD09EF241 EQ PUSH2 0x2F7 JUMPI PUSH1 0x0 DUP1 REVERT JUMPDEST DUP1 PUSH4 0x65F3FCD7 GT PUSH2 0xD1 JUMPI DUP1 PUSH4 0x65F3FCD7 EQ PUSH2 0x1F0 JUMPI DUP1 PUSH4 0x7FEAFD20 EQ PUSH2 0x210 JUMPI DUP1 PUSH4 0x8DA5CB5B EQ PUSH2 0x23D JUMPI DUP1 PUSH4 0xB9DB15B4 EQ PUSH2 0x275 JUMPI PUSH1 0x0 DUP1 REVERT JUMPDEST DUP1 PUSH4 0xD83304C EQ PUSH2 0x103 JUMPI DUP1 PUSH4 0x15CFC405 EQ PUSH2 0x12E JUMPI DUP1 PUSH4 0x2E2DC43E EQ PUSH2 0x1AB JUMPI DUP1 PUSH4 0x514FCAC7 EQ PUSH2 0x1C0 JUMPI JUMPDEST PUSH1 0x0 DUP1 REVERT JUMPDEST CALLVALUE DUP1 ISZERO PUSH2 0x10F JUMPI PUSH1 0x0 DUP1 REVERT JUMPDEST POP PUSH2 0x118 PUSH2 0x3C6 JUMP JUMPDEST PUSH1 0x40 MLOAD PUSH2 0x125 SWAP2 SWAP1 PUSH2 0x34E3 JUMP JUMPDEST PUSH1 0x40 MLOAD DUP1 SWAP2 SUB SWAP1 RETURN JUMPDEST CALLVALUE DUP1 ISZERO PUSH2 0x13A JUMPI PUSH1 0x0 DUP1 REVERT JUMPDEST POP PUSH2 0x17E PUSH2 0x149 CALLDATASIZE PUSH1 0x4 PUSH2 0x3545 JUMP JUMPDEST PUSH1 0xC PUSH1 0x20 MSTORE PUSH1 0x0 SWAP1 DUP2 MSTORE PUSH1 0x40 SWAP1 KECCAK256 DUP1 SLOAD PUSH1 0x1 DUP3 ADD SLOAD PUSH1 0x2 DUP4 ADD SLOAD PUSH1 0x3 DUP5 ADD SLOAD PUSH1 0x4 DUP6 ADD SLOAD PUSH1 0x5 SWAP1 SWAP6 ADD SLOAD SWAP4 SWAP5 SWAP3 SWAP4 SWAP2 SWAP3 SWAP1 SWAP2 DUP7 JUMP JUMPDEST PUSH1 0x40 DUP1 MLOAD SWAP7 DUP8 MSTORE PUSH1 0x20 DUP8 ADD SWAP6 SWAP1 SWAP6 MSTORE SWAP4 DUP6 ADD SWAP3 SWAP1 SWAP3 MSTORE PUSH1 0x60 DUP5 ADD MSTORE PUSH1 0x80 DUP4 ADD MSTORE PUSH1 0xA0 DUP3 ADD MSTORE PUSH1 0xC0 ADD PUSH2 0x125 JUMP JUMPDEST CALLVALUE DUP1 ISZERO PUSH2 0x1B7 JUMPI PUSH1 0x0 DUP1 REVERT JUMPDEST POP PUSH2 0x118 PUSH2 0x78A JUMP JUMPDEST CALLVALUE DUP1 ISZERO PUSH2 0x1CC JUMPI PUSH1 0x0 DUP1 REVERT JUMPDEST POP PUSH2 0x1E0 PUSH2 0x1DB CALLDATASIZE PUSH1 0x4 PUSH2 0x3575 JUMP JUMPDEST PUSH2 0xB45 JUMP JUMPDEST PUSH1 0x40 MLOAD SWAP1 ISZERO ISZERO DUP2 MSTORE PUSH1 0x20 ADD PUSH2 0x125 JUMP JUMPDEST CALLVALUE DUP1 ISZERO PUSH2 0x1FC JUMPI PUSH1 0x0 DUP1 REVERT JUMPDEST POP PUSH2 0x1E0 PUSH2 0x20B CALLDATASIZE PUSH1 0x4 PUSH2 0x358E JUMP JUMPDEST PUSH2 0xEEC JUMP JUMPDEST CALLVALUE DUP1 ISZERO PUSH2 0x21C JUMPI PUSH1 0x0 DUP1 REVERT JUMPDEST POP PUSH2 0x230 PUSH2 0x22B CALLDATASIZE PUSH1 0x4 PUSH2 0x3575 JUMP JUMPDEST PUSH2 0x1463 JUMP JUMPDEST PUSH1 0x40 MLOAD PUSH2 0x125 SWAP2 SWAP1 PUSH2 0x35C2 JUMP JUMPDEST CALLVALUE DUP1 ISZERO PUSH2 0x249 JUMPI PUSH1 0x0 DUP1 REVERT JUMPDEST POP PUSH1 0x0 SLOAD PUSH2 0x25D SWAP1 PUSH1 0x1 PUSH1 0x1 PUSH1 0xA0 SHL SUB AND DUP2 JUMP JUMPDEST PUSH1 0x40 MLOAD PUSH1 0x1 PUSH1 0x1 PUSH1 0xA0 SHL SUB SWAP1 SWAP2 AND DUP2 MSTORE PUSH1 0x20 ADD PUSH2 0x125 JUMP JUMPDEST CALLVALUE DUP1 ISZERO PUSH2 0x281 JUMPI PUSH1 0x0 DUP1 REVERT JUMPDEST POP PUSH2 0x295 PUSH2 0x290 CALLDATASIZE PUSH1 0x4 PUSH2 0x3575 JUMP JUMPDEST PUSH2 0x154E JUMP JUMPDEST PUSH1 0x40 MLOAD PUSH2 0x125 SWAP2 SWAP1 PUSH2 0x36F9 JUMP JUMPDEST CALLVALUE DUP1 ISZERO PUSH2 0x2AE JUMPI PUSH1 0x0 DUP1 REVERT JUMPDEST POP PUSH2 0x1E0 PUSH2 0x2BD CALLDATASIZE PUSH1 0x4 PUSH2 0x37C3 JUMP JUMPDEST PUSH2 0x1872 JUMP JUMPDEST CALLVALUE DUP1 ISZERO PUSH2 0x2CE JUMPI PUSH1 0x0 DUP1 REVERT JUMPDEST POP PUSH2 0x2D7 PUSH2 0x1B59 JUMP JUMPDEST PUSH1 0x40 MLOAD PUSH2 0x125 SWAP2 SWAP1 PUSH2 0x3867 JUMP JUMPDEST PUSH2 0x1E0 PUSH2 0x2F2 CALLDATASIZE PUSH1 0x4 PUSH2 0x38BC JUMP JUMPDEST PUSH2 0x1E4C JUMP JUMPDEST CALLVALUE DUP1 ISZERO PUSH2 0x303 JUMPI PUSH1 0x0 DUP1 REVERT JUMPDEST POP PUSH2 0x317 PUSH2 0x312 CALLDATASIZE PUSH1 0x4 PUSH2 0x3575 JUMP JUMPDEST PUSH2 0x216C JUMP JUMPDEST PUSH1 0x40 MLOAD PUSH2 0x125 SWAP2 SWAP1 PUSH2 0x390F JUMP JUMPDEST CALLVALUE DUP1 ISZERO PUSH2 0x330 JUMPI PUSH1 0x0 DUP1 REVERT JUMPDEST POP PUSH1 0x1 SLOAD PUSH1 0x2 SLOAD PUSH1 0x3 SLOAD PUSH1 0x4 SLOAD PUSH1 0x5 SLOAD PUSH1 0x6 SLOAD PUSH2 0x17E SWAP6 SWAP5 SWAP4 SWAP3 SWAP2 SWAP1 DUP7 JUMP JUMPDEST CALLVALUE DUP1 ISZERO PUSH2 0x35B JUMPI PUSH1 0x0 DUP1 REVERT JUMPDEST POP PUSH2 0x317 PUSH2 0x36A CALLDATASIZE PUSH1 0x4 PUSH2 0x3575 JUMP JUMPDEST PUSH2 0x257C JUMP JUMPDEST CALLVALUE DUP1 ISZERO PUSH2 0x37B JUMPI PUSH1 0x0 DUP1 REVERT JUMPDEST POP PUSH2 0x385 PUSH1 0x7 SLOAD DUP2 JUMP JUMPDEST PUSH1 0x40 MLOAD SWAP1 DUP2 MSTORE PUSH1 0x20 ADD PUSH2 0x125 JUMP JUMPDEST PUSH2 0x1E0 PUSH2 0x3A1 CALLDATASIZE PUSH1 0x4 PUSH2 0x39A2 JUMP JUMPDEST PUSH2 0x260D JUMP JUMPDEST CALLVALUE DUP1 ISZERO PUSH2 0x3B2 JUMPI PUSH1 0x0 DUP1 REVERT JUMPDEST POP PUSH2 0x1E0 PUSH2 0x3C1 CALLDATASIZE PUSH1 0x4 PUSH2 0x3575 JUMP JUMPDEST PUSH2 0x3040 JUMP JUMPDEST CALLER PUSH1 0x0 SWAP1 DUP2 MSTORE PUSH1 0xB PUSH1 0x20 SWAP1 DUP2 MSTORE PUSH1 0x40 DUP1 DUP4 KECCAK256 DUP1 SLOAD DUP3 MLOAD DUP2 DUP6 MUL DUP2 ADD DUP6 ADD SWAP1 SWAP4 MSTORE DUP1 DUP4 MSTORE PUSH1 0x60 SWAP5 SWAP3 SWAP4 SWAP2 SWAP3 SWAP1 SWAP2 DUP5 ADD JUMPDEST DUP3 DUP3 LT ISZERO PUSH2 0x781 JUMPI DUP4 DUP3 SWAP1 PUSH1 0x0 MSTORE PUSH1 0x20 PUSH1 0x0 KECCAK256 SWAP1 PUSH1 0xC MUL ADD PUSH1 0x40 MLOAD DUP1 PUSH2 0x180 ADD PUSH1 0x40 MSTORE SWAP1 DUP2 PUSH1 0x0 DUP3 ADD SLOAD DUP2 MSTORE PUSH1 0x20 ADD PUSH1 0x1 DUP3 ADD DUP1 SLOAD PUSH2 0x433 SWAP1 PUSH2 0x3A4F JUMP JUMPDEST DUP1 PUSH1 0x1F ADD PUSH1 0x20 DUP1 SWAP2 DIV MUL PUSH1 0x20 ADD PUSH1 0x40 MLOAD SWAP1 DUP2 ADD PUSH1 0x40 MSTORE DUP1 SWAP3 SWAP2 SWAP1 DUP2 DUP2 MSTORE PUSH1 0x20 ADD DUP3 DUP1 SLOAD PUSH2 0x45F SWAP1 PUSH2 0x3A4F JUMP JUMPDEST DUP1 ISZERO PUSH2 0x4AC JUMPI DUP1 PUSH1 0x1F LT PUSH2 0x481 JUMPI PUSH2 0x100 DUP1 DUP4 SLOAD DIV MUL DUP4 MSTORE SWAP2 PUSH1 0x20 ADD SWAP2 PUSH2 0x4AC JUMP JUMPDEST DUP3 ADD SWAP2 SWAP1 PUSH1 0x0 MSTORE PUSH1 0x20 PUSH1 0x0 KECCAK256 SWAP1 JUMPDEST DUP2 SLOAD DUP2 MSTORE SWAP1 PUSH1 0x1 ADD SWAP1 PUSH1 0x20 ADD DUP1 DUP4 GT PUSH2 0x48F JUMPI DUP3 SWAP1 SUB PUSH1 0x1F AND DUP3 ADD SWAP2 JUMPDEST POP POP POP POP POP DUP2 MSTORE PUSH1 0x20 ADD PUSH1 0x2 DUP3 ADD DUP1 SLOAD PUSH2 0x4C5 SWAP1 PUSH2 0x3A4F JUMP JUMPDEST DUP1 PUSH1 0x1F ADD PUSH1 0x20 DUP1 SWAP2 DIV MUL PUSH1 0x20 ADD PUSH1 0x40 MLOAD SWAP1 DUP2 ADD PUSH1 0x40 MSTORE DUP1 SWAP3 SWAP2 SWAP1 DUP2 DUP2 MSTORE PUSH1 0x20 ADD DUP3 DUP1 SLOAD PUSH2 0x4F1 SWAP1 PUSH2 0x3A4F JUMP JUMPDEST DUP1 ISZERO PUSH2 0x53E JUMPI DUP1 PUSH1 0x1F LT PUSH2 0x513 JUMPI PUSH2 0x100 DUP1 DUP4 SLOAD DIV MUL DUP4 MSTORE SWAP2 PUSH1 0x20 ADD SWAP2 PUSH2 0x53E JUMP JUMPDEST DUP3 ADD SWAP2 SWAP1 PUSH1 0x0 MSTORE PUSH1 0x20 PUSH1 0x0 KECCAK256 SWAP1 JUMPDEST DUP2 SLOAD DUP2 MSTORE SWAP1 PUSH1 0x1 ADD SWAP1 PUSH1 0x20 ADD DUP1 DUP4 GT PUSH2 0x521 JUMPI DUP3 SWAP1 SUB PUSH1 0x1F AND DUP3 ADD SWAP2 JUMPDEST POP POP POP POP POP DUP2 MSTORE PUSH1 0x20 ADD PUSH1 0x3 DUP3 ADD DUP1 SLOAD PUSH2 0x557 SWAP1 PUSH2 0x3A4F JUMP JUMPDEST DUP1 PUSH1 0x1F ADD PUSH1 0x20 DUP1 SWAP2 DIV MUL PUSH1 0x20 ADD PUSH1 0x40 MLOAD SWAP1 DUP2 ADD PUSH1 0x40 MSTORE DUP1 SWAP3 SWAP2 SWAP1 DUP2 DUP2 MSTORE PUSH1 0x20 ADD DUP3 DUP1 SLOAD PUSH2 0x583 SWAP1 PUSH2 0x3A4F JUMP JUMPDEST DUP1 ISZERO PUSH2 0x5D0 JUMPI DUP1 PUSH1 0x1F LT PUSH2 0x5A5 JUMPI PUSH2 0x100 DUP1 DUP4 SLOAD DIV MUL DUP4 MSTORE SWAP2 PUSH1 0x20 ADD SWAP2 PUSH2 0x5D0 JUMP JUMPDEST DUP3 ADD SWAP2 SWAP1 PUSH1 0x0 MSTORE PUSH1 0x20 PUSH1 0x0 KECCAK256 SWAP1 JUMPDEST DUP2 SLOAD DUP2 MSTORE SWAP1 PUSH1 0x1 ADD SWAP1 PUSH1 0x20 ADD DUP1 DUP4 GT PUSH2 0x5B3 JUMPI DUP3 SWAP1 SUB PUSH1 0x1F AND DUP3 ADD SWAP2 JUMPDEST POP POP POP SWAP2 DUP4 MSTORE POP POP PUSH1 0x4 DUP3 ADD SLOAD PUSH1 0x1 PUSH1 0x1 PUSH1 0xA0 SHL SUB SWAP1 DUP2 AND PUSH1 0x20 DUP4 ADD MSTORE PUSH1 0x5 DUP4 ADD SLOAD AND PUSH1 0x40 DUP3 ADD MSTORE PUSH1 0x6 DUP3 ADD SLOAD PUSH1 0x60 DUP3 ADD MSTORE PUSH1 0x7 DUP3 ADD SLOAD PUSH1 0x80 DUP3 ADD MSTORE PUSH1 0x8 DUP3 ADD SLOAD PUSH1 0xA0 DUP3 ADD MSTORE PUSH1 0x9 DUP3 ADD DUP1 SLOAD PUSH1 0xC0 SWAP1 SWAP3 ADD SWAP2 PUSH2 0x62B SWAP1 PUSH2 0x3A4F JUMP JUMPDEST DUP1 PUSH1 0x1F ADD PUSH1 0x20 DUP1 SWAP2 DIV MUL PUSH1 0x20 ADD PUSH1 0x40 MLOAD SWAP1 DUP2 ADD PUSH1 0x40 MSTORE DUP1 SWAP3 SWAP2 SWAP1 DUP2 DUP2 MSTORE PUSH1 0x20 ADD DUP3 DUP1 SLOAD PUSH2 0x657 SWAP1 PUSH2 0x3A4F JUMP JUMPDEST DUP1 ISZERO PUSH2 0x6A4 JUMPI DUP1 PUSH1 0x1F LT PUSH2 0x679 JUMPI PUSH2 0x100 DUP1 DUP4 SLOAD DIV MUL DUP4 MSTORE SWAP2 PUSH1 0x20 ADD SWAP2 PUSH2 0x6A4 JUMP JUMPDEST DUP3 ADD SWAP2 SWAP1 PUSH1 0x0 MSTORE PUSH1 0x20 PUSH1 0x0 KECCAK256 SWAP1 JUMPDEST DUP2 SLOAD DUP2 MSTORE SWAP1 PUSH1 0x1 ADD SWAP1 PUSH1 0x20 ADD DUP1 DUP4 GT PUSH2 0x687 JUMPI DUP3 SWAP1 SUB PUSH1 0x1F AND DUP3 ADD SWAP2 JUMPDEST POP POP POP POP POP DUP2 MSTORE PUSH1 0x20 ADD PUSH1 0xA DUP3 ADD DUP1 SLOAD PUSH2 0x6BD SWAP1 PUSH2 0x3A4F JUMP JUMPDEST DUP1 PUSH1 0x1F ADD PUSH1 0x20 DUP1 SWAP2 DIV MUL PUSH1 0x20 ADD PUSH1 0x40 MLOAD SWAP1 DUP2 ADD PUSH1 0x40 MSTORE DUP1 SWAP3 SWAP2 SWAP1 DUP2 DUP2 MSTORE PUSH1 0x20 ADD DUP3 DUP1 SLOAD PUSH2 0x6E9 SWAP1 PUSH2 0x3A4F JUMP JUMPDEST DUP1 ISZERO PUSH2 0x736 JUMPI DUP1 PUSH1 0x1F LT PUSH2 0x70B JUMPI PUSH2 0x100 DUP1 DUP4 SLOAD DIV MUL DUP4 MSTORE SWAP2 PUSH1 0x20 ADD SWAP2 PUSH2 0x736 JUMP JUMPDEST DUP3 ADD SWAP2 SWAP1 PUSH1 0x0 MSTORE PUSH1 0x20 PUSH1 0x0 KECCAK256 SWAP1 JUMPDEST DUP2 SLOAD DUP2 MSTORE SWAP1 PUSH1 0x1 ADD SWAP1 PUSH1 0x20 ADD DUP1 DUP4 GT PUSH2 0x719 JUMPI DUP3 SWAP1 SUB PUSH1 0x1F AND DUP3 ADD SWAP2 JUMPDEST POP POP POP SWAP2 DUP4 MSTORE POP POP PUSH1 0xB DUP3 ADD SLOAD PUSH1 0x20 SWAP1 SWAP2 ADD SWAP1 PUSH1 0xFF AND PUSH1 0x3 DUP2 GT ISZERO PUSH2 0x75D JUMPI PUSH2 0x75D PUSH2 0x33A9 JUMP JUMPDEST PUSH1 0x3 DUP2 GT ISZERO PUSH2 0x76E JUMPI PUSH2 0x76E PUSH2 0x33A9 JUMP JUMPDEST DUP2 MSTORE POP POP DUP2 MSTORE PUSH1 0x20 ADD SWAP1 PUSH1 0x1 ADD SWAP1 PUSH2 0x3F5 JUMP JUMPDEST POP POP POP POP SWAP1 POP SWAP1 JUMP JUMPDEST CALLER PUSH1 0x0 SWAP1 DUP2 MSTORE PUSH1 0xA PUSH1 0x20 SWAP1 DUP2 MSTORE PUSH1 0x40 DUP1 DUP4 KECCAK256 DUP1 SLOAD DUP3 MLOAD DUP2 DUP6 MUL DUP2 ADD DUP6 ADD SWAP1 SWAP4 MSTORE DUP1 DUP4 MSTORE PUSH1 0x60 SWAP5 SWAP3 SWAP4 SWAP2 SWAP3 SWAP1 SWAP2 DUP5 ADD JUMPDEST DUP3 DUP3 LT ISZERO PUSH2 0x781 JUMPI DUP4 DUP3 SWAP1 PUSH1 0x0 MSTORE PUSH1 0x20 PUSH1 0x0 KECCAK256 SWAP1 PUSH1 0xC MUL ADD PUSH1 0x40 MLOAD DUP1 PUSH2 0x180 ADD PUSH1 0x40 MSTORE SWAP1 DUP2 PUSH1 0x0 DUP3 ADD SLOAD DUP2 MSTORE PUSH1 0x20 ADD PUSH1 0x1 DUP3 ADD DUP1 SLOAD PUSH2 0x7F7 SWAP1 PUSH2 0x3A4F JUMP JUMPDEST DUP1 PUSH1 0x1F ADD PUSH1 0x20 DUP1 SWAP2 DIV MUL PUSH1 0x20 ADD PUSH1 0x40 MLOAD SWAP1 DUP2 ADD PUSH1 0x40 MSTORE DUP1 SWAP3 SWAP2 SWAP1 DUP2 DUP2 MSTORE PUSH1 0x20 ADD DUP3 DUP1 SLOAD PUSH2 0x823 SWAP1 PUSH2 0x3A4F JUMP JUMPDEST DUP1 ISZERO PUSH2 0x870 JUMPI DUP1 PUSH1 0x1F LT PUSH2 0x845 JUMPI PUSH2 0x100 DUP1 DUP4 SLOAD DIV MUL DUP4 MSTORE SWAP2 PUSH1 0x20 ADD SWAP2 PUSH2 0x870 JUMP JUMPDEST DUP3 ADD SWAP2 SWAP1 PUSH1 0x0 MSTORE PUSH1 0x20 PUSH1 0x0 KECCAK256 SWAP1 JUMPDEST DUP2 SLOAD DUP2 MSTORE SWAP1 PUSH1 0x1 ADD SWAP1 PUSH1 0x20 ADD DUP1 DUP4 GT PUSH2 0x853 JUMPI DUP3 SWAP1 SUB PUSH1 0x1F AND DUP3 ADD SWAP2 JUMPDEST POP POP POP POP POP DUP2 MSTORE PUSH1 0x20 ADD PUSH1 0x2 DUP3 ADD DUP1 SLOAD PUSH2 0x889 SWAP1 PUSH2 0x3A4F JUMP JUMPDEST DUP1 PUSH1 0x1F ADD PUSH1 0x20 DUP1 SWAP2 DIV MUL PUSH1 0x20 ADD PUSH1 0x40 MLOAD SWAP1 DUP2 ADD PUSH1 0x40 MSTORE DUP1 SWAP3 SWAP2 SWAP1 DUP2 DUP2 MSTORE PUSH1 0x20 ADD DUP3 DUP1 SLOAD PUSH2 0x8B5 SWAP1 PUSH2 0x3A4F JUMP JUMPDEST DUP1 ISZERO PUSH2 0x902 JUMPI DUP1 PUSH1 0x1F LT PUSH2 0x8D7 JUMPI PUSH2 0x100 DUP1 DUP4 SLOAD DIV MUL DUP4 MSTORE SWAP2 PUSH1 0x20 ADD SWAP2 PUSH2 0x902 JUMP JUMPDEST DUP3 ADD SWAP2 SWAP1 PUSH1 0x0 MSTORE PUSH1 0x20 PUSH1 0x0 KECCAK256 SWAP1 JUMPDEST DUP2 SLOAD DUP2 MSTORE SWAP1 PUSH1 0x1 ADD SWAP1 PUSH1 0x20 ADD DUP1 DUP4 GT PUSH2 0x8E5 JUMPI DUP3 SWAP1 SUB PUSH1 0x1F AND DUP3 ADD SWAP2 JUMPDEST POP POP POP POP POP DUP2 MSTORE PUSH1 0x20 ADD PUSH1 0x3 DUP3 ADD DUP1 SLOAD PUSH2 0x91B SWAP1 PUSH2 0x3A4F JUMP JUMPDEST DUP1 PUSH1 0x1F ADD PUSH1 0x20 DUP1 SWAP2 DIV MUL PUSH1 0x20 ADD PUSH1 0x40 MLOAD SWAP1 DUP2 ADD PUSH1 0x40 MSTORE DUP1 SWAP3 SWAP2 SWAP1 DUP2 DUP2 MSTORE PUSH1 0x20 ADD DUP3 DUP1 SLOAD PUSH2 0x947 SWAP1 PUSH2 0x3A4F JUMP JUMPDEST DUP1 ISZERO PUSH2 0x994 JUMPI DUP1 PUSH1 0x1F LT PUSH2 0x969 JUMPI PUSH2 0x100 DUP1 DUP4 SLOAD DIV MUL DUP4 MSTORE SWAP2 PUSH1 0x20 ADD SWAP2 PUSH2 0x994 JUMP JUMPDEST DUP3 ADD SWAP2 SWAP1 PUSH1 0x0 MSTORE PUSH1 0x20 PUSH1 0x0 KECCAK256 SWAP1 JUMPDEST DUP2 SLOAD DUP2 MSTORE SWAP1 PUSH1 0x1 ADD SWAP1 PUSH1 0x20 ADD DUP1 DUP4 GT PUSH2 0x977 JUMPI DUP3 SWAP1 SUB PUSH1 0x1F AND DUP3 ADD SWAP2 JUMPDEST POP POP POP SWAP2 DUP4 MSTORE POP POP PUSH1 0x4 DUP3 ADD SLOAD PUSH1 0x1 PUSH1 0x1 PUSH1 0xA0 SHL SUB SWAP1 DUP2 AND PUSH1 0x20 DUP4 ADD MSTORE PUSH1 0x5 DUP4 ADD SLOAD AND PUSH1 0x40 DUP3 ADD MSTORE PUSH1 0x6 DUP3 ADD SLOAD PUSH1 0x60 DUP3 ADD MSTORE PUSH1 0x7 DUP3 ADD SLOAD PUSH1 0x80 DUP3 ADD MSTORE PUSH1 0x8 DUP3 ADD SLOAD PUSH1 0xA0 DUP3 ADD MSTORE PUSH1 0x9 DUP3 ADD DUP1 SLOAD PUSH1 0xC0 SWAP1 SWAP3 ADD SWAP2 PUSH2 0x9EF SWAP1 PUSH2 0x3A4F JUMP JUMPDEST DUP1 PUSH1 0x1F ADD PUSH1 0x20 DUP1 SWAP2 DIV MUL PUSH1 0x20 ADD PUSH1 0x40 MLOAD SWAP1 DUP2 ADD PUSH1 0x40 MSTORE DUP1 SWAP3 SWAP2 SWAP1 DUP2 DUP2 MSTORE PUSH1 0x20 ADD DUP3 DUP1 SLOAD PUSH2 0xA1B SWAP1 PUSH2 0x3A4F JUMP JUMPDEST DUP1 ISZERO PUSH2 0xA68 JUMPI DUP1 PUSH1 0x1F LT PUSH2 0xA3D JUMPI PUSH2 0x100 DUP1 DUP4 SLOAD DIV MUL DUP4 MSTORE SWAP2 PUSH1 0x20 ADD SWAP2 PUSH2 0xA68 JUMP JUMPDEST DUP3 ADD SWAP2 SWAP1 PUSH1 0x0 MSTORE PUSH1 0x20 PUSH1 0x0 KECCAK256 SWAP1 JUMPDEST DUP2 SLOAD DUP2 MSTORE SWAP1 PUSH1 0x1 ADD SWAP1 PUSH1 0x20 ADD DUP1 DUP4 GT PUSH2 0xA4B JUMPI DUP3 SWAP1 SUB PUSH1 0x1F AND DUP3 ADD SWAP2 JUMPDEST POP POP POP POP POP DUP2 MSTORE PUSH1 0x20 ADD PUSH1 0xA DUP3 ADD DUP1 SLOAD PUSH2 0xA81 SWAP1 PUSH2 0x3A4F JUMP JUMPDEST DUP1 PUSH1 0x1F ADD PUSH1 0x20 DUP1 SWAP2 DIV MUL PUSH1 0x20 ADD PUSH1 0x40 MLOAD SWAP1 DUP2 ADD PUSH1 0x40 MSTORE DUP1 SWAP3 SWAP2 SWAP1 DUP2 DUP2 MSTORE PUSH1 0x20 ADD DUP3 DUP1 SLOAD PUSH2 0xAAD SWAP1 PUSH2 0x3A4F JUMP JUMPDEST DUP1 ISZERO PUSH2 0xAFA JUMPI DUP1 PUSH1 0x1F LT PUSH2 0xACF JUMPI PUSH2 0x100 DUP1 DUP4 SLOAD DIV MUL DUP4 MSTORE SWAP2 PUSH1 0x20 ADD SWAP2 PUSH2 0xAFA JUMP JUMPDEST DUP3 ADD SWAP2 SWAP1 PUSH1 0x0 MSTORE PUSH1 0x20 PUSH1 0x0 KECCAK256 SWAP1 JUMPDEST DUP2 SLOAD DUP2 MSTORE SWAP1 PUSH1 0x1 ADD SWAP1 PUSH1 0x20 ADD DUP1 DUP4 GT PUSH2 0xADD JUMPI DUP3 SWAP1 SUB PUSH1 0x1F AND DUP3 ADD SWAP2 JUMPDEST POP POP POP SWAP2 DUP4 MSTORE POP POP PUSH1 0xB DUP3 ADD SLOAD PUSH1 0x20 SWAP1 SWAP2 ADD SWAP1 PUSH1 0xFF AND PUSH1 0x3 DUP2 GT ISZERO PUSH2 0xB21 JUMPI PUSH2 0xB21 PUSH2 0x33A9 JUMP JUMPDEST PUSH1 0x3 DUP2 GT ISZERO PUSH2 0xB32 JUMPI PUSH2 0xB32 PUSH2 0x33A9 JUMP JUMPDEST DUP2 MSTORE POP POP DUP2 MSTORE PUSH1 0x20 ADD SWAP1 PUSH1 0x1 ADD SWAP1 PUSH2 0x7B9 JUMP JUMPDEST PUSH1 0x0 DUP2 DUP2 MSTORE PUSH1 0xE PUSH1 0x20 MSTORE PUSH1 0x40 DUP2 KECCAK256 SLOAD PUSH1 0xFF AND PUSH2 0xB9C JUMPI PUSH1 0x40 MLOAD PUSH3 0x461BCD PUSH1 0xE5 SHL DUP2 MSTORE PUSH1 0x20 PUSH1 0x4 DUP3 ADD MSTORE PUSH1 0x11 PUSH1 0x24 DUP3 ADD MSTORE PUSH17 0x141C9BD91D58DD081B9BDD08199BDD5B99 PUSH1 0x7A SHL PUSH1 0x44 DUP3 ADD MSTORE PUSH1 0x64 ADD JUMPDEST PUSH1 0x40 MLOAD DUP1 SWAP2 SUB SWAP1 REVERT JUMPDEST CALLER PUSH1 0x0 DUP2 DUP2 MSTORE PUSH1 0xA PUSH1 0x20 MSTORE PUSH1 0x40 SWAP1 KECCAK256 DUP1 SLOAD DUP5 SWAP1 DUP2 LT PUSH2 0xBBD JUMPI PUSH2 0xBBD PUSH2 0x3A84 JUMP JUMPDEST PUSH1 0x0 SWAP2 DUP3 MSTORE PUSH1 0x20 SWAP1 SWAP2 KECCAK256 PUSH1 0x4 PUSH1 0xC SWAP1 SWAP3 MUL ADD ADD SLOAD PUSH1 0x1 PUSH1 0x1 PUSH1 0xA0 SHL SUB AND EQ PUSH2 0xC20 JUMPI PUSH1 0x40 MLOAD PUSH3 0x461BCD PUSH1 0xE5 SHL DUP2 MSTORE PUSH1 0x20 PUSH1 0x4 DUP3 ADD MSTORE PUSH1 0x16 PUSH1 0x24 DUP3 ADD MSTORE PUSH22 0x155B985D5D1A1BDC9A5E99590814195C9CDBDB9B995B PUSH1 0x52 SHL PUSH1 0x44 DUP3 ADD MSTORE PUSH1 0x64 ADD PUSH2 0xB93 JUMP JUMPDEST PUSH1 0x1 CALLER PUSH1 0x0 SWAP1 DUP2 MSTORE PUSH1 0xA PUSH1 0x20 MSTORE PUSH1 0x40 SWAP1 KECCAK256 DUP1 SLOAD DUP5 SWAP1 DUP2 LT PUSH2 0xC43 JUMPI PUSH2 0xC43 PUSH2 0x3A84 JUMP JUMPDEST PUSH1 0x0 SWAP2 DUP3 MSTORE PUSH1 0x20 SWAP1 SWAP2 KECCAK256 PUSH1 0xB PUSH1 0xC SWAP1 SWAP3 MUL ADD ADD SLOAD PUSH1 0xFF AND PUSH1 0x3 DUP2 GT ISZERO PUSH2 0xC6B JUMPI PUSH2 0xC6B PUSH2 0x33A9 JUMP JUMPDEST LT PUSH2 0xCB8 JUMPI PUSH1 0x40 MLOAD PUSH3 0x461BCD PUSH1 0xE5 SHL DUP2 MSTORE PUSH1 0x20 PUSH1 0x4 DUP3 ADD MSTORE PUSH1 0x18 PUSH1 0x24 DUP3 ADD MSTORE PUSH32 0x4F726465722064656C69766572656420616C7265616479210000000000000000 PUSH1 0x44 DUP3 ADD MSTORE PUSH1 0x64 ADD PUSH2 0xB93 JUMP JUMPDEST CALLER PUSH1 0x0 SWAP1 DUP2 MSTORE PUSH1 0xA PUSH1 0x20 MSTORE PUSH1 0x40 SWAP1 KECCAK256 DUP1 SLOAD PUSH1 0x2 SWAP2 SWAP1 DUP5 SWAP1 DUP2 LT PUSH2 0xCDD JUMPI PUSH2 0xCDD PUSH2 0x3A84 JUMP JUMPDEST PUSH1 0x0 SWAP2 DUP3 MSTORE PUSH1 0x20 SWAP1 SWAP2 KECCAK256 PUSH1 0xB PUSH1 0xC SWAP1 SWAP3 MUL ADD ADD DUP1 SLOAD PUSH1 0xFF NOT AND PUSH1 0x1 DUP4 PUSH1 0x3 DUP2 GT ISZERO PUSH2 0xD0A JUMPI PUSH2 0xD0A PUSH2 0x33A9 JUMP JUMPDEST MUL OR SWAP1 SSTORE POP CALLER PUSH1 0x0 SWAP1 DUP2 MSTORE PUSH1 0xA PUSH1 0x20 MSTORE PUSH1 0x40 DUP2 KECCAK256 DUP1 SLOAD PUSH1 0x2 SWAP3 PUSH1 0xB SWAP3 SWAP1 SWAP2 DUP7 SWAP1 DUP2 LT PUSH2 0xD38 JUMPI PUSH2 0xD38 PUSH2 0x3A84 JUMP JUMPDEST PUSH1 0x0 SWAP2 DUP3 MSTORE PUSH1 0x20 DUP1 DUP4 KECCAK256 PUSH1 0x5 PUSH1 0xC SWAP1 SWAP4 MUL ADD SWAP2 SWAP1 SWAP2 ADD SLOAD PUSH1 0x1 PUSH1 0x1 PUSH1 0xA0 SHL SUB AND DUP4 MSTORE DUP3 ADD SWAP3 SWAP1 SWAP3 MSTORE PUSH1 0x40 ADD SWAP1 KECCAK256 DUP1 SLOAD DUP5 SWAP1 DUP2 LT PUSH2 0xD77 JUMPI PUSH2 0xD77 PUSH2 0x3A84 JUMP JUMPDEST PUSH1 0x0 SWAP2 DUP3 MSTORE PUSH1 0x20 SWAP1 SWAP2 KECCAK256 PUSH1 0xB PUSH1 0xC SWAP1 SWAP3 MUL ADD ADD DUP1 SLOAD PUSH1 0xFF NOT AND PUSH1 0x1 DUP4 PUSH1 0x3 DUP2 GT ISZERO PUSH2 0xDA4 JUMPI PUSH2 0xDA4 PUSH2 0x33A9 JUMP JUMPDEST MUL OR SWAP1 SSTORE POP PUSH1 0x2 CALLER PUSH1 0x0 SWAP1 DUP2 MSTORE PUSH1 0xA PUSH1 0x20 MSTORE PUSH1 0x40 SWAP1 KECCAK256 DUP1 SLOAD DUP5 SWAP1 DUP2 LT PUSH2 0xDCC JUMPI PUSH2 0xDCC PUSH2 0x3A84 JUMP JUMPDEST PUSH1 0x0 SWAP2 DUP3 MSTORE PUSH1 0x20 SWAP1 SWAP2 KECCAK256 PUSH1 0xB PUSH1 0xC SWAP1 SWAP3 MUL ADD ADD SLOAD PUSH1 0xFF AND PUSH1 0x3 DUP2 GT ISZERO PUSH2 0xDF4 JUMPI PUSH2 0xDF4 PUSH2 0x33A9 JUMP JUMPDEST EQ ISZERO PUSH2 0xEE4 JUMPI CALLER PUSH1 0x0 SWAP1 DUP2 MSTORE PUSH1 0xA PUSH1 0x20 MSTORE PUSH1 0x40 SWAP1 KECCAK256 DUP1 SLOAD DUP4 SWAP1 DUP2 LT PUSH2 0xE1B JUMPI PUSH2 0xE1B PUSH2 0x3A84 JUMP JUMPDEST SWAP1 PUSH1 0x0 MSTORE PUSH1 0x20 PUSH1 0x0 KECCAK256 SWAP1 PUSH1 0xC MUL ADD PUSH1 0x6 ADD SLOAD PUSH1 0x8 DUP4 DUP2 SLOAD DUP2 LT PUSH2 0xE40 JUMPI PUSH2 0xE40 PUSH2 0x3A84 JUMP JUMPDEST SWAP1 PUSH1 0x0 MSTORE PUSH1 0x20 PUSH1 0x0 KECCAK256 SWAP1 PUSH1 0xA MUL ADD PUSH1 0x9 ADD PUSH1 0x0 DUP3 DUP3 SLOAD PUSH2 0xE60 SWAP2 SWAP1 PUSH2 0x3AB0 JUMP JUMPDEST SWAP1 SWAP2 SSTORE POP POP CALLER PUSH1 0x0 SWAP1 DUP2 MSTORE PUSH1 0xA PUSH1 0x20 MSTORE PUSH1 0x40 SWAP1 KECCAK256 DUP1 SLOAD PUSH2 0xEE4 SWAP2 SWAP1 DUP5 SWAP1 DUP2 LT PUSH2 0xE8B JUMPI PUSH2 0xE8B PUSH2 0x3A84 JUMP JUMPDEST PUSH1 0x0 SWAP2 DUP3 MSTORE PUSH1 0x20 DUP1 DUP4 KECCAK256 PUSH1 0x4 PUSH1 0xC SWAP1 SWAP4 MUL ADD SWAP2 SWAP1 SWAP2 ADD SLOAD CALLER DUP4 MSTORE PUSH1 0xA SWAP1 SWAP2 MSTORE PUSH1 0x40 SWAP1 SWAP2 KECCAK256 DUP1 SLOAD PUSH1 0x1 PUSH1 0x1 PUSH1 0xA0 SHL SUB SWAP1 SWAP3 AND SWAP2 DUP6 SWAP1 DUP2 LT PUSH2 0xECD JUMPI PUSH2 0xECD PUSH2 0x3A84 JUMP JUMPDEST SWAP1 PUSH1 0x0 MSTORE PUSH1 0x20 PUSH1 0x0 KECCAK256 SWAP1 PUSH1 0xC MUL ADD PUSH1 0x7 ADD SLOAD PUSH2 0x30FF JUMP JUMPDEST POP PUSH1 0x1 SWAP2 SWAP1 POP JUMP JUMPDEST CALLER PUSH1 0x0 SWAP1 DUP2 MSTORE PUSH1 0xF PUSH1 0x20 SWAP1 DUP2 MSTORE PUSH1 0x40 DUP1 DUP4 KECCAK256 DUP6 DUP5 MSTORE SWAP1 SWAP2 MSTORE DUP2 KECCAK256 SLOAD PUSH1 0xFF AND PUSH2 0xF48 JUMPI PUSH1 0x40 MLOAD PUSH3 0x461BCD PUSH1 0xE5 SHL DUP2 MSTORE PUSH1 0x20 PUSH1 0x4 DUP3 ADD MSTORE PUSH1 0xF PUSH1 0x24 DUP3 ADD MSTORE PUSH15 0x13DC99195C881B9BDD08199BDD5B99 PUSH1 0x8A SHL PUSH1 0x44 DUP3 ADD MSTORE PUSH1 0x64 ADD PUSH2 0xB93 JUMP JUMPDEST PUSH1 0x0 JUMPDEST CALLER PUSH1 0x0 SWAP1 DUP2 MSTORE PUSH1 0xB PUSH1 0x20 MSTORE PUSH1 0x40 SWAP1 KECCAK256 SLOAD DUP2 LT ISZERO PUSH2 0x133D JUMPI CALLER PUSH1 0x0 SWAP1 DUP2 MSTORE PUSH1 0xB PUSH1 0x20 MSTORE PUSH1 0x40 SWAP1 KECCAK256 DUP1 SLOAD DUP6 SWAP2 SWAP1 DUP4 SWAP1 DUP2 LT PUSH2 0xF86 JUMPI PUSH2 0xF86 PUSH2 0x3A84 JUMP JUMPDEST SWAP1 PUSH1 0x0 MSTORE PUSH1 0x20 PUSH1 0x0 KECCAK256 SWAP1 PUSH1 0xC MUL ADD PUSH1 0x0 ADD SLOAD EQ ISZERO PUSH2 0x132B JUMPI CALLER PUSH1 0x0 SWAP1 DUP2 MSTORE PUSH1 0xB PUSH1 0x20 MSTORE PUSH1 0x40 SWAP1 KECCAK256 DUP1 SLOAD DUP5 SWAP2 SWAP1 DUP4 SWAP1 DUP2 LT PUSH2 0xFC2 JUMPI PUSH2 0xFC2 PUSH2 0x3A84 JUMP JUMPDEST PUSH1 0x0 SWAP2 DUP3 MSTORE PUSH1 0x20 SWAP1 SWAP2 KECCAK256 PUSH1 0xB PUSH1 0xC SWAP1 SWAP3 MUL ADD ADD DUP1 SLOAD PUSH1 0xFF NOT AND PUSH1 0x1 DUP4 PUSH1 0x3 DUP2 GT ISZERO PUSH2 0xFEF JUMPI PUSH2 0xFEF PUSH2 0x33A9 JUMP JUMPDEST MUL OR SWAP1 SSTORE POP CALLER PUSH1 0x0 SWAP1 DUP2 MSTORE PUSH1 0xB PUSH1 0x20 MSTORE PUSH1 0x40 DUP2 KECCAK256 DUP1 SLOAD DUP6 SWAP3 PUSH1 0xA SWAP3 SWAP1 SWAP2 DUP6 SWAP1 DUP2 LT PUSH2 0x101C JUMPI PUSH2 0x101C PUSH2 0x3A84 JUMP JUMPDEST PUSH1 0x0 SWAP2 DUP3 MSTORE PUSH1 0x20 DUP1 DUP4 KECCAK256 PUSH1 0x4 PUSH1 0xC SWAP1 SWAP4 MUL ADD SWAP2 SWAP1 SWAP2 ADD SLOAD PUSH1 0x1 PUSH1 0x1 PUSH1 0xA0 SHL SUB AND DUP4 MSTORE DUP3 ADD SWAP3 SWAP1 SWAP3 MSTORE PUSH1 0x40 ADD SWAP1 KECCAK256 DUP1 SLOAD DUP4 SWAP1 DUP2 LT PUSH2 0x105B JUMPI PUSH2 0x105B PUSH2 0x3A84 JUMP JUMPDEST PUSH1 0x0 SWAP2 DUP3 MSTORE PUSH1 0x20 SWAP1 SWAP2 KECCAK256 PUSH1 0xB PUSH1 0xC SWAP1 SWAP3 MUL ADD ADD DUP1 SLOAD PUSH1 0xFF NOT AND PUSH1 0x1 DUP4 PUSH1 0x3 DUP2 GT ISZERO PUSH2 0x1088 JUMPI PUSH2 0x1088 PUSH2 0x33A9 JUMP JUMPDEST MUL OR SWAP1 SSTORE POP PUSH1 0x1 DUP4 PUSH1 0x3 DUP2 GT ISZERO PUSH2 0x10A1 JUMPI PUSH2 0x10A1 PUSH2 0x33A9 JUMP JUMPDEST EQ ISZERO PUSH2 0x132B JUMPI CALLER PUSH1 0x0 SWAP1 DUP2 MSTORE PUSH1 0xB PUSH1 0x20 MSTORE PUSH1 0x40 SWAP1 KECCAK256 DUP1 SLOAD PUSH2 0x110F SWAP2 SWAP1 DUP4 SWAP1 DUP2 LT PUSH2 0x10CD JUMPI PUSH2 0x10CD PUSH2 0x3A84 JUMP JUMPDEST PUSH1 0x0 SWAP2 DUP3 MSTORE PUSH1 0x20 DUP1 DUP4 KECCAK256 PUSH1 0x5 PUSH1 0xC SWAP1 SWAP4 MUL ADD SWAP2 SWAP1 SWAP2 ADD SLOAD CALLER DUP4 MSTORE PUSH1 0xB SWAP1 SWAP2 MSTORE PUSH1 0x40 SWAP1 SWAP2 KECCAK256 DUP1 SLOAD PUSH1 0x1 PUSH1 0x1 PUSH1 0xA0 SHL SUB SWAP1 SWAP3 AND SWAP2 DUP5 SWAP1 DUP2 LT PUSH2 0xECD JUMPI PUSH2 0xECD PUSH2 0x3A84 JUMP JUMPDEST CALLER PUSH1 0x0 SWAP1 DUP2 MSTORE PUSH1 0xB PUSH1 0x20 MSTORE PUSH1 0x40 SWAP1 KECCAK256 DUP1 SLOAD DUP3 SWAP1 DUP2 LT PUSH2 0x1130 JUMPI PUSH2 0x1130 PUSH2 0x3A84 JUMP JUMPDEST SWAP1 PUSH1 0x0 MSTORE PUSH1 0x20 PUSH1 0x0 KECCAK256 SWAP1 PUSH1 0xC MUL ADD PUSH1 0x7 ADD SLOAD PUSH1 0x1 PUSH1 0x5 ADD PUSH1 0x0 DUP3 DUP3 SLOAD PUSH2 0x1156 SWAP2 SWAP1 PUSH2 0x3AC8 JUMP JUMPDEST SWAP1 SWAP2 SSTORE POP POP CALLER PUSH1 0x0 SWAP1 DUP2 MSTORE PUSH1 0xB PUSH1 0x20 MSTORE PUSH1 0x40 SWAP1 KECCAK256 DUP1 SLOAD DUP3 SWAP1 DUP2 LT PUSH2 0x117C JUMPI PUSH2 0x117C PUSH2 0x3A84 JUMP JUMPDEST PUSH1 0x0 SWAP2 DUP3 MSTORE PUSH1 0x20 DUP1 DUP4 KECCAK256 PUSH1 0xC SWAP3 DUP4 MUL ADD PUSH1 0x7 ADD SLOAD CALLER DUP5 MSTORE SWAP2 SWAP1 MSTORE PUSH1 0x40 DUP3 KECCAK256 PUSH1 0x4 ADD DUP1 SLOAD SWAP2 SWAP3 SWAP1 SWAP2 PUSH2 0x11AE SWAP1 DUP5 SWAP1 PUSH2 0x3AB0 JUMP JUMPDEST SWAP1 SWAP2 SSTORE POP POP CALLER PUSH1 0x0 SWAP1 DUP2 MSTORE PUSH1 0xC PUSH1 0x20 MSTORE PUSH1 0x40 DUP2 KECCAK256 PUSH1 0x3 ADD DUP1 SLOAD SWAP2 PUSH2 0x11D1 DUP4 PUSH2 0x3ADF JUMP JUMPDEST SWAP1 SWAP2 SSTORE POP POP PUSH1 0x4 DUP1 SLOAD SWAP1 PUSH1 0x0 PUSH2 0x11E6 DUP4 PUSH2 0x3ADF JUMP JUMPDEST SWAP1 SWAP2 SSTORE POP POP PUSH1 0x0 DUP5 DUP2 MSTORE PUSH1 0xD PUSH1 0x20 SWAP1 DUP2 MSTORE PUSH1 0x40 DUP1 DUP4 KECCAK256 DUP2 MLOAD PUSH1 0x80 DUP2 ADD DUP4 MSTORE CALLER DUP6 MSTORE PUSH1 0xB SWAP1 SWAP4 MSTORE SWAP3 KECCAK256 DUP1 SLOAD DUP3 SWAP2 SWAP1 DUP6 SWAP1 DUP2 LT PUSH2 0x1223 JUMPI PUSH2 0x1223 PUSH2 0x3A84 JUMP JUMPDEST PUSH1 0x0 SWAP2 DUP3 MSTORE PUSH1 0x20 DUP1 DUP4 KECCAK256 PUSH1 0x4 PUSH1 0xC SWAP1 SWAP4 MUL ADD SWAP2 SWAP1 SWAP2 ADD SLOAD PUSH1 0x1 PUSH1 0x1 PUSH1 0xA0 SHL SUB AND DUP4 MSTORE CALLER DUP3 MSTORE PUSH1 0xB DUP2 MSTORE PUSH1 0x40 SWAP1 SWAP2 KECCAK256 DUP1 SLOAD SWAP3 SWAP1 SWAP2 ADD SWAP2 DUP6 SWAP1 DUP2 LT PUSH2 0x1268 JUMPI PUSH2 0x1268 PUSH2 0x3A84 JUMP JUMPDEST SWAP1 PUSH1 0x0 MSTORE PUSH1 0x20 PUSH1 0x0 KECCAK256 SWAP1 PUSH1 0xC MUL ADD PUSH1 0x7 ADD SLOAD DUP2 MSTORE PUSH1 0x20 ADD PUSH1 0xB PUSH1 0x0 CALLER PUSH1 0x1 PUSH1 0x1 PUSH1 0xA0 SHL SUB AND PUSH1 0x1 PUSH1 0x1 PUSH1 0xA0 SHL SUB AND DUP2 MSTORE PUSH1 0x20 ADD SWAP1 DUP2 MSTORE PUSH1 0x20 ADD PUSH1 0x0 KECCAK256 DUP5 DUP2 SLOAD DUP2 LT PUSH2 0x12B5 JUMPI PUSH2 0x12B5 PUSH2 0x3A84 JUMP JUMPDEST PUSH1 0x0 SWAP2 DUP3 MSTORE PUSH1 0x20 DUP1 DUP4 KECCAK256 PUSH1 0xC SWAP3 SWAP1 SWAP3 MUL SWAP1 SWAP2 ADD PUSH1 0x6 ADD SLOAD DUP4 MSTORE TIMESTAMP SWAP3 DUP2 ADD SWAP3 SWAP1 SWAP3 MSTORE DUP4 SLOAD PUSH1 0x1 DUP1 DUP3 ADD DUP7 SSTORE SWAP5 DUP3 MSTORE SWAP1 DUP3 SWAP1 KECCAK256 DUP4 MLOAD PUSH1 0x4 SWAP1 SWAP3 MUL ADD DUP1 SLOAD PUSH1 0x1 PUSH1 0x1 PUSH1 0xA0 SHL SUB NOT AND PUSH1 0x1 PUSH1 0x1 PUSH1 0xA0 SHL SUB SWAP1 SWAP3 AND SWAP2 SWAP1 SWAP2 OR DUP2 SSTORE SWAP1 DUP3 ADD MLOAD SWAP3 DUP2 ADD SWAP3 SWAP1 SWAP3 SSTORE PUSH1 0x40 DUP2 ADD MLOAD PUSH1 0x2 DUP4 ADD SSTORE PUSH1 0x60 ADD MLOAD PUSH1 0x3 SWAP1 SWAP2 ADD SSTORE JUMPDEST DUP1 PUSH2 0x1335 DUP2 PUSH2 0x3ADF JUMP JUMPDEST SWAP2 POP POP PUSH2 0xF4B JUMP JUMPDEST POP PUSH1 0x0 JUMPDEST CALLER PUSH1 0x0 SWAP1 DUP2 MSTORE PUSH1 0xA PUSH1 0x20 MSTORE PUSH1 0x40 SWAP1 KECCAK256 SLOAD DUP2 LT ISZERO PUSH2 0x1459 JUMPI CALLER PUSH1 0x0 SWAP1 DUP2 MSTORE PUSH1 0xA PUSH1 0x20 MSTORE PUSH1 0x40 SWAP1 KECCAK256 DUP1 SLOAD DUP6 SWAP2 SWAP1 DUP4 SWAP1 DUP2 LT PUSH2 0x137C JUMPI PUSH2 0x137C PUSH2 0x3A84 JUMP JUMPDEST SWAP1 PUSH1 0x0 MSTORE PUSH1 0x20 PUSH1 0x0 KECCAK256 SWAP1 PUSH1 0xC MUL ADD PUSH1 0x0 ADD SLOAD EQ ISZERO PUSH2 0x13EF JUMPI CALLER PUSH1 0x0 SWAP1 DUP2 MSTORE PUSH1 0xA PUSH1 0x20 MSTORE PUSH1 0x40 SWAP1 KECCAK256 DUP1 SLOAD DUP5 SWAP2 SWAP1 DUP4 SWAP1 DUP2 LT PUSH2 0x13B8 JUMPI PUSH2 0x13B8 PUSH2 0x3A84 JUMP JUMPDEST PUSH1 0x0 SWAP2 DUP3 MSTORE PUSH1 0x20 SWAP1 SWAP2 KECCAK256 PUSH1 0xB PUSH1 0xC SWAP1 SWAP3 MUL ADD ADD DUP1 SLOAD PUSH1 0xFF NOT AND PUSH1 0x1 DUP4 PUSH1 0x3 DUP2 GT ISZERO PUSH2 0x13E5 JUMPI PUSH2 0x13E5 PUSH2 0x33A9 JUMP JUMPDEST MUL OR SWAP1 SSTORE POP PUSH2 0x1447 JUMP JUMPDEST PUSH1 0x40 MLOAD PUSH3 0x461BCD PUSH1 0xE5 SHL DUP2 MSTORE PUSH1 0x20 PUSH1 0x4 DUP3 ADD MSTORE PUSH1 0x27 PUSH1 0x24 DUP3 ADD MSTORE PUSH32 0x42757965723A204F72646572206E6F7420666F756E6420776974682070726F76 PUSH1 0x44 DUP3 ADD MSTORE PUSH7 0x1A591959081259 PUSH1 0xCA SHL PUSH1 0x64 DUP3 ADD MSTORE PUSH1 0x84 ADD PUSH2 0xB93 JUMP JUMPDEST DUP1 PUSH2 0x1451 DUP2 PUSH2 0x3ADF JUMP JUMPDEST SWAP2 POP POP PUSH2 0x1341 JUMP JUMPDEST POP PUSH1 0x1 SWAP4 SWAP3 POP POP POP JUMP JUMPDEST PUSH1 0x0 DUP2 DUP2 MSTORE PUSH1 0xE PUSH1 0x20 MSTORE PUSH1 0x40 SWAP1 KECCAK256 SLOAD PUSH1 0x60 SWAP1 PUSH1 0xFF AND PUSH2 0x14BD JUMPI PUSH1 0x40 MLOAD PUSH3 0x461BCD PUSH1 0xE5 SHL DUP2 MSTORE PUSH1 0x20 PUSH1 0x4 DUP3 ADD MSTORE PUSH1 0x16 PUSH1 0x24 DUP3 ADD MSTORE PUSH22 0x141C9BD91D58DD08191BD95CC81B9BDD08195E1A5CDD PUSH1 0x52 SHL PUSH1 0x44 DUP3 ADD MSTORE PUSH1 0x64 ADD PUSH2 0xB93 JUMP JUMPDEST PUSH1 0x0 DUP3 DUP2 MSTORE PUSH1 0xD PUSH1 0x20 SWAP1 DUP2 MSTORE PUSH1 0x40 DUP1 DUP4 KECCAK256 DUP1 SLOAD DUP3 MLOAD DUP2 DUP6 MUL DUP2 ADD DUP6 ADD SWAP1 SWAP4 MSTORE DUP1 DUP4 MSTORE SWAP2 SWAP4 SWAP1 SWAP3 DUP5 ADD JUMPDEST DUP3 DUP3 LT ISZERO PUSH2 0x1543 JUMPI PUSH1 0x0 DUP5 DUP2 MSTORE PUSH1 0x20 SWAP1 DUP2 SWAP1 KECCAK256 PUSH1 0x40 DUP1 MLOAD PUSH1 0x80 DUP2 ADD DUP3 MSTORE PUSH1 0x4 DUP7 MUL SWAP1 SWAP3 ADD DUP1 SLOAD PUSH1 0x1 PUSH1 0x1 PUSH1 0xA0 SHL SUB AND DUP4 MSTORE PUSH1 0x1 DUP1 DUP3 ADD SLOAD DUP5 DUP7 ADD MSTORE PUSH1 0x2 DUP3 ADD SLOAD SWAP3 DUP5 ADD SWAP3 SWAP1 SWAP3 MSTORE PUSH1 0x3 ADD SLOAD PUSH1 0x60 DUP4 ADD MSTORE SWAP1 DUP4 MSTORE SWAP1 SWAP3 ADD SWAP2 ADD PUSH2 0x14E6 JUMP JUMPDEST POP POP POP POP SWAP1 POP SWAP2 SWAP1 POP JUMP JUMPDEST PUSH2 0x1556 PUSH2 0x31E2 JUMP JUMPDEST PUSH1 0x0 DUP3 DUP2 MSTORE PUSH1 0xE PUSH1 0x20 MSTORE PUSH1 0x40 SWAP1 KECCAK256 SLOAD PUSH1 0xFF AND PUSH2 0x15A8 JUMPI PUSH1 0x40 MLOAD PUSH3 0x461BCD PUSH1 0xE5 SHL DUP2 MSTORE PUSH1 0x20 PUSH1 0x4 DUP3 ADD MSTORE PUSH1 0x11 PUSH1 0x24 DUP3 ADD MSTORE PUSH17 0x141C9BD91D58DD081B9BDD08199BDD5B99 PUSH1 0x7A SHL PUSH1 0x44 DUP3 ADD MSTORE PUSH1 0x64 ADD PUSH2 0xB93 JUMP JUMPDEST PUSH1 0x8 DUP3 DUP2 SLOAD DUP2 LT PUSH2 0x15BB JUMPI PUSH2 0x15BB PUSH2 0x3A84 JUMP JUMPDEST SWAP1 PUSH1 0x0 MSTORE PUSH1 0x20 PUSH1 0x0 KECCAK256 SWAP1 PUSH1 0xA MUL ADD PUSH1 0x40 MLOAD DUP1 PUSH2 0x140 ADD PUSH1 0x40 MSTORE SWAP1 DUP2 PUSH1 0x0 DUP3 ADD SLOAD DUP2 MSTORE PUSH1 0x20 ADD PUSH1 0x1 DUP3 ADD DUP1 SLOAD PUSH2 0x15EF SWAP1 PUSH2 0x3A4F JUMP JUMPDEST DUP1 PUSH1 0x1F ADD PUSH1 0x20 DUP1 SWAP2 DIV MUL PUSH1 0x20 ADD PUSH1 0x40 MLOAD SWAP1 DUP2 ADD PUSH1 0x40 MSTORE DUP1 SWAP3 SWAP2 SWAP1 DUP2 DUP2 MSTORE PUSH1 0x20 ADD DUP3 DUP1 SLOAD PUSH2 0x161B SWAP1 PUSH2 0x3A4F JUMP JUMPDEST DUP1 ISZERO PUSH2 0x1668 JUMPI DUP1 PUSH1 0x1F LT PUSH2 0x163D JUMPI PUSH2 0x100 DUP1 DUP4 SLOAD DIV MUL DUP4 MSTORE SWAP2 PUSH1 0x20 ADD SWAP2 PUSH2 0x1668 JUMP JUMPDEST DUP3 ADD SWAP2 SWAP1 PUSH1 0x0 MSTORE PUSH1 0x20 PUSH1 0x0 KECCAK256 SWAP1 JUMPDEST DUP2 SLOAD DUP2 MSTORE SWAP1 PUSH1 0x1 ADD SWAP1 PUSH1 0x20 ADD DUP1 DUP4 GT PUSH2 0x164B JUMPI DUP3 SWAP1 SUB PUSH1 0x1F AND DUP3 ADD SWAP2 JUMPDEST POP POP POP SWAP2 DUP4 MSTORE POP POP PUSH1 0x2 DUP3 ADD SLOAD PUSH1 0x1 PUSH1 0x1 PUSH1 0xA0 SHL SUB AND PUSH1 0x20 DUP3 ADD MSTORE PUSH1 0x3 DUP3 ADD DUP1 SLOAD PUSH1 0x40 SWAP1 SWAP3 ADD SWAP2 PUSH2 0x1698 SWAP1 PUSH2 0x3A4F JUMP JUMPDEST DUP1 PUSH1 0x1F ADD PUSH1 0x20 DUP1 SWAP2 DIV MUL PUSH1 0x20 ADD PUSH1 0x40 MLOAD SWAP1 DUP2 ADD PUSH1 0x40 MSTORE DUP1 SWAP3 SWAP2 SWAP1 DUP2 DUP2 MSTORE PUSH1 0x20 ADD DUP3 DUP1 SLOAD PUSH2 0x16C4 SWAP1 PUSH2 0x3A4F JUMP JUMPDEST DUP1 ISZERO PUSH2 0x1711 JUMPI DUP1 PUSH1 0x1F LT PUSH2 0x16E6 JUMPI PUSH2 0x100 DUP1 DUP4 SLOAD DIV MUL DUP4 MSTORE SWAP2 PUSH1 0x20 ADD SWAP2 PUSH2 0x1711 JUMP JUMPDEST DUP3 ADD SWAP2 SWAP1 PUSH1 0x0 MSTORE PUSH1 0x20 PUSH1 0x0 KECCAK256 SWAP1 JUMPDEST DUP2 SLOAD DUP2 MSTORE SWAP1 PUSH1 0x1 ADD SWAP1 PUSH1 0x20 ADD DUP1 DUP4 GT PUSH2 0x16F4 JUMPI DUP3 SWAP1 SUB PUSH1 0x1F AND DUP3 ADD SWAP2 JUMPDEST POP POP POP POP POP DUP2 MSTORE PUSH1 0x20 ADD PUSH1 0x4 DUP3 ADD DUP1 SLOAD PUSH2 0x172A SWAP1 PUSH2 0x3A4F JUMP JUMPDEST DUP1 PUSH1 0x1F ADD PUSH1 0x20 DUP1 SWAP2 DIV MUL PUSH1 0x20 ADD PUSH1 0x40 MLOAD SWAP1 DUP2 ADD PUSH1 0x40 MSTORE DUP1 SWAP3 SWAP2 SWAP1 DUP2 DUP2 MSTORE PUSH1 0x20 ADD DUP3 DUP1 SLOAD PUSH2 0x1756 SWAP1 PUSH2 0x3A4F JUMP JUMPDEST DUP1 ISZERO PUSH2 0x17A3 JUMPI DUP1 PUSH1 0x1F LT PUSH2 0x1778 JUMPI PUSH2 0x100 DUP1 DUP4 SLOAD DIV MUL DUP4 MSTORE SWAP2 PUSH1 0x20 ADD SWAP2 PUSH2 0x17A3 JUMP JUMPDEST DUP3 ADD SWAP2 SWAP1 PUSH1 0x0 MSTORE PUSH1 0x20 PUSH1 0x0 KECCAK256 SWAP1 JUMPDEST DUP2 SLOAD DUP2 MSTORE SWAP1 PUSH1 0x1 ADD SWAP1 PUSH1 0x20 ADD DUP1 DUP4 GT PUSH2 0x1786 JUMPI DUP3 SWAP1 SUB PUSH1 0x1F AND DUP3 ADD SWAP2 JUMPDEST POP POP POP POP POP DUP2 MSTORE PUSH1 0x20 ADD PUSH1 0x5 DUP3 ADD DUP1 SLOAD PUSH2 0x17BC SWAP1 PUSH2 0x3A4F JUMP JUMPDEST DUP1 PUSH1 0x1F ADD PUSH1 0x20 DUP1 SWAP2 DIV MUL PUSH1 0x20 ADD PUSH1 0x40 MLOAD SWAP1 DUP2 ADD PUSH1 0x40 MSTORE DUP1 SWAP3 SWAP2 SWAP1 DUP2 DUP2 MSTORE PUSH1 0x20 ADD DUP3 DUP1 SLOAD PUSH2 0x17E8 SWAP1 PUSH2 0x3A4F JUMP JUMPDEST DUP1 ISZERO PUSH2 0x1835 JUMPI DUP1 PUSH1 0x1F LT PUSH2 0x180A JUMPI PUSH2 0x100 DUP1 DUP4 SLOAD DIV MUL DUP4 MSTORE SWAP2 PUSH1 0x20 ADD SWAP2 PUSH2 0x1835 JUMP JUMPDEST DUP3 ADD SWAP2 SWAP1 PUSH1 0x0 MSTORE PUSH1 0x20 PUSH1 0x0 KECCAK256 SWAP1 JUMPDEST DUP2 SLOAD DUP2 MSTORE SWAP1 PUSH1 0x1 ADD SWAP1 PUSH1 0x20 ADD DUP1 DUP4 GT PUSH2 0x1818 JUMPI DUP3 SWAP1 SUB PUSH1 0x1F AND DUP3 ADD SWAP2 JUMPDEST POP POP POP SWAP2 DUP4 MSTORE POP POP PUSH1 0x6 DUP3 ADD SLOAD PUSH1 0x20 DUP3 ADD MSTORE PUSH1 0x7 DUP3 ADD SLOAD PUSH1 0x40 DUP3 ADD MSTORE PUSH1 0x8 DUP3 ADD SLOAD PUSH1 0xFF AND ISZERO ISZERO PUSH1 0x60 DUP3 ADD MSTORE PUSH1 0x9 SWAP1 SWAP2 ADD SLOAD PUSH1 0x80 SWAP1 SWAP2 ADD MSTORE SWAP3 SWAP2 POP POP JUMP JUMPDEST PUSH1 0x0 CALLER PUSH1 0x1 PUSH1 0x1 PUSH1 0xA0 SHL SUB AND PUSH1 0x8 DUP9 DUP2 SLOAD DUP2 LT PUSH2 0x1891 JUMPI PUSH2 0x1891 PUSH2 0x3A84 JUMP JUMPDEST PUSH1 0x0 SWAP2 DUP3 MSTORE PUSH1 0x20 SWAP1 SWAP2 KECCAK256 PUSH1 0x2 PUSH1 0xA SWAP1 SWAP3 MUL ADD ADD SLOAD PUSH1 0x1 PUSH1 0x1 PUSH1 0xA0 SHL SUB AND EQ PUSH2 0x18F2 JUMPI PUSH1 0x40 MLOAD PUSH3 0x461BCD PUSH1 0xE5 SHL DUP2 MSTORE PUSH1 0x20 PUSH1 0x4 DUP3 ADD MSTORE PUSH1 0x14 PUSH1 0x24 DUP3 ADD MSTORE PUSH20 0x155B985D5D1A1BDC9A5E994814195C9CDBDB995B PUSH1 0x62 SHL PUSH1 0x44 DUP3 ADD MSTORE PUSH1 0x64 ADD PUSH2 0xB93 JUMP JUMPDEST PUSH1 0x0 DUP7 MLOAD GT PUSH2 0x193A JUMPI PUSH1 0x40 MLOAD PUSH3 0x461BCD PUSH1 0xE5 SHL DUP2 MSTORE PUSH1 0x20 PUSH1 0x4 DUP3 ADD MSTORE PUSH1 0x14 PUSH1 0x24 DUP3 ADD MSTORE PUSH20 0x6E616D652063616E6E6F7420626520656D707479 PUSH1 0x60 SHL PUSH1 0x44 DUP3 ADD MSTORE PUSH1 0x64 ADD PUSH2 0xB93 JUMP JUMPDEST PUSH1 0x0 DUP6 MLOAD GT PUSH2 0x198B JUMPI PUSH1 0x40 MLOAD PUSH3 0x461BCD PUSH1 0xE5 SHL DUP2 MSTORE PUSH1 0x20 PUSH1 0x4 DUP3 ADD MSTORE PUSH1 0x1B PUSH1 0x24 DUP3 ADD MSTORE PUSH32 0x6465736372697074696F6E2063616E6E6F7420626520656D7074790000000000 PUSH1 0x44 DUP3 ADD MSTORE PUSH1 0x64 ADD PUSH2 0xB93 JUMP JUMPDEST PUSH1 0x0 DUP4 GT PUSH2 0x19D2 JUMPI PUSH1 0x40 MLOAD PUSH3 0x461BCD PUSH1 0xE5 SHL DUP2 MSTORE PUSH1 0x20 PUSH1 0x4 DUP3 ADD MSTORE PUSH1 0x14 PUSH1 0x24 DUP3 ADD MSTORE PUSH20 0x70726963652063616E6E6F74206265207A65726F PUSH1 0x60 SHL PUSH1 0x44 DUP3 ADD MSTORE PUSH1 0x64 ADD PUSH2 0xB93 JUMP JUMPDEST PUSH1 0x0 DUP3 GT PUSH2 0x1A19 JUMPI PUSH1 0x40 MLOAD PUSH3 0x461BCD PUSH1 0xE5 SHL DUP2 MSTORE PUSH1 0x20 PUSH1 0x4 DUP3 ADD MSTORE PUSH1 0x14 PUSH1 0x24 DUP3 ADD MSTORE PUSH20 0x73746F636B2063616E6E6F74206265207A65726F PUSH1 0x60 SHL PUSH1 0x44 DUP3 ADD MSTORE PUSH1 0x64 ADD PUSH2 0xB93 JUMP JUMPDEST PUSH2 0x1A21 PUSH2 0x31E2 JUMP JUMPDEST CALLER PUSH1 0x40 DUP3 ADD MSTORE PUSH1 0x60 DUP2 ADD DUP8 SWAP1 MSTORE PUSH1 0x80 DUP2 ADD DUP6 SWAP1 MSTORE PUSH1 0xA0 DUP2 ADD DUP7 SWAP1 MSTORE PUSH1 0xC0 DUP2 ADD DUP5 SWAP1 MSTORE PUSH2 0x120 DUP2 ADD DUP4 SWAP1 MSTORE PUSH1 0x8 DUP1 SLOAD DUP3 SWAP2 SWAP1 DUP11 SWAP1 DUP2 LT PUSH2 0x1A62 JUMPI PUSH2 0x1A62 PUSH2 0x3A84 JUMP JUMPDEST SWAP1 PUSH1 0x0 MSTORE PUSH1 0x20 PUSH1 0x0 KECCAK256 SWAP1 PUSH1 0xA MUL ADD PUSH1 0x0 DUP3 ADD MLOAD DUP2 PUSH1 0x0 ADD SSTORE PUSH1 0x20 DUP3 ADD MLOAD DUP2 PUSH1 0x1 ADD SWAP1 DUP1 MLOAD SWAP1 PUSH1 0x20 ADD SWAP1 PUSH2 0x1A96 SWAP3 SWAP2 SWAP1 PUSH2 0x3240 JUMP JUMPDEST POP PUSH1 0x40 DUP3 ADD MLOAD PUSH1 0x2 DUP3 ADD DUP1 SLOAD PUSH1 0x1 PUSH1 0x1 PUSH1 0xA0 SHL SUB NOT AND PUSH1 0x1 PUSH1 0x1 PUSH1 0xA0 SHL SUB SWAP1 SWAP3 AND SWAP2 SWAP1 SWAP2 OR SWAP1 SSTORE PUSH1 0x60 DUP3 ADD MLOAD DUP1 MLOAD PUSH2 0x1AD8 SWAP2 PUSH1 0x3 DUP5 ADD SWAP2 PUSH1 0x20 SWAP1 SWAP2 ADD SWAP1 PUSH2 0x3240 JUMP JUMPDEST POP PUSH1 0x80 DUP3 ADD MLOAD DUP1 MLOAD PUSH2 0x1AF4 SWAP2 PUSH1 0x4 DUP5 ADD SWAP2 PUSH1 0x20 SWAP1 SWAP2 ADD SWAP1 PUSH2 0x3240 JUMP JUMPDEST POP PUSH1 0xA0 DUP3 ADD MLOAD DUP1 MLOAD PUSH2 0x1B10 SWAP2 PUSH1 0x5 DUP5 ADD SWAP2 PUSH1 0x20 SWAP1 SWAP2 ADD SWAP1 PUSH2 0x3240 JUMP JUMPDEST POP PUSH1 0xC0 DUP3 ADD MLOAD PUSH1 0x6 DUP3 ADD SSTORE PUSH1 0xE0 DUP3 ADD MLOAD PUSH1 0x7 DUP3 ADD SSTORE PUSH2 0x100 DUP3 ADD MLOAD PUSH1 0x8 DUP3 ADD DUP1 SLOAD PUSH1 0xFF NOT AND SWAP2 ISZERO ISZERO SWAP2 SWAP1 SWAP2 OR SWAP1 SSTORE PUSH2 0x120 SWAP1 SWAP2 ADD MLOAD PUSH1 0x9 SWAP1 SWAP2 ADD SSTORE POP PUSH1 0x1 SWAP8 SWAP7 POP POP POP POP POP POP POP JUMP JUMPDEST PUSH1 0x60 PUSH1 0x8 DUP1 SLOAD DUP1 PUSH1 0x20 MUL PUSH1 0x20 ADD PUSH1 0x40 MLOAD SWAP1 DUP2 ADD PUSH1 0x40 MSTORE DUP1 SWAP3 SWAP2 SWAP1 DUP2 DUP2 MSTORE PUSH1 0x20 ADD PUSH1 0x0 SWAP1 JUMPDEST DUP3 DUP3 LT ISZERO PUSH2 0x781 JUMPI DUP4 DUP3 SWAP1 PUSH1 0x0 MSTORE PUSH1 0x20 PUSH1 0x0 KECCAK256 SWAP1 PUSH1 0xA MUL ADD PUSH1 0x40 MLOAD DUP1 PUSH2 0x140 ADD PUSH1 0x40 MSTORE SWAP1 DUP2 PUSH1 0x0 DUP3 ADD SLOAD DUP2 MSTORE PUSH1 0x20 ADD PUSH1 0x1 DUP3 ADD DUP1 SLOAD PUSH2 0x1BBB SWAP1 PUSH2 0x3A4F JUMP JUMPDEST DUP1 PUSH1 0x1F ADD PUSH1 0x20 DUP1 SWAP2 DIV MUL PUSH1 0x20 ADD PUSH1 0x40 MLOAD SWAP1 DUP2 ADD PUSH1 0x40 MSTORE DUP1 SWAP3 SWAP2 SWAP1 DUP2 DUP2 MSTORE PUSH1 0x20 ADD DUP3 DUP1 SLOAD PUSH2 0x1BE7 SWAP1 PUSH2 0x3A4F JUMP JUMPDEST DUP1 ISZERO PUSH2 0x1C34 JUMPI DUP1 PUSH1 0x1F LT PUSH2 0x1C09 JUMPI PUSH2 0x100 DUP1 DUP4 SLOAD DIV MUL DUP4 MSTORE SWAP2 PUSH1 0x20 ADD SWAP2 PUSH2 0x1C34 JUMP JUMPDEST DUP3 ADD SWAP2 SWAP1 PUSH1 0x0 MSTORE PUSH1 0x20 PUSH1 0x0 KECCAK256 SWAP1 JUMPDEST DUP2 SLOAD DUP2 MSTORE SWAP1 PUSH1 0x1 ADD SWAP1 PUSH1 0x20 ADD DUP1 DUP4 GT PUSH2 0x1C17 JUMPI DUP3 SWAP1 SUB PUSH1 0x1F AND DUP3 ADD SWAP2 JUMPDEST POP POP POP SWAP2 DUP4 MSTORE POP POP PUSH1 0x2 DUP3 ADD SLOAD PUSH1 0x1 PUSH1 0x1 PUSH1 0xA0 SHL SUB AND PUSH1 0x20 DUP3 ADD MSTORE PUSH1 0x3 DUP3 ADD DUP1 SLOAD PUSH1 0x40 SWAP1 SWAP3 ADD SWAP2 PUSH2 0x1C64 SWAP1 PUSH2 0x3A4F JUMP JUMPDEST DUP1 PUSH1 0x1F ADD PUSH1 0x20 DUP1 SWAP2 DIV MUL PUSH1 0x20 ADD PUSH1 0x40 MLOAD SWAP1 DUP2 ADD PUSH1 0x40 MSTORE DUP1 SWAP3 SWAP2 SWAP1 DUP2 DUP2 MSTORE PUSH1 0x20 ADD DUP3 DUP1 SLOAD PUSH2 0x1C90 SWAP1 PUSH2 0x3A4F JUMP JUMPDEST DUP1 ISZERO PUSH2 0x1CDD JUMPI DUP1 PUSH1 0x1F LT PUSH2 0x1CB2 JUMPI PUSH2 0x100 DUP1 DUP4 SLOAD DIV MUL DUP4 MSTORE SWAP2 PUSH1 0x20 ADD SWAP2 PUSH2 0x1CDD JUMP JUMPDEST DUP3 ADD SWAP2 SWAP1 PUSH1 0x0 MSTORE PUSH1 0x20 PUSH1 0x0 KECCAK256 SWAP1 JUMPDEST DUP2 SLOAD DUP2 MSTORE SWAP1 PUSH1 0x1 ADD SWAP1 PUSH1 0x20 ADD DUP1 DUP4 GT PUSH2 0x1CC0 JUMPI DUP3 SWAP1 SUB PUSH1 0x1F AND DUP3 ADD SWAP2 JUMPDEST POP POP POP POP POP DUP2 MSTORE PUSH1 0x20 ADD PUSH1 0x4 DUP3 ADD DUP1 SLOAD PUSH2 0x1CF6 SWAP1 PUSH2 0x3A4F JUMP JUMPDEST DUP1 PUSH1 0x1F ADD PUSH1 0x20 DUP1 SWAP2 DIV MUL PUSH1 0x20 ADD PUSH1 0x40 MLOAD SWAP1 DUP2 ADD PUSH1 0x40 MSTORE DUP1 SWAP3 SWAP2 SWAP1 DUP2 DUP2 MSTORE PUSH1 0x20 ADD DUP3 DUP1 SLOAD PUSH2 0x1D22 SWAP1 PUSH2 0x3A4F JUMP JUMPDEST DUP1 ISZERO PUSH2 0x1D6F JUMPI DUP1 PUSH1 0x1F LT PUSH2 0x1D44 JUMPI PUSH2 0x100 DUP1 DUP4 SLOAD DIV MUL DUP4 MSTORE SWAP2 PUSH1 0x20 ADD SWAP2 PUSH2 0x1D6F JUMP JUMPDEST DUP3 ADD SWAP2 SWAP1 PUSH1 0x0 MSTORE PUSH1 0x20 PUSH1 0x0 KECCAK256 SWAP1 JUMPDEST DUP2 SLOAD DUP2 MSTORE SWAP1 PUSH1 0x1 ADD SWAP1 PUSH1 0x20 ADD DUP1 DUP4 GT PUSH2 0x1D52 JUMPI DUP3 SWAP1 SUB PUSH1 0x1F AND DUP3 ADD SWAP2 JUMPDEST POP POP POP POP POP DUP2 MSTORE PUSH1 0x20 ADD PUSH1 0x5 DUP3 ADD DUP1 SLOAD PUSH2 0x1D88 SWAP1 PUSH2 0x3A4F JUMP JUMPDEST DUP1 PUSH1 0x1F ADD PUSH1 0x20 DUP1 SWAP2 DIV MUL PUSH1 0x20 ADD PUSH1 0x40 MLOAD SWAP1 DUP2 ADD PUSH1 0x40 MSTORE DUP1 SWAP3 SWAP2 SWAP1 DUP2 DUP2 MSTORE PUSH1 0x20 ADD DUP3 DUP1 SLOAD PUSH2 0x1DB4 SWAP1 PUSH2 0x3A4F JUMP JUMPDEST DUP1 ISZERO PUSH2 0x1E01 JUMPI DUP1 PUSH1 0x1F LT PUSH2 0x1DD6 JUMPI PUSH2 0x100 DUP1 DUP4 SLOAD DIV MUL DUP4 MSTORE SWAP2 PUSH1 0x20 ADD SWAP2 PUSH2 0x1E01 JUMP JUMPDEST DUP3 ADD SWAP2 SWAP1 PUSH1 0x0 MSTORE PUSH1 0x20 PUSH1 0x0 KECCAK256 SWAP1 JUMPDEST DUP2 SLOAD DUP2 MSTORE SWAP1 PUSH1 0x1 ADD SWAP1 PUSH1 0x20 ADD DUP1 DUP4 GT PUSH2 0x1DE4 JUMPI DUP3 SWAP1 SUB PUSH1 0x1F AND DUP3 ADD SWAP2 JUMPDEST POP POP POP SWAP2 DUP4 MSTORE POP POP PUSH1 0x6 DUP3 ADD SLOAD PUSH1 0x20 DUP1 DUP4 ADD SWAP2 SWAP1 SWAP2 MSTORE PUSH1 0x7 DUP4 ADD SLOAD PUSH1 0x40 DUP4 ADD MSTORE PUSH1 0x8 DUP4 ADD SLOAD PUSH1 0xFF AND ISZERO ISZERO PUSH1 0x60 DUP4 ADD MSTORE PUSH1 0x9 SWAP1 SWAP3 ADD SLOAD PUSH1 0x80 SWAP1 SWAP2 ADD MSTORE SWAP1 DUP3 MSTORE PUSH1 0x1 SWAP3 SWAP1 SWAP3 ADD SWAP2 ADD PUSH2 0x1B7D JUMP JUMPDEST PUSH1 0x0 PUSH1 0x7 SLOAD CALLVALUE LT ISZERO PUSH2 0x1E94 JUMPI PUSH1 0x40 MLOAD PUSH3 0x461BCD PUSH1 0xE5 SHL DUP2 MSTORE PUSH1 0x20 PUSH1 0x4 DUP3 ADD MSTORE PUSH1 0x11 PUSH1 0x24 DUP3 ADD MSTORE PUSH17 0x125B9CDD59999A58DA595B9D08199D5B99 PUSH1 0x7A SHL PUSH1 0x44 DUP3 ADD MSTORE PUSH1 0x64 ADD PUSH2 0xB93 JUMP JUMPDEST PUSH1 0x0 DUP8 MLOAD GT PUSH2 0x1EDB JUMPI PUSH1 0x40 MLOAD PUSH3 0x461BCD PUSH1 0xE5 SHL DUP2 MSTORE PUSH1 0x20 PUSH1 0x4 DUP3 ADD MSTORE PUSH1 0x13 PUSH1 0x24 DUP3 ADD MSTORE PUSH19 0x736B752063616E6E6F7420626520656D707479 PUSH1 0x68 SHL PUSH1 0x44 DUP3 ADD MSTORE PUSH1 0x64 ADD PUSH2 0xB93 JUMP JUMPDEST PUSH1 0x0 DUP7 MLOAD GT PUSH2 0x1F23 JUMPI PUSH1 0x40 MLOAD PUSH3 0x461BCD PUSH1 0xE5 SHL DUP2 MSTORE PUSH1 0x20 PUSH1 0x4 DUP3 ADD MSTORE PUSH1 0x14 PUSH1 0x24 DUP3 ADD MSTORE PUSH20 0x6E616D652063616E6E6F7420626520656D707479 PUSH1 0x60 SHL PUSH1 0x44 DUP3 ADD MSTORE PUSH1 0x64 ADD PUSH2 0xB93 JUMP JUMPDEST PUSH1 0x0 DUP6 MLOAD GT PUSH2 0x1F74 JUMPI PUSH1 0x40 MLOAD PUSH3 0x461BCD PUSH1 0xE5 SHL DUP2 MSTORE PUSH1 0x20 PUSH1 0x4 DUP3 ADD MSTORE PUSH1 0x1B PUSH1 0x24 DUP3 ADD MSTORE PUSH32 0x6465736372697074696F6E2063616E6E6F7420626520656D7074790000000000 PUSH1 0x44 DUP3 ADD MSTORE PUSH1 0x64 ADD PUSH2 0xB93 JUMP JUMPDEST PUSH1 0x0 DUP5 MLOAD GT PUSH2 0x1FC5 JUMPI PUSH1 0x40 MLOAD PUSH3 0x461BCD PUSH1 0xE5 SHL DUP2 MSTORE PUSH1 0x20 PUSH1 0x4 DUP3 ADD MSTORE PUSH1 0x19 PUSH1 0x24 DUP3 ADD MSTORE PUSH32 0x696D6167652055524C2063616E6E6F7420626520656D70747900000000000000 PUSH1 0x44 DUP3 ADD MSTORE PUSH1 0x64 ADD PUSH2 0xB93 JUMP JUMPDEST PUSH1 0x0 DUP4 GT PUSH2 0x200C JUMPI PUSH1 0x40 MLOAD PUSH3 0x461BCD PUSH1 0xE5 SHL DUP2 MSTORE PUSH1 0x20 PUSH1 0x4 DUP3 ADD MSTORE PUSH1 0x14 PUSH1 0x24 DUP3 ADD MSTORE PUSH20 0x70726963652063616E6E6F74206265207A65726F PUSH1 0x60 SHL PUSH1 0x44 DUP3 ADD MSTORE PUSH1 0x64 ADD PUSH2 0xB93 JUMP JUMPDEST PUSH1 0x0 DUP3 GT PUSH2 0x2053 JUMPI PUSH1 0x40 MLOAD PUSH3 0x461BCD PUSH1 0xE5 SHL DUP2 MSTORE PUSH1 0x20 PUSH1 0x4 DUP3 ADD MSTORE PUSH1 0x14 PUSH1 0x24 DUP3 ADD MSTORE PUSH20 0x73746F636B2063616E6E6F74206265207A65726F PUSH1 0x60 SHL PUSH1 0x44 DUP3 ADD MSTORE PUSH1 0x64 ADD PUSH2 0xB93 JUMP JUMPDEST PUSH1 0x1 DUP1 SLOAD PUSH1 0x0 SWAP1 DUP2 MSTORE PUSH1 0xE PUSH1 0x20 SWAP1 DUP2 MSTORE PUSH1 0x40 DUP1 DUP4 KECCAK256 DUP1 SLOAD PUSH1 0xFF NOT AND SWAP1 SWAP5 OR SWAP1 SWAP4 SSTORE CALLER DUP3 MSTORE PUSH1 0xC SWAP1 MSTORE SWAP1 DUP2 KECCAK256 DUP1 SLOAD SWAP2 PUSH2 0x208A DUP4 PUSH2 0x3ADF JUMP JUMPDEST SWAP1 SWAP2 SSTORE POP POP PUSH1 0x3 DUP1 SLOAD SWAP1 PUSH1 0x0 PUSH2 0x209F DUP4 PUSH2 0x3ADF JUMP JUMPDEST SWAP2 SWAP1 POP SSTORE POP PUSH2 0x20AC PUSH2 0x31E2 JUMP JUMPDEST PUSH1 0x1 DUP1 SLOAD SWAP1 PUSH1 0x0 PUSH2 0x20BC DUP4 PUSH2 0x3ADF JUMP JUMPDEST SWAP1 SWAP2 SSTORE POP DUP2 MSTORE PUSH1 0x20 DUP1 DUP3 ADD DUP10 DUP2 MSTORE CALLER PUSH1 0x40 DUP5 ADD MSTORE PUSH1 0x60 DUP4 ADD DUP10 SWAP1 MSTORE PUSH1 0x80 DUP4 ADD DUP8 SWAP1 MSTORE PUSH1 0xA0 DUP4 ADD DUP9 SWAP1 MSTORE PUSH1 0xC0 DUP4 ADD DUP7 SWAP1 MSTORE PUSH2 0x120 DUP4 ADD DUP6 SWAP1 MSTORE TIMESTAMP PUSH1 0xE0 DUP5 ADD MSTORE PUSH1 0x8 DUP1 SLOAD PUSH1 0x1 DUP2 ADD DUP3 SSTORE PUSH1 0x0 SWAP2 SWAP1 SWAP2 MSTORE DUP4 MLOAD PUSH32 0xF3F7A9FE364FAAB93B216DA50A3214154F22A0A2B415B23A84C8169E8B636EE3 PUSH1 0xA SWAP1 SWAP3 MUL SWAP2 DUP3 ADD SWAP1 DUP2 SSTORE SWAP2 MLOAD DUP1 MLOAD DUP6 SWAP5 PUSH2 0x1A96 SWAP4 PUSH32 0xF3F7A9FE364FAAB93B216DA50A3214154F22A0A2B415B23A84C8169E8B636EE4 ADD SWAP3 ADD SWAP1 PUSH2 0x3240 JUMP JUMPDEST PUSH2 0x2174 PUSH2 0x32C4 JUMP JUMPDEST PUSH1 0x0 JUMPDEST CALLER PUSH1 0x0 SWAP1 DUP2 MSTORE PUSH1 0xA PUSH1 0x20 MSTORE PUSH1 0x40 SWAP1 KECCAK256 SLOAD DUP2 LT ISZERO PUSH2 0x2576 JUMPI CALLER PUSH1 0x0 SWAP1 DUP2 MSTORE PUSH1 0xA PUSH1 0x20 MSTORE PUSH1 0x40 SWAP1 KECCAK256 DUP1 SLOAD DUP5 SWAP2 SWAP1 DUP4 SWAP1 DUP2 LT PUSH2 0x21B2 JUMPI PUSH2 0x21B2 PUSH2 0x3A84 JUMP JUMPDEST SWAP1 PUSH1 0x0 MSTORE PUSH1 0x20 PUSH1 0x0 KECCAK256 SWAP1 PUSH1 0xC MUL ADD PUSH1 0x0 ADD SLOAD EQ ISZERO PUSH2 0x2564 JUMPI CALLER PUSH1 0x0 SWAP1 DUP2 MSTORE PUSH1 0xA PUSH1 0x20 MSTORE PUSH1 0x40 SWAP1 KECCAK256 DUP1 SLOAD DUP3 SWAP1 DUP2 LT PUSH2 0x21EB JUMPI PUSH2 0x21EB PUSH2 0x3A84 JUMP JUMPDEST SWAP1 PUSH1 0x0 MSTORE PUSH1 0x20 PUSH1 0x0 KECCAK256 SWAP1 PUSH1 0xC MUL ADD PUSH1 0x40 MLOAD DUP1 PUSH2 0x180 ADD PUSH1 0x40 MSTORE SWAP1 DUP2 PUSH1 0x0 DUP3 ADD SLOAD DUP2 MSTORE PUSH1 0x20 ADD PUSH1 0x1 DUP3 ADD DUP1 SLOAD PUSH2 0x221F SWAP1 PUSH2 0x3A4F JUMP JUMPDEST DUP1 PUSH1 0x1F ADD PUSH1 0x20 DUP1 SWAP2 DIV MUL PUSH1 0x20 ADD PUSH1 0x40 MLOAD SWAP1 DUP2 ADD PUSH1 0x40 MSTORE DUP1 SWAP3 SWAP2 SWAP1 DUP2 DUP2 MSTORE PUSH1 0x20 ADD DUP3 DUP1 SLOAD PUSH2 0x224B SWAP1 PUSH2 0x3A4F JUMP JUMPDEST DUP1 ISZERO PUSH2 0x2298 JUMPI DUP1 PUSH1 0x1F LT PUSH2 0x226D JUMPI PUSH2 0x100 DUP1 DUP4 SLOAD DIV MUL DUP4 MSTORE SWAP2 PUSH1 0x20 ADD SWAP2 PUSH2 0x2298 JUMP JUMPDEST DUP3 ADD SWAP2 SWAP1 PUSH1 0x0 MSTORE PUSH1 0x20 PUSH1 0x0 KECCAK256 SWAP1 JUMPDEST DUP2 SLOAD DUP2 MSTORE SWAP1 PUSH1 0x1 ADD SWAP1 PUSH1 0x20 ADD DUP1 DUP4 GT PUSH2 0x227B JUMPI DUP3 SWAP1 SUB PUSH1 0x1F AND DUP3 ADD SWAP2 JUMPDEST POP POP POP POP POP DUP2 MSTORE PUSH1 0x20 ADD PUSH1 0x2 DUP3 ADD DUP1 SLOAD PUSH2 0x22B1 SWAP1 PUSH2 0x3A4F JUMP JUMPDEST DUP1 PUSH1 0x1F ADD PUSH1 0x20 DUP1 SWAP2 DIV MUL PUSH1 0x20 ADD PUSH1 0x40 MLOAD SWAP1 DUP2 ADD PUSH1 0x40 MSTORE DUP1 SWAP3 SWAP2 SWAP1 DUP2 DUP2 MSTORE PUSH1 0x20 ADD DUP3 DUP1 SLOAD PUSH2 0x22DD SWAP1 PUSH2 0x3A4F JUMP JUMPDEST DUP1 ISZERO PUSH2 0x232A JUMPI DUP1 PUSH1 0x1F LT PUSH2 0x22FF JUMPI PUSH2 0x100 DUP1 DUP4 SLOAD DIV MUL DUP4 MSTORE SWAP2 PUSH1 0x20 ADD SWAP2 PUSH2 0x232A JUMP JUMPDEST DUP3 ADD SWAP2 SWAP1 PUSH1 0x0 MSTORE PUSH1 0x20 PUSH1 0x0 KECCAK256 SWAP1 JUMPDEST DUP2 SLOAD DUP2 MSTORE SWAP1 PUSH1 0x1 ADD SWAP1 PUSH1 0x20 ADD DUP1 DUP4 GT PUSH2 0x230D JUMPI DUP3 SWAP1 SUB PUSH1 0x1F AND DUP3 ADD SWAP2 JUMPDEST POP POP POP POP POP DUP2 MSTORE PUSH1 0x20 ADD PUSH1 0x3 DUP3 ADD DUP1 SLOAD PUSH2 0x2343 SWAP1 PUSH2 0x3A4F JUMP JUMPDEST DUP1 PUSH1 0x1F ADD PUSH1 0x20 DUP1 SWAP2 DIV MUL PUSH1 0x20 ADD PUSH1 0x40 MLOAD SWAP1 DUP2 ADD PUSH1 0x40 MSTORE DUP1 SWAP3 SWAP2 SWAP1 DUP2 DUP2 MSTORE PUSH1 0x20 ADD DUP3 DUP1 SLOAD PUSH2 0x236F SWAP1 PUSH2 0x3A4F JUMP JUMPDEST DUP1 ISZERO PUSH2 0x23BC JUMPI DUP1 PUSH1 0x1F LT PUSH2 0x2391 JUMPI PUSH2 0x100 DUP1 DUP4 SLOAD DIV MUL DUP4 MSTORE SWAP2 PUSH1 0x20 ADD SWAP2 PUSH2 0x23BC JUMP JUMPDEST DUP3 ADD SWAP2 SWAP1 PUSH1 0x0 MSTORE PUSH1 0x20 PUSH1 0x0 KECCAK256 SWAP1 JUMPDEST DUP2 SLOAD DUP2 MSTORE SWAP1 PUSH1 0x1 ADD SWAP1 PUSH1 0x20 ADD DUP1 DUP4 GT PUSH2 0x239F JUMPI DUP3 SWAP1 SUB PUSH1 0x1F AND DUP3 ADD SWAP2 JUMPDEST POP POP POP SWAP2 DUP4 MSTORE POP POP PUSH1 0x4 DUP3 ADD SLOAD PUSH1 0x1 PUSH1 0x1 PUSH1 0xA0 SHL SUB SWAP1 DUP2 AND PUSH1 0x20 DUP4 ADD MSTORE PUSH1 0x5 DUP4 ADD SLOAD AND PUSH1 0x40 DUP3 ADD MSTORE PUSH1 0x6 DUP3 ADD SLOAD PUSH1 0x60 DUP3 ADD MSTORE PUSH1 0x7 DUP3 ADD SLOAD PUSH1 0x80 DUP3 ADD MSTORE PUSH1 0x8 DUP3 ADD SLOAD PUSH1 0xA0 DUP3 ADD MSTORE PUSH1 0x9 DUP3 ADD DUP1 SLOAD PUSH1 0xC0 SWAP1 SWAP3 ADD SWAP2 PUSH2 0x2417 SWAP1 PUSH2 0x3A4F JUMP JUMPDEST DUP1 PUSH1 0x1F ADD PUSH1 0x20 DUP1 SWAP2 DIV MUL PUSH1 0x20 ADD PUSH1 0x40 MLOAD SWAP1 DUP2 ADD PUSH1 0x40 MSTORE DUP1 SWAP3 SWAP2 SWAP1 DUP2 DUP2 MSTORE PUSH1 0x20 ADD DUP3 DUP1 SLOAD PUSH2 0x2443 SWAP1 PUSH2 0x3A4F JUMP JUMPDEST DUP1 ISZERO PUSH2 0x2490 JUMPI DUP1 PUSH1 0x1F LT PUSH2 0x2465 JUMPI PUSH2 0x100 DUP1 DUP4 SLOAD DIV MUL DUP4 MSTORE SWAP2 PUSH1 0x20 ADD SWAP2 PUSH2 0x2490 JUMP JUMPDEST DUP3 ADD SWAP2 SWAP1 PUSH1 0x0 MSTORE PUSH1 0x20 PUSH1 0x0 KECCAK256 SWAP1 JUMPDEST DUP2 SLOAD DUP2 MSTORE SWAP1 PUSH1 0x1 ADD SWAP1 PUSH1 0x20 ADD DUP1 DUP4 GT PUSH2 0x2473 JUMPI DUP3 SWAP1 SUB PUSH1 0x1F AND DUP3 ADD SWAP2 JUMPDEST POP POP POP POP POP DUP2 MSTORE PUSH1 0x20 ADD PUSH1 0xA DUP3 ADD DUP1 SLOAD PUSH2 0x24A9 SWAP1 PUSH2 0x3A4F JUMP JUMPDEST DUP1 PUSH1 0x1F ADD PUSH1 0x20 DUP1 SWAP2 DIV MUL PUSH1 0x20 ADD PUSH1 0x40 MLOAD SWAP1 DUP2 ADD PUSH1 0x40 MSTORE DUP1 SWAP3 SWAP2 SWAP1 DUP2 DUP2 MSTORE PUSH1 0x20 ADD DUP3 DUP1 SLOAD PUSH2 0x24D5 SWAP1 PUSH2 0x3A4F JUMP JUMPDEST DUP1 ISZERO PUSH2 0x2522 JUMPI DUP1 PUSH1 0x1F LT PUSH2 0x24F7 JUMPI PUSH2 0x100 DUP1 DUP4 SLOAD DIV MUL DUP4 MSTORE SWAP2 PUSH1 0x20 ADD SWAP2 PUSH2 0x2522 JUMP JUMPDEST DUP3 ADD SWAP2 SWAP1 PUSH1 0x0 MSTORE PUSH1 0x20 PUSH1 0x0 KECCAK256 SWAP1 JUMPDEST DUP2 SLOAD DUP2 MSTORE SWAP1 PUSH1 0x1 ADD SWAP1 PUSH1 0x20 ADD DUP1 DUP4 GT PUSH2 0x2505 JUMPI DUP3 SWAP1 SUB PUSH1 0x1F AND DUP3 ADD SWAP2 JUMPDEST POP POP POP SWAP2 DUP4 MSTORE POP POP PUSH1 0xB DUP3 ADD SLOAD PUSH1 0x20 SWAP1 SWAP2 ADD SWAP1 PUSH1 0xFF AND PUSH1 0x3 DUP2 GT ISZERO PUSH2 0x2549 JUMPI PUSH2 0x2549 PUSH2 0x33A9 JUMP JUMPDEST PUSH1 0x3 DUP2 GT ISZERO PUSH2 0x255A JUMPI PUSH2 0x255A PUSH2 0x33A9 JUMP JUMPDEST SWAP1 MSTORE POP SWAP4 SWAP3 POP POP POP JUMP JUMPDEST DUP1 PUSH2 0x256E DUP2 PUSH2 0x3ADF JUMP JUMPDEST SWAP2 POP POP PUSH2 0x2177 JUMP JUMPDEST POP SWAP2 SWAP1 POP JUMP JUMPDEST PUSH2 0x2584 PUSH2 0x32C4 JUMP JUMPDEST PUSH1 0x0 JUMPDEST CALLER PUSH1 0x0 SWAP1 DUP2 MSTORE PUSH1 0xB PUSH1 0x20 MSTORE PUSH1 0x40 SWAP1 KECCAK256 SLOAD DUP2 LT ISZERO PUSH2 0x2576 JUMPI CALLER PUSH1 0x0 SWAP1 DUP2 MSTORE PUSH1 0xB PUSH1 0x20 MSTORE PUSH1 0x40 SWAP1 KECCAK256 DUP1 SLOAD DUP5 SWAP2 SWAP1 DUP4 SWAP1 DUP2 LT PUSH2 0x25C2 JUMPI PUSH2 0x25C2 PUSH2 0x3A84 JUMP JUMPDEST SWAP1 PUSH1 0x0 MSTORE PUSH1 0x20 PUSH1 0x0 KECCAK256 SWAP1 PUSH1 0xC MUL ADD PUSH1 0x0 ADD SLOAD EQ ISZERO PUSH2 0x25FB JUMPI CALLER PUSH1 0x0 SWAP1 DUP2 MSTORE PUSH1 0xB PUSH1 0x20 MSTORE PUSH1 0x40 SWAP1 KECCAK256 DUP1 SLOAD DUP3 SWAP1 DUP2 LT PUSH2 0x21EB JUMPI PUSH2 0x21EB PUSH2 0x3A84 JUMP JUMPDEST DUP1 PUSH2 0x2605 DUP2 PUSH2 0x3ADF JUMP JUMPDEST SWAP2 POP POP PUSH2 0x2587 JUMP JUMPDEST PUSH1 0x0 PUSH2 0x2619 DUP6 DUP6 PUSH2 0x3164 JUMP JUMPDEST CALLVALUE LT ISZERO PUSH2 0x265E JUMPI PUSH1 0x40 MLOAD PUSH3 0x461BCD PUSH1 0xE5 SHL DUP2 MSTORE PUSH1 0x20 PUSH1 0x4 DUP3 ADD MSTORE PUSH1 0x13 PUSH1 0x24 DUP3 ADD MSTORE PUSH19 0x125B9CDD59999A58DA595B9D08185B5BDD5B9D PUSH1 0x6A SHL PUSH1 0x44 DUP3 ADD MSTORE PUSH1 0x64 ADD PUSH2 0xB93 JUMP JUMPDEST PUSH1 0x0 DUP4 MLOAD GT PUSH2 0x26AF JUMPI PUSH1 0x40 MLOAD PUSH3 0x461BCD PUSH1 0xE5 SHL DUP2 MSTORE PUSH1 0x20 PUSH1 0x4 DUP3 ADD MSTORE PUSH1 0x1B PUSH1 0x24 DUP3 ADD MSTORE PUSH32 0x64657374696E6174696F6E2063616E6E6F7420626520656D7074790000000000 PUSH1 0x44 DUP3 ADD MSTORE PUSH1 0x64 ADD PUSH2 0xB93 JUMP JUMPDEST PUSH1 0x0 DUP3 MLOAD GT PUSH2 0x26F8 JUMPI PUSH1 0x40 MLOAD PUSH3 0x461BCD PUSH1 0xE5 SHL DUP2 MSTORE PUSH1 0x20 PUSH1 0x4 DUP3 ADD MSTORE PUSH1 0x15 PUSH1 0x24 DUP3 ADD MSTORE PUSH21 0x70686F6E652063616E6E6F7420626520656D707479 PUSH1 0x58 SHL PUSH1 0x44 DUP3 ADD MSTORE PUSH1 0x64 ADD PUSH2 0xB93 JUMP JUMPDEST PUSH2 0x2702 DUP6 DUP6 PUSH2 0x3164 JUMP JUMPDEST PUSH1 0x6 DUP1 SLOAD PUSH1 0x0 SWAP1 PUSH2 0x2714 SWAP1 DUP5 SWAP1 PUSH2 0x3AB0 JUMP JUMPDEST SWAP1 SWAP2 SSTORE POP PUSH1 0x0 SWAP1 POP JUMPDEST DUP6 MLOAD DUP2 LT ISZERO PUSH2 0x3034 JUMPI PUSH1 0xE PUSH1 0x0 DUP8 DUP4 DUP2 MLOAD DUP2 LT PUSH2 0x273C JUMPI PUSH2 0x273C PUSH2 0x3A84 JUMP JUMPDEST PUSH1 0x20 SWAP1 DUP2 MUL SWAP2 SWAP1 SWAP2 ADD DUP2 ADD MLOAD DUP3 MSTORE DUP2 ADD SWAP2 SWAP1 SWAP2 MSTORE PUSH1 0x40 ADD PUSH1 0x0 KECCAK256 SLOAD PUSH1 0xFF AND DUP1 ISZERO PUSH2 0x27BC JUMPI POP DUP5 DUP2 DUP2 MLOAD DUP2 LT PUSH2 0x2773 JUMPI PUSH2 0x2773 PUSH2 0x3A84 JUMP JUMPDEST PUSH1 0x20 MUL PUSH1 0x20 ADD ADD MLOAD PUSH1 0x8 DUP8 DUP4 DUP2 MLOAD DUP2 LT PUSH2 0x278F JUMPI PUSH2 0x278F PUSH2 0x3A84 JUMP JUMPDEST PUSH1 0x20 MUL PUSH1 0x20 ADD ADD MLOAD DUP2 SLOAD DUP2 LT PUSH2 0x27A7 JUMPI PUSH2 0x27A7 PUSH2 0x3A84 JUMP JUMPDEST SWAP1 PUSH1 0x0 MSTORE PUSH1 0x20 PUSH1 0x0 KECCAK256 SWAP1 PUSH1 0xA MUL ADD PUSH1 0x9 ADD SLOAD LT ISZERO JUMPDEST ISZERO PUSH2 0x3022 JUMPI DUP5 DUP2 DUP2 MLOAD DUP2 LT PUSH2 0x27D3 JUMPI PUSH2 0x27D3 PUSH2 0x3A84 JUMP JUMPDEST PUSH1 0x20 MUL PUSH1 0x20 ADD ADD MLOAD PUSH1 0x8 DUP8 DUP4 DUP2 MLOAD DUP2 LT PUSH2 0x27EF JUMPI PUSH2 0x27EF PUSH2 0x3A84 JUMP JUMPDEST PUSH1 0x20 MUL PUSH1 0x20 ADD ADD MLOAD DUP2 SLOAD DUP2 LT PUSH2 0x2807 JUMPI PUSH2 0x2807 PUSH2 0x3A84 JUMP JUMPDEST SWAP1 PUSH1 0x0 MSTORE PUSH1 0x20 PUSH1 0x0 KECCAK256 SWAP1 PUSH1 0xA MUL ADD PUSH1 0x9 ADD PUSH1 0x0 DUP3 DUP3 SLOAD PUSH2 0x2827 SWAP2 SWAP1 PUSH2 0x3AC8 JUMP JUMPDEST SWAP3 POP POP DUP2 SWAP1 SSTORE POP PUSH1 0x1 PUSH1 0xF PUSH1 0x0 PUSH1 0x8 DUP10 DUP6 DUP2 MLOAD DUP2 LT PUSH2 0x2848 JUMPI PUSH2 0x2848 PUSH2 0x3A84 JUMP JUMPDEST PUSH1 0x20 MUL PUSH1 0x20 ADD ADD MLOAD DUP2 SLOAD DUP2 LT PUSH2 0x2860 JUMPI PUSH2 0x2860 PUSH2 0x3A84 JUMP JUMPDEST PUSH1 0x0 SWAP2 DUP3 MSTORE PUSH1 0x20 DUP1 DUP4 KECCAK256 PUSH1 0x2 PUSH1 0xA SWAP1 SWAP4 MUL ADD DUP3 ADD SLOAD PUSH1 0x1 PUSH1 0x1 PUSH1 0xA0 SHL SUB AND DUP5 MSTORE DUP4 DUP2 ADD SWAP5 SWAP1 SWAP5 MSTORE PUSH1 0x40 SWAP3 DUP4 ADD DUP3 KECCAK256 CALLER DUP4 MSTORE PUSH1 0xC DUP6 MSTORE DUP4 DUP4 KECCAK256 PUSH1 0x1 ADD SLOAD DUP4 MSTORE SWAP1 SWAP4 MSTORE SWAP1 DUP2 KECCAK256 DUP1 SLOAD SWAP4 ISZERO ISZERO PUSH1 0xFF NOT SWAP1 SWAP5 AND SWAP4 SWAP1 SWAP4 OR SWAP1 SWAP3 SSTORE DUP1 SLOAD SWAP2 PUSH2 0x28C2 DUP4 PUSH2 0x3ADF JUMP JUMPDEST SWAP1 SWAP2 SSTORE POP POP CALLER PUSH1 0x0 SWAP1 DUP2 MSTORE PUSH1 0xC PUSH1 0x20 MSTORE PUSH1 0x40 DUP2 KECCAK256 PUSH1 0x1 ADD DUP1 SLOAD SWAP2 PUSH2 0x28E5 DUP4 PUSH2 0x3ADF JUMP JUMPDEST SWAP2 SWAP1 POP SSTORE POP PUSH2 0x28F2 PUSH2 0x32C4 JUMP JUMPDEST PUSH1 0x2 DUP1 SLOAD SWAP1 PUSH1 0x0 PUSH2 0x2902 DUP4 PUSH2 0x3ADF JUMP JUMPDEST SWAP1 SWAP2 SSTORE POP DUP2 MSTORE DUP7 MLOAD PUSH1 0x8 SWAP1 DUP9 SWAP1 DUP5 SWAP1 DUP2 LT PUSH2 0x291F JUMPI PUSH2 0x291F PUSH2 0x3A84 JUMP JUMPDEST PUSH1 0x20 MUL PUSH1 0x20 ADD ADD MLOAD DUP2 SLOAD DUP2 LT PUSH2 0x2937 JUMPI PUSH2 0x2937 PUSH2 0x3A84 JUMP JUMPDEST SWAP1 PUSH1 0x0 MSTORE PUSH1 0x20 PUSH1 0x0 KECCAK256 SWAP1 PUSH1 0xA MUL ADD PUSH1 0x1 ADD DUP1 SLOAD PUSH2 0x2953 SWAP1 PUSH2 0x3A4F JUMP JUMPDEST DUP1 PUSH1 0x1F ADD PUSH1 0x20 DUP1 SWAP2 DIV MUL PUSH1 0x20 ADD PUSH1 0x40 MLOAD SWAP1 DUP2 ADD PUSH1 0x40 MSTORE DUP1 SWAP3 SWAP2 SWAP1 DUP2 DUP2 MSTORE PUSH1 0x20 ADD DUP3 DUP1 SLOAD PUSH2 0x297F SWAP1 PUSH2 0x3A4F JUMP JUMPDEST DUP1 ISZERO PUSH2 0x29CC JUMPI DUP1 PUSH1 0x1F LT PUSH2 0x29A1 JUMPI PUSH2 0x100 DUP1 DUP4 SLOAD DIV MUL DUP4 MSTORE SWAP2 PUSH1 0x20 ADD SWAP2 PUSH2 0x29CC JUMP JUMPDEST DUP3 ADD SWAP2 SWAP1 PUSH1 0x0 MSTORE PUSH1 0x20 PUSH1 0x0 KECCAK256 SWAP1 JUMPDEST DUP2 SLOAD DUP2 MSTORE SWAP1 PUSH1 0x1 ADD SWAP1 PUSH1 0x20 ADD DUP1 DUP4 GT PUSH2 0x29AF JUMPI DUP3 SWAP1 SUB PUSH1 0x1F AND DUP3 ADD SWAP2 JUMPDEST POP POP POP POP POP PUSH1 0x20 DUP3 ADD MSTORE CALLER PUSH1 0x80 DUP3 ADD MSTORE DUP7 MLOAD PUSH1 0x8 SWAP1 DUP9 SWAP1 DUP5 SWAP1 DUP2 LT PUSH2 0x29F3 JUMPI PUSH2 0x29F3 PUSH2 0x3A84 JUMP JUMPDEST PUSH1 0x20 MUL PUSH1 0x20 ADD ADD MLOAD DUP2 SLOAD DUP2 LT PUSH2 0x2A0B JUMPI PUSH2 0x2A0B PUSH2 0x3A84 JUMP JUMPDEST PUSH1 0x0 SWAP2 DUP3 MSTORE PUSH1 0x20 SWAP1 SWAP2 KECCAK256 PUSH1 0x2 PUSH1 0xA SWAP1 SWAP3 MUL ADD ADD SLOAD PUSH1 0x1 PUSH1 0x1 PUSH1 0xA0 SHL SUB AND PUSH1 0xA0 DUP3 ADD MSTORE DUP7 MLOAD PUSH1 0x8 SWAP1 DUP9 SWAP1 DUP5 SWAP1 DUP2 LT PUSH2 0x2A44 JUMPI PUSH2 0x2A44 PUSH2 0x3A84 JUMP JUMPDEST PUSH1 0x20 MUL PUSH1 0x20 ADD ADD MLOAD DUP2 SLOAD DUP2 LT PUSH2 0x2A5C JUMPI PUSH2 0x2A5C PUSH2 0x3A84 JUMP JUMPDEST SWAP1 PUSH1 0x0 MSTORE PUSH1 0x20 PUSH1 0x0 KECCAK256 SWAP1 PUSH1 0xA MUL ADD PUSH1 0x3 ADD DUP1 SLOAD PUSH2 0x2A78 SWAP1 PUSH2 0x3A4F JUMP JUMPDEST DUP1 PUSH1 0x1F ADD PUSH1 0x20 DUP1 SWAP2 DIV MUL PUSH1 0x20 ADD PUSH1 0x40 MLOAD SWAP1 DUP2 ADD PUSH1 0x40 MSTORE DUP1 SWAP3 SWAP2 SWAP1 DUP2 DUP2 MSTORE PUSH1 0x20 ADD DUP3 DUP1 SLOAD PUSH2 0x2AA4 SWAP1 PUSH2 0x3A4F JUMP JUMPDEST DUP1 ISZERO PUSH2 0x2AF1 JUMPI DUP1 PUSH1 0x1F LT PUSH2 0x2AC6 JUMPI PUSH2 0x100 DUP1 DUP4 SLOAD DIV MUL DUP4 MSTORE SWAP2 PUSH1 0x20 ADD SWAP2 PUSH2 0x2AF1 JUMP JUMPDEST DUP3 ADD SWAP2 SWAP1 PUSH1 0x0 MSTORE PUSH1 0x20 PUSH1 0x0 KECCAK256 SWAP1 JUMPDEST DUP2 SLOAD DUP2 MSTORE SWAP1 PUSH1 0x1 ADD SWAP1 PUSH1 0x20 ADD DUP1 DUP4 GT PUSH2 0x2AD4 JUMPI DUP3 SWAP1 SUB PUSH1 0x1F AND DUP3 ADD SWAP2 JUMPDEST POP POP POP POP POP DUP2 PUSH1 0x40 ADD DUP2 SWAP1 MSTORE POP PUSH1 0x8 DUP8 DUP4 DUP2 MLOAD DUP2 LT PUSH2 0x2B12 JUMPI PUSH2 0x2B12 PUSH2 0x3A84 JUMP JUMPDEST PUSH1 0x20 MUL PUSH1 0x20 ADD ADD MLOAD DUP2 SLOAD DUP2 LT PUSH2 0x2B2A JUMPI PUSH2 0x2B2A PUSH2 0x3A84 JUMP JUMPDEST SWAP1 PUSH1 0x0 MSTORE PUSH1 0x20 PUSH1 0x0 KECCAK256 SWAP1 PUSH1 0xA MUL ADD PUSH1 0x4 ADD DUP1 SLOAD PUSH2 0x2B46 SWAP1 PUSH2 0x3A4F JUMP JUMPDEST DUP1 PUSH1 0x1F ADD PUSH1 0x20 DUP1 SWAP2 DIV MUL PUSH1 0x20 ADD PUSH1 0x40 MLOAD SWAP1 DUP2 ADD PUSH1 0x40 MSTORE DUP1 SWAP3 SWAP2 SWAP1 DUP2 DUP2 MSTORE PUSH1 0x20 ADD DUP3 DUP1 SLOAD PUSH2 0x2B72 SWAP1 PUSH2 0x3A4F JUMP JUMPDEST DUP1 ISZERO PUSH2 0x2BBF JUMPI DUP1 PUSH1 0x1F LT PUSH2 0x2B94 JUMPI PUSH2 0x100 DUP1 DUP4 SLOAD DIV MUL DUP4 MSTORE SWAP2 PUSH1 0x20 ADD SWAP2 PUSH2 0x2BBF JUMP JUMPDEST DUP3 ADD SWAP2 SWAP1 PUSH1 0x0 MSTORE PUSH1 0x20 PUSH1 0x0 KECCAK256 SWAP1 JUMPDEST DUP2 SLOAD DUP2 MSTORE SWAP1 PUSH1 0x1 ADD SWAP1 PUSH1 0x20 ADD DUP1 DUP4 GT PUSH2 0x2BA2 JUMPI DUP3 SWAP1 SUB PUSH1 0x1F AND DUP3 ADD SWAP2 JUMPDEST POP POP POP POP POP DUP2 PUSH1 0x60 ADD DUP2 SWAP1 MSTORE POP DUP6 DUP3 DUP2 MLOAD DUP2 LT PUSH2 0x2BDE JUMPI PUSH2 0x2BDE PUSH2 0x3A84 JUMP JUMPDEST PUSH1 0x20 MUL PUSH1 0x20 ADD ADD MLOAD DUP2 PUSH1 0xC0 ADD DUP2 DUP2 MSTORE POP POP PUSH1 0x8 DUP8 DUP4 DUP2 MLOAD DUP2 LT PUSH2 0x2C03 JUMPI PUSH2 0x2C03 PUSH2 0x3A84 JUMP JUMPDEST PUSH1 0x20 MUL PUSH1 0x20 ADD ADD MLOAD DUP2 SLOAD DUP2 LT PUSH2 0x2C1B JUMPI PUSH2 0x2C1B PUSH2 0x3A84 JUMP JUMPDEST SWAP1 PUSH1 0x0 MSTORE PUSH1 0x20 PUSH1 0x0 KECCAK256 SWAP1 PUSH1 0xA MUL ADD PUSH1 0x6 ADD SLOAD DUP7 DUP4 DUP2 MLOAD DUP2 LT PUSH2 0x2C3F JUMPI PUSH2 0x2C3F PUSH2 0x3A84 JUMP JUMPDEST PUSH1 0x20 MUL PUSH1 0x20 ADD ADD MLOAD PUSH2 0x2C51 SWAP2 SWAP1 PUSH2 0x3AFA JUMP JUMPDEST PUSH1 0xE0 DUP3 ADD MSTORE TIMESTAMP PUSH2 0x100 DUP3 ADD MSTORE PUSH2 0x120 DUP2 ADD DUP6 SWAP1 MSTORE PUSH2 0x140 DUP2 ADD DUP5 SWAP1 MSTORE PUSH1 0x80 DUP2 ADD MLOAD PUSH1 0x1 PUSH1 0x1 PUSH1 0xA0 SHL SUB AND PUSH1 0x0 SWAP1 DUP2 MSTORE PUSH1 0xA PUSH1 0x20 SWAP1 DUP2 MSTORE PUSH1 0x40 DUP3 KECCAK256 DUP1 SLOAD PUSH1 0x1 DUP2 DUP2 ADD DUP4 SSTORE SWAP2 DUP5 MSTORE SWAP3 DUP3 SWAP1 KECCAK256 DUP5 MLOAD PUSH1 0xC SWAP1 SWAP5 MUL ADD SWAP3 DUP4 SSTORE DUP2 DUP5 ADD MLOAD DUP1 MLOAD DUP6 SWAP5 SWAP4 PUSH2 0x2CBD SWAP4 DUP6 ADD SWAP3 ADD SWAP1 PUSH2 0x3240 JUMP JUMPDEST POP PUSH1 0x40 DUP3 ADD MLOAD DUP1 MLOAD PUSH2 0x2CD9 SWAP2 PUSH1 0x2 DUP5 ADD SWAP2 PUSH1 0x20 SWAP1 SWAP2 ADD SWAP1 PUSH2 0x3240 JUMP JUMPDEST POP PUSH1 0x60 DUP3 ADD MLOAD DUP1 MLOAD PUSH2 0x2CF5 SWAP2 PUSH1 0x3 DUP5 ADD SWAP2 PUSH1 0x20 SWAP1 SWAP2 ADD SWAP1 PUSH2 0x3240 JUMP JUMPDEST POP PUSH1 0x80 DUP3 ADD MLOAD PUSH1 0x4 DUP3 ADD DUP1 SLOAD PUSH1 0x1 PUSH1 0x1 PUSH1 0xA0 SHL SUB SWAP3 DUP4 AND PUSH1 0x1 PUSH1 0x1 PUSH1 0xA0 SHL SUB NOT SWAP2 DUP3 AND OR SWAP1 SWAP2 SSTORE PUSH1 0xA0 DUP5 ADD MLOAD PUSH1 0x5 DUP5 ADD DUP1 SLOAD SWAP2 SWAP1 SWAP4 AND SWAP2 AND OR SWAP1 SSTORE PUSH1 0xC0 DUP3 ADD MLOAD PUSH1 0x6 DUP3 ADD SSTORE PUSH1 0xE0 DUP3 ADD MLOAD PUSH1 0x7 DUP3 ADD SSTORE PUSH2 0x100 DUP3 ADD MLOAD PUSH1 0x8 DUP3 ADD SSTORE PUSH2 0x120 DUP3 ADD MLOAD DUP1 MLOAD PUSH2 0x2D6B SWAP2 PUSH1 0x9 DUP5 ADD SWAP2 PUSH1 0x20 SWAP1 SWAP2 ADD SWAP1 PUSH2 0x3240 JUMP JUMPDEST POP PUSH2 0x140 DUP3 ADD MLOAD DUP1 MLOAD PUSH2 0x2D88 SWAP2 PUSH1 0xA DUP5 ADD SWAP2 PUSH1 0x20 SWAP1 SWAP2 ADD SWAP1 PUSH2 0x3240 JUMP JUMPDEST POP PUSH2 0x160 DUP3 ADD MLOAD PUSH1 0xB DUP3 ADD DUP1 SLOAD PUSH1 0xFF NOT AND PUSH1 0x1 DUP4 PUSH1 0x3 DUP2 GT ISZERO PUSH2 0x2DAD JUMPI PUSH2 0x2DAD PUSH2 0x33A9 JUMP JUMPDEST MUL OR SWAP1 SSTORE POP POP POP PUSH1 0xA0 DUP2 ADD MLOAD PUSH1 0x1 PUSH1 0x1 PUSH1 0xA0 SHL SUB AND PUSH1 0x0 SWAP1 DUP2 MSTORE PUSH1 0xB PUSH1 0x20 SWAP1 DUP2 MSTORE PUSH1 0x40 DUP3 KECCAK256 DUP1 SLOAD PUSH1 0x1 DUP2 DUP2 ADD DUP4 SSTORE SWAP2 DUP5 MSTORE SWAP3 DUP3 SWAP1 KECCAK256 DUP5 MLOAD PUSH1 0xC SWAP1 SWAP5 MUL ADD SWAP3 DUP4 SSTORE DUP2 DUP5 ADD MLOAD DUP1 MLOAD DUP6 SWAP5 SWAP4 PUSH2 0x2E04 SWAP4 DUP6 ADD SWAP3 ADD SWAP1 PUSH2 0x3240 JUMP JUMPDEST POP PUSH1 0x40 DUP3 ADD MLOAD DUP1 MLOAD PUSH2 0x2E20 SWAP2 PUSH1 0x2 DUP5 ADD SWAP2 PUSH1 0x20 SWAP1 SWAP2 ADD SWAP1 PUSH2 0x3240 JUMP JUMPDEST POP PUSH1 0x60 DUP3 ADD MLOAD DUP1 MLOAD PUSH2 0x2E3C SWAP2 PUSH1 0x3 DUP5 ADD SWAP2 PUSH1 0x20 SWAP1 SWAP2 ADD SWAP1 PUSH2 0x3240 JUMP JUMPDEST POP PUSH1 0x80 DUP3 ADD MLOAD PUSH1 0x4 DUP3 ADD DUP1 SLOAD PUSH1 0x1 PUSH1 0x1 PUSH1 0xA0 SHL SUB SWAP3 DUP4 AND PUSH1 0x1 PUSH1 0x1 PUSH1 0xA0 SHL SUB NOT SWAP2 DUP3 AND OR SWAP1 SWAP2 SSTORE PUSH1 0xA0 DUP5 ADD MLOAD PUSH1 0x5 DUP5 ADD DUP1 SLOAD SWAP2 SWAP1 SWAP4 AND SWAP2 AND OR SWAP1 SSTORE PUSH1 0xC0 DUP3 ADD MLOAD PUSH1 0x6 DUP3 ADD SSTORE PUSH1 0xE0 DUP3 ADD MLOAD PUSH1 0x7 DUP3 ADD SSTORE PUSH2 0x100 DUP3 ADD MLOAD PUSH1 0x8 DUP3 ADD SSTORE PUSH2 0x120 DUP3 ADD MLOAD DUP1 MLOAD PUSH2 0x2EB2 SWAP2 PUSH1 0x9 DUP5 ADD SWAP2 PUSH1 0x20 SWAP1 SWAP2 ADD SWAP1 PUSH2 0x3240 JUMP JUMPDEST POP PUSH2 0x140 DUP3 ADD MLOAD DUP1 MLOAD PUSH2 0x2ECF SWAP2 PUSH1 0xA DUP5 ADD SWAP2 PUSH1 0x20 SWAP1 SWAP2 ADD SWAP1 PUSH2 0x3240 JUMP JUMPDEST POP PUSH2 0x160 DUP3 ADD MLOAD PUSH1 0xB DUP3 ADD DUP1 SLOAD PUSH1 0xFF NOT AND PUSH1 0x1 DUP4 PUSH1 0x3 DUP2 GT ISZERO PUSH2 0x2EF4 JUMPI PUSH2 0x2EF4 PUSH2 0x33A9 JUMP JUMPDEST MUL OR SWAP1 SSTORE POP POP POP PUSH1 0xD PUSH1 0x0 DUP9 DUP5 DUP2 MLOAD DUP2 LT PUSH2 0x2F11 JUMPI PUSH2 0x2F11 PUSH2 0x3A84 JUMP JUMPDEST PUSH1 0x20 MUL PUSH1 0x20 ADD ADD MLOAD DUP2 MSTORE PUSH1 0x20 ADD SWAP1 DUP2 MSTORE PUSH1 0x20 ADD PUSH1 0x0 KECCAK256 PUSH1 0x40 MLOAD DUP1 PUSH1 0x80 ADD PUSH1 0x40 MSTORE DUP1 DUP4 PUSH1 0x80 ADD MLOAD PUSH1 0x1 PUSH1 0x1 PUSH1 0xA0 SHL SUB AND DUP2 MSTORE PUSH1 0x20 ADD DUP4 PUSH1 0xC0 ADD MLOAD DUP5 PUSH1 0xE0 ADD MLOAD PUSH2 0x2F59 SWAP2 SWAP1 PUSH2 0x3B19 JUMP JUMPDEST DUP2 MSTORE PUSH1 0xC0 DUP5 ADD MLOAD PUSH1 0x20 DUP1 DUP4 ADD SWAP2 SWAP1 SWAP2 MSTORE TIMESTAMP PUSH1 0x40 SWAP3 DUP4 ADD DUP2 SWAP1 MSTORE DUP5 SLOAD PUSH1 0x1 DUP1 DUP3 ADD DUP8 SSTORE PUSH1 0x0 SWAP7 DUP8 MSTORE SWAP6 DUP4 SWAP1 KECCAK256 DUP6 MLOAD PUSH1 0x4 SWAP1 SWAP3 MUL ADD DUP1 SLOAD PUSH1 0x1 PUSH1 0x1 PUSH1 0xA0 SHL SUB NOT AND PUSH1 0x1 PUSH1 0x1 PUSH1 0xA0 SHL SUB SWAP3 DUP4 AND OR DUP2 SSTORE DUP6 DUP5 ADD MLOAD SWAP7 DUP2 ADD SWAP7 SWAP1 SWAP7 SSTORE DUP5 DUP5 ADD MLOAD PUSH1 0x2 DUP8 ADD SSTORE PUSH1 0x60 SWAP5 DUP6 ADD MLOAD PUSH1 0x3 SWAP1 SWAP7 ADD SWAP6 SWAP1 SWAP6 SSTORE PUSH1 0xA0 DUP7 ADD MLOAD PUSH1 0x80 DUP8 ADD MLOAD DUP8 MLOAD PUSH1 0xE0 DUP10 ADD MLOAD DUP7 MLOAD SWAP2 DUP3 MSTORE SWAP5 DUP2 ADD SWAP5 SWAP1 SWAP5 MSTORE SWAP4 DUP4 ADD SWAP2 SWAP1 SWAP2 MSTORE DUP5 AND SWAP4 SWAP2 SWAP1 SWAP2 AND SWAP2 PUSH32 0xF3DEBAF22196A6DDF52A60FA71058CD7EDF5E25BB98F4E96C994A5D4A9B0DD3E SWAP2 ADD PUSH1 0x40 MLOAD DUP1 SWAP2 SUB SWAP1 LOG3 POP JUMPDEST DUP1 PUSH2 0x302C DUP2 PUSH2 0x3ADF JUMP JUMPDEST SWAP2 POP POP PUSH2 0x271D JUMP JUMPDEST POP PUSH1 0x1 SWAP6 SWAP5 POP POP POP POP POP JUMP JUMPDEST PUSH1 0x0 CALLER PUSH1 0x1 PUSH1 0x1 PUSH1 0xA0 SHL SUB AND PUSH1 0x8 DUP4 DUP2 SLOAD DUP2 LT PUSH2 0x305F JUMPI PUSH2 0x305F PUSH2 0x3A84 JUMP JUMPDEST PUSH1 0x0 SWAP2 DUP3 MSTORE PUSH1 0x20 SWAP1 SWAP2 KECCAK256 PUSH1 0x2 PUSH1 0xA SWAP1 SWAP3 MUL ADD ADD SLOAD PUSH1 0x1 PUSH1 0x1 PUSH1 0xA0 SHL SUB AND EQ PUSH2 0x30C0 JUMPI PUSH1 0x40 MLOAD PUSH3 0x461BCD PUSH1 0xE5 SHL DUP2 MSTORE PUSH1 0x20 PUSH1 0x4 DUP3 ADD MSTORE PUSH1 0x14 PUSH1 0x24 DUP3 ADD MSTORE PUSH20 0x155B985D5D1A1BDC9A5E994814195C9CDBDB995B PUSH1 0x62 SHL PUSH1 0x44 DUP3 ADD MSTORE PUSH1 0x64 ADD PUSH2 0xB93 JUMP JUMPDEST PUSH1 0x1 PUSH1 0x8 DUP4 DUP2 SLOAD DUP2 LT PUSH2 0x30D5 JUMPI PUSH2 0x30D5 PUSH2 0x3A84 JUMP JUMPDEST PUSH1 0x0 SWAP2 DUP3 MSTORE PUSH1 0x20 SWAP1 SWAP2 KECCAK256 PUSH1 0xA SWAP1 SWAP2 MUL ADD PUSH1 0x8 ADD DUP1 SLOAD PUSH1 0xFF NOT AND SWAP2 ISZERO ISZERO SWAP2 SWAP1 SWAP2 OR SWAP1 SSTORE POP PUSH1 0x1 SWAP2 SWAP1 POP JUMP JUMPDEST PUSH1 0x0 DUP3 PUSH1 0x1 PUSH1 0x1 PUSH1 0xA0 SHL SUB AND DUP3 PUSH1 0x40 MLOAD PUSH1 0x0 PUSH1 0x40 MLOAD DUP1 DUP4 SUB DUP2 DUP6 DUP8 GAS CALL SWAP3 POP POP POP RETURNDATASIZE DUP1 PUSH1 0x0 DUP2 EQ PUSH2 0x314C JUMPI PUSH1 0x40 MLOAD SWAP2 POP PUSH1 0x1F NOT PUSH1 0x3F RETURNDATASIZE ADD AND DUP3 ADD PUSH1 0x40 MSTORE RETURNDATASIZE DUP3 MSTORE RETURNDATASIZE PUSH1 0x0 PUSH1 0x20 DUP5 ADD RETURNDATACOPY PUSH2 0x3151 JUMP JUMPDEST PUSH1 0x60 SWAP2 POP JUMPDEST POP POP SWAP1 POP DUP1 PUSH2 0x315F JUMPI PUSH1 0x0 DUP1 REVERT JUMPDEST POP POP POP JUMP JUMPDEST PUSH1 0x0 DUP1 PUSH1 0x0 JUMPDEST DUP5 MLOAD DUP2 LT ISZERO PUSH2 0x31DA JUMPI DUP4 DUP2 DUP2 MLOAD DUP2 LT PUSH2 0x3185 JUMPI PUSH2 0x3185 PUSH2 0x3A84 JUMP JUMPDEST PUSH1 0x20 MUL PUSH1 0x20 ADD ADD MLOAD PUSH1 0x8 DUP3 DUP2 SLOAD DUP2 LT PUSH2 0x31A0 JUMPI PUSH2 0x31A0 PUSH2 0x3A84 JUMP JUMPDEST SWAP1 PUSH1 0x0 MSTORE PUSH1 0x20 PUSH1 0x0 KECCAK256 SWAP1 PUSH1 0xA MUL ADD PUSH1 0x6 ADD SLOAD PUSH2 0x31BC SWAP2 SWAP1 PUSH2 0x3AFA JUMP JUMPDEST PUSH2 0x31C6 SWAP1 DUP4 PUSH2 0x3AB0 JUMP JUMPDEST SWAP2 POP DUP1 PUSH2 0x31D2 DUP2 PUSH2 0x3ADF JUMP JUMPDEST SWAP2 POP POP PUSH2 0x316A JUMP JUMPDEST POP SWAP4 SWAP3 POP POP POP JUMP JUMPDEST PUSH1 0x40 MLOAD DUP1 PUSH2 0x140 ADD PUSH1 0x40 MSTORE DUP1 PUSH1 0x0 DUP2 MSTORE PUSH1 0x20 ADD PUSH1 0x60 DUP2 MSTORE PUSH1 0x20 ADD PUSH1 0x0 PUSH1 0x1 PUSH1 0x1 PUSH1 0xA0 SHL SUB AND DUP2 MSTORE PUSH1 0x20 ADD PUSH1 0x60 DUP2 MSTORE PUSH1 0x20 ADD PUSH1 0x60 DUP2 MSTORE PUSH1 0x20 ADD PUSH1 0x60 DUP2 MSTORE PUSH1 0x20 ADD PUSH1 0x0 DUP2 MSTORE PUSH1 0x20 ADD PUSH1 0x0 DUP2 MSTORE PUSH1 0x20 ADD PUSH1 0x0 ISZERO ISZERO DUP2 MSTORE PUSH1 0x20 ADD PUSH1 0x0 DUP2 MSTORE POP SWAP1 JUMP JUMPDEST DUP3 DUP1 SLOAD PUSH2 0x324C SWAP1 PUSH2 0x3A4F JUMP JUMPDEST SWAP1 PUSH1 0x0 MSTORE PUSH1 0x20 PUSH1 0x0 KECCAK256 SWAP1 PUSH1 0x1F ADD PUSH1 0x20 SWAP1 DIV DUP2 ADD SWAP3 DUP3 PUSH2 0x326E JUMPI PUSH1 0x0 DUP6 SSTORE PUSH2 0x32B4 JUMP JUMPDEST DUP3 PUSH1 0x1F LT PUSH2 0x3287 JUMPI DUP1 MLOAD PUSH1 0xFF NOT AND DUP4 DUP1 ADD OR DUP6 SSTORE PUSH2 0x32B4 JUMP JUMPDEST DUP3 DUP1 ADD PUSH1 0x1 ADD DUP6 SSTORE DUP3 ISZERO PUSH2 0x32B4 JUMPI SWAP2 DUP3 ADD JUMPDEST DUP3 DUP2 GT ISZERO PUSH2 0x32B4 JUMPI DUP3 MLOAD DUP3 SSTORE SWAP2 PUSH1 0x20 ADD SWAP2 SWAP1 PUSH1 0x1 ADD SWAP1 PUSH2 0x3299 JUMP JUMPDEST POP PUSH2 0x32C0 SWAP3 SWAP2 POP PUSH2 0x3347 JUMP JUMPDEST POP SWAP1 JUMP JUMPDEST PUSH1 0x40 MLOAD DUP1 PUSH2 0x180 ADD PUSH1 0x40 MSTORE DUP1 PUSH1 0x0 DUP2 MSTORE PUSH1 0x20 ADD PUSH1 0x60 DUP2 MSTORE PUSH1 0x20 ADD PUSH1 0x60 DUP2 MSTORE PUSH1 0x20 ADD PUSH1 0x60 DUP2 MSTORE PUSH1 0x20 ADD PUSH1 0x0 PUSH1 0x1 PUSH1 0x1 PUSH1 0xA0 SHL SUB AND DUP2 MSTORE PUSH1 0x20 ADD PUSH1 0x0 PUSH1 0x1 PUSH1 0x1 PUSH1 0xA0 SHL SUB AND DUP2 MSTORE PUSH1 0x20 ADD PUSH1 0x0 DUP2 MSTORE PUSH1 0x20 ADD PUSH1 0x0 DUP2 MSTORE PUSH1 0x20 ADD PUSH1 0x0 DUP2 MSTORE PUSH1 0x20 ADD PUSH1 0x60 DUP2 MSTORE PUSH1 0x20 ADD PUSH1 0x60 DUP2 MSTORE PUSH1 0x20 ADD PUSH1 0x0 PUSH1 0x3 DUP2 GT ISZERO PUSH2 0x3342 JUMPI PUSH2 0x3342 PUSH2 0x33A9 JUMP JUMPDEST SWAP1 MSTORE SWAP1 JUMP JUMPDEST JUMPDEST DUP1 DUP3 GT ISZERO PUSH2 0x32C0 JUMPI PUSH1 0x0 DUP2 SSTORE PUSH1 0x1 ADD PUSH2 0x3348 JUMP JUMPDEST PUSH1 0x0 DUP2 MLOAD DUP1 DUP5 MSTORE PUSH1 0x0 JUMPDEST DUP2 DUP2 LT ISZERO PUSH2 0x3382 JUMPI PUSH1 0x20 DUP2 DUP6 ADD DUP2 ADD MLOAD DUP7 DUP4 ADD DUP3 ADD MSTORE ADD PUSH2 0x3366 JUMP JUMPDEST DUP2 DUP2 GT ISZERO PUSH2 0x3394 JUMPI PUSH1 0x0 PUSH1 0x20 DUP4 DUP8 ADD ADD MSTORE JUMPDEST POP PUSH1 0x1F ADD PUSH1 0x1F NOT AND SWAP3 SWAP1 SWAP3 ADD PUSH1 0x20 ADD SWAP3 SWAP2 POP POP JUMP JUMPDEST PUSH4 0x4E487B71 PUSH1 0xE0 SHL PUSH1 0x0 MSTORE PUSH1 0x21 PUSH1 0x4 MSTORE PUSH1 0x24 PUSH1 0x0 REVERT JUMPDEST PUSH1 0x4 DUP2 LT PUSH2 0x33DD JUMPI PUSH4 0x4E487B71 PUSH1 0xE0 SHL PUSH1 0x0 MSTORE PUSH1 0x21 PUSH1 0x4 MSTORE PUSH1 0x24 PUSH1 0x0 REVERT JUMPDEST SWAP1 MSTORE JUMP JUMPDEST PUSH1 0x0 PUSH2 0x180 DUP3 MLOAD DUP5 MSTORE PUSH1 0x20 DUP4 ADD MLOAD DUP2 PUSH1 0x20 DUP7 ADD MSTORE PUSH2 0x3401 DUP3 DUP7 ADD DUP3 PUSH2 0x335C JUMP JUMPDEST SWAP2 POP POP PUSH1 0x40 DUP4 ADD MLOAD DUP5 DUP3 SUB PUSH1 0x40 DUP7 ADD MSTORE PUSH2 0x341B DUP3 DUP3 PUSH2 0x335C JUMP JUMPDEST SWAP2 POP POP PUSH1 0x60 DUP4 ADD MLOAD DUP5 DUP3 SUB PUSH1 0x60 DUP7 ADD MSTORE PUSH2 0x3435 DUP3 DUP3 PUSH2 0x335C JUMP JUMPDEST SWAP2 POP POP PUSH1 0x80 DUP4 ADD MLOAD PUSH2 0x3452 PUSH1 0x80 DUP7 ADD DUP3 PUSH1 0x1 PUSH1 0x1 PUSH1 0xA0 SHL SUB AND SWAP1 MSTORE JUMP JUMPDEST POP PUSH1 0xA0 DUP4 ADD MLOAD PUSH2 0x346D PUSH1 0xA0 DUP7 ADD DUP3 PUSH1 0x1 PUSH1 0x1 PUSH1 0xA0 SHL SUB AND SWAP1 MSTORE JUMP JUMPDEST POP PUSH1 0xC0 DUP4 ADD MLOAD PUSH1 0xC0 DUP6 ADD MSTORE PUSH1 0xE0 DUP4 ADD MLOAD PUSH1 0xE0 DUP6 ADD MSTORE PUSH2 0x100 DUP1 DUP5 ADD MLOAD DUP2 DUP7 ADD MSTORE POP PUSH2 0x120 DUP1 DUP5 ADD MLOAD DUP6 DUP4 SUB DUP3 DUP8 ADD MSTORE PUSH2 0x34A6 DUP4 DUP3 PUSH2 0x335C JUMP JUMPDEST SWAP3 POP POP POP PUSH2 0x140 DUP1 DUP5 ADD MLOAD DUP6 DUP4 SUB DUP3 DUP8 ADD MSTORE PUSH2 0x34C2 DUP4 DUP3 PUSH2 0x335C JUMP JUMPDEST SWAP3 POP POP POP PUSH2 0x160 DUP1 DUP5 ADD MLOAD PUSH2 0x34D9 DUP3 DUP8 ADD DUP3 PUSH2 0x33BF JUMP JUMPDEST POP SWAP1 SWAP5 SWAP4 POP POP POP POP JUMP JUMPDEST PUSH1 0x0 PUSH1 0x20 DUP1 DUP4 ADD DUP2 DUP5 MSTORE DUP1 DUP6 MLOAD DUP1 DUP4 MSTORE PUSH1 0x40 DUP7 ADD SWAP2 POP PUSH1 0x40 DUP2 PUSH1 0x5 SHL DUP8 ADD ADD SWAP3 POP DUP4 DUP8 ADD PUSH1 0x0 JUMPDEST DUP3 DUP2 LT ISZERO PUSH2 0x3538 JUMPI PUSH1 0x3F NOT DUP9 DUP7 SUB ADD DUP5 MSTORE PUSH2 0x3526 DUP6 DUP4 MLOAD PUSH2 0x33E1 JUMP JUMPDEST SWAP5 POP SWAP3 DUP6 ADD SWAP3 SWAP1 DUP6 ADD SWAP1 PUSH1 0x1 ADD PUSH2 0x350A JUMP JUMPDEST POP SWAP3 SWAP8 SWAP7 POP POP POP POP POP POP POP JUMP JUMPDEST PUSH1 0x0 PUSH1 0x20 DUP3 DUP5 SUB SLT ISZERO PUSH2 0x3557 JUMPI PUSH1 0x0 DUP1 REVERT JUMPDEST DUP2 CALLDATALOAD PUSH1 0x1 PUSH1 0x1 PUSH1 0xA0 SHL SUB DUP2 AND DUP2 EQ PUSH2 0x356E JUMPI PUSH1 0x0 DUP1 REVERT JUMPDEST SWAP4 SWAP3 POP POP POP JUMP JUMPDEST PUSH1 0x0 PUSH1 0x20 DUP3 DUP5 SUB SLT ISZERO PUSH2 0x3587 JUMPI PUSH1 0x0 DUP1 REVERT JUMPDEST POP CALLDATALOAD SWAP2 SWAP1 POP JUMP JUMPDEST PUSH1 0x0 DUP1 PUSH1 0x40 DUP4 DUP6 SUB SLT ISZERO PUSH2 0x35A1 JUMPI PUSH1 0x0 DUP1 REVERT JUMPDEST DUP3 CALLDATALOAD SWAP2 POP PUSH1 0x20 DUP4 ADD CALLDATALOAD PUSH1 0x4 DUP2 LT PUSH2 0x35B7 JUMPI PUSH1 0x0 DUP1 REVERT JUMPDEST DUP1 SWAP2 POP POP SWAP3 POP SWAP3 SWAP1 POP JUMP JUMPDEST PUSH1 0x20 DUP1 DUP3 MSTORE DUP3 MLOAD DUP3 DUP3 ADD DUP2 SWAP1 MSTORE PUSH1 0x0 SWAP2 SWAP1 PUSH1 0x40 SWAP1 DUP2 DUP6 ADD SWAP1 DUP7 DUP5 ADD DUP6 JUMPDEST DUP3 DUP2 LT ISZERO PUSH2 0x3622 JUMPI DUP2 MLOAD DUP1 MLOAD PUSH1 0x1 PUSH1 0x1 PUSH1 0xA0 SHL SUB AND DUP6 MSTORE DUP7 DUP2 ADD MLOAD DUP8 DUP7 ADD MSTORE DUP6 DUP2 ADD MLOAD DUP7 DUP7 ADD MSTORE PUSH1 0x60 SWAP1 DUP2 ADD MLOAD SWAP1 DUP6 ADD MSTORE PUSH1 0x80 SWAP1 SWAP4 ADD SWAP3 SWAP1 DUP6 ADD SWAP1 PUSH1 0x1 ADD PUSH2 0x35DF JUMP JUMPDEST POP SWAP2 SWAP8 SWAP7 POP POP POP POP POP POP POP JUMP JUMPDEST PUSH1 0x0 PUSH2 0x140 DUP3 MLOAD DUP5 MSTORE PUSH1 0x20 DUP4 ADD MLOAD DUP2 PUSH1 0x20 DUP7 ADD MSTORE PUSH2 0x364F DUP3 DUP7 ADD DUP3 PUSH2 0x335C JUMP JUMPDEST SWAP2 POP POP PUSH1 0x40 DUP4 ADD MLOAD PUSH2 0x366C PUSH1 0x40 DUP7 ADD DUP3 PUSH1 0x1 PUSH1 0x1 PUSH1 0xA0 SHL SUB AND SWAP1 MSTORE JUMP JUMPDEST POP PUSH1 0x60 DUP4 ADD MLOAD DUP5 DUP3 SUB PUSH1 0x60 DUP7 ADD MSTORE PUSH2 0x3684 DUP3 DUP3 PUSH2 0x335C JUMP JUMPDEST SWAP2 POP POP PUSH1 0x80 DUP4 ADD MLOAD DUP5 DUP3 SUB PUSH1 0x80 DUP7 ADD MSTORE PUSH2 0x369E DUP3 DUP3 PUSH2 0x335C JUMP JUMPDEST SWAP2 POP POP PUSH1 0xA0 DUP4 ADD MLOAD DUP5 DUP3 SUB PUSH1 0xA0 DUP7 ADD MSTORE PUSH2 0x36B8 DUP3 DUP3 PUSH2 0x335C JUMP JUMPDEST SWAP2 POP POP PUSH1 0xC0 DUP4 ADD MLOAD PUSH1 0xC0 DUP6 ADD MSTORE PUSH1 0xE0 DUP4 ADD MLOAD PUSH1 0xE0 DUP6 ADD MSTORE PUSH2 0x100 DUP1 DUP5 ADD MLOAD PUSH2 0x36E3 DUP3 DUP8 ADD DUP3 ISZERO ISZERO SWAP1 MSTORE JUMP JUMPDEST POP POP PUSH2 0x120 SWAP3 DUP4 ADD MLOAD SWAP4 SWAP1 SWAP3 ADD SWAP3 SWAP1 SWAP3 MSTORE SWAP2 SWAP1 POP JUMP JUMPDEST PUSH1 0x20 DUP2 MSTORE PUSH1 0x0 PUSH2 0x356E PUSH1 0x20 DUP4 ADD DUP5 PUSH2 0x362F JUMP JUMPDEST PUSH4 0x4E487B71 PUSH1 0xE0 SHL PUSH1 0x0 MSTORE PUSH1 0x41 PUSH1 0x4 MSTORE PUSH1 0x24 PUSH1 0x0 REVERT JUMPDEST PUSH1 0x40 MLOAD PUSH1 0x1F DUP3 ADD PUSH1 0x1F NOT AND DUP2 ADD PUSH8 0xFFFFFFFFFFFFFFFF DUP2 GT DUP3 DUP3 LT OR ISZERO PUSH2 0x374B JUMPI PUSH2 0x374B PUSH2 0x370C JUMP JUMPDEST PUSH1 0x40 MSTORE SWAP2 SWAP1 POP JUMP JUMPDEST PUSH1 0x0 DUP3 PUSH1 0x1F DUP4 ADD SLT PUSH2 0x3764 JUMPI PUSH1 0x0 DUP1 REVERT JUMPDEST DUP2 CALLDATALOAD PUSH8 0xFFFFFFFFFFFFFFFF DUP2 GT ISZERO PUSH2 0x377E JUMPI PUSH2 0x377E PUSH2 0x370C JUMP JUMPDEST PUSH2 0x3791 PUSH1 0x1F DUP3 ADD PUSH1 0x1F NOT AND PUSH1 0x20 ADD PUSH2 0x3722 JUMP JUMPDEST DUP2 DUP2 MSTORE DUP5 PUSH1 0x20 DUP4 DUP7 ADD ADD GT ISZERO PUSH2 0x37A6 JUMPI PUSH1 0x0 DUP1 REVERT JUMPDEST DUP2 PUSH1 0x20 DUP6 ADD PUSH1 0x20 DUP4 ADD CALLDATACOPY PUSH1 0x0 SWAP2 DUP2 ADD PUSH1 0x20 ADD SWAP2 SWAP1 SWAP2 MSTORE SWAP4 SWAP3 POP POP POP JUMP JUMPDEST PUSH1 0x0 DUP1 PUSH1 0x0 DUP1 PUSH1 0x0 DUP1 PUSH1 0xC0 DUP8 DUP10 SUB SLT ISZERO PUSH2 0x37DC JUMPI PUSH1 0x0 DUP1 REVERT JUMPDEST DUP7 CALLDATALOAD SWAP6 POP PUSH1 0x20 DUP8 ADD CALLDATALOAD PUSH8 0xFFFFFFFFFFFFFFFF DUP1 DUP3 GT ISZERO PUSH2 0x37FB JUMPI PUSH1 0x0 DUP1 REVERT JUMPDEST PUSH2 0x3807 DUP11 DUP4 DUP12 ADD PUSH2 0x3753 JUMP JUMPDEST SWAP7 POP PUSH1 0x40 DUP10 ADD CALLDATALOAD SWAP2 POP DUP1 DUP3 GT ISZERO PUSH2 0x381D JUMPI PUSH1 0x0 DUP1 REVERT JUMPDEST PUSH2 0x3829 DUP11 DUP4 DUP12 ADD PUSH2 0x3753 JUMP JUMPDEST SWAP6 POP PUSH1 0x60 DUP10 ADD CALLDATALOAD SWAP2 POP DUP1 DUP3 GT ISZERO PUSH2 0x383F JUMPI PUSH1 0x0 DUP1 REVERT JUMPDEST POP PUSH2 0x384C DUP10 DUP3 DUP11 ADD PUSH2 0x3753 JUMP JUMPDEST SWAP4 POP POP PUSH1 0x80 DUP8 ADD CALLDATALOAD SWAP2 POP PUSH1 0xA0 DUP8 ADD CALLDATALOAD SWAP1 POP SWAP3 SWAP6 POP SWAP3 SWAP6 POP SWAP3 SWAP6 JUMP JUMPDEST PUSH1 0x0 PUSH1 0x20 DUP1 DUP4 ADD DUP2 DUP5 MSTORE DUP1 DUP6 MLOAD DUP1 DUP4 MSTORE PUSH1 0x40 DUP7 ADD SWAP2 POP PUSH1 0x40 DUP2 PUSH1 0x5 SHL DUP8 ADD ADD SWAP3 POP DUP4 DUP8 ADD PUSH1 0x0 JUMPDEST DUP3 DUP2 LT ISZERO PUSH2 0x3538 JUMPI PUSH1 0x3F NOT DUP9 DUP7 SUB ADD DUP5 MSTORE PUSH2 0x38AA DUP6 DUP4 MLOAD PUSH2 0x362F JUMP JUMPDEST SWAP5 POP SWAP3 DUP6 ADD SWAP3 SWAP1 DUP6 ADD SWAP1 PUSH1 0x1 ADD PUSH2 0x388E JUMP JUMPDEST PUSH1 0x0 DUP1 PUSH1 0x0 DUP1 PUSH1 0x0 DUP1 PUSH1 0xC0 DUP8 DUP10 SUB SLT ISZERO PUSH2 0x38D5 JUMPI PUSH1 0x0 DUP1 REVERT JUMPDEST DUP7 CALLDATALOAD PUSH8 0xFFFFFFFFFFFFFFFF DUP1 DUP3 GT ISZERO PUSH2 0x38ED JUMPI PUSH1 0x0 DUP1 REVERT JUMPDEST PUSH2 0x38F9 DUP11 DUP4 DUP12 ADD PUSH2 0x3753 JUMP JUMPDEST SWAP8 POP PUSH1 0x20 DUP10 ADD CALLDATALOAD SWAP2 POP DUP1 DUP3 GT ISZERO PUSH2 0x37FB JUMPI PUSH1 0x0 DUP1 REVERT JUMPDEST PUSH1 0x20 DUP2 MSTORE PUSH1 0x0 PUSH2 0x356E PUSH1 0x20 DUP4 ADD DUP5 PUSH2 0x33E1 JUMP JUMPDEST PUSH1 0x0 DUP3 PUSH1 0x1F DUP4 ADD SLT PUSH2 0x3933 JUMPI PUSH1 0x0 DUP1 REVERT JUMPDEST DUP2 CALLDATALOAD PUSH1 0x20 PUSH8 0xFFFFFFFFFFFFFFFF DUP3 GT ISZERO PUSH2 0x394F JUMPI PUSH2 0x394F PUSH2 0x370C JUMP JUMPDEST DUP2 PUSH1 0x5 SHL PUSH2 0x395E DUP3 DUP3 ADD PUSH2 0x3722 JUMP JUMPDEST SWAP3 DUP4 MSTORE DUP5 DUP2 ADD DUP3 ADD SWAP3 DUP3 DUP2 ADD SWAP1 DUP8 DUP6 GT ISZERO PUSH2 0x3978 JUMPI PUSH1 0x0 DUP1 REVERT JUMPDEST DUP4 DUP8 ADD SWAP3 POP JUMPDEST DUP5 DUP4 LT ISZERO PUSH2 0x3997 JUMPI DUP3 CALLDATALOAD DUP3 MSTORE SWAP2 DUP4 ADD SWAP2 SWAP1 DUP4 ADD SWAP1 PUSH2 0x397E JUMP JUMPDEST SWAP8 SWAP7 POP POP POP POP POP POP POP JUMP JUMPDEST PUSH1 0x0 DUP1 PUSH1 0x0 DUP1 PUSH1 0x80 DUP6 DUP8 SUB SLT ISZERO PUSH2 0x39B8 JUMPI PUSH1 0x0 DUP1 REVERT JUMPDEST DUP5 CALLDATALOAD PUSH8 0xFFFFFFFFFFFFFFFF DUP1 DUP3 GT ISZERO PUSH2 0x39D0 JUMPI PUSH1 0x0 DUP1 REVERT JUMPDEST PUSH2 0x39DC DUP9 DUP4 DUP10 ADD PUSH2 0x3922 JUMP JUMPDEST SWAP6 POP PUSH1 0x20 DUP8 ADD CALLDATALOAD SWAP2 POP DUP1 DUP3 GT ISZERO PUSH2 0x39F2 JUMPI PUSH1 0x0 DUP1 REVERT JUMPDEST PUSH2 0x39FE DUP9 DUP4 DUP10 ADD PUSH2 0x3922 JUMP JUMPDEST SWAP5 POP PUSH1 0x40 DUP8 ADD CALLDATALOAD SWAP2 POP DUP1 DUP3 GT ISZERO PUSH2 0x3A14 JUMPI PUSH1 0x0 DUP1 REVERT JUMPDEST PUSH2 0x3A20 DUP9 DUP4 DUP10 ADD PUSH2 0x3753 JUMP JUMPDEST SWAP4 POP PUSH1 0x60 DUP8 ADD CALLDATALOAD SWAP2 POP DUP1 DUP3 GT ISZERO PUSH2 0x3A36 JUMPI PUSH1 0x0 DUP1 REVERT JUMPDEST POP PUSH2 0x3A43 DUP8 DUP3 DUP9 ADD PUSH2 0x3753 JUMP JUMPDEST SWAP2 POP POP SWAP3 SWAP6 SWAP2 SWAP5 POP SWAP3 POP JUMP JUMPDEST PUSH1 0x1 DUP2 DUP2 SHR SWAP1 DUP3 AND DUP1 PUSH2 0x3A63 JUMPI PUSH1 0x7F DUP3 AND SWAP2 POP JUMPDEST PUSH1 0x20 DUP3 LT DUP2 EQ ISZERO PUSH2 0x2576 JUMPI PUSH4 0x4E487B71 PUSH1 0xE0 SHL PUSH1 0x0 MSTORE PUSH1 0x22 PUSH1 0x4 MSTORE PUSH1 0x24 PUSH1 0x0 REVERT JUMPDEST PUSH4 0x4E487B71 PUSH1 0xE0 SHL PUSH1 0x0 MSTORE PUSH1 0x32 PUSH1 0x4 MSTORE PUSH1 0x24 PUSH1 0x0 REVERT JUMPDEST PUSH4 0x4E487B71 PUSH1 0xE0 SHL PUSH1 0x0 MSTORE PUSH1 0x11 PUSH1 0x4 MSTORE PUSH1 0x24 PUSH1 0x0 REVERT JUMPDEST PUSH1 0x0 DUP3 NOT DUP3 GT ISZERO PUSH2 0x3AC3 JUMPI PUSH2 0x3AC3 PUSH2 0x3A9A JUMP JUMPDEST POP ADD SWAP1 JUMP JUMPDEST PUSH1 0x0 DUP3 DUP3 LT ISZERO PUSH2 0x3ADA JUMPI PUSH2 0x3ADA PUSH2 0x3A9A JUMP JUMPDEST POP SUB SWAP1 JUMP JUMPDEST PUSH1 0x0 PUSH1 0x0 NOT DUP3 EQ ISZERO PUSH2 0x3AF3 JUMPI PUSH2 0x3AF3 PUSH2 0x3A9A JUMP JUMPDEST POP PUSH1 0x1 ADD SWAP1 JUMP JUMPDEST PUSH1 0x0 DUP2 PUSH1 0x0 NOT DIV DUP4 GT DUP3 ISZERO ISZERO AND ISZERO PUSH2 0x3B14 JUMPI PUSH2 0x3B14 PUSH2 0x3A9A JUMP JUMPDEST POP MUL SWAP1 JUMP JUMPDEST PUSH1 0x0 DUP3 PUSH2 0x3B36 JUMPI PUSH4 0x4E487B71 PUSH1 0xE0 SHL PUSH1 0x0 MSTORE PUSH1 0x12 PUSH1 0x4 MSTORE PUSH1 0x24 PUSH1 0x0 REVERT JUMPDEST POP DIV SWAP1 JUMP INVALID LOG2 PUSH5 0x6970667358 0x22 SLT KECCAK256 COINBASE 0x5F MOD 0xB0 PUSH15 0x90655E1543C10AC20AC0C9534FBE4B 0x5F 0xBD AND 0xEB EXTCODECOPY BASEFEE 0xA6 MULMOD PUSH18 0xFFC31D64736F6C634300080B003300000000 "},"methodIdentifiers":{"cancelOrder(uint256)":"514fcac7","createOrder(uint256[],uint256[],string,string)":"e0e83bb3","createProduct(string,string,string,string,uint256,uint256)":"c39e0b2b","deleteProduct(uint256)":"ed90c7b7","fee()":"ddca3f43","getBuyers(uint256)":"7feafd20","getOrder(uint256)":"d09ef241","getOrders()":"2e2dc43e","getProduct(uint256)":"b9db15b4","getProducts()":"c29b2f20","getSale(uint256)":"d8f6d596","getSales()":"0d83304c","markOrderAs(uint256,uint8)":"65f3fcd7","owner()":"8da5cb5b","stats()":"d80528ae","statsOf(address)":"15cfc405","updateProduct(uint256,string,string,string,uint256,uint256)":"bab8d872"}}}}}