{
  "_format": "hh-sol-artifact-1",
  "contractName": "Shop",
  "sourceName": "src/contracts/Shop.sol",
  "abi": [
    {
      "inputs": [
        {
          "internalType": "uint256",
          "name": "_fee",
          "type": "uint256"
        }
      ],
      "stateMutability": "nonpayable",
      "type": "constructor"
    },
    {
      "anonymous": false,
      "inputs": [
        {
          "indexed": false,
          "internalType": "uint256",
          "name": "id",
          "type": "uint256"
        },
        {
          "indexed": true,
          "internalType": "address",
          "name": "buyer",
          "type": "address"
        },
        {
          "indexed": true,
          "internalType": "address",
          "name": "seller",
          "type": "address"
        },
        {
          "indexed": false,
          "internalType": "uint256",
          "name": "price",
          "type": "uint256"
        },
        {
          "indexed": false,
          "internalType": "uint256",
          "name": "timestamp",
          "type": "uint256"
        }
      ],
      "name": "Sale",
      "type": "event"
    },
    {
      "inputs": [
        {
          "internalType": "uint256",
          "name": "pid",
          "type": "uint256"
        },
        {
          "internalType": "uint256",
          "name": "id",
          "type": "uint256"
        }
      ],
      "name": "cancelOrder",
      "outputs": [
        {
          "internalType": "bool",
          "name": "",
          "type": "bool"
        }
      ],
      "stateMutability": "nonpayable",
      "type": "function"
    },
    {
      "inputs": [
        {
          "internalType": "uint256[]",
          "name": "ids",
          "type": "uint256[]"
        },
        {
          "internalType": "uint256[]",
          "name": "qtys",
          "type": "uint256[]"
        },
        {
          "internalType": "string",
          "name": "destination",
          "type": "string"
        },
        {
          "internalType": "string",
          "name": "phone",
          "type": "string"
        }
      ],
      "name": "createOrder",
      "outputs": [
        {
          "internalType": "bool",
          "name": "",
          "type": "bool"
        }
      ],
      "stateMutability": "payable",
      "type": "function"
    },
    {
      "inputs": [
        {
          "internalType": "string",
          "name": "sku",
          "type": "string"
        },
        {
          "internalType": "string",
          "name": "name",
          "type": "string"
        },
        {
          "internalType": "string",
          "name": "description",
          "type": "string"
        },
        {
          "internalType": "string",
          "name": "imageURL",
          "type": "string"
        },
        {
          "internalType": "uint256",
          "name": "price",
          "type": "uint256"
        },
        {
          "internalType": "uint256",
          "name": "stock",
          "type": "uint256"
        }
      ],
      "name": "createProduct",
      "outputs": [
        {
          "internalType": "bool",
          "name": "",
          "type": "bool"
        }
      ],
      "stateMutability": "payable",
      "type": "function"
    },
    {
      "inputs": [
        {
          "internalType": "uint256",
          "name": "id",
          "type": "uint256"
        }
      ],
      "name": "deleteProduct",
      "outputs": [
        {
          "internalType": "bool",
          "name": "",
          "type": "bool"
        }
      ],
      "stateMutability": "nonpayable",
      "type": "function"
    },
    {
      "inputs": [
        {
          "internalType": "uint256",
          "name": "pid",
          "type": "uint256"
        },
        {
          "internalType": "uint256",
          "name": "id",
          "type": "uint256"
        }
      ],
      "name": "deliverOrder",
      "outputs": [
        {
          "internalType": "bool",
          "name": "",
          "type": "bool"
        }
      ],
      "stateMutability": "nonpayable",
      "type": "function"
    },
    {
      "inputs": [],
      "name": "fee",
      "outputs": [
        {
          "internalType": "uint256",
          "name": "",
          "type": "uint256"
        }
      ],
      "stateMutability": "view",
      "type": "function"
    },
    {
      "inputs": [
        {
          "internalType": "uint256",
          "name": "pid",
          "type": "uint256"
        }
      ],
      "name": "getBuyers",
      "outputs": [
        {
          "components": [
            {
              "internalType": "address",
              "name": "buyer",
              "type": "address"
            },
            {
              "internalType": "uint256",
              "name": "price",
              "type": "uint256"
            },
            {
              "internalType": "uint256",
              "name": "qty",
              "type": "uint256"
            },
            {
              "internalType": "uint256",
              "name": "timestamp",
              "type": "uint256"
            }
          ],
          "internalType": "struct Shop.BuyerStruct[]",
          "name": "buyers",
          "type": "tuple[]"
        }
      ],
      "stateMutability": "view",
      "type": "function"
    },
    {
      "inputs": [
        {
          "internalType": "uint256",
          "name": "pid",
          "type": "uint256"
        },
        {
          "internalType": "uint256",
          "name": "id",
          "type": "uint256"
        }
      ],
      "name": "getOrder",
      "outputs": [
        {
          "components": [
            {
              "internalType": "uint256",
              "name": "id",
              "type": "uint256"
            },
            {
              "internalType": "uint256",
              "name": "pid",
              "type": "uint256"
            },
            {
              "internalType": "string",
              "name": "sku",
              "type": "string"
            },
            {
              "internalType": "string",
              "name": "name",
              "type": "string"
            },
            {
              "internalType": "string",
              "name": "imageURL",
              "type": "string"
            },
            {
              "internalType": "address",
              "name": "buyer",
              "type": "address"
            },
            {
              "internalType": "address",
              "name": "seller",
              "type": "address"
            },
            {
              "internalType": "uint256",
              "name": "qty",
              "type": "uint256"
            },
            {
              "internalType": "uint256",
              "name": "total",
              "type": "uint256"
            },
            {
              "internalType": "uint256",
              "name": "timestamp",
              "type": "uint256"
            },
            {
              "internalType": "string",
              "name": "destination",
              "type": "string"
            },
            {
              "internalType": "string",
              "name": "phone",
              "type": "string"
            },
            {
              "internalType": "enum Shop.OrderEnum",
              "name": "status",
              "type": "uint8"
            }
          ],
          "internalType": "struct Shop.OrderStruct",
          "name": "",
          "type": "tuple"
        }
      ],
      "stateMutability": "view",
      "type": "function"
    },
    {
      "inputs": [],
      "name": "getOrders",
      "outputs": [
        {
          "components": [
            {
              "internalType": "uint256",
              "name": "id",
              "type": "uint256"
            },
            {
              "internalType": "uint256",
              "name": "pid",
              "type": "uint256"
            },
            {
              "internalType": "string",
              "name": "sku",
              "type": "string"
            },
            {
              "internalType": "string",
              "name": "name",
              "type": "string"
            },
            {
              "internalType": "string",
              "name": "imageURL",
              "type": "string"
            },
            {
              "internalType": "address",
              "name": "buyer",
              "type": "address"
            },
            {
              "internalType": "address",
              "name": "seller",
              "type": "address"
            },
            {
              "internalType": "uint256",
              "name": "qty",
              "type": "uint256"
            },
            {
              "internalType": "uint256",
              "name": "total",
              "type": "uint256"
            },
            {
              "internalType": "uint256",
              "name": "timestamp",
              "type": "uint256"
            },
            {
              "internalType": "string",
              "name": "destination",
              "type": "string"
            },
            {
              "internalType": "string",
              "name": "phone",
              "type": "string"
            },
            {
              "internalType": "enum Shop.OrderEnum",
              "name": "status",
              "type": "uint8"
            }
          ],
          "internalType": "struct Shop.OrderStruct[]",
          "name": "",
          "type": "tuple[]"
        }
      ],
      "stateMutability": "view",
      "type": "function"
    },
    {
      "inputs": [
        {
          "internalType": "uint256",
          "name": "id",
          "type": "uint256"
        }
      ],
      "name": "getProduct",
      "outputs": [
        {
          "components": [
            {
              "internalType": "uint256",
              "name": "id",
              "type": "uint256"
            },
            {
              "internalType": "string",
              "name": "sku",
              "type": "string"
            },
            {
              "internalType": "address",
              "name": "seller",
              "type": "address"
            },
            {
              "internalType": "string",
              "name": "name",
              "type": "string"
            },
            {
              "internalType": "string",
              "name": "imageURL",
              "type": "string"
            },
            {
              "internalType": "string",
              "name": "description",
              "type": "string"
            },
            {
              "internalType": "uint256",
              "name": "price",
              "type": "uint256"
            },
            {
              "internalType": "uint256",
              "name": "timestamp",
              "type": "uint256"
            },
            {
              "internalType": "bool",
              "name": "deleted",
              "type": "bool"
            },
            {
              "internalType": "uint256",
              "name": "stock",
              "type": "uint256"
            }
          ],
          "internalType": "struct Shop.ProductStruct",
          "name": "",
          "type": "tuple"
        }
      ],
      "stateMutability": "view",
      "type": "function"
    },
    {
      "inputs": [],
      "name": "getProducts",
      "outputs": [
        {
          "components": [
            {
              "internalType": "uint256",
              "name": "id",
              "type": "uint256"
            },
            {
              "internalType": "string",
              "name": "sku",
              "type": "string"
            },
            {
              "internalType": "address",
              "name": "seller",
              "type": "address"
            },
            {
              "internalType": "string",
              "name": "name",
              "type": "string"
            },
            {
              "internalType": "string",
              "name": "imageURL",
              "type": "string"
            },
            {
              "internalType": "string",
              "name": "description",
              "type": "string"
            },
            {
              "internalType": "uint256",
              "name": "price",
              "type": "uint256"
            },
            {
              "internalType": "uint256",
              "name": "timestamp",
              "type": "uint256"
            },
            {
              "internalType": "bool",
              "name": "deleted",
              "type": "bool"
            },
            {
              "internalType": "uint256",
              "name": "stock",
              "type": "uint256"
            }
          ],
          "internalType": "struct Shop.ProductStruct[]",
          "name": "",
          "type": "tuple[]"
        }
      ],
      "stateMutability": "view",
      "type": "function"
    },
    {
      "inputs": [
        {
          "internalType": "uint256",
          "name": "",
          "type": "uint256"
        }
      ],
      "name": "orderExist",
      "outputs": [
        {
          "internalType": "bool",
          "name": "",
          "type": "bool"
        }
      ],
      "stateMutability": "view",
      "type": "function"
    },
    {
      "inputs": [],
      "name": "owner",
      "outputs": [
        {
          "internalType": "address",
          "name": "",
          "type": "address"
        }
      ],
      "stateMutability": "view",
      "type": "function"
    },
    {
      "inputs": [
        {
          "internalType": "uint256",
          "name": "",
          "type": "uint256"
        }
      ],
      "name": "productExist",
      "outputs": [
        {
          "internalType": "bool",
          "name": "",
          "type": "bool"
        }
      ],
      "stateMutability": "view",
      "type": "function"
    },
    {
      "inputs": [],
      "name": "stats",
      "outputs": [
        {
          "internalType": "uint256",
          "name": "products",
          "type": "uint256"
        },
        {
          "internalType": "uint256",
          "name": "orders",
          "type": "uint256"
        },
        {
          "internalType": "uint256",
          "name": "sellers",
          "type": "uint256"
        },
        {
          "internalType": "uint256",
          "name": "sales",
          "type": "uint256"
        },
        {
          "internalType": "uint256",
          "name": "paid",
          "type": "uint256"
        },
        {
          "internalType": "uint256",
          "name": "balance",
          "type": "uint256"
        }
      ],
      "stateMutability": "view",
      "type": "function"
    },
    {
      "inputs": [
        {
          "internalType": "address",
          "name": "",
          "type": "address"
        }
      ],
      "name": "statsOf",
      "outputs": [
        {
          "internalType": "uint256",
          "name": "products",
          "type": "uint256"
        },
        {
          "internalType": "uint256",
          "name": "orders",
          "type": "uint256"
        },
        {
          "internalType": "uint256",
          "name": "sellers",
          "type": "uint256"
        },
        {
          "internalType": "uint256",
          "name": "sales",
          "type": "uint256"
        },
        {
          "internalType": "uint256",
          "name": "paid",
          "type": "uint256"
        },
        {
          "internalType": "uint256",
          "name": "balance",
          "type": "uint256"
        }
      ],
      "stateMutability": "view",
      "type": "function"
    },
    {
      "inputs": [
        {
          "internalType": "uint256",
          "name": "id",
          "type": "uint256"
        },
        {
          "internalType": "string",
          "name": "name",
          "type": "string"
        },
        {
          "internalType": "string",
          "name": "description",
          "type": "string"
        },
        {
          "internalType": "string",
          "name": "imageURL",
          "type": "string"
        },
        {
          "internalType": "uint256",
          "name": "price",
          "type": "uint256"
        },
        {
          "internalType": "uint256",
          "name": "stock",
          "type": "uint256"
        }
      ],
      "name": "updateProduct",
      "outputs": [
        {
          "internalType": "bool",
          "name": "",
          "type": "bool"
        }
      ],
      "stateMutability": "nonpayable",
      "type": "function"
    }
  ],
  "bytecode": "0x60806040523480156200001157600080fd5b5060405162003ecc38038062003ecc83398101604081905262000034916200004f565b600080546001600160a01b0319163317905560075562000069565b6000602082840312156200006257600080fd5b5051919050565b613e5380620000796000396000f3fe6080604052600436106100fe5760003560e01c8063bab8d87211610095578063ddca3f4311610064578063ddca3f4314610346578063e0e83bb31461036a578063e6e110ce1461037d578063e77a67ea1461039d578063ed90c7b7146103cd57600080fd5b8063bab8d872146102c6578063c29b2f20146102e6578063c39e0b2b14610308578063d80528ae1461031b57600080fd5b80638da5cb5b116100d15780638da5cb5b14610201578063b4ad5d6714610239578063b6ed063214610279578063b9db15b41461029957600080fd5b806315cfc405146101035780632e2dc43e146101855780635e1a3573146101a75780637feafd20146101d4575b600080fd5b34801561010f57600080fd5b5061015361011e366004613617565b600c60205260009081526040902080546001820154600283015460038401546004850154600590950154939492939192909186565b604080519687526020870195909552938501929092526060840152608083015260a082015260c0015b60405180910390f35b34801561019157600080fd5b5061019a6103ed565b60405161017c91906137d8565b3480156101b357600080fd5b506101c76101c236600461383a565b6107b0565b60405161017c919061385c565b3480156101e057600080fd5b506101f46101ef36600461386f565b610b92565b60405161017c9190613888565b34801561020d57600080fd5b50600054610221906001600160a01b031681565b6040516001600160a01b03909116815260200161017c565b34801561024557600080fd5b5061026961025436600461386f565b600f6020526000908152604090205460ff1681565b604051901515815260200161017c565b34801561028557600080fd5b5061026961029436600461383a565b610c7d565b3480156102a557600080fd5b506102b96102b436600461386f565b61140a565b60405161017c91906139bf565b3480156102d257600080fd5b506102696102e1366004613a89565b61172e565b3480156102f257600080fd5b506102fb611a15565b60405161017c9190613b2d565b610269610316366004613b82565b611d08565b34801561032757600080fd5b5060015460025460035460045460055460065461015395949392919086565b34801561035257600080fd5b5061035c60075481565b60405190815260200161017c565b610269610378366004613c55565b612028565b34801561038957600080fd5b5061026961039836600461383a565b612a7b565b3480156103a957600080fd5b506102696103b836600461386f565b600e6020526000908152604090205460ff1681565b3480156103d957600080fd5b506102696103e836600461386f565b6132f4565b60606009805480602002602001604051908101604052809291908181526020016000905b828210156107a757838290600052602060002090600d0201604051806101a0016040529081600082015481526020016001820154815260200160028201805461045990613d02565b80601f016020809104026020016040519081016040528092919081815260200182805461048590613d02565b80156104d25780601f106104a7576101008083540402835291602001916104d2565b820191906000526020600020905b8154815290600101906020018083116104b557829003601f168201915b505050505081526020016003820180546104eb90613d02565b80601f016020809104026020016040519081016040528092919081815260200182805461051790613d02565b80156105645780601f1061053957610100808354040283529160200191610564565b820191906000526020600020905b81548152906001019060200180831161054757829003601f168201915b5050505050815260200160048201805461057d90613d02565b80601f01602080910402602001604051908101604052809291908181526020018280546105a990613d02565b80156105f65780601f106105cb576101008083540402835291602001916105f6565b820191906000526020600020905b8154815290600101906020018083116105d957829003601f168201915b505050918352505060058201546001600160a01b03908116602083015260068301541660408201526007820154606082015260088201546080820152600982015460a0820152600a8201805460c09092019161065190613d02565b80601f016020809104026020016040519081016040528092919081815260200182805461067d90613d02565b80156106ca5780601f1061069f576101008083540402835291602001916106ca565b820191906000526020600020905b8154815290600101906020018083116106ad57829003601f168201915b50505050508152602001600b820180546106e390613d02565b80601f016020809104026020016040519081016040528092919081815260200182805461070f90613d02565b801561075c5780601f106107315761010080835404028352916020019161075c565b820191906000526020600020905b81548152906001019060200180831161073f57829003601f168201915b5050509183525050600c82015460209091019060ff16600381111561078357610783613694565b600381111561079457610794613694565b8152505081526020019060010190610411565b50505050905090565b6107b8613496565b6000828152600f602052604090205460ff166107ef5760405162461bcd60e51b81526004016107e690613d3d565b60405180910390fd5b6000838152600b6020526040902080548390811061080f5761080f613d66565b90600052602060002090600d0201604051806101a0016040529081600082015481526020016001820154815260200160028201805461084d90613d02565b80601f016020809104026020016040519081016040528092919081815260200182805461087990613d02565b80156108c65780601f1061089b576101008083540402835291602001916108c6565b820191906000526020600020905b8154815290600101906020018083116108a957829003601f168201915b505050505081526020016003820180546108df90613d02565b80601f016020809104026020016040519081016040528092919081815260200182805461090b90613d02565b80156109585780601f1061092d57610100808354040283529160200191610958565b820191906000526020600020905b81548152906001019060200180831161093b57829003601f168201915b5050505050815260200160048201805461097190613d02565b80601f016020809104026020016040519081016040528092919081815260200182805461099d90613d02565b80156109ea5780601f106109bf576101008083540402835291602001916109ea565b820191906000526020600020905b8154815290600101906020018083116109cd57829003601f168201915b505050918352505060058201546001600160a01b03908116602083015260068301541660408201526007820154606082015260088201546080820152600982015460a0820152600a8201805460c090920191610a4590613d02565b80601f0160208091040260200160405190810160405280929190818152602001828054610a7190613d02565b8015610abe5780601f10610a9357610100808354040283529160200191610abe565b820191906000526020600020905b815481529060010190602001808311610aa157829003601f168201915b50505050508152602001600b82018054610ad790613d02565b80601f0160208091040260200160405190810160405280929190818152602001828054610b0390613d02565b8015610b505780601f10610b2557610100808354040283529160200191610b50565b820191906000526020600020905b815481529060010190602001808311610b3357829003601f168201915b5050509183525050600c82015460209091019060ff166003811115610b7757610b77613694565b6003811115610b8857610b88613694565b9052509392505050565b6000818152600e602052604090205460609060ff16610bec5760405162461bcd60e51b8152602060048201526016602482015275141c9bd91d58dd08191bd95cc81b9bdd08195e1a5cdd60521b60448201526064016107e6565b6000828152600d6020908152604080832080548251818502810185019093528083529193909284015b82821015610c72576000848152602090819020604080516080810182526004860290920180546001600160a01b03168352600180820154848601526002820154928401929092526003015460608301529083529092019101610c15565b505050509050919050565b6000818152600f602052604081205460ff16610cab5760405162461bcd60e51b81526004016107e690613d3d565b6000838152600b60205260408120805484908110610ccb57610ccb613d66565b90600052602060002090600d0201604051806101a00160405290816000820154815260200160018201548152602001600282018054610d0990613d02565b80601f0160208091040260200160405190810160405280929190818152602001828054610d3590613d02565b8015610d825780601f10610d5757610100808354040283529160200191610d82565b820191906000526020600020905b815481529060010190602001808311610d6557829003601f168201915b50505050508152602001600382018054610d9b90613d02565b80601f0160208091040260200160405190810160405280929190818152602001828054610dc790613d02565b8015610e145780601f10610de957610100808354040283529160200191610e14565b820191906000526020600020905b815481529060010190602001808311610df757829003601f168201915b50505050508152602001600482018054610e2d90613d02565b80601f0160208091040260200160405190810160405280929190818152602001828054610e5990613d02565b8015610ea65780601f10610e7b57610100808354040283529160200191610ea6565b820191906000526020600020905b815481529060010190602001808311610e8957829003601f168201915b505050918352505060058201546001600160a01b03908116602083015260068301541660408201526007820154606082015260088201546080820152600982015460a0820152600a8201805460c090920191610f0190613d02565b80601f0160208091040260200160405190810160405280929190818152602001828054610f2d90613d02565b8015610f7a5780601f10610f4f57610100808354040283529160200191610f7a565b820191906000526020600020905b815481529060010190602001808311610f5d57829003601f168201915b50505050508152602001600b82018054610f9390613d02565b80601f0160208091040260200160405190810160405280929190818152602001828054610fbf90613d02565b801561100c5780601f10610fe15761010080835404028352916020019161100c565b820191906000526020600020905b815481529060010190602001808311610fef57829003601f168201915b5050509183525050600c82015460209091019060ff16600381111561103357611033613694565b600381111561104457611044613694565b90525060a08101519091506001600160a01b0316331461109c5760405162461bcd60e51b8152602060048201526013602482015272556e617574686f72697a656420456e7469747960681b60448201526064016107e6565b600281610180015160038111156110b5576110b5613694565b14156110fc5760405162461bcd60e51b815260206004820152601660248201527513dc99195c88185b1c9958591e4818d85b98d95b195960521b60448201526064016107e6565b600261018082015260e0810151602082015160088054909190811061112357611123613d66565b90600052602060002090600a020160090160008282546111439190613d92565b90915550506000848152600b6020526040902080548291908590811061116b5761116b613d66565b90600052602060002090600d0201600082015181600001556020820151816001015560408201518160020190805190602001906111a9929190613520565b50606082015180516111c5916003840191602090910190613520565b50608082015180516111e1916004840191602090910190613520565b5060a08201516005820180546001600160a01b039283166001600160a01b03199182161790915560c084015160068401805491909316911617905560e0820151600782015561010082015160088201556101208201516009820155610140820151805161125891600a840191602090910190613520565b50610160820151805161127591600b840191602090910190613520565b50610180820151600c8201805460ff1916600183600381111561129a5761129a613694565b021790555090505080600984815481106112b6576112b6613d66565b90600052602060002090600d0201600082015181600001556020820151816001015560408201518160020190805190602001906112f4929190613520565b5060608201518051611310916003840191602090910190613520565b506080820151805161132c916004840191602090910190613520565b5060a08201516005820180546001600160a01b039283166001600160a01b03199182161790915560c084015160068401805491909316911617905560e082015160078201556101008201516008820155610120820151600982015561014082015180516113a391600a840191602090910190613520565b5061016082015180516113c091600b840191602090910190613520565b50610180820151600c8201805460ff191660018360038111156113e5576113e5613694565b02179055509050506114008160a001518261010001516133b3565b5060019392505050565b6114126135a4565b6000828152600e602052604090205460ff166114645760405162461bcd60e51b8152602060048201526011602482015270141c9bd91d58dd081b9bdd08199bdd5b99607a1b60448201526064016107e6565b6008828154811061147757611477613d66565b90600052602060002090600a020160405180610140016040529081600082015481526020016001820180546114ab90613d02565b80601f01602080910402602001604051908101604052809291908181526020018280546114d790613d02565b80156115245780601f106114f957610100808354040283529160200191611524565b820191906000526020600020905b81548152906001019060200180831161150757829003601f168201915b505050918352505060028201546001600160a01b0316602082015260038201805460409092019161155490613d02565b80601f016020809104026020016040519081016040528092919081815260200182805461158090613d02565b80156115cd5780601f106115a2576101008083540402835291602001916115cd565b820191906000526020600020905b8154815290600101906020018083116115b057829003601f168201915b505050505081526020016004820180546115e690613d02565b80601f016020809104026020016040519081016040528092919081815260200182805461161290613d02565b801561165f5780601f106116345761010080835404028352916020019161165f565b820191906000526020600020905b81548152906001019060200180831161164257829003601f168201915b5050505050815260200160058201805461167890613d02565b80601f01602080910402602001604051908101604052809291908181526020018280546116a490613d02565b80156116f15780601f106116c6576101008083540402835291602001916116f1565b820191906000526020600020905b8154815290600101906020018083116116d457829003601f168201915b50505091835250506006820154602082015260078201546040820152600882015460ff161515606082015260099091015460809091015292915050565b6000336001600160a01b03166008888154811061174d5761174d613d66565b600091825260209091206002600a9092020101546001600160a01b0316146117ae5760405162461bcd60e51b8152602060048201526014602482015273155b985d5d1a1bdc9a5e994814195c9cdbdb995b60621b60448201526064016107e6565b60008651116117f65760405162461bcd60e51b81526020600482015260146024820152736e616d652063616e6e6f7420626520656d70747960601b60448201526064016107e6565b60008551116118475760405162461bcd60e51b815260206004820152601b60248201527f6465736372697074696f6e2063616e6e6f7420626520656d707479000000000060448201526064016107e6565b6000831161188e5760405162461bcd60e51b815260206004820152601460248201527370726963652063616e6e6f74206265207a65726f60601b60448201526064016107e6565b600082116118d55760405162461bcd60e51b815260206004820152601460248201527373746f636b2063616e6e6f74206265207a65726f60601b60448201526064016107e6565b6118dd6135a4565b336040820152606081018790526080810185905260a0810186905260c081018490526101208101839052600880548291908a90811061191e5761191e613d66565b90600052602060002090600a0201600082015181600001556020820151816001019080519060200190611952929190613520565b5060408201516002820180546001600160a01b0319166001600160a01b0390921691909117905560608201518051611994916003840191602090910190613520565b50608082015180516119b0916004840191602090910190613520565b5060a082015180516119cc916005840191602090910190613520565b5060c0820151600682015560e0820151600782015561010082015160088201805460ff191691151591909117905561012090910151600990910155506001979650505050505050565b60606008805480602002602001604051908101604052809291908181526020016000905b828210156107a757838290600052602060002090600a02016040518061014001604052908160008201548152602001600182018054611a7790613d02565b80601f0160208091040260200160405190810160405280929190818152602001828054611aa390613d02565b8015611af05780601f10611ac557610100808354040283529160200191611af0565b820191906000526020600020905b815481529060010190602001808311611ad357829003601f168201915b505050918352505060028201546001600160a01b03166020820152600382018054604090920191611b2090613d02565b80601f0160208091040260200160405190810160405280929190818152602001828054611b4c90613d02565b8015611b995780601f10611b6e57610100808354040283529160200191611b99565b820191906000526020600020905b815481529060010190602001808311611b7c57829003601f168201915b50505050508152602001600482018054611bb290613d02565b80601f0160208091040260200160405190810160405280929190818152602001828054611bde90613d02565b8015611c2b5780601f10611c0057610100808354040283529160200191611c2b565b820191906000526020600020905b815481529060010190602001808311611c0e57829003601f168201915b50505050508152602001600582018054611c4490613d02565b80601f0160208091040260200160405190810160405280929190818152602001828054611c7090613d02565b8015611cbd5780601f10611c9257610100808354040283529160200191611cbd565b820191906000526020600020905b815481529060010190602001808311611ca057829003601f168201915b5050509183525050600682015460208083019190915260078301546040830152600883015460ff16151560608301526009909201546080909101529082526001929092019101611a39565b6000600754341015611d505760405162461bcd60e51b8152602060048201526011602482015270125b9cdd59999a58da595b9d08199d5b99607a1b60448201526064016107e6565b6000875111611d975760405162461bcd60e51b8152602060048201526013602482015272736b752063616e6e6f7420626520656d70747960681b60448201526064016107e6565b6000865111611ddf5760405162461bcd60e51b81526020600482015260146024820152736e616d652063616e6e6f7420626520656d70747960601b60448201526064016107e6565b6000855111611e305760405162461bcd60e51b815260206004820152601b60248201527f6465736372697074696f6e2063616e6e6f7420626520656d707479000000000060448201526064016107e6565b6000845111611e815760405162461bcd60e51b815260206004820152601960248201527f696d6167652055524c2063616e6e6f7420626520656d7074790000000000000060448201526064016107e6565b60008311611ec85760405162461bcd60e51b815260206004820152601460248201527370726963652063616e6e6f74206265207a65726f60601b60448201526064016107e6565b60008211611f0f5760405162461bcd60e51b815260206004820152601460248201527373746f636b2063616e6e6f74206265207a65726f60601b60448201526064016107e6565b600180546000908152600e60209081526040808320805460ff1916909417909355338252600c9052908120805491611f4683613daa565b909155505060038054906000611f5b83613daa565b9190505550611f686135a4565b60018054906000611f7883613daa565b9091555081526020808201898152336040840152606083018990526080830187905260a0830188905260c0830186905261012083018590524260e08401526008805460018101825560009190915283517ff3f7a9fe364faab93b216da50a3214154f22a0a2b415b23a84c8169e8b636ee3600a909202918201908155915180518594611952937ff3f7a9fe364faab93b216da50a3214154f22a0a2b415b23a84c8169e8b636ee401920190613520565b60006120348585613418565b3410156120795760405162461bcd60e51b8152602060048201526013602482015272125b9cdd59999a58da595b9d08185b5bdd5b9d606a1b60448201526064016107e6565b60008351116120ca5760405162461bcd60e51b815260206004820152601b60248201527f64657374696e6174696f6e2063616e6e6f7420626520656d707479000000000060448201526064016107e6565b60008251116121135760405162461bcd60e51b815260206004820152601560248201527470686f6e652063616e6e6f7420626520656d70747960581b60448201526064016107e6565b61211d8585613418565b6006805460009061212f908490613d92565b90915550600090505b8551811015612a6f57600e600087838151811061215757612157613d66565b60209081029190910181015182528101919091526040016000205460ff1680156121d7575084818151811061218e5761218e613d66565b602002602001015160088783815181106121aa576121aa613d66565b6020026020010151815481106121c2576121c2613d66565b90600052602060002090600a02016009015410155b15612a5d578481815181106121ee576121ee613d66565b6020026020010151600887838151811061220a5761220a613d66565b60200260200101518154811061222257612222613d66565b90600052602060002090600a020160090160008282546122429190613dc5565b9091555050336000908152600c6020526040812060010180549161226583613daa565b9190505550612272613496565b6002805490600061228283613daa565b909155508152865160089088908490811061229f5761229f613d66565b6020026020010151815481106122b7576122b7613d66565b90600052602060002090600a02016000015481602001818152505060088783815181106122e6576122e6613d66565b6020026020010151815481106122fe576122fe613d66565b90600052602060002090600a0201600101805461231a90613d02565b80601f016020809104026020016040519081016040528092919081815260200182805461234690613d02565b80156123935780601f1061236857610100808354040283529160200191612393565b820191906000526020600020905b81548152906001019060200180831161237657829003601f168201915b505050505060408201523360a082015286516008908890849081106123ba576123ba613d66565b6020026020010151815481106123d2576123d2613d66565b600091825260209091206002600a9092020101546001600160a01b031660c0820152865160089088908490811061240b5761240b613d66565b60200260200101518154811061242357612423613d66565b90600052602060002090600a0201600301805461243f90613d02565b80601f016020809104026020016040519081016040528092919081815260200182805461246b90613d02565b80156124b85780601f1061248d576101008083540402835291602001916124b8565b820191906000526020600020905b81548152906001019060200180831161249b57829003601f168201915b5050505050816060018190525060088783815181106124d9576124d9613d66565b6020026020010151815481106124f1576124f1613d66565b90600052602060002090600a0201600401805461250d90613d02565b80601f016020809104026020016040519081016040528092919081815260200182805461253990613d02565b80156125865780601f1061255b57610100808354040283529160200191612586565b820191906000526020600020905b81548152906001019060200180831161256957829003601f168201915b505050505081608001819052508582815181106125a5576125a5613d66565b60200260200101518160e001818152505060088783815181106125ca576125ca613d66565b6020026020010151815481106125e2576125e2613d66565b90600052602060002090600a02016006015486838151811061260657612606613d66565b60200260200101516126189190613ddc565b6101008201524261012082015261014081018590526101608101849052602080820180516000908152600b83526040808220805460018181018355918452928590208651600d909402019283559251928201929092559083015180518493612687926002850192910190613520565b50606082015180516126a3916003840191602090910190613520565b50608082015180516126bf916004840191602090910190613520565b5060a08201516005820180546001600160a01b039283166001600160a01b03199182161790915560c084015160068401805491909316911617905560e0820151600782015561010082015160088201556101208201516009820155610140820151805161273691600a840191602090910190613520565b50610160820151805161275391600b840191602090910190613520565b50610180820151600c8201805460ff1916600183600381111561277857612778613694565b02179055505081516000908152600f60209081526040808320805460ff191660019081179091556009805491820181559093528451600d9093027f6e1540171b6c0c960b71a7020d9f60077f6af931a8bbf590da0223dacf75c7af8101938455828601517f6e1540171b6c0c960b71a7020d9f60077f6af931a8bbf590da0223dacf75c7b082015590850151805186955061283c937f6e1540171b6c0c960b71a7020d9f60077f6af931a8bbf590da0223dacf75c7b1909301929190910190613520565b5060608201518051612858916003840191602090910190613520565b5060808201518051612874916004840191602090910190613520565b5060a08201516005820180546001600160a01b039283166001600160a01b03199182161790915560c084015160068401805491909316911617905560e082015160078201556101008201516008820155610120820151600982015561014082015180516128eb91600a840191602090910190613520565b50610160820151805161290891600b840191602090910190613520565b50610180820151600c8201805460ff1916600183600381111561292d5761292d613694565b02179055505050600d600088848151811061294a5761294a613d66565b6020026020010151815260200190815260200160002060405180608001604052808360a001516001600160a01b031681526020018360e001518461010001516129939190613dfb565b815260e0840151602080830191909152426040928301819052845460018082018755600096875295839020855160049092020180546001600160a01b0319166001600160a01b03928316178155858401519681019690965584840151600287015560609485015160039096019590955560c086015160a087015187516101008901518651918252948101949094529383019190915284169391909116917ff3debaf22196a6ddf52a60fa71058cd7edf5e25bb98f4e96c994a5d4a9b0dd3e910160405180910390a3505b80612a6781613daa565b915050612138565b50600195945050505050565b6000818152600f602052604081205460ff16612aa95760405162461bcd60e51b81526004016107e690613d3d565b6000838152600b60205260408120805484908110612ac957612ac9613d66565b90600052602060002090600d0201604051806101a00160405290816000820154815260200160018201548152602001600282018054612b0790613d02565b80601f0160208091040260200160405190810160405280929190818152602001828054612b3390613d02565b8015612b805780601f10612b5557610100808354040283529160200191612b80565b820191906000526020600020905b815481529060010190602001808311612b6357829003601f168201915b50505050508152602001600382018054612b9990613d02565b80601f0160208091040260200160405190810160405280929190818152602001828054612bc590613d02565b8015612c125780601f10612be757610100808354040283529160200191612c12565b820191906000526020600020905b815481529060010190602001808311612bf557829003601f168201915b50505050508152602001600482018054612c2b90613d02565b80601f0160208091040260200160405190810160405280929190818152602001828054612c5790613d02565b8015612ca45780601f10612c7957610100808354040283529160200191612ca4565b820191906000526020600020905b815481529060010190602001808311612c8757829003601f168201915b505050918352505060058201546001600160a01b03908116602083015260068301541660408201526007820154606082015260088201546080820152600982015460a0820152600a8201805460c090920191612cff90613d02565b80601f0160208091040260200160405190810160405280929190818152602001828054612d2b90613d02565b8015612d785780601f10612d4d57610100808354040283529160200191612d78565b820191906000526020600020905b815481529060010190602001808311612d5b57829003601f168201915b50505050508152602001600b82018054612d9190613d02565b80601f0160208091040260200160405190810160405280929190818152602001828054612dbd90613d02565b8015612e0a5780601f10612ddf57610100808354040283529160200191612e0a565b820191906000526020600020905b815481529060010190602001808311612ded57829003601f168201915b5050509183525050600c82015460209091019060ff166003811115612e3157612e31613694565b6003811115612e4257612e42613694565b90525060c08101519091506001600160a01b03163314612e9a5760405162461bcd60e51b8152602060048201526013602482015272556e617574686f72697a656420456e7469747960681b60448201526064016107e6565b60018161018001516003811115612eb357612eb3613694565b1415612f015760405162461bcd60e51b815260206004820152601860248201527f4f7264657220616c72656164792064656c69657665726564000000000000000060448201526064016107e6565b60016101808201526000848152600b60205260409020805482919085908110612f2c57612f2c613d66565b90600052602060002090600d020160008201518160000155602082015181600101556040820151816002019080519060200190612f6a929190613520565b5060608201518051612f86916003840191602090910190613520565b5060808201518051612fa2916004840191602090910190613520565b5060a08201516005820180546001600160a01b039283166001600160a01b03199182161790915560c084015160068401805491909316911617905560e0820151600782015561010082015160088201556101208201516009820155610140820151805161301991600a840191602090910190613520565b50610160820151805161303691600b840191602090910190613520565b50610180820151600c8201805460ff1916600183600381111561305b5761305b613694565b0217905550905050806009848154811061307757613077613d66565b90600052602060002090600d0201600082015181600001556020820151816001015560408201518160020190805190602001906130b5929190613520565b50606082015180516130d1916003840191602090910190613520565b50608082015180516130ed916004840191602090910190613520565b5060a08201516005820180546001600160a01b039283166001600160a01b03199182161790915560c084015160068401805491909316911617905560e0820151600782015561010082015160088201556101208201516009820155610140820151805161316491600a840191602090910190613520565b50610160820151805161318191600b840191602090910190613520565b50610180820151600c8201805460ff191660018360038111156131a6576131a6613694565b02179055505050610100810151600680546000906131c5908490613dc5565b909155505061010081015160c08201516001600160a01b03166000908152600c6020526040812060040180549091906131ff908490613d92565b909155505060c08101516001600160a01b03166000908152600c6020526040812060030180549161322f83613daa565b90915550506004805490600061324483613daa565b919050555061325c8160c001518261010001516133b3565b6000928352600d60209081526040808520815160808101835260a08501516001600160a01b03908116825261010086015182860190815260e0909601519382019384524260608301908152835460018082018655948a52959098209151600490950290910180546001600160a01b03191694909116939093178355925182840155516002820155925160039093019290925550919050565b6000336001600160a01b03166008838154811061331357613313613d66565b600091825260209091206002600a9092020101546001600160a01b0316146133745760405162461bcd60e51b8152602060048201526014602482015273155b985d5d1a1bdc9a5e994814195c9cdbdb995b60621b60448201526064016107e6565b60016008838154811061338957613389613d66565b60009182526020909120600a90910201600801805460ff1916911515919091179055506001919050565b6000826001600160a01b03168260405160006040518083038185875af1925050503d8060008114613400576040519150601f19603f3d011682016040523d82523d6000602084013e613405565b606091505b505090508061341357600080fd5b505050565b60008060005b845181101561348e5783818151811061343957613439613d66565b60200260200101516008828154811061345457613454613d66565b90600052602060002090600a0201600601546134709190613ddc565b61347a9083613d92565b91508061348681613daa565b91505061341e565b509392505050565b604051806101a00160405280600081526020016000815260200160608152602001606081526020016060815260200160006001600160a01b0316815260200160006001600160a01b0316815260200160008152602001600081526020016000815260200160608152602001606081526020016000600381111561351b5761351b613694565b905290565b82805461352c90613d02565b90600052602060002090601f01602090048101928261354e5760008555613594565b82601f1061356757805160ff1916838001178555613594565b82800160010185558215613594579182015b82811115613594578251825591602001919060010190613579565b506135a0929150613602565b5090565b604051806101400160405280600081526020016060815260200160006001600160a01b031681526020016060815260200160608152602001606081526020016000815260200160008152602001600015158152602001600081525090565b5b808211156135a05760008155600101613603565b60006020828403121561362957600080fd5b81356001600160a01b038116811461364057600080fd5b9392505050565b6000815180845260005b8181101561366d57602081850181015186830182015201613651565b8181111561367f576000602083870101525b50601f01601f19169290920160200192915050565b634e487b7160e01b600052602160045260246000fd5b600481106136c857634e487b7160e01b600052602160045260246000fd5b9052565b60006101a0825184526020830151602085015260408301518160408601526136f682860182613647565b915050606083015184820360608601526137108282613647565b9150506080830151848203608086015261372a8282613647565b91505060a083015161374760a08601826001600160a01b03169052565b5060c083015161376260c08601826001600160a01b03169052565b5060e0838101519085015261010080840151908501526101208084015190850152610140808401518583038287015261379b8382613647565b9250505061016080840151858303828701526137b78382613647565b92505050610180808401516137ce828701826136aa565b5090949350505050565b6000602080830181845280855180835260408601915060408160051b870101925083870160005b8281101561382d57603f1988860301845261381b8583516136cc565b945092850192908501906001016137ff565b5092979650505050505050565b6000806040838503121561384d57600080fd5b50508035926020909101359150565b60208152600061364060208301846136cc565b60006020828403121561388157600080fd5b5035919050565b602080825282518282018190526000919060409081850190868401855b828110156138e857815180516001600160a01b031685528681015187860152858101518686015260609081015190850152608090930192908501906001016138a5565b5091979650505050505050565b600061014082518452602083015181602086015261391582860182613647565b915050604083015161393260408601826001600160a01b03169052565b506060830151848203606086015261394a8282613647565b915050608083015184820360808601526139648282613647565b91505060a083015184820360a086015261397e8282613647565b91505060c083015160c085015260e083015160e0850152610100808401516139a98287018215159052565b5050610120928301519390920192909252919050565b60208152600061364060208301846138f5565b634e487b7160e01b600052604160045260246000fd5b604051601f8201601f1916810167ffffffffffffffff81118282101715613a1157613a116139d2565b604052919050565b600082601f830112613a2a57600080fd5b813567ffffffffffffffff811115613a4457613a446139d2565b613a57601f8201601f19166020016139e8565b818152846020838601011115613a6c57600080fd5b816020850160208301376000918101602001919091529392505050565b60008060008060008060c08789031215613aa257600080fd5b86359550602087013567ffffffffffffffff80821115613ac157600080fd5b613acd8a838b01613a19565b96506040890135915080821115613ae357600080fd5b613aef8a838b01613a19565b95506060890135915080821115613b0557600080fd5b50613b1289828a01613a19565b9350506080870135915060a087013590509295509295509295565b6000602080830181845280855180835260408601915060408160051b870101925083870160005b8281101561382d57603f19888603018452613b708583516138f5565b94509285019290850190600101613b54565b60008060008060008060c08789031215613b9b57600080fd5b863567ffffffffffffffff80821115613bb357600080fd5b613bbf8a838b01613a19565b97506020890135915080821115613ac157600080fd5b600082601f830112613be657600080fd5b8135602067ffffffffffffffff821115613c0257613c026139d2565b8160051b613c118282016139e8565b9283528481018201928281019087851115613c2b57600080fd5b83870192505b84831015613c4a57823582529183019190830190613c31565b979650505050505050565b60008060008060808587031215613c6b57600080fd5b843567ffffffffffffffff80821115613c8357600080fd5b613c8f88838901613bd5565b95506020870135915080821115613ca557600080fd5b613cb188838901613bd5565b94506040870135915080821115613cc757600080fd5b613cd388838901613a19565b93506060870135915080821115613ce957600080fd5b50613cf687828801613a19565b91505092959194509250565b600181811c90821680613d1657607f821691505b60208210811415613d3757634e487b7160e01b600052602260045260246000fd5b50919050565b6020808252600f908201526e13dc99195c881b9bdd08199bdd5b99608a1b604082015260600190565b634e487b7160e01b600052603260045260246000fd5b634e487b7160e01b600052601160045260246000fd5b60008219821115613da557613da5613d7c565b500190565b6000600019821415613dbe57613dbe613d7c565b5060010190565b600082821015613dd757613dd7613d7c565b500390565b6000816000190483118215151615613df657613df6613d7c565b500290565b600082613e1857634e487b7160e01b600052601260045260246000fd5b50049056fea264697066735822122035cce885df67a2f2209cbef7f78ec3ebefb855080a7fb0c051a877a19bb933d164736f6c634300080b0033",
  "linkReferences": {},
  "deployedLinkReferences": {}
}