{
  "_format": "hh-sol-artifact-1",
  "contractName": "Shop",
  "sourceName": "src/contracts/Shop.sol",
  "abi": [
    {
      "inputs": [
        {
          "internalType": "uint256",
          "name": "_fee",
          "type": "uint256"
        }
      ],
      "stateMutability": "nonpayable",
      "type": "constructor"
    },
    {
      "anonymous": false,
      "inputs": [
        {
          "indexed": false,
          "internalType": "uint256",
          "name": "id",
          "type": "uint256"
        },
        {
          "indexed": true,
          "internalType": "address",
          "name": "buyer",
          "type": "address"
        },
        {
          "indexed": true,
          "internalType": "address",
          "name": "seller",
          "type": "address"
        },
        {
          "indexed": false,
          "internalType": "uint256",
          "name": "price",
          "type": "uint256"
        },
        {
          "indexed": false,
          "internalType": "uint256",
          "name": "timestamp",
          "type": "uint256"
        }
      ],
      "name": "Sale",
      "type": "event"
    },
    {
      "inputs": [
        {
          "internalType": "uint256",
          "name": "pid",
          "type": "uint256"
        },
        {
          "internalType": "uint256",
          "name": "id",
          "type": "uint256"
        }
      ],
      "name": "cancelOrder",
      "outputs": [
        {
          "internalType": "bool",
          "name": "",
          "type": "bool"
        }
      ],
      "stateMutability": "nonpayable",
      "type": "function"
    },
    {
      "inputs": [
        {
          "internalType": "uint256[]",
          "name": "ids",
          "type": "uint256[]"
        },
        {
          "internalType": "uint256[]",
          "name": "qtys",
          "type": "uint256[]"
        },
        {
          "internalType": "string",
          "name": "destination",
          "type": "string"
        },
        {
          "internalType": "string",
          "name": "phone",
          "type": "string"
        }
      ],
      "name": "createOrder",
      "outputs": [
        {
          "internalType": "bool",
          "name": "",
          "type": "bool"
        }
      ],
      "stateMutability": "payable",
      "type": "function"
    },
    {
      "inputs": [
        {
          "internalType": "string",
          "name": "sku",
          "type": "string"
        },
        {
          "internalType": "string",
          "name": "name",
          "type": "string"
        },
        {
          "internalType": "string",
          "name": "description",
          "type": "string"
        },
        {
          "internalType": "string",
          "name": "imageURL",
          "type": "string"
        },
        {
          "internalType": "uint256",
          "name": "price",
          "type": "uint256"
        },
        {
          "internalType": "uint256",
          "name": "stock",
          "type": "uint256"
        }
      ],
      "name": "createProduct",
      "outputs": [
        {
          "internalType": "bool",
          "name": "",
          "type": "bool"
        }
      ],
      "stateMutability": "payable",
      "type": "function"
    },
    {
      "inputs": [
        {
          "internalType": "uint256",
          "name": "id",
          "type": "uint256"
        }
      ],
      "name": "deleteProduct",
      "outputs": [
        {
          "internalType": "bool",
          "name": "",
          "type": "bool"
        }
      ],
      "stateMutability": "nonpayable",
      "type": "function"
    },
    {
      "inputs": [
        {
          "internalType": "uint256",
          "name": "pid",
          "type": "uint256"
        },
        {
          "internalType": "uint256",
          "name": "id",
          "type": "uint256"
        }
      ],
      "name": "deliverOrder",
      "outputs": [
        {
          "internalType": "bool",
          "name": "",
          "type": "bool"
        }
      ],
      "stateMutability": "nonpayable",
      "type": "function"
    },
    {
      "inputs": [],
      "name": "fee",
      "outputs": [
        {
          "internalType": "uint256",
          "name": "",
          "type": "uint256"
        }
      ],
      "stateMutability": "view",
      "type": "function"
    },
    {
      "inputs": [
        {
          "internalType": "uint256",
          "name": "pid",
          "type": "uint256"
        }
      ],
      "name": "getBuyers",
      "outputs": [
        {
          "components": [
            {
              "internalType": "address",
              "name": "buyer",
              "type": "address"
            },
            {
              "internalType": "uint256",
              "name": "price",
              "type": "uint256"
            },
            {
              "internalType": "uint256",
              "name": "qty",
              "type": "uint256"
            },
            {
              "internalType": "uint256",
              "name": "timestamp",
              "type": "uint256"
            }
          ],
          "internalType": "struct Shop.BuyerStruct[]",
          "name": "buyers",
          "type": "tuple[]"
        }
      ],
      "stateMutability": "view",
      "type": "function"
    },
    {
      "inputs": [
        {
          "internalType": "uint256",
          "name": "pid",
          "type": "uint256"
        },
        {
          "internalType": "uint256",
          "name": "id",
          "type": "uint256"
        }
      ],
      "name": "getOrder",
      "outputs": [
        {
          "components": [
            {
              "internalType": "uint256",
              "name": "pid",
              "type": "uint256"
            },
            {
              "internalType": "uint256",
              "name": "id",
              "type": "uint256"
            },
            {
              "internalType": "string",
              "name": "sku",
              "type": "string"
            },
            {
              "internalType": "string",
              "name": "name",
              "type": "string"
            },
            {
              "internalType": "string",
              "name": "imageURL",
              "type": "string"
            },
            {
              "internalType": "address",
              "name": "buyer",
              "type": "address"
            },
            {
              "internalType": "address",
              "name": "seller",
              "type": "address"
            },
            {
              "internalType": "uint256",
              "name": "qty",
              "type": "uint256"
            },
            {
              "internalType": "uint256",
              "name": "total",
              "type": "uint256"
            },
            {
              "internalType": "uint256",
              "name": "timestamp",
              "type": "uint256"
            },
            {
              "internalType": "string",
              "name": "destination",
              "type": "string"
            },
            {
              "internalType": "string",
              "name": "phone",
              "type": "string"
            },
            {
              "internalType": "enum Shop.OrderEnum",
              "name": "status",
              "type": "uint8"
            }
          ],
          "internalType": "struct Shop.OrderStruct",
          "name": "",
          "type": "tuple"
        }
      ],
      "stateMutability": "view",
      "type": "function"
    },
    {
      "inputs": [],
      "name": "getOrders",
      "outputs": [
        {
          "components": [
            {
              "internalType": "uint256",
              "name": "pid",
              "type": "uint256"
            },
            {
              "internalType": "uint256",
              "name": "id",
              "type": "uint256"
            },
            {
              "internalType": "string",
              "name": "sku",
              "type": "string"
            },
            {
              "internalType": "string",
              "name": "name",
              "type": "string"
            },
            {
              "internalType": "string",
              "name": "imageURL",
              "type": "string"
            },
            {
              "internalType": "address",
              "name": "buyer",
              "type": "address"
            },
            {
              "internalType": "address",
              "name": "seller",
              "type": "address"
            },
            {
              "internalType": "uint256",
              "name": "qty",
              "type": "uint256"
            },
            {
              "internalType": "uint256",
              "name": "total",
              "type": "uint256"
            },
            {
              "internalType": "uint256",
              "name": "timestamp",
              "type": "uint256"
            },
            {
              "internalType": "string",
              "name": "destination",
              "type": "string"
            },
            {
              "internalType": "string",
              "name": "phone",
              "type": "string"
            },
            {
              "internalType": "enum Shop.OrderEnum",
              "name": "status",
              "type": "uint8"
            }
          ],
          "internalType": "struct Shop.OrderStruct[]",
          "name": "props",
          "type": "tuple[]"
        }
      ],
      "stateMutability": "view",
      "type": "function"
    },
    {
      "inputs": [
        {
          "internalType": "uint256",
          "name": "id",
          "type": "uint256"
        }
      ],
      "name": "getProduct",
      "outputs": [
        {
          "components": [
            {
              "internalType": "uint256",
              "name": "id",
              "type": "uint256"
            },
            {
              "internalType": "string",
              "name": "sku",
              "type": "string"
            },
            {
              "internalType": "address",
              "name": "seller",
              "type": "address"
            },
            {
              "internalType": "string",
              "name": "name",
              "type": "string"
            },
            {
              "internalType": "string",
              "name": "imageURL",
              "type": "string"
            },
            {
              "internalType": "string",
              "name": "description",
              "type": "string"
            },
            {
              "internalType": "uint256",
              "name": "price",
              "type": "uint256"
            },
            {
              "internalType": "uint256",
              "name": "timestamp",
              "type": "uint256"
            },
            {
              "internalType": "bool",
              "name": "deleted",
              "type": "bool"
            },
            {
              "internalType": "uint256",
              "name": "stock",
              "type": "uint256"
            }
          ],
          "internalType": "struct Shop.ProductStruct",
          "name": "",
          "type": "tuple"
        }
      ],
      "stateMutability": "view",
      "type": "function"
    },
    {
      "inputs": [],
      "name": "getProducts",
      "outputs": [
        {
          "components": [
            {
              "internalType": "uint256",
              "name": "id",
              "type": "uint256"
            },
            {
              "internalType": "string",
              "name": "sku",
              "type": "string"
            },
            {
              "internalType": "address",
              "name": "seller",
              "type": "address"
            },
            {
              "internalType": "string",
              "name": "name",
              "type": "string"
            },
            {
              "internalType": "string",
              "name": "imageURL",
              "type": "string"
            },
            {
              "internalType": "string",
              "name": "description",
              "type": "string"
            },
            {
              "internalType": "uint256",
              "name": "price",
              "type": "uint256"
            },
            {
              "internalType": "uint256",
              "name": "timestamp",
              "type": "uint256"
            },
            {
              "internalType": "bool",
              "name": "deleted",
              "type": "bool"
            },
            {
              "internalType": "uint256",
              "name": "stock",
              "type": "uint256"
            }
          ],
          "internalType": "struct Shop.ProductStruct[]",
          "name": "",
          "type": "tuple[]"
        }
      ],
      "stateMutability": "view",
      "type": "function"
    },
    {
      "inputs": [
        {
          "internalType": "uint256",
          "name": "",
          "type": "uint256"
        },
        {
          "internalType": "uint256",
          "name": "",
          "type": "uint256"
        }
      ],
      "name": "orderExist",
      "outputs": [
        {
          "internalType": "bool",
          "name": "",
          "type": "bool"
        }
      ],
      "stateMutability": "view",
      "type": "function"
    },
    {
      "inputs": [],
      "name": "owner",
      "outputs": [
        {
          "internalType": "address",
          "name": "",
          "type": "address"
        }
      ],
      "stateMutability": "view",
      "type": "function"
    },
    {
      "inputs": [
        {
          "internalType": "uint256",
          "name": "",
          "type": "uint256"
        }
      ],
      "name": "productExist",
      "outputs": [
        {
          "internalType": "bool",
          "name": "",
          "type": "bool"
        }
      ],
      "stateMutability": "view",
      "type": "function"
    },
    {
      "inputs": [],
      "name": "stats",
      "outputs": [
        {
          "internalType": "uint256",
          "name": "products",
          "type": "uint256"
        },
        {
          "internalType": "uint256",
          "name": "orders",
          "type": "uint256"
        },
        {
          "internalType": "uint256",
          "name": "sellers",
          "type": "uint256"
        },
        {
          "internalType": "uint256",
          "name": "sales",
          "type": "uint256"
        },
        {
          "internalType": "uint256",
          "name": "paid",
          "type": "uint256"
        },
        {
          "internalType": "uint256",
          "name": "balance",
          "type": "uint256"
        }
      ],
      "stateMutability": "view",
      "type": "function"
    },
    {
      "inputs": [
        {
          "internalType": "address",
          "name": "",
          "type": "address"
        }
      ],
      "name": "statsOf",
      "outputs": [
        {
          "internalType": "uint256",
          "name": "products",
          "type": "uint256"
        },
        {
          "internalType": "uint256",
          "name": "orders",
          "type": "uint256"
        },
        {
          "internalType": "uint256",
          "name": "sellers",
          "type": "uint256"
        },
        {
          "internalType": "uint256",
          "name": "sales",
          "type": "uint256"
        },
        {
          "internalType": "uint256",
          "name": "paid",
          "type": "uint256"
        },
        {
          "internalType": "uint256",
          "name": "balance",
          "type": "uint256"
        }
      ],
      "stateMutability": "view",
      "type": "function"
    },
    {
      "inputs": [
        {
          "internalType": "uint256",
          "name": "id",
          "type": "uint256"
        },
        {
          "internalType": "string",
          "name": "name",
          "type": "string"
        },
        {
          "internalType": "string",
          "name": "description",
          "type": "string"
        },
        {
          "internalType": "string",
          "name": "imageURL",
          "type": "string"
        },
        {
          "internalType": "uint256",
          "name": "price",
          "type": "uint256"
        },
        {
          "internalType": "uint256",
          "name": "stock",
          "type": "uint256"
        }
      ],
      "name": "updateProduct",
      "outputs": [
        {
          "internalType": "bool",
          "name": "",
          "type": "bool"
        }
      ],
      "stateMutability": "nonpayable",
      "type": "function"
    }
  ],
  "bytecode": "0x60806040523480156200001157600080fd5b50604051620041923803806200419283398101604081905262000034916200004f565b600080546001600160a01b0319163317905560075562000069565b6000602082840312156200006257600080fd5b5051919050565b61411980620000796000396000f3fe6080604052600436106100fe5760003560e01c8063bab8d87211610095578063ddca3f4311610064578063ddca3f4314610351578063e0e83bb314610375578063e6e110ce14610388578063e77a67ea146103a8578063ed90c7b7146103d857600080fd5b8063bab8d872146102d1578063c29b2f20146102f1578063c39e0b2b14610313578063d80528ae1461032657600080fd5b80637feafd20116100d15780637feafd201461021f5780638da5cb5b1461024c578063b6ed063214610284578063b9db15b4146102a457600080fd5b806315cfc405146101035780631f2337a1146101855780632e2dc43e146101d05780635e1a3573146101f2575b600080fd5b34801561010f57600080fd5b5061015361011e3660046138dd565b600b60205260009081526040902080546001820154600283015460038401546004850154600590950154939492939192909186565b604080519687526020870195909552938501929092526060840152608083015260a082015260c0015b60405180910390f35b34801561019157600080fd5b506101c06101a036600461390d565b600e60209081526000928352604080842090915290825290205460ff1681565b604051901515815260200161017c565b3480156101dc57600080fd5b506101e56103f8565b60405161017c9190613ac0565b3480156101fe57600080fd5b5061021261020d36600461390d565b61085c565b60405161017c9190613b22565b34801561022b57600080fd5b5061023f61023a366004613b35565b610c49565b60405161017c9190613b4e565b34801561025857600080fd5b5060005461026c906001600160a01b031681565b6040516001600160a01b03909116815260200161017c565b34801561029057600080fd5b506101c061029f36600461390d565b610d34565b3480156102b057600080fd5b506102c46102bf366004613b35565b61137e565b60405161017c9190613c85565b3480156102dd57600080fd5b506101c06102ec366004613d4f565b6116a2565b3480156102fd57600080fd5b50610306611995565b60405161017c9190613df3565b6101c0610321366004613e48565b611c91565b34801561033257600080fd5b5060015460025460035460045460055460065461015395949392919086565b34801561035d57600080fd5b5061036760075481565b60405190815260200161017c565b6101c0610383366004613f1b565b612074565b34801561039457600080fd5b506101c06103a336600461390d565b612942565b3480156103b457600080fd5b506101c06103c3366004613b35565b600d6020526000908152604090205460ff1681565b3480156103e457600080fd5b506101c06103f3366004613b35565b61307b565b60025460609067ffffffffffffffff81111561041657610416613c98565b60405190808252806020026020018201604052801561044f57816020015b61043c613760565b8152602001906001900390816104345790505b50905060005b6002548110156108585760005b6000828152600a6020526040902054811015610845576000828152600a6020526040902080548290811061049857610498613fc8565b90600052602060002090600d0201604051806101a001604052908160008201548152602001600182015481526020016002820180546104d690613fde565b80601f016020809104026020016040519081016040528092919081815260200182805461050290613fde565b801561054f5780601f106105245761010080835404028352916020019161054f565b820191906000526020600020905b81548152906001019060200180831161053257829003601f168201915b5050505050815260200160038201805461056890613fde565b80601f016020809104026020016040519081016040528092919081815260200182805461059490613fde565b80156105e15780601f106105b6576101008083540402835291602001916105e1565b820191906000526020600020905b8154815290600101906020018083116105c457829003601f168201915b505050505081526020016004820180546105fa90613fde565b80601f016020809104026020016040519081016040528092919081815260200182805461062690613fde565b80156106735780601f1061064857610100808354040283529160200191610673565b820191906000526020600020905b81548152906001019060200180831161065657829003601f168201915b505050918352505060058201546001600160a01b03908116602083015260068301541660408201526007820154606082015260088201546080820152600982015460a0820152600a8201805460c0909201916106ce90613fde565b80601f01602080910402602001604051908101604052809291908181526020018280546106fa90613fde565b80156107475780601f1061071c57610100808354040283529160200191610747565b820191906000526020600020905b81548152906001019060200180831161072a57829003601f168201915b50505050508152602001600b8201805461076090613fde565b80601f016020809104026020016040519081016040528092919081815260200182805461078c90613fde565b80156107d95780601f106107ae576101008083540402835291602001916107d9565b820191906000526020600020905b8154815290600101906020018083116107bc57829003601f168201915b5050509183525050600c82015460209091019060ff1660038111156108005761080061397c565b60038111156108115761081161397c565b8152505083838151811061082757610827613fc8565b6020026020010181905250808061083d9061402f565b915050610462565b50806108508161402f565b915050610455565b5090565b610864613760565b6000838152600e6020908152604080832085845290915290205460ff166108a65760405162461bcd60e51b815260040161089d9061404a565b60405180910390fd5b6000838152600a602052604090208054839081106108c6576108c6613fc8565b90600052602060002090600d0201604051806101a0016040529081600082015481526020016001820154815260200160028201805461090490613fde565b80601f016020809104026020016040519081016040528092919081815260200182805461093090613fde565b801561097d5780601f106109525761010080835404028352916020019161097d565b820191906000526020600020905b81548152906001019060200180831161096057829003601f168201915b5050505050815260200160038201805461099690613fde565b80601f01602080910402602001604051908101604052809291908181526020018280546109c290613fde565b8015610a0f5780601f106109e457610100808354040283529160200191610a0f565b820191906000526020600020905b8154815290600101906020018083116109f257829003601f168201915b50505050508152602001600482018054610a2890613fde565b80601f0160208091040260200160405190810160405280929190818152602001828054610a5490613fde565b8015610aa15780601f10610a7657610100808354040283529160200191610aa1565b820191906000526020600020905b815481529060010190602001808311610a8457829003601f168201915b505050918352505060058201546001600160a01b03908116602083015260068301541660408201526007820154606082015260088201546080820152600982015460a0820152600a8201805460c090920191610afc90613fde565b80601f0160208091040260200160405190810160405280929190818152602001828054610b2890613fde565b8015610b755780601f10610b4a57610100808354040283529160200191610b75565b820191906000526020600020905b815481529060010190602001808311610b5857829003601f168201915b50505050508152602001600b82018054610b8e90613fde565b80601f0160208091040260200160405190810160405280929190818152602001828054610bba90613fde565b8015610c075780601f10610bdc57610100808354040283529160200191610c07565b820191906000526020600020905b815481529060010190602001808311610bea57829003601f168201915b5050509183525050600c82015460209091019060ff166003811115610c2e57610c2e61397c565b6003811115610c3f57610c3f61397c565b9052509392505050565b6000818152600d602052604090205460609060ff16610ca35760405162461bcd60e51b8152602060048201526016602482015275141c9bd91d58dd08191bd95cc81b9bdd08195e1a5cdd60521b604482015260640161089d565b6000828152600c6020908152604080832080548251818502810185019093528083529193909284015b82821015610d29576000848152602090819020604080516080810182526004860290920180546001600160a01b03168352600180820154848601526002820154928401929092526003015460608301529083529092019101610ccc565b505050509050919050565b6000828152600e6020908152604080832084845290915281205460ff16610d6d5760405162461bcd60e51b815260040161089d9061404a565b6000838152600a60205260408120805484908110610d8d57610d8d613fc8565b90600052602060002090600d0201604051806101a00160405290816000820154815260200160018201548152602001600282018054610dcb90613fde565b80601f0160208091040260200160405190810160405280929190818152602001828054610df790613fde565b8015610e445780601f10610e1957610100808354040283529160200191610e44565b820191906000526020600020905b815481529060010190602001808311610e2757829003601f168201915b50505050508152602001600382018054610e5d90613fde565b80601f0160208091040260200160405190810160405280929190818152602001828054610e8990613fde565b8015610ed65780601f10610eab57610100808354040283529160200191610ed6565b820191906000526020600020905b815481529060010190602001808311610eb957829003601f168201915b50505050508152602001600482018054610eef90613fde565b80601f0160208091040260200160405190810160405280929190818152602001828054610f1b90613fde565b8015610f685780601f10610f3d57610100808354040283529160200191610f68565b820191906000526020600020905b815481529060010190602001808311610f4b57829003601f168201915b505050918352505060058201546001600160a01b03908116602083015260068301541660408201526007820154606082015260088201546080820152600982015460a0820152600a8201805460c090920191610fc390613fde565b80601f0160208091040260200160405190810160405280929190818152602001828054610fef90613fde565b801561103c5780601f106110115761010080835404028352916020019161103c565b820191906000526020600020905b81548152906001019060200180831161101f57829003601f168201915b50505050508152602001600b8201805461105590613fde565b80601f016020809104026020016040519081016040528092919081815260200182805461108190613fde565b80156110ce5780601f106110a3576101008083540402835291602001916110ce565b820191906000526020600020905b8154815290600101906020018083116110b157829003601f168201915b5050509183525050600c82015460209091019060ff1660038111156110f5576110f561397c565b60038111156111065761110661397c565b90525060a08101519091506001600160a01b0316331461115e5760405162461bcd60e51b8152602060048201526013602482015272556e617574686f72697a656420456e7469747960681b604482015260640161089d565b600281610180015160038111156111775761117761397c565b14156111be5760405162461bcd60e51b815260206004820152601660248201527513dc99195c88185b1c9958591e4818d85b98d95b195960521b604482015260640161089d565b600261018082015260e081015181516008805490919081106111e2576111e2613fc8565b90600052602060002090600a020160090160008282546112029190614073565b90915550506000848152600a6020526040902080548291908590811061122a5761122a613fc8565b90600052602060002090600d0201600082015181600001556020820151816001015560408201518160020190805190602001906112689291906137ea565b50606082015180516112849160038401916020909101906137ea565b50608082015180516112a09160048401916020909101906137ea565b5060a08201516005820180546001600160a01b039283166001600160a01b03199182161790915560c084015160068401805491909316911617905560e0820151600782015561010082015160088201556101208201516009820155610140820151805161131791600a8401916020909101906137ea565b50610160820151805161133491600b8401916020909101906137ea565b50610180820151600c8201805460ff191660018360038111156113595761135961397c565b02179055509050506113748160a0015182610100015161313a565b5060019392505050565b61138661386a565b6000828152600d602052604090205460ff166113d85760405162461bcd60e51b8152602060048201526011602482015270141c9bd91d58dd081b9bdd08199bdd5b99607a1b604482015260640161089d565b600882815481106113eb576113eb613fc8565b90600052602060002090600a0201604051806101400160405290816000820154815260200160018201805461141f90613fde565b80601f016020809104026020016040519081016040528092919081815260200182805461144b90613fde565b80156114985780601f1061146d57610100808354040283529160200191611498565b820191906000526020600020905b81548152906001019060200180831161147b57829003601f168201915b505050918352505060028201546001600160a01b031660208201526003820180546040909201916114c890613fde565b80601f01602080910402602001604051908101604052809291908181526020018280546114f490613fde565b80156115415780601f1061151657610100808354040283529160200191611541565b820191906000526020600020905b81548152906001019060200180831161152457829003601f168201915b5050505050815260200160048201805461155a90613fde565b80601f016020809104026020016040519081016040528092919081815260200182805461158690613fde565b80156115d35780601f106115a8576101008083540402835291602001916115d3565b820191906000526020600020905b8154815290600101906020018083116115b657829003601f168201915b505050505081526020016005820180546115ec90613fde565b80601f016020809104026020016040519081016040528092919081815260200182805461161890613fde565b80156116655780601f1061163a57610100808354040283529160200191611665565b820191906000526020600020905b81548152906001019060200180831161164857829003601f168201915b50505091835250506006820154602082015260078201546040820152600882015460ff161515606082015260099091015460809091015292915050565b6000336001600160a01b0316600888815481106116c1576116c1613fc8565b600091825260209091206002600a9092020101546001600160a01b0316146117225760405162461bcd60e51b8152602060048201526014602482015273155b985d5d1a1bdc9a5e994814195c9cdbdb995b60621b604482015260640161089d565b600086511161176a5760405162461bcd60e51b81526020600482015260146024820152736e616d652063616e6e6f7420626520656d70747960601b604482015260640161089d565b60008551116117bb5760405162461bcd60e51b815260206004820152601b60248201527f6465736372697074696f6e2063616e6e6f7420626520656d7074790000000000604482015260640161089d565b600083116118025760405162461bcd60e51b815260206004820152601460248201527370726963652063616e6e6f74206265207a65726f60601b604482015260640161089d565b600082116118495760405162461bcd60e51b815260206004820152601460248201527373746f636b2063616e6e6f74206265207a65726f60601b604482015260640161089d565b61185161386a565b878152336040820152606081018790526080810185905260a0810186905260c081018490526101208101839052600880548291908a90811061189557611895613fc8565b90600052602060002090600a02016000820151816000015560208201518160010190805190602001906118c99291906137ea565b5060408201516002820180546001600160a01b0319166001600160a01b039092169190911790556060820151805161190b9160038401916020909101906137ea565b50608082015180516119279160048401916020909101906137ea565b5060a082015180516119439160058401916020909101906137ea565b5060c0820151600682015560e0820151600782015561010082015160088201805460ff1916911515919091179055610120909101516009909101556119878161319f565b506001979650505050505050565b60606008805480602002602001604051908101604052809291908181526020016000905b82821015611c8857838290600052602060002090600a020160405180610140016040529081600082015481526020016001820180546119f790613fde565b80601f0160208091040260200160405190810160405280929190818152602001828054611a2390613fde565b8015611a705780601f10611a4557610100808354040283529160200191611a70565b820191906000526020600020905b815481529060010190602001808311611a5357829003601f168201915b505050918352505060028201546001600160a01b03166020820152600382018054604090920191611aa090613fde565b80601f0160208091040260200160405190810160405280929190818152602001828054611acc90613fde565b8015611b195780601f10611aee57610100808354040283529160200191611b19565b820191906000526020600020905b815481529060010190602001808311611afc57829003601f168201915b50505050508152602001600482018054611b3290613fde565b80601f0160208091040260200160405190810160405280929190818152602001828054611b5e90613fde565b8015611bab5780601f10611b8057610100808354040283529160200191611bab565b820191906000526020600020905b815481529060010190602001808311611b8e57829003601f168201915b50505050508152602001600582018054611bc490613fde565b80601f0160208091040260200160405190810160405280929190818152602001828054611bf090613fde565b8015611c3d5780601f10611c1257610100808354040283529160200191611c3d565b820191906000526020600020905b815481529060010190602001808311611c2057829003601f168201915b5050509183525050600682015460208083019190915260078301546040830152600883015460ff161515606083015260099092015460809091015290825260019290920191016119b9565b50505050905090565b6000600754341015611cd95760405162461bcd60e51b8152602060048201526011602482015270125b9cdd59999a58da595b9d08199d5b99607a1b604482015260640161089d565b6000875111611d205760405162461bcd60e51b8152602060048201526013602482015272736b752063616e6e6f7420626520656d70747960681b604482015260640161089d565b6000865111611d685760405162461bcd60e51b81526020600482015260146024820152736e616d652063616e6e6f7420626520656d70747960601b604482015260640161089d565b6000855111611db95760405162461bcd60e51b815260206004820152601b60248201527f6465736372697074696f6e2063616e6e6f7420626520656d7074790000000000604482015260640161089d565b6000845111611e0a5760405162461bcd60e51b815260206004820152601960248201527f696d6167652055524c2063616e6e6f7420626520656d70747900000000000000604482015260640161089d565b60008311611e515760405162461bcd60e51b815260206004820152601460248201527370726963652063616e6e6f74206265207a65726f60601b604482015260640161089d565b60008211611e985760405162461bcd60e51b815260206004820152601460248201527373746f636b2063616e6e6f74206265207a65726f60601b604482015260640161089d565b600180546000908152600d60209081526040808320805460ff1916909417909355338252600b9052908120805491611ecf8361402f565b909155505060038054906000611ee48361402f565b9190505550611ef161386a565b60018054906000611f018361402f565b9091555081526020808201898152336040840152606083018990526080830187905260a0830188905260c0830186905261012083018590524260e08401526008805460018101825560009190915283517ff3f7a9fe364faab93b216da50a3214154f22a0a2b415b23a84c8169e8b636ee3600a909202918201908155915180518594611fb1937ff3f7a9fe364faab93b216da50a3214154f22a0a2b415b23a84c8169e8b636ee4019201906137ea565b5060408201516002820180546001600160a01b0319166001600160a01b0390921691909117905560608201518051611ff39160038401916020909101906137ea565b506080820151805161200f9160048401916020909101906137ea565b5060a0820151805161202b9160058401916020909101906137ea565b5060c0820151600682015560e0820151600782015561010082015160088201805460ff191691151591909117905561012090910151600990910155506001979650505050505050565b600061208085856136e2565b3410156120c55760405162461bcd60e51b8152602060048201526013602482015272125b9cdd59999a58da595b9d08185b5bdd5b9d606a1b604482015260640161089d565b60008351116121165760405162461bcd60e51b815260206004820152601b60248201527f64657374696e6174696f6e2063616e6e6f7420626520656d7074790000000000604482015260640161089d565b600082511161215f5760405162461bcd60e51b815260206004820152601560248201527470686f6e652063616e6e6f7420626520656d70747960581b604482015260640161089d565b61216985856136e2565b6006805460009061217b908490614073565b90915550600090505b855181101561293657600d60008783815181106121a3576121a3613fc8565b60209081029190910181015182528101919091526040016000205460ff16801561222357508481815181106121da576121da613fc8565b602002602001015160088783815181106121f6576121f6613fc8565b60200260200101518154811061220e5761220e613fc8565b90600052602060002090600a02016009015410155b156129245784818151811061223a5761223a613fc8565b6020026020010151600887838151811061225657612256613fc8565b60200260200101518154811061226e5761226e613fc8565b90600052602060002090600a0201600901600082825461228e919061408b565b9091555050336000908152600b602052604081206001018054916122b18361402f565b9091555050600280549060006122c68361402f565b91905055506122d3613760565b60088783815181106122e7576122e7613fc8565b6020026020010151815481106122ff576122ff613fc8565b60009182526020808320600a9283020154808552835290815260409091205490820152865160089088908490811061233957612339613fc8565b60200260200101518154811061235157612351613fc8565b90600052602060002090600a0201600101805461236d90613fde565b80601f016020809104026020016040519081016040528092919081815260200182805461239990613fde565b80156123e65780601f106123bb576101008083540402835291602001916123e6565b820191906000526020600020905b8154815290600101906020018083116123c957829003601f168201915b505050505060408201523360a0820152865160089088908490811061240d5761240d613fc8565b60200260200101518154811061242557612425613fc8565b600091825260209091206002600a9092020101546001600160a01b031660c0820152865160089088908490811061245e5761245e613fc8565b60200260200101518154811061247657612476613fc8565b90600052602060002090600a0201600301805461249290613fde565b80601f01602080910402602001604051908101604052809291908181526020018280546124be90613fde565b801561250b5780601f106124e05761010080835404028352916020019161250b565b820191906000526020600020905b8154815290600101906020018083116124ee57829003601f168201915b50505050508160600181905250600887838151811061252c5761252c613fc8565b60200260200101518154811061254457612544613fc8565b90600052602060002090600a0201600401805461256090613fde565b80601f016020809104026020016040519081016040528092919081815260200182805461258c90613fde565b80156125d95780601f106125ae576101008083540402835291602001916125d9565b820191906000526020600020905b8154815290600101906020018083116125bc57829003601f168201915b505050505081608001819052508582815181106125f8576125f8613fc8565b60200260200101518160e0018181525050600887838151811061261d5761261d613fc8565b60200260200101518154811061263557612635613fc8565b90600052602060002090600a02016006015486838151811061265957612659613fc8565b602002602001015161266b91906140a2565b610100820152426101208201526101408101859052610160810184905280516000908152600a60209081526040808320805460018181018355918552938390208551600d90950201938455828501519084015583015180518493926126d79260028501929101906137ea565b50606082015180516126f39160038401916020909101906137ea565b506080820151805161270f9160048401916020909101906137ea565b5060a08201516005820180546001600160a01b039283166001600160a01b03199182161790915560c084015160068401805491909316911617905560e0820151600782015561010082015160088201556101208201516009820155610140820151805161278691600a8401916020909101906137ea565b5061016082015180516127a391600b8401916020909101906137ea565b50610180820151600c8201805460ff191660018360038111156127c8576127c861397c565b02179055505081516000908152600e602090815260408083208286015184529091528120805460ff191660011790558851600c925089908590811061280f5761280f613fc8565b6020026020010151815260200190815260200160002060405180608001604052808360a001516001600160a01b031681526020018360e0015184610100015161285891906140c1565b815260e0840151602080830191909152426040928301819052845460018082018755600096875295839020855160049092020180546001600160a01b0319166001600160a01b03928316178155858401519681019690965584840151600287015560609485015160039096019590955560c086015160a0870151838801516101008901518651918252948101949094529383019190915284169391909116917ff3debaf22196a6ddf52a60fa71058cd7edf5e25bb98f4e96c994a5d4a9b0dd3e910160405180910390a3505b8061292e8161402f565b915050612184565b50600195945050505050565b6000828152600e6020908152604080832084845290915281205460ff1661297b5760405162461bcd60e51b815260040161089d9061404a565b6000838152600a6020526040812080548490811061299b5761299b613fc8565b90600052602060002090600d0201604051806101a001604052908160008201548152602001600182015481526020016002820180546129d990613fde565b80601f0160208091040260200160405190810160405280929190818152602001828054612a0590613fde565b8015612a525780601f10612a2757610100808354040283529160200191612a52565b820191906000526020600020905b815481529060010190602001808311612a3557829003601f168201915b50505050508152602001600382018054612a6b90613fde565b80601f0160208091040260200160405190810160405280929190818152602001828054612a9790613fde565b8015612ae45780601f10612ab957610100808354040283529160200191612ae4565b820191906000526020600020905b815481529060010190602001808311612ac757829003601f168201915b50505050508152602001600482018054612afd90613fde565b80601f0160208091040260200160405190810160405280929190818152602001828054612b2990613fde565b8015612b765780601f10612b4b57610100808354040283529160200191612b76565b820191906000526020600020905b815481529060010190602001808311612b5957829003601f168201915b505050918352505060058201546001600160a01b03908116602083015260068301541660408201526007820154606082015260088201546080820152600982015460a0820152600a8201805460c090920191612bd190613fde565b80601f0160208091040260200160405190810160405280929190818152602001828054612bfd90613fde565b8015612c4a5780601f10612c1f57610100808354040283529160200191612c4a565b820191906000526020600020905b815481529060010190602001808311612c2d57829003601f168201915b50505050508152602001600b82018054612c6390613fde565b80601f0160208091040260200160405190810160405280929190818152602001828054612c8f90613fde565b8015612cdc5780601f10612cb157610100808354040283529160200191612cdc565b820191906000526020600020905b815481529060010190602001808311612cbf57829003601f168201915b5050509183525050600c82015460209091019060ff166003811115612d0357612d0361397c565b6003811115612d1457612d1461397c565b90525060c08101519091506001600160a01b03163314612d6c5760405162461bcd60e51b8152602060048201526013602482015272556e617574686f72697a656420456e7469747960681b604482015260640161089d565b60018161018001516003811115612d8557612d8561397c565b1415612dd35760405162461bcd60e51b815260206004820152601860248201527f4f7264657220616c72656164792064656c696576657265640000000000000000604482015260640161089d565b60016101808201526000848152600a60205260409020805482919085908110612dfe57612dfe613fc8565b90600052602060002090600d020160008201518160000155602082015181600101556040820151816002019080519060200190612e3c9291906137ea565b5060608201518051612e589160038401916020909101906137ea565b5060808201518051612e749160048401916020909101906137ea565b5060a08201516005820180546001600160a01b039283166001600160a01b03199182161790915560c084015160068401805491909316911617905560e08201516007820155610100820151600882015561012082015160098201556101408201518051612eeb91600a8401916020909101906137ea565b506101608201518051612f0891600b8401916020909101906137ea565b50610180820151600c8201805460ff19166001836003811115612f2d57612f2d61397c565b0217905550505061010081015160068054600090612f4c90849061408b565b909155505061010081015160c08201516001600160a01b03166000908152600b602052604081206004018054909190612f86908490614073565b909155505060c08101516001600160a01b03166000908152600b60205260408120600301805491612fb68361402f565b909155505060048054906000612fcb8361402f565b9190505550612fe38160c0015182610100015161313a565b6000928352600c60209081526040808520815160808101835260a08501516001600160a01b03908116825261010086015182860190815260e0909601519382019384524260608301908152835460018082018655948a52959098209151600490950290910180546001600160a01b03191694909116939093178355925182840155516002820155925160039093019290925550919050565b6000336001600160a01b03166008838154811061309a5761309a613fc8565b600091825260209091206002600a9092020101546001600160a01b0316146130fb5760405162461bcd60e51b8152602060048201526014602482015273155b985d5d1a1bdc9a5e994814195c9cdbdb995b60621b604482015260640161089d565b60016008838154811061311057613110613fc8565b60009182526020909120600a90910201600801805460ff1916911515919091179055506001919050565b6000826001600160a01b03168260405160006040518083038185875af1925050503d8060008114613187576040519150601f19603f3d011682016040523d82523d6000602084013e61318c565b606091505b505090508061319a57600080fd5b505050565b60005b81516000908152600a60205260409020548110156136de5781516000908152600a602052604081208054839081106131dc576131dc613fc8565b90600052602060002090600d0201604051806101a0016040529081600082015481526020016001820154815260200160028201805461321a90613fde565b80601f016020809104026020016040519081016040528092919081815260200182805461324690613fde565b80156132935780601f1061326857610100808354040283529160200191613293565b820191906000526020600020905b81548152906001019060200180831161327657829003601f168201915b505050505081526020016003820180546132ac90613fde565b80601f01602080910402602001604051908101604052809291908181526020018280546132d890613fde565b80156133255780601f106132fa57610100808354040283529160200191613325565b820191906000526020600020905b81548152906001019060200180831161330857829003601f168201915b5050505050815260200160048201805461333e90613fde565b80601f016020809104026020016040519081016040528092919081815260200182805461336a90613fde565b80156133b75780601f1061338c576101008083540402835291602001916133b7565b820191906000526020600020905b81548152906001019060200180831161339a57829003601f168201915b505050918352505060058201546001600160a01b03908116602083015260068301541660408201526007820154606082015260088201546080820152600982015460a0820152600a8201805460c09092019161341290613fde565b80601f016020809104026020016040519081016040528092919081815260200182805461343e90613fde565b801561348b5780601f106134605761010080835404028352916020019161348b565b820191906000526020600020905b81548152906001019060200180831161346e57829003601f168201915b50505050508152602001600b820180546134a490613fde565b80601f01602080910402602001604051908101604052809291908181526020018280546134d090613fde565b801561351d5780601f106134f25761010080835404028352916020019161351d565b820191906000526020600020905b81548152906001019060200180831161350057829003601f168201915b5050509183525050600c82015460209091019060ff1660038111156135445761354461397c565b60038111156135555761355561397c565b905250606080850151908201526080808501519082015283516000908152600a60205260409020805491925082918490811061359357613593613fc8565b90600052602060002090600d0201600082015181600001556020820151816001015560408201518160020190805190602001906135d19291906137ea565b50606082015180516135ed9160038401916020909101906137ea565b50608082015180516136099160048401916020909101906137ea565b5060a08201516005820180546001600160a01b039283166001600160a01b03199182161790915560c084015160068401805491909316911617905560e0820151600782015561010082015160088201556101208201516009820155610140820151805161368091600a8401916020909101906137ea565b50610160820151805161369d91600b8401916020909101906137ea565b50610180820151600c8201805460ff191660018360038111156136c2576136c261397c565b02179055509050505080806136d69061402f565b9150506131a2565b5050565b60008060005b84518110156137585783818151811061370357613703613fc8565b60200260200101516008828154811061371e5761371e613fc8565b90600052602060002090600a02016006015461373a91906140a2565b6137449083614073565b9150806137508161402f565b9150506136e8565b509392505050565b604051806101a00160405280600081526020016000815260200160608152602001606081526020016060815260200160006001600160a01b0316815260200160006001600160a01b031681526020016000815260200160008152602001600081526020016060815260200160608152602001600060038111156137e5576137e561397c565b905290565b8280546137f690613fde565b90600052602060002090601f016020900481019282613818576000855561385e565b82601f1061383157805160ff191683800117855561385e565b8280016001018555821561385e579182015b8281111561385e578251825591602001919060010190613843565b506108589291506138c8565b604051806101400160405280600081526020016060815260200160006001600160a01b031681526020016060815260200160608152602001606081526020016000815260200160008152602001600015158152602001600081525090565b5b8082111561085857600081556001016138c9565b6000602082840312156138ef57600080fd5b81356001600160a01b038116811461390657600080fd5b9392505050565b6000806040838503121561392057600080fd5b50508035926020909101359150565b6000815180845260005b8181101561395557602081850181015186830182015201613939565b81811115613967576000602083870101525b50601f01601f19169290920160200192915050565b634e487b7160e01b600052602160045260246000fd5b600481106139b057634e487b7160e01b600052602160045260246000fd5b9052565b60006101a0825184526020830151602085015260408301518160408601526139de8286018261392f565b915050606083015184820360608601526139f8828261392f565b91505060808301518482036080860152613a12828261392f565b91505060a0830151613a2f60a08601826001600160a01b03169052565b5060c0830151613a4a60c08601826001600160a01b03169052565b5060e08381015190850152610100808401519085015261012080840151908501526101408084015185830382870152613a83838261392f565b925050506101608084015185830382870152613a9f838261392f565b9250505061018080840151613ab682870182613992565b5090949350505050565b6000602080830181845280855180835260408601915060408160051b870101925083870160005b82811015613b1557603f19888603018452613b038583516139b4565b94509285019290850190600101613ae7565b5092979650505050505050565b60208152600061390660208301846139b4565b600060208284031215613b4757600080fd5b5035919050565b602080825282518282018190526000919060409081850190868401855b82811015613bae57815180516001600160a01b03168552868101518786015285810151868601526060908101519085015260809093019290850190600101613b6b565b5091979650505050505050565b6000610140825184526020830151816020860152613bdb8286018261392f565b9150506040830151613bf860408601826001600160a01b03169052565b5060608301518482036060860152613c10828261392f565b91505060808301518482036080860152613c2a828261392f565b91505060a083015184820360a0860152613c44828261392f565b91505060c083015160c085015260e083015160e085015261010080840151613c6f8287018215159052565b5050610120928301519390920192909252919050565b6020815260006139066020830184613bbb565b634e487b7160e01b600052604160045260246000fd5b604051601f8201601f1916810167ffffffffffffffff81118282101715613cd757613cd7613c98565b604052919050565b600082601f830112613cf057600080fd5b813567ffffffffffffffff811115613d0a57613d0a613c98565b613d1d601f8201601f1916602001613cae565b818152846020838601011115613d3257600080fd5b816020850160208301376000918101602001919091529392505050565b60008060008060008060c08789031215613d6857600080fd5b86359550602087013567ffffffffffffffff80821115613d8757600080fd5b613d938a838b01613cdf565b96506040890135915080821115613da957600080fd5b613db58a838b01613cdf565b95506060890135915080821115613dcb57600080fd5b50613dd889828a01613cdf565b9350506080870135915060a087013590509295509295509295565b6000602080830181845280855180835260408601915060408160051b870101925083870160005b82811015613b1557603f19888603018452613e36858351613bbb565b94509285019290850190600101613e1a565b60008060008060008060c08789031215613e6157600080fd5b863567ffffffffffffffff80821115613e7957600080fd5b613e858a838b01613cdf565b97506020890135915080821115613d8757600080fd5b600082601f830112613eac57600080fd5b8135602067ffffffffffffffff821115613ec857613ec8613c98565b8160051b613ed7828201613cae565b9283528481018201928281019087851115613ef157600080fd5b83870192505b84831015613f1057823582529183019190830190613ef7565b979650505050505050565b60008060008060808587031215613f3157600080fd5b843567ffffffffffffffff80821115613f4957600080fd5b613f5588838901613e9b565b95506020870135915080821115613f6b57600080fd5b613f7788838901613e9b565b94506040870135915080821115613f8d57600080fd5b613f9988838901613cdf565b93506060870135915080821115613faf57600080fd5b50613fbc87828801613cdf565b91505092959194509250565b634e487b7160e01b600052603260045260246000fd5b600181811c90821680613ff257607f821691505b6020821081141561401357634e487b7160e01b600052602260045260246000fd5b50919050565b634e487b7160e01b600052601160045260246000fd5b600060001982141561404357614043614019565b5060010190565b6020808252600f908201526e13dc99195c881b9bdd08199bdd5b99608a1b604082015260600190565b6000821982111561408657614086614019565b500190565b60008282101561409d5761409d614019565b500390565b60008160001904831182151516156140bc576140bc614019565b500290565b6000826140de57634e487b7160e01b600052601260045260246000fd5b50049056fea26469706673582212209d6ac6c4bbc9a92284f307dbcb9b2053aa8326a4a4933c253ecd09b542e0ef6d64736f6c634300080b0033",
  "linkReferences": {},
  "deployedLinkReferences": {}
}