{
  "_format": "hh-sol-artifact-1",
  "contractName": "Shop",
  "sourceName": "src/contracts/Shop.sol",
  "abi": [
    {
      "inputs": [
        {
          "internalType": "uint256",
          "name": "_fee",
          "type": "uint256"
        }
      ],
      "stateMutability": "nonpayable",
      "type": "constructor"
    },
    {
      "anonymous": false,
      "inputs": [
        {
          "indexed": false,
          "internalType": "uint256",
          "name": "id",
          "type": "uint256"
        },
        {
          "indexed": true,
          "internalType": "address",
          "name": "buyer",
          "type": "address"
        },
        {
          "indexed": true,
          "internalType": "address",
          "name": "seller",
          "type": "address"
        },
        {
          "indexed": false,
          "internalType": "uint256",
          "name": "price",
          "type": "uint256"
        },
        {
          "indexed": false,
          "internalType": "uint256",
          "name": "timestamp",
          "type": "uint256"
        }
      ],
      "name": "Sale",
      "type": "event"
    },
    {
      "inputs": [
        {
          "internalType": "uint256",
          "name": "id",
          "type": "uint256"
        }
      ],
      "name": "cancelOrder",
      "outputs": [
        {
          "internalType": "bool",
          "name": "",
          "type": "bool"
        }
      ],
      "stateMutability": "nonpayable",
      "type": "function"
    },
    {
      "inputs": [
        {
          "internalType": "uint256[]",
          "name": "ids",
          "type": "uint256[]"
        },
        {
          "internalType": "uint256[]",
          "name": "qtys",
          "type": "uint256[]"
        },
        {
          "internalType": "string",
          "name": "destination",
          "type": "string"
        },
        {
          "internalType": "string",
          "name": "phone",
          "type": "string"
        }
      ],
      "name": "createOrder",
      "outputs": [
        {
          "internalType": "bool",
          "name": "",
          "type": "bool"
        }
      ],
      "stateMutability": "payable",
      "type": "function"
    },
    {
      "inputs": [
        {
          "internalType": "string",
          "name": "sku",
          "type": "string"
        },
        {
          "internalType": "string",
          "name": "name",
          "type": "string"
        },
        {
          "internalType": "string",
          "name": "description",
          "type": "string"
        },
        {
          "internalType": "string",
          "name": "imageURL",
          "type": "string"
        },
        {
          "internalType": "uint256",
          "name": "price",
          "type": "uint256"
        },
        {
          "internalType": "uint256",
          "name": "stock",
          "type": "uint256"
        }
      ],
      "name": "createProduct",
      "outputs": [
        {
          "internalType": "bool",
          "name": "",
          "type": "bool"
        }
      ],
      "stateMutability": "payable",
      "type": "function"
    },
    {
      "inputs": [
        {
          "internalType": "uint256",
          "name": "id",
          "type": "uint256"
        }
      ],
      "name": "deleteProduct",
      "outputs": [
        {
          "internalType": "bool",
          "name": "",
          "type": "bool"
        }
      ],
      "stateMutability": "nonpayable",
      "type": "function"
    },
    {
      "inputs": [],
      "name": "fee",
      "outputs": [
        {
          "internalType": "uint256",
          "name": "",
          "type": "uint256"
        }
      ],
      "stateMutability": "view",
      "type": "function"
    },
    {
      "inputs": [
        {
          "internalType": "uint256",
          "name": "id",
          "type": "uint256"
        }
      ],
      "name": "getBuyers",
      "outputs": [
        {
          "components": [
            {
              "internalType": "address",
              "name": "buyer",
              "type": "address"
            },
            {
              "internalType": "uint256",
              "name": "price",
              "type": "uint256"
            },
            {
              "internalType": "uint256",
              "name": "qty",
              "type": "uint256"
            },
            {
              "internalType": "uint256",
              "name": "timestamp",
              "type": "uint256"
            }
          ],
          "internalType": "struct Shop.BuyerStruct[]",
          "name": "buyers",
          "type": "tuple[]"
        }
      ],
      "stateMutability": "view",
      "type": "function"
    },
    {
      "inputs": [
        {
          "internalType": "uint256",
          "name": "id",
          "type": "uint256"
        }
      ],
      "name": "getOrder",
      "outputs": [
        {
          "components": [
            {
              "internalType": "uint256",
              "name": "id",
              "type": "uint256"
            },
            {
              "internalType": "string",
              "name": "sku",
              "type": "string"
            },
            {
              "internalType": "string",
              "name": "name",
              "type": "string"
            },
            {
              "internalType": "string",
              "name": "imageURL",
              "type": "string"
            },
            {
              "internalType": "address",
              "name": "buyer",
              "type": "address"
            },
            {
              "internalType": "address",
              "name": "seller",
              "type": "address"
            },
            {
              "internalType": "uint256",
              "name": "qty",
              "type": "uint256"
            },
            {
              "internalType": "uint256",
              "name": "total",
              "type": "uint256"
            },
            {
              "internalType": "uint256",
              "name": "timestamp",
              "type": "uint256"
            },
            {
              "internalType": "string",
              "name": "destination",
              "type": "string"
            },
            {
              "internalType": "string",
              "name": "phone",
              "type": "string"
            },
            {
              "internalType": "enum Shop.OrderEnum",
              "name": "status",
              "type": "uint8"
            }
          ],
          "internalType": "struct Shop.OrderStruct",
          "name": "order",
          "type": "tuple"
        }
      ],
      "stateMutability": "view",
      "type": "function"
    },
    {
      "inputs": [],
      "name": "getOrders",
      "outputs": [
        {
          "components": [
            {
              "internalType": "uint256",
              "name": "id",
              "type": "uint256"
            },
            {
              "internalType": "string",
              "name": "sku",
              "type": "string"
            },
            {
              "internalType": "string",
              "name": "name",
              "type": "string"
            },
            {
              "internalType": "string",
              "name": "imageURL",
              "type": "string"
            },
            {
              "internalType": "address",
              "name": "buyer",
              "type": "address"
            },
            {
              "internalType": "address",
              "name": "seller",
              "type": "address"
            },
            {
              "internalType": "uint256",
              "name": "qty",
              "type": "uint256"
            },
            {
              "internalType": "uint256",
              "name": "total",
              "type": "uint256"
            },
            {
              "internalType": "uint256",
              "name": "timestamp",
              "type": "uint256"
            },
            {
              "internalType": "string",
              "name": "destination",
              "type": "string"
            },
            {
              "internalType": "string",
              "name": "phone",
              "type": "string"
            },
            {
              "internalType": "enum Shop.OrderEnum",
              "name": "status",
              "type": "uint8"
            }
          ],
          "internalType": "struct Shop.OrderStruct[]",
          "name": "",
          "type": "tuple[]"
        }
      ],
      "stateMutability": "view",
      "type": "function"
    },
    {
      "inputs": [
        {
          "internalType": "uint256",
          "name": "id",
          "type": "uint256"
        }
      ],
      "name": "getProduct",
      "outputs": [
        {
          "components": [
            {
              "internalType": "uint256",
              "name": "id",
              "type": "uint256"
            },
            {
              "internalType": "string",
              "name": "sku",
              "type": "string"
            },
            {
              "internalType": "address",
              "name": "seller",
              "type": "address"
            },
            {
              "internalType": "string",
              "name": "name",
              "type": "string"
            },
            {
              "internalType": "string",
              "name": "imageURL",
              "type": "string"
            },
            {
              "internalType": "string",
              "name": "description",
              "type": "string"
            },
            {
              "internalType": "uint256",
              "name": "price",
              "type": "uint256"
            },
            {
              "internalType": "uint256",
              "name": "timestamp",
              "type": "uint256"
            },
            {
              "internalType": "bool",
              "name": "deleted",
              "type": "bool"
            },
            {
              "internalType": "uint256",
              "name": "stock",
              "type": "uint256"
            }
          ],
          "internalType": "struct Shop.ProductStruct",
          "name": "",
          "type": "tuple"
        }
      ],
      "stateMutability": "view",
      "type": "function"
    },
    {
      "inputs": [],
      "name": "getProducts",
      "outputs": [
        {
          "components": [
            {
              "internalType": "uint256",
              "name": "id",
              "type": "uint256"
            },
            {
              "internalType": "string",
              "name": "sku",
              "type": "string"
            },
            {
              "internalType": "address",
              "name": "seller",
              "type": "address"
            },
            {
              "internalType": "string",
              "name": "name",
              "type": "string"
            },
            {
              "internalType": "string",
              "name": "imageURL",
              "type": "string"
            },
            {
              "internalType": "string",
              "name": "description",
              "type": "string"
            },
            {
              "internalType": "uint256",
              "name": "price",
              "type": "uint256"
            },
            {
              "internalType": "uint256",
              "name": "timestamp",
              "type": "uint256"
            },
            {
              "internalType": "bool",
              "name": "deleted",
              "type": "bool"
            },
            {
              "internalType": "uint256",
              "name": "stock",
              "type": "uint256"
            }
          ],
          "internalType": "struct Shop.ProductStruct[]",
          "name": "",
          "type": "tuple[]"
        }
      ],
      "stateMutability": "view",
      "type": "function"
    },
    {
      "inputs": [
        {
          "internalType": "uint256",
          "name": "id",
          "type": "uint256"
        }
      ],
      "name": "getSale",
      "outputs": [
        {
          "components": [
            {
              "internalType": "uint256",
              "name": "id",
              "type": "uint256"
            },
            {
              "internalType": "string",
              "name": "sku",
              "type": "string"
            },
            {
              "internalType": "string",
              "name": "name",
              "type": "string"
            },
            {
              "internalType": "string",
              "name": "imageURL",
              "type": "string"
            },
            {
              "internalType": "address",
              "name": "buyer",
              "type": "address"
            },
            {
              "internalType": "address",
              "name": "seller",
              "type": "address"
            },
            {
              "internalType": "uint256",
              "name": "qty",
              "type": "uint256"
            },
            {
              "internalType": "uint256",
              "name": "total",
              "type": "uint256"
            },
            {
              "internalType": "uint256",
              "name": "timestamp",
              "type": "uint256"
            },
            {
              "internalType": "string",
              "name": "destination",
              "type": "string"
            },
            {
              "internalType": "string",
              "name": "phone",
              "type": "string"
            },
            {
              "internalType": "enum Shop.OrderEnum",
              "name": "status",
              "type": "uint8"
            }
          ],
          "internalType": "struct Shop.OrderStruct",
          "name": "order",
          "type": "tuple"
        }
      ],
      "stateMutability": "view",
      "type": "function"
    },
    {
      "inputs": [],
      "name": "getSales",
      "outputs": [
        {
          "components": [
            {
              "internalType": "uint256",
              "name": "id",
              "type": "uint256"
            },
            {
              "internalType": "string",
              "name": "sku",
              "type": "string"
            },
            {
              "internalType": "string",
              "name": "name",
              "type": "string"
            },
            {
              "internalType": "string",
              "name": "imageURL",
              "type": "string"
            },
            {
              "internalType": "address",
              "name": "buyer",
              "type": "address"
            },
            {
              "internalType": "address",
              "name": "seller",
              "type": "address"
            },
            {
              "internalType": "uint256",
              "name": "qty",
              "type": "uint256"
            },
            {
              "internalType": "uint256",
              "name": "total",
              "type": "uint256"
            },
            {
              "internalType": "uint256",
              "name": "timestamp",
              "type": "uint256"
            },
            {
              "internalType": "string",
              "name": "destination",
              "type": "string"
            },
            {
              "internalType": "string",
              "name": "phone",
              "type": "string"
            },
            {
              "internalType": "enum Shop.OrderEnum",
              "name": "status",
              "type": "uint8"
            }
          ],
          "internalType": "struct Shop.OrderStruct[]",
          "name": "",
          "type": "tuple[]"
        }
      ],
      "stateMutability": "view",
      "type": "function"
    },
    {
      "inputs": [
        {
          "internalType": "uint256",
          "name": "id",
          "type": "uint256"
        },
        {
          "internalType": "enum Shop.OrderEnum",
          "name": "status",
          "type": "uint8"
        }
      ],
      "name": "markOrderAs",
      "outputs": [
        {
          "internalType": "bool",
          "name": "",
          "type": "bool"
        }
      ],
      "stateMutability": "nonpayable",
      "type": "function"
    },
    {
      "inputs": [],
      "name": "owner",
      "outputs": [
        {
          "internalType": "address",
          "name": "",
          "type": "address"
        }
      ],
      "stateMutability": "view",
      "type": "function"
    },
    {
      "inputs": [],
      "name": "stats",
      "outputs": [
        {
          "internalType": "uint256",
          "name": "products",
          "type": "uint256"
        },
        {
          "internalType": "uint256",
          "name": "orders",
          "type": "uint256"
        },
        {
          "internalType": "uint256",
          "name": "sellers",
          "type": "uint256"
        },
        {
          "internalType": "uint256",
          "name": "sales",
          "type": "uint256"
        },
        {
          "internalType": "uint256",
          "name": "paid",
          "type": "uint256"
        },
        {
          "internalType": "uint256",
          "name": "balance",
          "type": "uint256"
        }
      ],
      "stateMutability": "view",
      "type": "function"
    },
    {
      "inputs": [
        {
          "internalType": "uint256",
          "name": "id",
          "type": "uint256"
        },
        {
          "internalType": "string",
          "name": "name",
          "type": "string"
        },
        {
          "internalType": "string",
          "name": "description",
          "type": "string"
        },
        {
          "internalType": "string",
          "name": "imageURL",
          "type": "string"
        },
        {
          "internalType": "uint256",
          "name": "price",
          "type": "uint256"
        },
        {
          "internalType": "uint256",
          "name": "stock",
          "type": "uint256"
        }
      ],
      "name": "updateProduct",
      "outputs": [
        {
          "internalType": "bool",
          "name": "",
          "type": "bool"
        }
      ],
      "stateMutability": "nonpayable",
      "type": "function"
    }
  ],
  "bytecode": "0x60806040523480156200001157600080fd5b5060405162003aa738038062003aa783398101604081905262000034916200004f565b600080546001600160a01b0319163317905560075562000069565b6000602082840312156200006257600080fd5b5051919050565b613a2e80620000796000396000f3fe6080604052600436106100f35760003560e01c8063c29b2f201161008a578063d8f6d59611610059578063d8f6d596146102f4578063ddca3f4314610314578063e0e83bb314610338578063ed90c7b71461034b57600080fd5b8063c29b2f201461023a578063c39e0b2b1461025c578063d09ef2411461026f578063d80528ae1461029c57600080fd5b80637feafd20116100c65780637feafd20146101885780638da5cb5b146101b5578063b9db15b4146101ed578063bab8d8721461021a57600080fd5b80630d83304c146100f85780632e2dc43e14610123578063514fcac71461013857806365f3fcd714610168575b600080fd5b34801561010457600080fd5b5061010d61036b565b60405161011a91906133c9565b60405180910390f35b34801561012f57600080fd5b5061010d61072f565b34801561014457600080fd5b5061015861015336600461342b565b610aea565b604051901515815260200161011a565b34801561017457600080fd5b50610158610183366004613444565b610e91565b34801561019457600080fd5b506101a86101a336600461342b565b611378565b60405161011a9190613478565b3480156101c157600080fd5b506000546101d5906001600160a01b031681565b6040516001600160a01b03909116815260200161011a565b3480156101f957600080fd5b5061020d61020836600461342b565b611463565b60405161011a91906135af565b34801561022657600080fd5b50610158610235366004613680565b611787565b34801561024657600080fd5b5061024f611a6e565b60405161011a9190613724565b61015861026a366004613779565b611d61565b34801561027b57600080fd5b5061028f61028a36600461342b565b61206c565b60405161011a91906137cc565b3480156102a857600080fd5b506001546002546003546004546005546006546102c795949392919086565b604080519687526020870195909552938501929092526060840152608083015260a082015260c00161011a565b34801561030057600080fd5b5061028f61030f36600461342b565b61247c565b34801561032057600080fd5b5061032a60075481565b60405190815260200161011a565b61015861034636600461385f565b61250d565b34801561035757600080fd5b5061015861036636600461342b565b612f26565b336000908152600b60209081526040808320805482518185028101850190935280835260609492939192909184015b8282101561072657838290600052602060002090600c020160405180610180016040529081600082015481526020016001820180546103d89061390c565b80601f01602080910402602001604051908101604052809291908181526020018280546104049061390c565b80156104515780601f1061042657610100808354040283529160200191610451565b820191906000526020600020905b81548152906001019060200180831161043457829003601f168201915b5050505050815260200160028201805461046a9061390c565b80601f01602080910402602001604051908101604052809291908181526020018280546104969061390c565b80156104e35780601f106104b8576101008083540402835291602001916104e3565b820191906000526020600020905b8154815290600101906020018083116104c657829003601f168201915b505050505081526020016003820180546104fc9061390c565b80601f01602080910402602001604051908101604052809291908181526020018280546105289061390c565b80156105755780601f1061054a57610100808354040283529160200191610575565b820191906000526020600020905b81548152906001019060200180831161055857829003601f168201915b505050918352505060048201546001600160a01b03908116602083015260058301541660408201526006820154606082015260078201546080820152600882015460a082015260098201805460c0909201916105d09061390c565b80601f01602080910402602001604051908101604052809291908181526020018280546105fc9061390c565b80156106495780601f1061061e57610100808354040283529160200191610649565b820191906000526020600020905b81548152906001019060200180831161062c57829003601f168201915b50505050508152602001600a820180546106629061390c565b80601f016020809104026020016040519081016040528092919081815260200182805461068e9061390c565b80156106db5780601f106106b0576101008083540402835291602001916106db565b820191906000526020600020905b8154815290600101906020018083116106be57829003601f168201915b5050509183525050600b82015460209091019060ff1660038111156107025761070261328f565b60038111156107135761071361328f565b815250508152602001906001019061039a565b50505050905090565b336000908152600a60209081526040808320805482518185028101850190935280835260609492939192909184015b8282101561072657838290600052602060002090600c0201604051806101800160405290816000820154815260200160018201805461079c9061390c565b80601f01602080910402602001604051908101604052809291908181526020018280546107c89061390c565b80156108155780601f106107ea57610100808354040283529160200191610815565b820191906000526020600020905b8154815290600101906020018083116107f857829003601f168201915b5050505050815260200160028201805461082e9061390c565b80601f016020809104026020016040519081016040528092919081815260200182805461085a9061390c565b80156108a75780601f1061087c576101008083540402835291602001916108a7565b820191906000526020600020905b81548152906001019060200180831161088a57829003601f168201915b505050505081526020016003820180546108c09061390c565b80601f01602080910402602001604051908101604052809291908181526020018280546108ec9061390c565b80156109395780601f1061090e57610100808354040283529160200191610939565b820191906000526020600020905b81548152906001019060200180831161091c57829003601f168201915b505050918352505060048201546001600160a01b03908116602083015260058301541660408201526006820154606082015260078201546080820152600882015460a082015260098201805460c0909201916109949061390c565b80601f01602080910402602001604051908101604052809291908181526020018280546109c09061390c565b8015610a0d5780601f106109e257610100808354040283529160200191610a0d565b820191906000526020600020905b8154815290600101906020018083116109f057829003601f168201915b50505050508152602001600a82018054610a269061390c565b80601f0160208091040260200160405190810160405280929190818152602001828054610a529061390c565b8015610a9f5780601f10610a7457610100808354040283529160200191610a9f565b820191906000526020600020905b815481529060010190602001808311610a8257829003601f168201915b5050509183525050600b82015460209091019060ff166003811115610ac657610ac661328f565b6003811115610ad757610ad761328f565b815250508152602001906001019061075e565b6000818152600e602052604081205460ff16610b415760405162461bcd60e51b8152602060048201526011602482015270141c9bd91d58dd081b9bdd08199bdd5b99607a1b60448201526064015b60405180910390fd5b336000818152600a60205260409020805484908110610b6257610b62613941565b600091825260209091206004600c9092020101546001600160a01b031614610bc55760405162461bcd60e51b8152602060048201526016602482015275155b985d5d1a1bdc9a5e99590814195c9cdbdb9b995b60521b6044820152606401610b38565b6001336000908152600a60205260409020805484908110610be857610be8613941565b60009182526020909120600b600c90920201015460ff166003811115610c1057610c1061328f565b10610c5d5760405162461bcd60e51b815260206004820152601860248201527f4f726465722064656c69766572656420616c72656164792100000000000000006044820152606401610b38565b336000908152600a6020526040902080546002919084908110610c8257610c82613941565b60009182526020909120600b600c9092020101805460ff19166001836003811115610caf57610caf61328f565b0217905550336000908152600a602052604081208054600292600b92909186908110610cdd57610cdd613941565b600091825260208083206005600c9093020191909101546001600160a01b031683528201929092526040019020805484908110610d1c57610d1c613941565b60009182526020909120600b600c9092020101805460ff19166001836003811115610d4957610d4961328f565b02179055506002336000908152600a60205260409020805484908110610d7157610d71613941565b60009182526020909120600b600c90920201015460ff166003811115610d9957610d9961328f565b1415610e8957336000908152600a60205260409020805483908110610dc057610dc0613941565b90600052602060002090600c02016006015460088381548110610de557610de5613941565b90600052602060002090600a02016009016000828254610e05919061396d565b9091555050336000908152600a602052604090208054610e89919084908110610e3057610e30613941565b600091825260208083206004600c909302019190910154338352600a909152604090912080546001600160a01b039092169185908110610e7257610e72613941565b90600052602060002090600c020160070154612fe5565b506001919050565b336000908152600f6020908152604080832085845290915281205460ff16610eed5760405162461bcd60e51b815260206004820152600f60248201526e13dc99195c881b9bdd08199bdd5b99608a1b6044820152606401610b38565b60005b336000908152600b602052604090205481101561125257336000908152600b60205260409020805485919083908110610f2b57610f2b613941565b90600052602060002090600c020160000154141561124057336000908152600b60205260409020805484919083908110610f6757610f67613941565b60009182526020909120600b600c9092020101805460ff19166001836003811115610f9457610f9461328f565b0217905550336000908152600b6020526040812080548592600a92909185908110610fc157610fc1613941565b600091825260208083206004600c9093020191909101546001600160a01b03168352820192909252604001902080548390811061100057611000613941565b60009182526020909120600b600c9092020101805460ff1916600183600381111561102d5761102d61328f565b021790555060018360038111156110465761104661328f565b141561124057336000908152600b6020526040902080546110b491908390811061107257611072613941565b600091825260208083206005600c909302019190910154338352600b909152604090912080546001600160a01b039092169184908110610e7257610e72613941565b336000908152600b602052604090208054829081106110d5576110d5613941565b90600052602060002090600c020160070154600160050160008282546110fb9190613985565b90915550506000848152600d602090815260408083208151608081018352338552600b909352922080548291908590811061113857611138613941565b600091825260208083206004600c9093020191909101546001600160a01b03168352338252600b81526040909120805492909101918590811061117d5761117d613941565b90600052602060002090600c0201600701548152602001600b6000336001600160a01b03166001600160a01b0316815260200190815260200160002084815481106111ca576111ca613941565b60009182526020808320600c92909202909101600601548352429281019290925283546001808201865594825290829020835160049092020180546001600160a01b0319166001600160a01b03909216919091178155908201519281019290925560408101516002830155606001516003909101555b8061124a8161399c565b915050610ef0565b5060005b336000908152600a602052604090205481101561136e57336000908152600a6020526040902080548591908390811061129157611291613941565b90600052602060002090600c020160000154141561130457336000908152600a602052604090208054849190839081106112cd576112cd613941565b60009182526020909120600b600c9092020101805460ff191660018360038111156112fa576112fa61328f565b021790555061135c565b60405162461bcd60e51b815260206004820152602760248201527f42757965723a204f72646572206e6f7420666f756e6420776974682070726f766044820152661a59195908125960ca1b6064820152608401610b38565b806113668161399c565b915050611256565b5060019392505050565b6000818152600e602052604090205460609060ff166113d25760405162461bcd60e51b8152602060048201526016602482015275141c9bd91d58dd08191bd95cc81b9bdd08195e1a5cdd60521b6044820152606401610b38565b6000828152600d6020908152604080832080548251818502810185019093528083529193909284015b82821015611458576000848152602090819020604080516080810182526004860290920180546001600160a01b031683526001808201548486015260028201549284019290925260030154606083015290835290920191016113fb565b505050509050919050565b61146b6130c8565b6000828152600e602052604090205460ff166114bd5760405162461bcd60e51b8152602060048201526011602482015270141c9bd91d58dd081b9bdd08199bdd5b99607a1b6044820152606401610b38565b600882815481106114d0576114d0613941565b90600052602060002090600a020160405180610140016040529081600082015481526020016001820180546115049061390c565b80601f01602080910402602001604051908101604052809291908181526020018280546115309061390c565b801561157d5780601f106115525761010080835404028352916020019161157d565b820191906000526020600020905b81548152906001019060200180831161156057829003601f168201915b505050918352505060028201546001600160a01b031660208201526003820180546040909201916115ad9061390c565b80601f01602080910402602001604051908101604052809291908181526020018280546115d99061390c565b80156116265780601f106115fb57610100808354040283529160200191611626565b820191906000526020600020905b81548152906001019060200180831161160957829003601f168201915b5050505050815260200160048201805461163f9061390c565b80601f016020809104026020016040519081016040528092919081815260200182805461166b9061390c565b80156116b85780601f1061168d576101008083540402835291602001916116b8565b820191906000526020600020905b81548152906001019060200180831161169b57829003601f168201915b505050505081526020016005820180546116d19061390c565b80601f01602080910402602001604051908101604052809291908181526020018280546116fd9061390c565b801561174a5780601f1061171f5761010080835404028352916020019161174a565b820191906000526020600020905b81548152906001019060200180831161172d57829003601f168201915b50505091835250506006820154602082015260078201546040820152600882015460ff161515606082015260099091015460809091015292915050565b6000336001600160a01b0316600888815481106117a6576117a6613941565b600091825260209091206002600a9092020101546001600160a01b0316146118075760405162461bcd60e51b8152602060048201526014602482015273155b985d5d1a1bdc9a5e994814195c9cdbdb995b60621b6044820152606401610b38565b600086511161184f5760405162461bcd60e51b81526020600482015260146024820152736e616d652063616e6e6f7420626520656d70747960601b6044820152606401610b38565b60008551116118a05760405162461bcd60e51b815260206004820152601b60248201527f6465736372697074696f6e2063616e6e6f7420626520656d70747900000000006044820152606401610b38565b600083116118e75760405162461bcd60e51b815260206004820152601460248201527370726963652063616e6e6f74206265207a65726f60601b6044820152606401610b38565b6000821161192e5760405162461bcd60e51b815260206004820152601460248201527373746f636b2063616e6e6f74206265207a65726f60601b6044820152606401610b38565b6119366130c8565b336040820152606081018790526080810185905260a0810186905260c081018490526101208101839052600880548291908a90811061197757611977613941565b90600052602060002090600a02016000820151816000015560208201518160010190805190602001906119ab929190613126565b5060408201516002820180546001600160a01b0319166001600160a01b03909216919091179055606082015180516119ed916003840191602090910190613126565b5060808201518051611a09916004840191602090910190613126565b5060a08201518051611a25916005840191602090910190613126565b5060c0820151600682015560e0820151600782015561010082015160088201805460ff191691151591909117905561012090910151600990910155506001979650505050505050565b60606008805480602002602001604051908101604052809291908181526020016000905b8282101561072657838290600052602060002090600a02016040518061014001604052908160008201548152602001600182018054611ad09061390c565b80601f0160208091040260200160405190810160405280929190818152602001828054611afc9061390c565b8015611b495780601f10611b1e57610100808354040283529160200191611b49565b820191906000526020600020905b815481529060010190602001808311611b2c57829003601f168201915b505050918352505060028201546001600160a01b03166020820152600382018054604090920191611b799061390c565b80601f0160208091040260200160405190810160405280929190818152602001828054611ba59061390c565b8015611bf25780601f10611bc757610100808354040283529160200191611bf2565b820191906000526020600020905b815481529060010190602001808311611bd557829003601f168201915b50505050508152602001600482018054611c0b9061390c565b80601f0160208091040260200160405190810160405280929190818152602001828054611c379061390c565b8015611c845780601f10611c5957610100808354040283529160200191611c84565b820191906000526020600020905b815481529060010190602001808311611c6757829003601f168201915b50505050508152602001600582018054611c9d9061390c565b80601f0160208091040260200160405190810160405280929190818152602001828054611cc99061390c565b8015611d165780601f10611ceb57610100808354040283529160200191611d16565b820191906000526020600020905b815481529060010190602001808311611cf957829003601f168201915b5050509183525050600682015460208083019190915260078301546040830152600883015460ff16151560608301526009909201546080909101529082526001929092019101611a92565b6000600754341015611da95760405162461bcd60e51b8152602060048201526011602482015270125b9cdd59999a58da595b9d08199d5b99607a1b6044820152606401610b38565b6000875111611df05760405162461bcd60e51b8152602060048201526013602482015272736b752063616e6e6f7420626520656d70747960681b6044820152606401610b38565b6000865111611e385760405162461bcd60e51b81526020600482015260146024820152736e616d652063616e6e6f7420626520656d70747960601b6044820152606401610b38565b6000855111611e895760405162461bcd60e51b815260206004820152601b60248201527f6465736372697074696f6e2063616e6e6f7420626520656d70747900000000006044820152606401610b38565b6000845111611eda5760405162461bcd60e51b815260206004820152601960248201527f696d6167652055524c2063616e6e6f7420626520656d707479000000000000006044820152606401610b38565b60008311611f215760405162461bcd60e51b815260206004820152601460248201527370726963652063616e6e6f74206265207a65726f60601b6044820152606401610b38565b60008211611f685760405162461bcd60e51b815260206004820152601460248201527373746f636b2063616e6e6f74206265207a65726f60601b6044820152606401610b38565b600180546000908152600e60209081526040808320805460ff1916909417909355338252600c9052908120805491611f9f8361399c565b9190505550611fac6130c8565b60018054906000611fbc8361399c565b9091555081526020808201898152336040840152606083018990526080830187905260a0830188905260c0830186905261012083018590524260e08401526008805460018101825560009190915283517ff3f7a9fe364faab93b216da50a3214154f22a0a2b415b23a84c8169e8b636ee3600a9092029182019081559151805185946119ab937ff3f7a9fe364faab93b216da50a3214154f22a0a2b415b23a84c8169e8b636ee401920190613126565b6120746131aa565b60005b336000908152600a602052604090205481101561247657336000908152600a602052604090208054849190839081106120b2576120b2613941565b90600052602060002090600c020160000154141561246457336000908152600a602052604090208054829081106120eb576120eb613941565b90600052602060002090600c0201604051806101800160405290816000820154815260200160018201805461211f9061390c565b80601f016020809104026020016040519081016040528092919081815260200182805461214b9061390c565b80156121985780601f1061216d57610100808354040283529160200191612198565b820191906000526020600020905b81548152906001019060200180831161217b57829003601f168201915b505050505081526020016002820180546121b19061390c565b80601f01602080910402602001604051908101604052809291908181526020018280546121dd9061390c565b801561222a5780601f106121ff5761010080835404028352916020019161222a565b820191906000526020600020905b81548152906001019060200180831161220d57829003601f168201915b505050505081526020016003820180546122439061390c565b80601f016020809104026020016040519081016040528092919081815260200182805461226f9061390c565b80156122bc5780601f10612291576101008083540402835291602001916122bc565b820191906000526020600020905b81548152906001019060200180831161229f57829003601f168201915b505050918352505060048201546001600160a01b03908116602083015260058301541660408201526006820154606082015260078201546080820152600882015460a082015260098201805460c0909201916123179061390c565b80601f01602080910402602001604051908101604052809291908181526020018280546123439061390c565b80156123905780601f1061236557610100808354040283529160200191612390565b820191906000526020600020905b81548152906001019060200180831161237357829003601f168201915b50505050508152602001600a820180546123a99061390c565b80601f01602080910402602001604051908101604052809291908181526020018280546123d59061390c565b80156124225780601f106123f757610100808354040283529160200191612422565b820191906000526020600020905b81548152906001019060200180831161240557829003601f168201915b5050509183525050600b82015460209091019060ff1660038111156124495761244961328f565b600381111561245a5761245a61328f565b9052509392505050565b8061246e8161399c565b915050612077565b50919050565b6124846131aa565b60005b336000908152600b602052604090205481101561247657336000908152600b602052604090208054849190839081106124c2576124c2613941565b90600052602060002090600c02016000015414156124fb57336000908152600b602052604090208054829081106120eb576120eb613941565b806125058161399c565b915050612487565b6000612519858561304a565b34101561255e5760405162461bcd60e51b8152602060048201526013602482015272125b9cdd59999a58da595b9d08185b5bdd5b9d606a1b6044820152606401610b38565b60008351116125af5760405162461bcd60e51b815260206004820152601b60248201527f64657374696e6174696f6e2063616e6e6f7420626520656d70747900000000006044820152606401610b38565b60008251116125f85760405162461bcd60e51b815260206004820152601560248201527470686f6e652063616e6e6f7420626520656d70747960581b6044820152606401610b38565b612602858561304a565b6006805460009061261490849061396d565b90915550600090505b8551811015612f1a57600e600087838151811061263c5761263c613941565b60209081029190910181015182528101919091526040016000205460ff1680156126bc575084818151811061267357612673613941565b6020026020010151600887838151811061268f5761268f613941565b6020026020010151815481106126a7576126a7613941565b90600052602060002090600a02016009015410155b15612f08578481815181106126d3576126d3613941565b602002602001015160088783815181106126ef576126ef613941565b60200260200101518154811061270757612707613941565b90600052602060002090600a020160090160008282546127279190613985565b925050819055506001600f6000600889858151811061274857612748613941565b60200260200101518154811061276057612760613941565b60009182526020808320600a92909202909101600201546001600160a01b03168352828101939093526040918201812033808352600c80865284842060010180548552928652938320805460ff1916961515969096179095559381529152815491906127cb8361399c565b91905055506127d86131aa565b600280549060006127e88361399c565b909155508152865160089088908490811061280557612805613941565b60200260200101518154811061281d5761281d613941565b90600052602060002090600a020160010180546128399061390c565b80601f01602080910402602001604051908101604052809291908181526020018280546128659061390c565b80156128b25780601f10612887576101008083540402835291602001916128b2565b820191906000526020600020905b81548152906001019060200180831161289557829003601f168201915b5050505050602082015233608082015286516008908890849081106128d9576128d9613941565b6020026020010151815481106128f1576128f1613941565b600091825260209091206002600a9092020101546001600160a01b031660a0820152865160089088908490811061292a5761292a613941565b60200260200101518154811061294257612942613941565b90600052602060002090600a0201600301805461295e9061390c565b80601f016020809104026020016040519081016040528092919081815260200182805461298a9061390c565b80156129d75780601f106129ac576101008083540402835291602001916129d7565b820191906000526020600020905b8154815290600101906020018083116129ba57829003601f168201915b5050505050816040018190525060088783815181106129f8576129f8613941565b602002602001015181548110612a1057612a10613941565b90600052602060002090600a02016004018054612a2c9061390c565b80601f0160208091040260200160405190810160405280929190818152602001828054612a589061390c565b8015612aa55780601f10612a7a57610100808354040283529160200191612aa5565b820191906000526020600020905b815481529060010190602001808311612a8857829003601f168201915b50505050508160600181905250858281518110612ac457612ac4613941565b60200260200101518160c00181815250506008878381518110612ae957612ae9613941565b602002602001015181548110612b0157612b01613941565b90600052602060002090600a020160060154868381518110612b2557612b25613941565b6020026020010151612b3791906139b7565b60e0820152426101008201526101208101859052610140810184905260808101516001600160a01b03166000908152600a602090815260408220805460018181018355918452928290208451600c90940201928355818401518051859493612ba3938501920190613126565b5060408201518051612bbf916002840191602090910190613126565b5060608201518051612bdb916003840191602090910190613126565b5060808201516004820180546001600160a01b039283166001600160a01b03199182161790915560a084015160058401805491909316911617905560c0820151600682015560e0820151600782015561010082015160088201556101208201518051612c51916009840191602090910190613126565b506101408201518051612c6e91600a840191602090910190613126565b50610160820151600b8201805460ff19166001836003811115612c9357612c9361328f565b0217905550505060a08101516001600160a01b03166000908152600b602090815260408220805460018181018355918452928290208451600c90940201928355818401518051859493612cea938501920190613126565b5060408201518051612d06916002840191602090910190613126565b5060608201518051612d22916003840191602090910190613126565b5060808201516004820180546001600160a01b039283166001600160a01b03199182161790915560a084015160058401805491909316911617905560c0820151600682015560e0820151600782015561010082015160088201556101208201518051612d98916009840191602090910190613126565b506101408201518051612db591600a840191602090910190613126565b50610160820151600b8201805460ff19166001836003811115612dda57612dda61328f565b02179055505050600d6000888481518110612df757612df7613941565b60200260200101518152602001908152602001600020604051806080016040528083608001516001600160a01b031681526020018360c001518460e00151612e3f91906139d6565b815260c0840151602080830191909152426040928301819052845460018082018755600096875295839020855160049092020180546001600160a01b0319166001600160a01b03928316178155858401519681019690965584840151600287015560609485015160039096019590955560a08601516080870151875160e08901518651918252948101949094529383019190915284169391909116917ff3debaf22196a6ddf52a60fa71058cd7edf5e25bb98f4e96c994a5d4a9b0dd3e910160405180910390a3505b80612f128161399c565b91505061261d565b50600195945050505050565b6000336001600160a01b031660088381548110612f4557612f45613941565b600091825260209091206002600a9092020101546001600160a01b031614612fa65760405162461bcd60e51b8152602060048201526014602482015273155b985d5d1a1bdc9a5e994814195c9cdbdb995b60621b6044820152606401610b38565b600160088381548110612fbb57612fbb613941565b60009182526020909120600a90910201600801805460ff1916911515919091179055506001919050565b6000826001600160a01b03168260405160006040518083038185875af1925050503d8060008114613032576040519150601f19603f3d011682016040523d82523d6000602084013e613037565b606091505b505090508061304557600080fd5b505050565b60008060005b84518110156130c05783818151811061306b5761306b613941565b60200260200101516008828154811061308657613086613941565b90600052602060002090600a0201600601546130a291906139b7565b6130ac908361396d565b9150806130b88161399c565b915050613050565b509392505050565b604051806101400160405280600081526020016060815260200160006001600160a01b031681526020016060815260200160608152602001606081526020016000815260200160008152602001600015158152602001600081525090565b8280546131329061390c565b90600052602060002090601f016020900481019282613154576000855561319a565b82601f1061316d57805160ff191683800117855561319a565b8280016001018555821561319a579182015b8281111561319a57825182559160200191906001019061317f565b506131a692915061322d565b5090565b6040518061018001604052806000815260200160608152602001606081526020016060815260200160006001600160a01b0316815260200160006001600160a01b031681526020016000815260200160008152602001600081526020016060815260200160608152602001600060038111156132285761322861328f565b905290565b5b808211156131a6576000815560010161322e565b6000815180845260005b818110156132685760208185018101518683018201520161324c565b8181111561327a576000602083870101525b50601f01601f19169290920160200192915050565b634e487b7160e01b600052602160045260246000fd5b600481106132c357634e487b7160e01b600052602160045260246000fd5b9052565b60006101808251845260208301518160208601526132e782860182613242565b915050604083015184820360408601526133018282613242565b9150506060830151848203606086015261331b8282613242565b915050608083015161333860808601826001600160a01b03169052565b5060a083015161335360a08601826001600160a01b03169052565b5060c083015160c085015260e083015160e0850152610100808401518186015250610120808401518583038287015261338c8382613242565b9250505061014080840151858303828701526133a88382613242565b92505050610160808401516133bf828701826132a5565b5090949350505050565b6000602080830181845280855180835260408601915060408160051b870101925083870160005b8281101561341e57603f1988860301845261340c8583516132c7565b945092850192908501906001016133f0565b5092979650505050505050565b60006020828403121561343d57600080fd5b5035919050565b6000806040838503121561345757600080fd5b8235915060208301356004811061346d57600080fd5b809150509250929050565b602080825282518282018190526000919060409081850190868401855b828110156134d857815180516001600160a01b03168552868101518786015285810151868601526060908101519085015260809093019290850190600101613495565b5091979650505050505050565b600061014082518452602083015181602086015261350582860182613242565b915050604083015161352260408601826001600160a01b03169052565b506060830151848203606086015261353a8282613242565b915050608083015184820360808601526135548282613242565b91505060a083015184820360a086015261356e8282613242565b91505060c083015160c085015260e083015160e0850152610100808401516135998287018215159052565b5050610120928301519390920192909252919050565b6020815260006135c260208301846134e5565b9392505050565b634e487b7160e01b600052604160045260246000fd5b604051601f8201601f1916810167ffffffffffffffff81118282101715613608576136086135c9565b604052919050565b600082601f83011261362157600080fd5b813567ffffffffffffffff81111561363b5761363b6135c9565b61364e601f8201601f19166020016135df565b81815284602083860101111561366357600080fd5b816020850160208301376000918101602001919091529392505050565b60008060008060008060c0878903121561369957600080fd5b86359550602087013567ffffffffffffffff808211156136b857600080fd5b6136c48a838b01613610565b965060408901359150808211156136da57600080fd5b6136e68a838b01613610565b955060608901359150808211156136fc57600080fd5b5061370989828a01613610565b9350506080870135915060a087013590509295509295509295565b6000602080830181845280855180835260408601915060408160051b870101925083870160005b8281101561341e57603f198886030184526137678583516134e5565b9450928501929085019060010161374b565b60008060008060008060c0878903121561379257600080fd5b863567ffffffffffffffff808211156137aa57600080fd5b6137b68a838b01613610565b975060208901359150808211156136b857600080fd5b6020815260006135c260208301846132c7565b600082601f8301126137f057600080fd5b8135602067ffffffffffffffff82111561380c5761380c6135c9565b8160051b61381b8282016135df565b928352848101820192828101908785111561383557600080fd5b83870192505b848310156138545782358252918301919083019061383b565b979650505050505050565b6000806000806080858703121561387557600080fd5b843567ffffffffffffffff8082111561388d57600080fd5b613899888389016137df565b955060208701359150808211156138af57600080fd5b6138bb888389016137df565b945060408701359150808211156138d157600080fd5b6138dd88838901613610565b935060608701359150808211156138f357600080fd5b5061390087828801613610565b91505092959194509250565b600181811c9082168061392057607f821691505b6020821081141561247657634e487b7160e01b600052602260045260246000fd5b634e487b7160e01b600052603260045260246000fd5b634e487b7160e01b600052601160045260246000fd5b6000821982111561398057613980613957565b500190565b60008282101561399757613997613957565b500390565b60006000198214156139b0576139b0613957565b5060010190565b60008160001904831182151516156139d1576139d1613957565b500290565b6000826139f357634e487b7160e01b600052601260045260246000fd5b50049056fea2646970667358221220f7a73902540e7e0eed52cde7a6e18205deac517ab862d76f21393240eef995f764736f6c634300080b0033",
  "linkReferences": {},
  "deployedLinkReferences": {}
}