{
  "_format": "hh-sol-artifact-1",
  "contractName": "Shop",
  "sourceName": "src/contracts/Shop.sol",
  "abi": [
    {
      "inputs": [
        {
          "internalType": "uint256",
          "name": "_fee",
          "type": "uint256"
        }
      ],
      "stateMutability": "nonpayable",
      "type": "constructor"
    },
    {
      "anonymous": false,
      "inputs": [
        {
          "indexed": false,
          "internalType": "uint256",
          "name": "id",
          "type": "uint256"
        },
        {
          "indexed": true,
          "internalType": "address",
          "name": "buyer",
          "type": "address"
        },
        {
          "indexed": true,
          "internalType": "address",
          "name": "seller",
          "type": "address"
        },
        {
          "indexed": false,
          "internalType": "uint256",
          "name": "price",
          "type": "uint256"
        },
        {
          "indexed": false,
          "internalType": "uint256",
          "name": "timestamp",
          "type": "uint256"
        }
      ],
      "name": "Sale",
      "type": "event"
    },
    {
      "inputs": [
        {
          "internalType": "uint256",
          "name": "id",
          "type": "uint256"
        }
      ],
      "name": "cancelOrder",
      "outputs": [
        {
          "internalType": "bool",
          "name": "",
          "type": "bool"
        }
      ],
      "stateMutability": "nonpayable",
      "type": "function"
    },
    {
      "inputs": [
        {
          "internalType": "uint256[]",
          "name": "ids",
          "type": "uint256[]"
        },
        {
          "internalType": "uint256[]",
          "name": "qtys",
          "type": "uint256[]"
        },
        {
          "internalType": "string",
          "name": "destination",
          "type": "string"
        },
        {
          "internalType": "string",
          "name": "phone",
          "type": "string"
        }
      ],
      "name": "createOrder",
      "outputs": [
        {
          "internalType": "bool",
          "name": "",
          "type": "bool"
        }
      ],
      "stateMutability": "payable",
      "type": "function"
    },
    {
      "inputs": [
        {
          "internalType": "string",
          "name": "sku",
          "type": "string"
        },
        {
          "internalType": "string",
          "name": "name",
          "type": "string"
        },
        {
          "internalType": "string",
          "name": "description",
          "type": "string"
        },
        {
          "internalType": "string",
          "name": "imageURL",
          "type": "string"
        },
        {
          "internalType": "uint256",
          "name": "price",
          "type": "uint256"
        },
        {
          "internalType": "uint256",
          "name": "stock",
          "type": "uint256"
        }
      ],
      "name": "createProduct",
      "outputs": [
        {
          "internalType": "bool",
          "name": "",
          "type": "bool"
        }
      ],
      "stateMutability": "payable",
      "type": "function"
    },
    {
      "inputs": [
        {
          "internalType": "uint256",
          "name": "id",
          "type": "uint256"
        }
      ],
      "name": "deleteProduct",
      "outputs": [
        {
          "internalType": "bool",
          "name": "",
          "type": "bool"
        }
      ],
      "stateMutability": "nonpayable",
      "type": "function"
    },
    {
      "inputs": [],
      "name": "fee",
      "outputs": [
        {
          "internalType": "uint256",
          "name": "",
          "type": "uint256"
        }
      ],
      "stateMutability": "view",
      "type": "function"
    },
    {
      "inputs": [
        {
          "internalType": "uint256",
          "name": "id",
          "type": "uint256"
        }
      ],
      "name": "getOrder",
      "outputs": [
        {
          "components": [
            {
              "internalType": "uint256",
              "name": "id",
              "type": "uint256"
            },
            {
              "internalType": "string",
              "name": "sku",
              "type": "string"
            },
            {
              "internalType": "string",
              "name": "imageURL",
              "type": "string"
            },
            {
              "internalType": "address",
              "name": "buyer",
              "type": "address"
            },
            {
              "internalType": "address",
              "name": "seller",
              "type": "address"
            },
            {
              "internalType": "uint256",
              "name": "qty",
              "type": "uint256"
            },
            {
              "internalType": "uint256",
              "name": "total",
              "type": "uint256"
            },
            {
              "internalType": "uint256",
              "name": "timestamp",
              "type": "uint256"
            },
            {
              "internalType": "string",
              "name": "destination",
              "type": "string"
            },
            {
              "internalType": "string",
              "name": "phone",
              "type": "string"
            },
            {
              "internalType": "enum Shop.OrderEnum",
              "name": "status",
              "type": "uint8"
            }
          ],
          "internalType": "struct Shop.OrderStruct",
          "name": "order",
          "type": "tuple"
        }
      ],
      "stateMutability": "view",
      "type": "function"
    },
    {
      "inputs": [],
      "name": "getOrders",
      "outputs": [
        {
          "components": [
            {
              "internalType": "uint256",
              "name": "id",
              "type": "uint256"
            },
            {
              "internalType": "string",
              "name": "sku",
              "type": "string"
            },
            {
              "internalType": "string",
              "name": "imageURL",
              "type": "string"
            },
            {
              "internalType": "address",
              "name": "buyer",
              "type": "address"
            },
            {
              "internalType": "address",
              "name": "seller",
              "type": "address"
            },
            {
              "internalType": "uint256",
              "name": "qty",
              "type": "uint256"
            },
            {
              "internalType": "uint256",
              "name": "total",
              "type": "uint256"
            },
            {
              "internalType": "uint256",
              "name": "timestamp",
              "type": "uint256"
            },
            {
              "internalType": "string",
              "name": "destination",
              "type": "string"
            },
            {
              "internalType": "string",
              "name": "phone",
              "type": "string"
            },
            {
              "internalType": "enum Shop.OrderEnum",
              "name": "status",
              "type": "uint8"
            }
          ],
          "internalType": "struct Shop.OrderStruct[]",
          "name": "",
          "type": "tuple[]"
        }
      ],
      "stateMutability": "view",
      "type": "function"
    },
    {
      "inputs": [
        {
          "internalType": "uint256",
          "name": "id",
          "type": "uint256"
        }
      ],
      "name": "getProduct",
      "outputs": [
        {
          "components": [
            {
              "internalType": "uint256",
              "name": "id",
              "type": "uint256"
            },
            {
              "internalType": "string",
              "name": "sku",
              "type": "string"
            },
            {
              "internalType": "address",
              "name": "seller",
              "type": "address"
            },
            {
              "internalType": "string",
              "name": "name",
              "type": "string"
            },
            {
              "internalType": "string",
              "name": "imageURL",
              "type": "string"
            },
            {
              "internalType": "string",
              "name": "description",
              "type": "string"
            },
            {
              "internalType": "uint256",
              "name": "price",
              "type": "uint256"
            },
            {
              "internalType": "uint256",
              "name": "timestamp",
              "type": "uint256"
            },
            {
              "internalType": "bool",
              "name": "deleted",
              "type": "bool"
            },
            {
              "internalType": "uint256",
              "name": "stock",
              "type": "uint256"
            }
          ],
          "internalType": "struct Shop.ProductStruct",
          "name": "",
          "type": "tuple"
        }
      ],
      "stateMutability": "view",
      "type": "function"
    },
    {
      "inputs": [],
      "name": "getProducts",
      "outputs": [
        {
          "components": [
            {
              "internalType": "uint256",
              "name": "id",
              "type": "uint256"
            },
            {
              "internalType": "string",
              "name": "sku",
              "type": "string"
            },
            {
              "internalType": "address",
              "name": "seller",
              "type": "address"
            },
            {
              "internalType": "string",
              "name": "name",
              "type": "string"
            },
            {
              "internalType": "string",
              "name": "imageURL",
              "type": "string"
            },
            {
              "internalType": "string",
              "name": "description",
              "type": "string"
            },
            {
              "internalType": "uint256",
              "name": "price",
              "type": "uint256"
            },
            {
              "internalType": "uint256",
              "name": "timestamp",
              "type": "uint256"
            },
            {
              "internalType": "bool",
              "name": "deleted",
              "type": "bool"
            },
            {
              "internalType": "uint256",
              "name": "stock",
              "type": "uint256"
            }
          ],
          "internalType": "struct Shop.ProductStruct[]",
          "name": "",
          "type": "tuple[]"
        }
      ],
      "stateMutability": "view",
      "type": "function"
    },
    {
      "inputs": [
        {
          "internalType": "uint256",
          "name": "id",
          "type": "uint256"
        }
      ],
      "name": "getSale",
      "outputs": [
        {
          "components": [
            {
              "internalType": "uint256",
              "name": "id",
              "type": "uint256"
            },
            {
              "internalType": "string",
              "name": "sku",
              "type": "string"
            },
            {
              "internalType": "string",
              "name": "imageURL",
              "type": "string"
            },
            {
              "internalType": "address",
              "name": "buyer",
              "type": "address"
            },
            {
              "internalType": "address",
              "name": "seller",
              "type": "address"
            },
            {
              "internalType": "uint256",
              "name": "qty",
              "type": "uint256"
            },
            {
              "internalType": "uint256",
              "name": "total",
              "type": "uint256"
            },
            {
              "internalType": "uint256",
              "name": "timestamp",
              "type": "uint256"
            },
            {
              "internalType": "string",
              "name": "destination",
              "type": "string"
            },
            {
              "internalType": "string",
              "name": "phone",
              "type": "string"
            },
            {
              "internalType": "enum Shop.OrderEnum",
              "name": "status",
              "type": "uint8"
            }
          ],
          "internalType": "struct Shop.OrderStruct",
          "name": "order",
          "type": "tuple"
        }
      ],
      "stateMutability": "view",
      "type": "function"
    },
    {
      "inputs": [],
      "name": "getSales",
      "outputs": [
        {
          "components": [
            {
              "internalType": "uint256",
              "name": "id",
              "type": "uint256"
            },
            {
              "internalType": "string",
              "name": "sku",
              "type": "string"
            },
            {
              "internalType": "string",
              "name": "imageURL",
              "type": "string"
            },
            {
              "internalType": "address",
              "name": "buyer",
              "type": "address"
            },
            {
              "internalType": "address",
              "name": "seller",
              "type": "address"
            },
            {
              "internalType": "uint256",
              "name": "qty",
              "type": "uint256"
            },
            {
              "internalType": "uint256",
              "name": "total",
              "type": "uint256"
            },
            {
              "internalType": "uint256",
              "name": "timestamp",
              "type": "uint256"
            },
            {
              "internalType": "string",
              "name": "destination",
              "type": "string"
            },
            {
              "internalType": "string",
              "name": "phone",
              "type": "string"
            },
            {
              "internalType": "enum Shop.OrderEnum",
              "name": "status",
              "type": "uint8"
            }
          ],
          "internalType": "struct Shop.OrderStruct[]",
          "name": "",
          "type": "tuple[]"
        }
      ],
      "stateMutability": "view",
      "type": "function"
    },
    {
      "inputs": [
        {
          "internalType": "uint256",
          "name": "id",
          "type": "uint256"
        },
        {
          "internalType": "enum Shop.OrderEnum",
          "name": "status",
          "type": "uint8"
        }
      ],
      "name": "markOrderAs",
      "outputs": [
        {
          "internalType": "bool",
          "name": "",
          "type": "bool"
        }
      ],
      "stateMutability": "nonpayable",
      "type": "function"
    },
    {
      "inputs": [],
      "name": "owner",
      "outputs": [
        {
          "internalType": "address",
          "name": "",
          "type": "address"
        }
      ],
      "stateMutability": "view",
      "type": "function"
    },
    {
      "inputs": [],
      "name": "stats",
      "outputs": [
        {
          "internalType": "uint256",
          "name": "products",
          "type": "uint256"
        },
        {
          "internalType": "uint256",
          "name": "orders",
          "type": "uint256"
        },
        {
          "internalType": "uint256",
          "name": "sellers",
          "type": "uint256"
        },
        {
          "internalType": "uint256",
          "name": "sales",
          "type": "uint256"
        },
        {
          "internalType": "uint256",
          "name": "paid",
          "type": "uint256"
        },
        {
          "internalType": "uint256",
          "name": "balance",
          "type": "uint256"
        }
      ],
      "stateMutability": "view",
      "type": "function"
    },
    {
      "inputs": [
        {
          "internalType": "uint256",
          "name": "id",
          "type": "uint256"
        },
        {
          "internalType": "string",
          "name": "name",
          "type": "string"
        },
        {
          "internalType": "string",
          "name": "description",
          "type": "string"
        },
        {
          "internalType": "string",
          "name": "imageURL",
          "type": "string"
        },
        {
          "internalType": "uint256",
          "name": "price",
          "type": "uint256"
        },
        {
          "internalType": "uint256",
          "name": "stock",
          "type": "uint256"
        }
      ],
      "name": "updateProduct",
      "outputs": [
        {
          "internalType": "bool",
          "name": "",
          "type": "bool"
        }
      ],
      "stateMutability": "nonpayable",
      "type": "function"
    }
  ],
  "bytecode": "0x60806040523480156200001157600080fd5b50604051620034fe380380620034fe83398101604081905262000034916200004f565b600080546001600160a01b0319163317905560075562000069565b6000602082840312156200006257600080fd5b5051919050565b61348580620000796000396000f3fe6080604052600436106100e85760003560e01c8063c29b2f201161008a578063d8f6d59611610059578063d8f6d596146102bc578063ddca3f43146102dc578063e0e83bb314610300578063ed90c7b71461031357600080fd5b8063c29b2f2014610202578063c39e0b2b14610224578063d09ef24114610237578063d80528ae1461026457600080fd5b806365f3fcd7116100c657806365f3fcd71461015d5780638da5cb5b1461017d578063b9db15b4146101b5578063bab8d872146101e257600080fd5b80630d83304c146100ed5780632e2dc43e14610118578063514fcac71461012d575b600080fd5b3480156100f957600080fd5b50610102610333565b60405161010f9190612e78565b60405180910390f35b34801561012457600080fd5b50610102610665565b34801561013957600080fd5b5061014d610148366004612eda565b61098e565b604051901515815260200161010f565b34801561016957600080fd5b5061014d610178366004612ef3565b610d35565b34801561018957600080fd5b5060005461019d906001600160a01b031681565b6040516001600160a01b03909116815260200161010f565b3480156101c157600080fd5b506101d56101d0366004612eda565b611213565b60405161010f9190612ff1565b3480156101ee57600080fd5b5061014d6101fd3660046130c2565b611537565b34801561020e57600080fd5b506102176117ee565b60405161010f9190613166565b61014d6102323660046131bb565b611ae1565b34801561024357600080fd5b50610257610252366004612eda565b611d8c565b60405161010f919061320e565b34801561027057600080fd5b5060015460025460035460045460055460065461028f95949392919086565b604080519687526020870195909552938501929092526060840152608083015260a082015260c00161010f565b3480156102c857600080fd5b506102576102d7366004612eda565b61210a565b3480156102e857600080fd5b506102f260075481565b60405190815260200161010f565b61014d61030e3660046132a1565b61219b565b34801561031f57600080fd5b5061014d61032e366004612eda565b6129f8565b336000908152600b60209081526040808320805482518185028101850190935280835260609492939192909184015b8282101561065c57838290600052602060002090600b020160405180610160016040529081600082015481526020016001820180546103a09061334e565b80601f01602080910402602001604051908101604052809291908181526020018280546103cc9061334e565b80156104195780601f106103ee57610100808354040283529160200191610419565b820191906000526020600020905b8154815290600101906020018083116103fc57829003601f168201915b505050505081526020016002820180546104329061334e565b80601f016020809104026020016040519081016040528092919081815260200182805461045e9061334e565b80156104ab5780601f10610480576101008083540402835291602001916104ab565b820191906000526020600020905b81548152906001019060200180831161048e57829003601f168201915b505050918352505060038201546001600160a01b03908116602083015260048301541660408201526005820154606082015260068201546080820152600782015460a082015260088201805460c0909201916105069061334e565b80601f01602080910402602001604051908101604052809291908181526020018280546105329061334e565b801561057f5780601f106105545761010080835404028352916020019161057f565b820191906000526020600020905b81548152906001019060200180831161056257829003601f168201915b505050505081526020016009820180546105989061334e565b80601f01602080910402602001604051908101604052809291908181526020018280546105c49061334e565b80156106115780601f106105e657610100808354040283529160200191610611565b820191906000526020600020905b8154815290600101906020018083116105f457829003601f168201915b5050509183525050600a82015460209091019060ff16600381111561063857610638612d5a565b600381111561064957610649612d5a565b8152505081526020019060010190610362565b50505050905090565b336000908152600a60209081526040808320805482518185028101850190935280835260609492939192909184015b8282101561065c57838290600052602060002090600b020160405180610160016040529081600082015481526020016001820180546106d29061334e565b80601f01602080910402602001604051908101604052809291908181526020018280546106fe9061334e565b801561074b5780601f106107205761010080835404028352916020019161074b565b820191906000526020600020905b81548152906001019060200180831161072e57829003601f168201915b505050505081526020016002820180546107649061334e565b80601f01602080910402602001604051908101604052809291908181526020018280546107909061334e565b80156107dd5780601f106107b2576101008083540402835291602001916107dd565b820191906000526020600020905b8154815290600101906020018083116107c057829003601f168201915b505050918352505060038201546001600160a01b03908116602083015260048301541660408201526005820154606082015260068201546080820152600782015460a082015260088201805460c0909201916108389061334e565b80601f01602080910402602001604051908101604052809291908181526020018280546108649061334e565b80156108b15780601f10610886576101008083540402835291602001916108b1565b820191906000526020600020905b81548152906001019060200180831161089457829003601f168201915b505050505081526020016009820180546108ca9061334e565b80601f01602080910402602001604051908101604052809291908181526020018280546108f69061334e565b80156109435780601f1061091857610100808354040283529160200191610943565b820191906000526020600020905b81548152906001019060200180831161092657829003601f168201915b5050509183525050600a82015460209091019060ff16600381111561096a5761096a612d5a565b600381111561097b5761097b612d5a565b8152505081526020019060010190610694565b6000818152600e602052604081205460ff166109e55760405162461bcd60e51b8152602060048201526011602482015270141c9bd91d58dd081b9bdd08199bdd5b99607a1b60448201526064015b60405180910390fd5b336000818152600a60205260409020805484908110610a0657610a06613383565b600091825260209091206003600b9092020101546001600160a01b031614610a695760405162461bcd60e51b8152602060048201526016602482015275155b985d5d1a1bdc9a5e99590814195c9cdbdb9b995b60521b60448201526064016109dc565b6001336000908152600a60205260409020805484908110610a8c57610a8c613383565b60009182526020909120600a600b90920201015460ff166003811115610ab457610ab4612d5a565b10610b015760405162461bcd60e51b815260206004820152601860248201527f4f726465722064656c69766572656420616c726561647921000000000000000060448201526064016109dc565b336000908152600a6020526040902080546002919084908110610b2657610b26613383565b60009182526020909120600a600b9092020101805460ff19166001836003811115610b5357610b53612d5a565b0217905550336000908152600a602052604081208054600292600b92909186908110610b8157610b81613383565b600091825260208083206004600b9093020191909101546001600160a01b031683528201929092526040019020805484908110610bc057610bc0613383565b60009182526020909120600a600b9092020101805460ff19166001836003811115610bed57610bed612d5a565b02179055506002336000908152600a60205260409020805484908110610c1557610c15613383565b60009182526020909120600a600b90920201015460ff166003811115610c3d57610c3d612d5a565b1415610d2d57336000908152600a60205260409020805483908110610c6457610c64613383565b90600052602060002090600b02016005015460088381548110610c8957610c89613383565b90600052602060002090600a02016009016000828254610ca991906133af565b9091555050336000908152600a602052604090208054610d2d919084908110610cd457610cd4613383565b600091825260208083206003600b909302019190910154338352600a909152604090912080546001600160a01b039092169185908110610d1657610d16613383565b90600052602060002090600b020160060154612ab7565b506001919050565b336000908152600f6020908152604080832085845290915281205460ff16610d915760405162461bcd60e51b815260206004820152600f60248201526e13dc99195c881b9bdd08199bdd5b99608a1b60448201526064016109dc565b60005b336000908152600b60205260409020548110156110ed57336000908152600b60205260409020805485919083908110610dcf57610dcf613383565b90600052602060002090600b02016000015414156110db57336000908152600b60205260409020805484919083908110610e0b57610e0b613383565b60009182526020909120600a600b9092020101805460ff19166001836003811115610e3857610e38612d5a565b0217905550336000908152600b6020526040812080548592600a92909185908110610e6557610e65613383565b600091825260208083206003600b9093020191909101546001600160a01b031683528201929092526040019020805483908110610ea457610ea4613383565b60009182526020909120600a600b9092020101805460ff19166001836003811115610ed157610ed1612d5a565b02179055506001836003811115610eea57610eea612d5a565b14156110db57336000908152600b602052604090208054610f53919083908110610f1657610f16613383565b60009182526020808320600b9283020160040154338452919052604090912080546001600160a01b039092169184908110610d1657610d16613383565b336000908152600b60205260409020805482908110610f7457610f74613383565b90600052602060002090600b02016006015460016005016000828254610f9a91906133c7565b90915550506000848152600d602090815260408083208151608081018352338552600b9093529220805482919085908110610fd757610fd7613383565b60009182526020808320600b92830201600301546001600160a01b031684523383529081526040909120805492909101918590811061101857611018613383565b90600052602060002090600b0201600601548152602001600b6000336001600160a01b03166001600160a01b03168152602001908152602001600020848154811061106557611065613383565b60009182526020808320600b92909202909101600501548352429281019290925283546001808201865594825290829020835160049092020180546001600160a01b0319166001600160a01b03909216919091178155908201519281019290925560408101516002830155606001516003909101555b806110e5816133de565b915050610d94565b5060005b336000908152600a602052604090205481101561120957336000908152600a6020526040902080548591908390811061112c5761112c613383565b90600052602060002090600b020160000154141561119f57336000908152600a6020526040902080548491908390811061116857611168613383565b60009182526020909120600a600b9092020101805460ff1916600183600381111561119557611195612d5a565b02179055506111f7565b60405162461bcd60e51b815260206004820152602760248201527f42757965723a204f72646572206e6f7420666f756e6420776974682070726f766044820152661a59195908125960ca1b60648201526084016109dc565b80611201816133de565b9150506110f1565b5060019392505050565b61121b612b9a565b6000828152600e602052604090205460ff1661126d5760405162461bcd60e51b8152602060048201526011602482015270141c9bd91d58dd081b9bdd08199bdd5b99607a1b60448201526064016109dc565b6008828154811061128057611280613383565b90600052602060002090600a020160405180610140016040529081600082015481526020016001820180546112b49061334e565b80601f01602080910402602001604051908101604052809291908181526020018280546112e09061334e565b801561132d5780601f106113025761010080835404028352916020019161132d565b820191906000526020600020905b81548152906001019060200180831161131057829003601f168201915b505050918352505060028201546001600160a01b0316602082015260038201805460409092019161135d9061334e565b80601f01602080910402602001604051908101604052809291908181526020018280546113899061334e565b80156113d65780601f106113ab576101008083540402835291602001916113d6565b820191906000526020600020905b8154815290600101906020018083116113b957829003601f168201915b505050505081526020016004820180546113ef9061334e565b80601f016020809104026020016040519081016040528092919081815260200182805461141b9061334e565b80156114685780601f1061143d57610100808354040283529160200191611468565b820191906000526020600020905b81548152906001019060200180831161144b57829003601f168201915b505050505081526020016005820180546114819061334e565b80601f01602080910402602001604051908101604052809291908181526020018280546114ad9061334e565b80156114fa5780601f106114cf576101008083540402835291602001916114fa565b820191906000526020600020905b8154815290600101906020018083116114dd57829003601f168201915b50505091835250506006820154602082015260078201546040820152600882015460ff161515606082015260099091015460809091015292915050565b6000336001600160a01b03166008888154811061155657611556613383565b600091825260209091206002600a9092020101546001600160a01b0316146115b75760405162461bcd60e51b8152602060048201526014602482015273155b985d5d1a1bdc9a5e994814195c9cdbdb995b60621b60448201526064016109dc565b60008651116115ff5760405162461bcd60e51b81526020600482015260146024820152736e616d652063616e6e6f7420626520656d70747960601b60448201526064016109dc565b60008551116116205760405162461bcd60e51b81526004016109dc906133f9565b600083116116675760405162461bcd60e51b815260206004820152601460248201527370726963652063616e6e6f74206265207a65726f60601b60448201526064016109dc565b600082116116ae5760405162461bcd60e51b815260206004820152601460248201527373746f636b2063616e6e6f74206265207a65726f60601b60448201526064016109dc565b6116b6612b9a565b336040820152606081018790526080810185905260a0810186905260c081018490526101208101839052600880548291908a9081106116f7576116f7613383565b90600052602060002090600a020160008201518160000155602082015181600101908051906020019061172b929190612bf8565b5060408201516002820180546001600160a01b0319166001600160a01b039092169190911790556060820151805161176d916003840191602090910190612bf8565b5060808201518051611789916004840191602090910190612bf8565b5060a082015180516117a5916005840191602090910190612bf8565b5060c0820151600682015560e0820151600782015561010082015160088201805460ff191691151591909117905561012090910151600990910155506001979650505050505050565b60606008805480602002602001604051908101604052809291908181526020016000905b8282101561065c57838290600052602060002090600a020160405180610140016040529081600082015481526020016001820180546118509061334e565b80601f016020809104026020016040519081016040528092919081815260200182805461187c9061334e565b80156118c95780601f1061189e576101008083540402835291602001916118c9565b820191906000526020600020905b8154815290600101906020018083116118ac57829003601f168201915b505050918352505060028201546001600160a01b031660208201526003820180546040909201916118f99061334e565b80601f01602080910402602001604051908101604052809291908181526020018280546119259061334e565b80156119725780601f1061194757610100808354040283529160200191611972565b820191906000526020600020905b81548152906001019060200180831161195557829003601f168201915b5050505050815260200160048201805461198b9061334e565b80601f01602080910402602001604051908101604052809291908181526020018280546119b79061334e565b8015611a045780601f106119d957610100808354040283529160200191611a04565b820191906000526020600020905b8154815290600101906020018083116119e757829003601f168201915b50505050508152602001600582018054611a1d9061334e565b80601f0160208091040260200160405190810160405280929190818152602001828054611a499061334e565b8015611a965780601f10611a6b57610100808354040283529160200191611a96565b820191906000526020600020905b815481529060010190602001808311611a7957829003601f168201915b5050509183525050600682015460208083019190915260078301546040830152600883015460ff16151560608301526009909201546080909101529082526001929092019101611812565b6000600754341015611b295760405162461bcd60e51b8152602060048201526011602482015270125b9cdd59999a58da595b9d08199d5b99607a1b60448201526064016109dc565b6000875111611b705760405162461bcd60e51b8152602060048201526013602482015272736b752063616e6e6f7420626520656d70747960681b60448201526064016109dc565b6000865111611bb85760405162461bcd60e51b81526020600482015260146024820152736e616d652063616e6e6f7420626520656d70747960601b60448201526064016109dc565b6000855111611bd95760405162461bcd60e51b81526004016109dc906133f9565b6000845111611bfa5760405162461bcd60e51b81526004016109dc906133f9565b60008311611c415760405162461bcd60e51b815260206004820152601460248201527370726963652063616e6e6f74206265207a65726f60601b60448201526064016109dc565b60008211611c885760405162461bcd60e51b815260206004820152601460248201527373746f636b2063616e6e6f74206265207a65726f60601b60448201526064016109dc565b600180546000908152600e60209081526040808320805460ff1916909417909355338252600c9052908120805491611cbf836133de565b9190505550611ccc612b9a565b60018054906000611cdc836133de565b9091555081526020808201898152336040840152606083018990526080830187905260a0830188905260c0830186905261012083018590524260e08401526008805460018101825560009190915283517ff3f7a9fe364faab93b216da50a3214154f22a0a2b415b23a84c8169e8b636ee3600a90920291820190815591518051859461172b937ff3f7a9fe364faab93b216da50a3214154f22a0a2b415b23a84c8169e8b636ee401920190612bf8565b611d94612c7c565b60005b336000908152600a602052604090205481101561210457336000908152600a60205260409020805484919083908110611dd257611dd2613383565b90600052602060002090600b02016000015414156120f257336000908152600a60205260409020805482908110611e0b57611e0b613383565b90600052602060002090600b02016040518061016001604052908160008201548152602001600182018054611e3f9061334e565b80601f0160208091040260200160405190810160405280929190818152602001828054611e6b9061334e565b8015611eb85780601f10611e8d57610100808354040283529160200191611eb8565b820191906000526020600020905b815481529060010190602001808311611e9b57829003601f168201915b50505050508152602001600282018054611ed19061334e565b80601f0160208091040260200160405190810160405280929190818152602001828054611efd9061334e565b8015611f4a5780601f10611f1f57610100808354040283529160200191611f4a565b820191906000526020600020905b815481529060010190602001808311611f2d57829003601f168201915b505050918352505060038201546001600160a01b03908116602083015260048301541660408201526005820154606082015260068201546080820152600782015460a082015260088201805460c090920191611fa59061334e565b80601f0160208091040260200160405190810160405280929190818152602001828054611fd19061334e565b801561201e5780601f10611ff35761010080835404028352916020019161201e565b820191906000526020600020905b81548152906001019060200180831161200157829003601f168201915b505050505081526020016009820180546120379061334e565b80601f01602080910402602001604051908101604052809291908181526020018280546120639061334e565b80156120b05780601f10612085576101008083540402835291602001916120b0565b820191906000526020600020905b81548152906001019060200180831161209357829003601f168201915b5050509183525050600a82015460209091019060ff1660038111156120d7576120d7612d5a565b60038111156120e8576120e8612d5a565b9052509392505050565b806120fc816133de565b915050611d97565b50919050565b612112612c7c565b60005b336000908152600b602052604090205481101561210457336000908152600b6020526040902080548491908390811061215057612150613383565b90600052602060002090600b020160000154141561218957336000908152600b60205260409020805482908110611e0b57611e0b613383565b80612193816133de565b915050612115565b60006121a78585612b1c565b3410156121ec5760405162461bcd60e51b8152602060048201526013602482015272125b9cdd59999a58da595b9d08185b5bdd5b9d606a1b60448201526064016109dc565b600083511161223d5760405162461bcd60e51b815260206004820152601b60248201527f64657374696e6174696f6e2063616e6e6f7420626520656d707479000000000060448201526064016109dc565b60008251116122865760405162461bcd60e51b815260206004820152601560248201527470686f6e652063616e6e6f7420626520656d70747960581b60448201526064016109dc565b6122908585612b1c565b600680546000906122a29084906133af565b90915550600090505b85518110156129ec57600e60008783815181106122ca576122ca613383565b60209081029190910181015182528101919091526040016000205460ff16801561234a575084818151811061230157612301613383565b6020026020010151600887838151811061231d5761231d613383565b60200260200101518154811061233557612335613383565b90600052602060002090600a02016009015410155b156129da5784818151811061236157612361613383565b6020026020010151600887838151811061237d5761237d613383565b60200260200101518154811061239557612395613383565b90600052602060002090600a020160090160008282546123b591906133c7565b925050819055506001600f600060088985815181106123d6576123d6613383565b6020026020010151815481106123ee576123ee613383565b60009182526020808320600a92909202909101600201546001600160a01b03168352828101939093526040918201812033808352600c80865284842060010180548552928652938320805460ff191696151596909617909555938152915281549190612459836133de565b9190505550612466612c7c565b60028054906000612476836133de565b909155508152865160089088908490811061249357612493613383565b6020026020010151815481106124ab576124ab613383565b90600052602060002090600a020160010180546124c79061334e565b80601f01602080910402602001604051908101604052809291908181526020018280546124f39061334e565b80156125405780601f1061251557610100808354040283529160200191612540565b820191906000526020600020905b81548152906001019060200180831161252357829003601f168201915b50505050506020820152336060820152865160089088908490811061256757612567613383565b60200260200101518154811061257f5761257f613383565b600091825260209091206002600a9092020101546001600160a01b0316608082015286516008908890849081106125b8576125b8613383565b6020026020010151815481106125d0576125d0613383565b90600052602060002090600a020160040180546125ec9061334e565b80601f01602080910402602001604051908101604052809291908181526020018280546126189061334e565b80156126655780601f1061263a57610100808354040283529160200191612665565b820191906000526020600020905b81548152906001019060200180831161264857829003601f168201915b5050505050816040018190525085828151811061268457612684613383565b60200260200101518160a001818152505060088783815181106126a9576126a9613383565b6020026020010151815481106126c1576126c1613383565b90600052602060002090600a0201600601548683815181106126e5576126e5613383565b60200260200101516126f79190613430565b60c08201524260e08201526101008101859052610120810184905260608101516001600160a01b03166000908152600a602090815260408220805460018181018355918452928290208451600b90940201928355818401518051859493612762938501920190612bf8565b506040820151805161277e916002840191602090910190612bf8565b5060608201516003820180546001600160a01b039283166001600160a01b031991821617909155608084015160048401805491909316911617905560a0820151600582015560c0820151600682015560e0820151600782015561010082015180516127f3916008840191602090910190612bf8565b506101208201518051612810916009840191602090910190612bf8565b50610140820151600a8201805460ff1916600183600381111561283557612835612d5a565b0217905550505060808101516001600160a01b03166000908152600b6020818152604083208054600181810183559185529382902085519490930290920192835580840151805185949361288e93908501920190612bf8565b50604082015180516128aa916002840191602090910190612bf8565b5060608201516003820180546001600160a01b039283166001600160a01b031991821617909155608084015160048401805491909316911617905560a0820151600582015560c0820151600682015560e08201516007820155610100820151805161291f916008840191602090910190612bf8565b50610120820151805161293c916009840191602090910190612bf8565b50610140820151600a8201805460ff1916600183600381111561296157612961612d5a565b0217905550505080608001516001600160a01b031681606001516001600160a01b03167ff3debaf22196a6ddf52a60fa71058cd7edf5e25bb98f4e96c994a5d4a9b0dd3e83600001518460c00151426040516129d0939291909283526020830191909152604082015260600190565b60405180910390a3505b806129e4816133de565b9150506122ab565b50600195945050505050565b6000336001600160a01b031660088381548110612a1757612a17613383565b600091825260209091206002600a9092020101546001600160a01b031614612a785760405162461bcd60e51b8152602060048201526014602482015273155b985d5d1a1bdc9a5e994814195c9cdbdb995b60621b60448201526064016109dc565b600160088381548110612a8d57612a8d613383565b60009182526020909120600a90910201600801805460ff1916911515919091179055506001919050565b6000826001600160a01b03168260405160006040518083038185875af1925050503d8060008114612b04576040519150601f19603f3d011682016040523d82523d6000602084013e612b09565b606091505b5050905080612b1757600080fd5b505050565b60008060005b8451811015612b9257838181518110612b3d57612b3d613383565b602002602001015160088281548110612b5857612b58613383565b90600052602060002090600a020160060154612b749190613430565b612b7e90836133af565b915080612b8a816133de565b915050612b22565b509392505050565b604051806101400160405280600081526020016060815260200160006001600160a01b031681526020016060815260200160608152602001606081526020016000815260200160008152602001600015158152602001600081525090565b828054612c049061334e565b90600052602060002090601f016020900481019282612c265760008555612c6c565b82601f10612c3f57805160ff1916838001178555612c6c565b82800160010185558215612c6c579182015b82811115612c6c578251825591602001919060010190612c51565b50612c78929150612cf8565b5090565b60405180610160016040528060008152602001606081526020016060815260200160006001600160a01b0316815260200160006001600160a01b03168152602001600081526020016000815260200160008152602001606081526020016060815260200160006003811115612cf357612cf3612d5a565b905290565b5b80821115612c785760008155600101612cf9565b6000815180845260005b81811015612d3357602081850181015186830182015201612d17565b81811115612d45576000602083870101525b50601f01601f19169290920160200192915050565b634e487b7160e01b600052602160045260246000fd5b60048110612d8e57634e487b7160e01b600052602160045260246000fd5b9052565b6000610160825184526020830151816020860152612db282860182612d0d565b91505060408301518482036040860152612dcc8282612d0d565b9150506060830151612de960608601826001600160a01b03169052565b506080830151612e0460808601826001600160a01b03169052565b5060a083015160a085015260c083015160c085015260e083015160e08501526101008084015185830382870152612e3b8382612d0d565b925050506101208084015185830382870152612e578382612d0d565b9250505061014080840151612e6e82870182612d70565b5090949350505050565b6000602080830181845280855180835260408601915060408160051b870101925083870160005b82811015612ecd57603f19888603018452612ebb858351612d92565b94509285019290850190600101612e9f565b5092979650505050505050565b600060208284031215612eec57600080fd5b5035919050565b60008060408385031215612f0657600080fd5b82359150602083013560048110612f1c57600080fd5b809150509250929050565b6000610140825184526020830151816020860152612f4782860182612d0d565b9150506040830151612f6460408601826001600160a01b03169052565b5060608301518482036060860152612f7c8282612d0d565b91505060808301518482036080860152612f968282612d0d565b91505060a083015184820360a0860152612fb08282612d0d565b91505060c083015160c085015260e083015160e085015261010080840151612fdb8287018215159052565b5050610120928301519390920192909252919050565b6020815260006130046020830184612f27565b9392505050565b634e487b7160e01b600052604160045260246000fd5b604051601f8201601f1916810167ffffffffffffffff8111828210171561304a5761304a61300b565b604052919050565b600082601f83011261306357600080fd5b813567ffffffffffffffff81111561307d5761307d61300b565b613090601f8201601f1916602001613021565b8181528460208386010111156130a557600080fd5b816020850160208301376000918101602001919091529392505050565b60008060008060008060c087890312156130db57600080fd5b86359550602087013567ffffffffffffffff808211156130fa57600080fd5b6131068a838b01613052565b9650604089013591508082111561311c57600080fd5b6131288a838b01613052565b9550606089013591508082111561313e57600080fd5b5061314b89828a01613052565b9350506080870135915060a087013590509295509295509295565b6000602080830181845280855180835260408601915060408160051b870101925083870160005b82811015612ecd57603f198886030184526131a9858351612f27565b9450928501929085019060010161318d565b60008060008060008060c087890312156131d457600080fd5b863567ffffffffffffffff808211156131ec57600080fd5b6131f88a838b01613052565b975060208901359150808211156130fa57600080fd5b6020815260006130046020830184612d92565b600082601f83011261323257600080fd5b8135602067ffffffffffffffff82111561324e5761324e61300b565b8160051b61325d828201613021565b928352848101820192828101908785111561327757600080fd5b83870192505b848310156132965782358252918301919083019061327d565b979650505050505050565b600080600080608085870312156132b757600080fd5b843567ffffffffffffffff808211156132cf57600080fd5b6132db88838901613221565b955060208701359150808211156132f157600080fd5b6132fd88838901613221565b9450604087013591508082111561331357600080fd5b61331f88838901613052565b9350606087013591508082111561333557600080fd5b5061334287828801613052565b91505092959194509250565b600181811c9082168061336257607f821691505b6020821081141561210457634e487b7160e01b600052602260045260246000fd5b634e487b7160e01b600052603260045260246000fd5b634e487b7160e01b600052601160045260246000fd5b600082198211156133c2576133c2613399565b500190565b6000828210156133d9576133d9613399565b500390565b60006000198214156133f2576133f2613399565b5060010190565b6020808252601b908201527f6465736372697074696f6e2063616e6e6f7420626520656d7074790000000000604082015260600190565b600081600019048311821515161561344a5761344a613399565b50029056fea264697066735822122042c4925e834d85b0326da01013b5a8f6ab6045d4a3dd90ccea5cf7810155f1a464736f6c634300080b0033",
  "linkReferences": {},
  "deployedLinkReferences": {}
}