{
  "_format": "hh-sol-artifact-1",
  "contractName": "Shop",
  "sourceName": "src/contracts/Shop.sol",
  "abi": [
    {
      "inputs": [
        {
          "internalType": "uint256",
          "name": "_fee",
          "type": "uint256"
        }
      ],
      "stateMutability": "nonpayable",
      "type": "constructor"
    },
    {
      "anonymous": false,
      "inputs": [
        {
          "indexed": false,
          "internalType": "uint256",
          "name": "id",
          "type": "uint256"
        },
        {
          "indexed": true,
          "internalType": "address",
          "name": "buyer",
          "type": "address"
        },
        {
          "indexed": true,
          "internalType": "address",
          "name": "seller",
          "type": "address"
        },
        {
          "indexed": false,
          "internalType": "uint256",
          "name": "price",
          "type": "uint256"
        },
        {
          "indexed": false,
          "internalType": "uint256",
          "name": "timestamp",
          "type": "uint256"
        }
      ],
      "name": "Sale",
      "type": "event"
    },
    {
      "inputs": [
        {
          "internalType": "uint256",
          "name": "pid",
          "type": "uint256"
        },
        {
          "internalType": "uint256",
          "name": "id",
          "type": "uint256"
        }
      ],
      "name": "cancelOrder",
      "outputs": [
        {
          "internalType": "bool",
          "name": "",
          "type": "bool"
        }
      ],
      "stateMutability": "nonpayable",
      "type": "function"
    },
    {
      "inputs": [
        {
          "internalType": "uint256[]",
          "name": "ids",
          "type": "uint256[]"
        },
        {
          "internalType": "uint256[]",
          "name": "qtys",
          "type": "uint256[]"
        },
        {
          "internalType": "string",
          "name": "destination",
          "type": "string"
        },
        {
          "internalType": "string",
          "name": "phone",
          "type": "string"
        }
      ],
      "name": "createOrder",
      "outputs": [
        {
          "internalType": "bool",
          "name": "",
          "type": "bool"
        }
      ],
      "stateMutability": "payable",
      "type": "function"
    },
    {
      "inputs": [
        {
          "internalType": "string",
          "name": "sku",
          "type": "string"
        },
        {
          "internalType": "string",
          "name": "name",
          "type": "string"
        },
        {
          "internalType": "string",
          "name": "description",
          "type": "string"
        },
        {
          "internalType": "string",
          "name": "imageURL",
          "type": "string"
        },
        {
          "internalType": "uint256",
          "name": "price",
          "type": "uint256"
        },
        {
          "internalType": "uint256",
          "name": "stock",
          "type": "uint256"
        }
      ],
      "name": "createProduct",
      "outputs": [
        {
          "internalType": "bool",
          "name": "",
          "type": "bool"
        }
      ],
      "stateMutability": "payable",
      "type": "function"
    },
    {
      "inputs": [
        {
          "internalType": "uint256",
          "name": "id",
          "type": "uint256"
        }
      ],
      "name": "deleteProduct",
      "outputs": [
        {
          "internalType": "bool",
          "name": "",
          "type": "bool"
        }
      ],
      "stateMutability": "nonpayable",
      "type": "function"
    },
    {
      "inputs": [
        {
          "internalType": "uint256",
          "name": "pid",
          "type": "uint256"
        },
        {
          "internalType": "uint256",
          "name": "id",
          "type": "uint256"
        }
      ],
      "name": "deliverOrder",
      "outputs": [
        {
          "internalType": "bool",
          "name": "",
          "type": "bool"
        }
      ],
      "stateMutability": "nonpayable",
      "type": "function"
    },
    {
      "inputs": [],
      "name": "fee",
      "outputs": [
        {
          "internalType": "uint256",
          "name": "",
          "type": "uint256"
        }
      ],
      "stateMutability": "view",
      "type": "function"
    },
    {
      "inputs": [
        {
          "internalType": "uint256",
          "name": "pid",
          "type": "uint256"
        }
      ],
      "name": "getBuyers",
      "outputs": [
        {
          "components": [
            {
              "internalType": "address",
              "name": "buyer",
              "type": "address"
            },
            {
              "internalType": "uint256",
              "name": "price",
              "type": "uint256"
            },
            {
              "internalType": "uint256",
              "name": "qty",
              "type": "uint256"
            },
            {
              "internalType": "uint256",
              "name": "timestamp",
              "type": "uint256"
            }
          ],
          "internalType": "struct Shop.BuyerStruct[]",
          "name": "buyers",
          "type": "tuple[]"
        }
      ],
      "stateMutability": "view",
      "type": "function"
    },
    {
      "inputs": [
        {
          "internalType": "uint256",
          "name": "pid",
          "type": "uint256"
        },
        {
          "internalType": "uint256",
          "name": "id",
          "type": "uint256"
        }
      ],
      "name": "getOrder",
      "outputs": [
        {
          "components": [
            {
              "internalType": "uint256",
              "name": "pid",
              "type": "uint256"
            },
            {
              "internalType": "uint256",
              "name": "id",
              "type": "uint256"
            },
            {
              "internalType": "string",
              "name": "sku",
              "type": "string"
            },
            {
              "internalType": "string",
              "name": "name",
              "type": "string"
            },
            {
              "internalType": "string",
              "name": "imageURL",
              "type": "string"
            },
            {
              "internalType": "address",
              "name": "buyer",
              "type": "address"
            },
            {
              "internalType": "address",
              "name": "seller",
              "type": "address"
            },
            {
              "internalType": "uint256",
              "name": "qty",
              "type": "uint256"
            },
            {
              "internalType": "uint256",
              "name": "total",
              "type": "uint256"
            },
            {
              "internalType": "uint256",
              "name": "timestamp",
              "type": "uint256"
            },
            {
              "internalType": "string",
              "name": "destination",
              "type": "string"
            },
            {
              "internalType": "string",
              "name": "phone",
              "type": "string"
            },
            {
              "internalType": "enum Shop.OrderEnum",
              "name": "status",
              "type": "uint8"
            }
          ],
          "internalType": "struct Shop.OrderStruct",
          "name": "",
          "type": "tuple"
        }
      ],
      "stateMutability": "view",
      "type": "function"
    },
    {
      "inputs": [],
      "name": "getOrders",
      "outputs": [
        {
          "components": [
            {
              "internalType": "uint256",
              "name": "pid",
              "type": "uint256"
            },
            {
              "internalType": "uint256",
              "name": "id",
              "type": "uint256"
            },
            {
              "internalType": "string",
              "name": "sku",
              "type": "string"
            },
            {
              "internalType": "string",
              "name": "name",
              "type": "string"
            },
            {
              "internalType": "string",
              "name": "imageURL",
              "type": "string"
            },
            {
              "internalType": "address",
              "name": "buyer",
              "type": "address"
            },
            {
              "internalType": "address",
              "name": "seller",
              "type": "address"
            },
            {
              "internalType": "uint256",
              "name": "qty",
              "type": "uint256"
            },
            {
              "internalType": "uint256",
              "name": "total",
              "type": "uint256"
            },
            {
              "internalType": "uint256",
              "name": "timestamp",
              "type": "uint256"
            },
            {
              "internalType": "string",
              "name": "destination",
              "type": "string"
            },
            {
              "internalType": "string",
              "name": "phone",
              "type": "string"
            },
            {
              "internalType": "enum Shop.OrderEnum",
              "name": "status",
              "type": "uint8"
            }
          ],
          "internalType": "struct Shop.OrderStruct[]",
          "name": "props",
          "type": "tuple[]"
        }
      ],
      "stateMutability": "view",
      "type": "function"
    },
    {
      "inputs": [
        {
          "internalType": "uint256",
          "name": "id",
          "type": "uint256"
        }
      ],
      "name": "getProduct",
      "outputs": [
        {
          "components": [
            {
              "internalType": "uint256",
              "name": "id",
              "type": "uint256"
            },
            {
              "internalType": "string",
              "name": "sku",
              "type": "string"
            },
            {
              "internalType": "address",
              "name": "seller",
              "type": "address"
            },
            {
              "internalType": "string",
              "name": "name",
              "type": "string"
            },
            {
              "internalType": "string",
              "name": "imageURL",
              "type": "string"
            },
            {
              "internalType": "string",
              "name": "description",
              "type": "string"
            },
            {
              "internalType": "uint256",
              "name": "price",
              "type": "uint256"
            },
            {
              "internalType": "uint256",
              "name": "timestamp",
              "type": "uint256"
            },
            {
              "internalType": "bool",
              "name": "deleted",
              "type": "bool"
            },
            {
              "internalType": "uint256",
              "name": "stock",
              "type": "uint256"
            }
          ],
          "internalType": "struct Shop.ProductStruct",
          "name": "",
          "type": "tuple"
        }
      ],
      "stateMutability": "view",
      "type": "function"
    },
    {
      "inputs": [],
      "name": "getProducts",
      "outputs": [
        {
          "components": [
            {
              "internalType": "uint256",
              "name": "id",
              "type": "uint256"
            },
            {
              "internalType": "string",
              "name": "sku",
              "type": "string"
            },
            {
              "internalType": "address",
              "name": "seller",
              "type": "address"
            },
            {
              "internalType": "string",
              "name": "name",
              "type": "string"
            },
            {
              "internalType": "string",
              "name": "imageURL",
              "type": "string"
            },
            {
              "internalType": "string",
              "name": "description",
              "type": "string"
            },
            {
              "internalType": "uint256",
              "name": "price",
              "type": "uint256"
            },
            {
              "internalType": "uint256",
              "name": "timestamp",
              "type": "uint256"
            },
            {
              "internalType": "bool",
              "name": "deleted",
              "type": "bool"
            },
            {
              "internalType": "uint256",
              "name": "stock",
              "type": "uint256"
            }
          ],
          "internalType": "struct Shop.ProductStruct[]",
          "name": "",
          "type": "tuple[]"
        }
      ],
      "stateMutability": "view",
      "type": "function"
    },
    {
      "inputs": [
        {
          "internalType": "uint256",
          "name": "",
          "type": "uint256"
        },
        {
          "internalType": "uint256",
          "name": "",
          "type": "uint256"
        }
      ],
      "name": "orderExist",
      "outputs": [
        {
          "internalType": "bool",
          "name": "",
          "type": "bool"
        }
      ],
      "stateMutability": "view",
      "type": "function"
    },
    {
      "inputs": [],
      "name": "owner",
      "outputs": [
        {
          "internalType": "address",
          "name": "",
          "type": "address"
        }
      ],
      "stateMutability": "view",
      "type": "function"
    },
    {
      "inputs": [
        {
          "internalType": "uint256",
          "name": "",
          "type": "uint256"
        }
      ],
      "name": "productExist",
      "outputs": [
        {
          "internalType": "bool",
          "name": "",
          "type": "bool"
        }
      ],
      "stateMutability": "view",
      "type": "function"
    },
    {
      "inputs": [],
      "name": "stats",
      "outputs": [
        {
          "internalType": "uint256",
          "name": "products",
          "type": "uint256"
        },
        {
          "internalType": "uint256",
          "name": "orders",
          "type": "uint256"
        },
        {
          "internalType": "uint256",
          "name": "sellers",
          "type": "uint256"
        },
        {
          "internalType": "uint256",
          "name": "sales",
          "type": "uint256"
        },
        {
          "internalType": "uint256",
          "name": "paid",
          "type": "uint256"
        },
        {
          "internalType": "uint256",
          "name": "balance",
          "type": "uint256"
        }
      ],
      "stateMutability": "view",
      "type": "function"
    },
    {
      "inputs": [
        {
          "internalType": "address",
          "name": "",
          "type": "address"
        }
      ],
      "name": "statsOf",
      "outputs": [
        {
          "internalType": "uint256",
          "name": "products",
          "type": "uint256"
        },
        {
          "internalType": "uint256",
          "name": "orders",
          "type": "uint256"
        },
        {
          "internalType": "uint256",
          "name": "sellers",
          "type": "uint256"
        },
        {
          "internalType": "uint256",
          "name": "sales",
          "type": "uint256"
        },
        {
          "internalType": "uint256",
          "name": "paid",
          "type": "uint256"
        },
        {
          "internalType": "uint256",
          "name": "balance",
          "type": "uint256"
        }
      ],
      "stateMutability": "view",
      "type": "function"
    },
    {
      "inputs": [
        {
          "internalType": "uint256",
          "name": "pid",
          "type": "uint256"
        }
      ],
      "name": "totalOrdersOf",
      "outputs": [
        {
          "internalType": "uint256",
          "name": "",
          "type": "uint256"
        }
      ],
      "stateMutability": "view",
      "type": "function"
    },
    {
      "inputs": [
        {
          "internalType": "uint256",
          "name": "id",
          "type": "uint256"
        },
        {
          "internalType": "string",
          "name": "name",
          "type": "string"
        },
        {
          "internalType": "string",
          "name": "description",
          "type": "string"
        },
        {
          "internalType": "string",
          "name": "imageURL",
          "type": "string"
        },
        {
          "internalType": "uint256",
          "name": "price",
          "type": "uint256"
        },
        {
          "internalType": "uint256",
          "name": "stock",
          "type": "uint256"
        }
      ],
      "name": "updateProduct",
      "outputs": [
        {
          "internalType": "bool",
          "name": "",
          "type": "bool"
        }
      ],
      "stateMutability": "nonpayable",
      "type": "function"
    }
  ],
  "bytecode": "0x60806040523480156200001157600080fd5b5060405162003f4a38038062003f4a83398101604081905262000034916200004f565b600080546001600160a01b0319163317905560075562000069565b6000602082840312156200006257600080fd5b5051919050565b613ed180620000796000396000f3fe6080604052600436106101095760003560e01c8063bab8d87211610095578063ddca3f4311610064578063ddca3f4314610397578063e0e83bb3146103ad578063e6e110ce146103c0578063e77a67ea146103e0578063ed90c7b71461041057600080fd5b8063bab8d87214610317578063c29b2f2014610337578063c39e0b2b14610359578063d80528ae1461036c57600080fd5b80635e1a3573116100dc5780635e1a3573146102385780637feafd20146102655780638da5cb5b14610292578063b6ed0632146102ca578063b9db15b4146102ea57600080fd5b80630ada6ca91461010e57806315cfc4051461014e5780631f2337a1146101cb5780632e2dc43e14610216575b600080fd5b34801561011a57600080fd5b5061013b610129366004613695565b6000908152600b602052604090205490565b6040519081526020015b60405180910390f35b34801561015a57600080fd5b5061019e6101693660046136ae565b600c60205260009081526040902080546001820154600283015460038401546004850154600590950154939492939192909186565b604080519687526020870195909552938501929092526060840152608083015260a082015260c001610145565b3480156101d757600080fd5b506102066101e63660046136de565b600f60209081526000928352604080842090915290825290205460ff1681565b6040519015158152602001610145565b34801561022257600080fd5b5061022b610430565b6040516101459190613891565b34801561024457600080fd5b506102586102533660046136de565b610894565b60405161014591906138f3565b34801561027157600080fd5b50610285610280366004613695565b610c81565b6040516101459190613906565b34801561029e57600080fd5b506000546102b2906001600160a01b031681565b6040516001600160a01b039091168152602001610145565b3480156102d657600080fd5b506102066102e53660046136de565b610d6c565b3480156102f657600080fd5b5061030a610305366004613695565b6114e7565b6040516101459190613a3d565b34801561032357600080fd5b50610206610332366004613b07565b61180b565b34801561034357600080fd5b5061034c611af2565b6040516101459190613bab565b610206610367366004613c00565b611dee565b34801561037857600080fd5b5060015460025460035460045460055460065461019e95949392919086565b3480156103a357600080fd5b5061013b60075481565b6102066103bb366004613cd3565b61210e565b3480156103cc57600080fd5b506102066103db3660046136de565b612b0c565b3480156103ec57600080fd5b506102066103fb366004613695565b600e6020526000908152604090205460ff1681565b34801561041c57600080fd5b5061020661042b366004613695565b613376565b60025460609067ffffffffffffffff81111561044e5761044e613a50565b60405190808252806020026020018201604052801561048757816020015b610474613518565b81526020019060019003908161046c5790505b50905060005b6002548110156108905760005b6000828152600b602052604090205481101561087d576000828152600b602052604090208054829081106104d0576104d0613d80565b90600052602060002090600d0201604051806101a0016040529081600082015481526020016001820154815260200160028201805461050e90613d96565b80601f016020809104026020016040519081016040528092919081815260200182805461053a90613d96565b80156105875780601f1061055c57610100808354040283529160200191610587565b820191906000526020600020905b81548152906001019060200180831161056a57829003601f168201915b505050505081526020016003820180546105a090613d96565b80601f01602080910402602001604051908101604052809291908181526020018280546105cc90613d96565b80156106195780601f106105ee57610100808354040283529160200191610619565b820191906000526020600020905b8154815290600101906020018083116105fc57829003601f168201915b5050505050815260200160048201805461063290613d96565b80601f016020809104026020016040519081016040528092919081815260200182805461065e90613d96565b80156106ab5780601f10610680576101008083540402835291602001916106ab565b820191906000526020600020905b81548152906001019060200180831161068e57829003601f168201915b505050918352505060058201546001600160a01b03908116602083015260068301541660408201526007820154606082015260088201546080820152600982015460a0820152600a8201805460c09092019161070690613d96565b80601f016020809104026020016040519081016040528092919081815260200182805461073290613d96565b801561077f5780601f106107545761010080835404028352916020019161077f565b820191906000526020600020905b81548152906001019060200180831161076257829003601f168201915b50505050508152602001600b8201805461079890613d96565b80601f01602080910402602001604051908101604052809291908181526020018280546107c490613d96565b80156108115780601f106107e657610100808354040283529160200191610811565b820191906000526020600020905b8154815290600101906020018083116107f457829003601f168201915b5050509183525050600c82015460209091019060ff1660038111156108385761083861374d565b60038111156108495761084961374d565b8152505083838151811061085f5761085f613d80565b6020026020010181905250808061087590613de7565b91505061049a565b508061088881613de7565b91505061048d565b5090565b61089c613518565b6000838152600f6020908152604080832085845290915290205460ff166108de5760405162461bcd60e51b81526004016108d590613e02565b60405180910390fd5b6000838152600b602052604090208054839081106108fe576108fe613d80565b90600052602060002090600d0201604051806101a0016040529081600082015481526020016001820154815260200160028201805461093c90613d96565b80601f016020809104026020016040519081016040528092919081815260200182805461096890613d96565b80156109b55780601f1061098a576101008083540402835291602001916109b5565b820191906000526020600020905b81548152906001019060200180831161099857829003601f168201915b505050505081526020016003820180546109ce90613d96565b80601f01602080910402602001604051908101604052809291908181526020018280546109fa90613d96565b8015610a475780601f10610a1c57610100808354040283529160200191610a47565b820191906000526020600020905b815481529060010190602001808311610a2a57829003601f168201915b50505050508152602001600482018054610a6090613d96565b80601f0160208091040260200160405190810160405280929190818152602001828054610a8c90613d96565b8015610ad95780601f10610aae57610100808354040283529160200191610ad9565b820191906000526020600020905b815481529060010190602001808311610abc57829003601f168201915b505050918352505060058201546001600160a01b03908116602083015260068301541660408201526007820154606082015260088201546080820152600982015460a0820152600a8201805460c090920191610b3490613d96565b80601f0160208091040260200160405190810160405280929190818152602001828054610b6090613d96565b8015610bad5780601f10610b8257610100808354040283529160200191610bad565b820191906000526020600020905b815481529060010190602001808311610b9057829003601f168201915b50505050508152602001600b82018054610bc690613d96565b80601f0160208091040260200160405190810160405280929190818152602001828054610bf290613d96565b8015610c3f5780601f10610c1457610100808354040283529160200191610c3f565b820191906000526020600020905b815481529060010190602001808311610c2257829003601f168201915b5050509183525050600c82015460209091019060ff166003811115610c6657610c6661374d565b6003811115610c7757610c7761374d565b9052509392505050565b6000818152600e602052604090205460609060ff16610cdb5760405162461bcd60e51b8152602060048201526016602482015275141c9bd91d58dd08191bd95cc81b9bdd08195e1a5cdd60521b60448201526064016108d5565b6000828152600d6020908152604080832080548251818502810185019093528083529193909284015b82821015610d61576000848152602090819020604080516080810182526004860290920180546001600160a01b03168352600180820154848601526002820154928401929092526003015460608301529083529092019101610d04565b505050509050919050565b6000828152600f6020908152604080832084845290915281205460ff16610da55760405162461bcd60e51b81526004016108d590613e02565b6000838152600b60205260408120805484908110610dc557610dc5613d80565b90600052602060002090600d0201604051806101a00160405290816000820154815260200160018201548152602001600282018054610e0390613d96565b80601f0160208091040260200160405190810160405280929190818152602001828054610e2f90613d96565b8015610e7c5780601f10610e5157610100808354040283529160200191610e7c565b820191906000526020600020905b815481529060010190602001808311610e5f57829003601f168201915b50505050508152602001600382018054610e9590613d96565b80601f0160208091040260200160405190810160405280929190818152602001828054610ec190613d96565b8015610f0e5780601f10610ee357610100808354040283529160200191610f0e565b820191906000526020600020905b815481529060010190602001808311610ef157829003601f168201915b50505050508152602001600482018054610f2790613d96565b80601f0160208091040260200160405190810160405280929190818152602001828054610f5390613d96565b8015610fa05780601f10610f7557610100808354040283529160200191610fa0565b820191906000526020600020905b815481529060010190602001808311610f8357829003601f168201915b505050918352505060058201546001600160a01b03908116602083015260068301541660408201526007820154606082015260088201546080820152600982015460a0820152600a8201805460c090920191610ffb90613d96565b80601f016020809104026020016040519081016040528092919081815260200182805461102790613d96565b80156110745780601f1061104957610100808354040283529160200191611074565b820191906000526020600020905b81548152906001019060200180831161105757829003601f168201915b50505050508152602001600b8201805461108d90613d96565b80601f01602080910402602001604051908101604052809291908181526020018280546110b990613d96565b80156111065780601f106110db57610100808354040283529160200191611106565b820191906000526020600020905b8154815290600101906020018083116110e957829003601f168201915b5050509183525050600c82015460209091019060ff16600381111561112d5761112d61374d565b600381111561113e5761113e61374d565b90525060a08101519091506001600160a01b031633146111965760405162461bcd60e51b8152602060048201526013602482015272556e617574686f72697a656420456e7469747960681b60448201526064016108d5565b600281610180015160038111156111af576111af61374d565b14156111f65760405162461bcd60e51b815260206004820152601660248201527513dc99195c88185b1c9958591e4818d85b98d95b195960521b60448201526064016108d5565b600261018082015260e0810151815160088054909190811061121a5761121a613d80565b90600052602060002090600a0201600901600082825461123a9190613e2b565b90915550506000848152600b6020526040902080548291908590811061126257611262613d80565b90600052602060002090600d0201600082015181600001556020820151816001015560408201518160020190805190602001906112a09291906135a2565b50606082015180516112bc9160038401916020909101906135a2565b50608082015180516112d89160048401916020909101906135a2565b5060a08201516005820180546001600160a01b039283166001600160a01b03199182161790915560c084015160068401805491909316911617905560e0820151600782015561010082015160088201556101208201516009820155610140820151805161134f91600a8401916020909101906135a2565b50610160820151805161136c91600b8401916020909101906135a2565b50610180820151600c8201805460ff191660018360038111156113915761139161374d565b02179055505050600083815260096020908152604091829020835181558184015160018201559183015180518493926113d19260028501929101906135a2565b50606082015180516113ed9160038401916020909101906135a2565b50608082015180516114099160048401916020909101906135a2565b5060a08201516005820180546001600160a01b039283166001600160a01b03199182161790915560c084015160068401805491909316911617905560e0820151600782015561010082015160088201556101208201516009820155610140820151805161148091600a8401916020909101906135a2565b50610160820151805161149d91600b8401916020909101906135a2565b50610180820151600c8201805460ff191660018360038111156114c2576114c261374d565b02179055509050506114dd8160a00151826101000151613435565b5060019392505050565b6114ef613622565b6000828152600e602052604090205460ff166115415760405162461bcd60e51b8152602060048201526011602482015270141c9bd91d58dd081b9bdd08199bdd5b99607a1b60448201526064016108d5565b6008828154811061155457611554613d80565b90600052602060002090600a0201604051806101400160405290816000820154815260200160018201805461158890613d96565b80601f01602080910402602001604051908101604052809291908181526020018280546115b490613d96565b80156116015780601f106115d657610100808354040283529160200191611601565b820191906000526020600020905b8154815290600101906020018083116115e457829003601f168201915b505050918352505060028201546001600160a01b0316602082015260038201805460409092019161163190613d96565b80601f016020809104026020016040519081016040528092919081815260200182805461165d90613d96565b80156116aa5780601f1061167f576101008083540402835291602001916116aa565b820191906000526020600020905b81548152906001019060200180831161168d57829003601f168201915b505050505081526020016004820180546116c390613d96565b80601f01602080910402602001604051908101604052809291908181526020018280546116ef90613d96565b801561173c5780601f106117115761010080835404028352916020019161173c565b820191906000526020600020905b81548152906001019060200180831161171f57829003601f168201915b5050505050815260200160058201805461175590613d96565b80601f016020809104026020016040519081016040528092919081815260200182805461178190613d96565b80156117ce5780601f106117a3576101008083540402835291602001916117ce565b820191906000526020600020905b8154815290600101906020018083116117b157829003601f168201915b50505091835250506006820154602082015260078201546040820152600882015460ff161515606082015260099091015460809091015292915050565b6000336001600160a01b03166008888154811061182a5761182a613d80565b600091825260209091206002600a9092020101546001600160a01b03161461188b5760405162461bcd60e51b8152602060048201526014602482015273155b985d5d1a1bdc9a5e994814195c9cdbdb995b60621b60448201526064016108d5565b60008651116118d35760405162461bcd60e51b81526020600482015260146024820152736e616d652063616e6e6f7420626520656d70747960601b60448201526064016108d5565b60008551116119245760405162461bcd60e51b815260206004820152601b60248201527f6465736372697074696f6e2063616e6e6f7420626520656d707479000000000060448201526064016108d5565b6000831161196b5760405162461bcd60e51b815260206004820152601460248201527370726963652063616e6e6f74206265207a65726f60601b60448201526064016108d5565b600082116119b25760405162461bcd60e51b815260206004820152601460248201527373746f636b2063616e6e6f74206265207a65726f60601b60448201526064016108d5565b6119ba613622565b336040820152606081018790526080810185905260a0810186905260c081018490526101208101839052600880548291908a9081106119fb576119fb613d80565b90600052602060002090600a0201600082015181600001556020820151816001019080519060200190611a2f9291906135a2565b5060408201516002820180546001600160a01b0319166001600160a01b0390921691909117905560608201518051611a719160038401916020909101906135a2565b5060808201518051611a8d9160048401916020909101906135a2565b5060a08201518051611aa99160058401916020909101906135a2565b5060c0820151600682015560e0820151600782015561010082015160088201805460ff191691151591909117905561012090910151600990910155506001979650505050505050565b60606008805480602002602001604051908101604052809291908181526020016000905b82821015611de557838290600052602060002090600a02016040518061014001604052908160008201548152602001600182018054611b5490613d96565b80601f0160208091040260200160405190810160405280929190818152602001828054611b8090613d96565b8015611bcd5780601f10611ba257610100808354040283529160200191611bcd565b820191906000526020600020905b815481529060010190602001808311611bb057829003601f168201915b505050918352505060028201546001600160a01b03166020820152600382018054604090920191611bfd90613d96565b80601f0160208091040260200160405190810160405280929190818152602001828054611c2990613d96565b8015611c765780601f10611c4b57610100808354040283529160200191611c76565b820191906000526020600020905b815481529060010190602001808311611c5957829003601f168201915b50505050508152602001600482018054611c8f90613d96565b80601f0160208091040260200160405190810160405280929190818152602001828054611cbb90613d96565b8015611d085780601f10611cdd57610100808354040283529160200191611d08565b820191906000526020600020905b815481529060010190602001808311611ceb57829003601f168201915b50505050508152602001600582018054611d2190613d96565b80601f0160208091040260200160405190810160405280929190818152602001828054611d4d90613d96565b8015611d9a5780601f10611d6f57610100808354040283529160200191611d9a565b820191906000526020600020905b815481529060010190602001808311611d7d57829003601f168201915b5050509183525050600682015460208083019190915260078301546040830152600883015460ff16151560608301526009909201546080909101529082526001929092019101611b16565b50505050905090565b6000600754341015611e365760405162461bcd60e51b8152602060048201526011602482015270125b9cdd59999a58da595b9d08199d5b99607a1b60448201526064016108d5565b6000875111611e7d5760405162461bcd60e51b8152602060048201526013602482015272736b752063616e6e6f7420626520656d70747960681b60448201526064016108d5565b6000865111611ec55760405162461bcd60e51b81526020600482015260146024820152736e616d652063616e6e6f7420626520656d70747960601b60448201526064016108d5565b6000855111611f165760405162461bcd60e51b815260206004820152601b60248201527f6465736372697074696f6e2063616e6e6f7420626520656d707479000000000060448201526064016108d5565b6000845111611f675760405162461bcd60e51b815260206004820152601960248201527f696d6167652055524c2063616e6e6f7420626520656d7074790000000000000060448201526064016108d5565b60008311611fae5760405162461bcd60e51b815260206004820152601460248201527370726963652063616e6e6f74206265207a65726f60601b60448201526064016108d5565b60008211611ff55760405162461bcd60e51b815260206004820152601460248201527373746f636b2063616e6e6f74206265207a65726f60601b60448201526064016108d5565b600180546000908152600e60209081526040808320805460ff1916909417909355338252600c905290812080549161202c83613de7565b90915550506003805490600061204183613de7565b919050555061204e613622565b6001805490600061205e83613de7565b9091555081526020808201898152336040840152606083018990526080830187905260a0830188905260c0830186905261012083018590524260e08401526008805460018101825560009190915283517ff3f7a9fe364faab93b216da50a3214154f22a0a2b415b23a84c8169e8b636ee3600a909202918201908155915180518594611a2f937ff3f7a9fe364faab93b216da50a3214154f22a0a2b415b23a84c8169e8b636ee4019201906135a2565b600061211a858561349a565b34101561215f5760405162461bcd60e51b8152602060048201526013602482015272125b9cdd59999a58da595b9d08185b5bdd5b9d606a1b60448201526064016108d5565b60008351116121b05760405162461bcd60e51b815260206004820152601b60248201527f64657374696e6174696f6e2063616e6e6f7420626520656d707479000000000060448201526064016108d5565b60008251116121f95760405162461bcd60e51b815260206004820152601560248201527470686f6e652063616e6e6f7420626520656d70747960581b60448201526064016108d5565b612203858561349a565b60068054600090612215908490613e2b565b90915550600090505b8551811015612b0057600e600087838151811061223d5761223d613d80565b60209081029190910181015182528101919091526040016000205460ff1680156122bd575084818151811061227457612274613d80565b6020026020010151600887838151811061229057612290613d80565b6020026020010151815481106122a8576122a8613d80565b90600052602060002090600a02016009015410155b15612aee578481815181106122d4576122d4613d80565b602002602001015160088783815181106122f0576122f0613d80565b60200260200101518154811061230857612308613d80565b90600052602060002090600a020160090160008282546123289190613e43565b9091555050336000908152600c6020526040812060010180549161234b83613de7565b90915550506002805490600061236083613de7565b919050555061236d613518565b600887838151811061238157612381613d80565b60200260200101518154811061239957612399613d80565b60009182526020808320600a909202909101548084528252600b90526040902054602082015286516008908890849081106123d6576123d6613d80565b6020026020010151815481106123ee576123ee613d80565b90600052602060002090600a0201600101805461240a90613d96565b80601f016020809104026020016040519081016040528092919081815260200182805461243690613d96565b80156124835780601f1061245857610100808354040283529160200191612483565b820191906000526020600020905b81548152906001019060200180831161246657829003601f168201915b505050505060408201523360a082015286516008908890849081106124aa576124aa613d80565b6020026020010151815481106124c2576124c2613d80565b600091825260209091206002600a9092020101546001600160a01b031660c082015286516008908890849081106124fb576124fb613d80565b60200260200101518154811061251357612513613d80565b90600052602060002090600a0201600301805461252f90613d96565b80601f016020809104026020016040519081016040528092919081815260200182805461255b90613d96565b80156125a85780601f1061257d576101008083540402835291602001916125a8565b820191906000526020600020905b81548152906001019060200180831161258b57829003601f168201915b5050505050816060018190525060088783815181106125c9576125c9613d80565b6020026020010151815481106125e1576125e1613d80565b90600052602060002090600a020160040180546125fd90613d96565b80601f016020809104026020016040519081016040528092919081815260200182805461262990613d96565b80156126765780601f1061264b57610100808354040283529160200191612676565b820191906000526020600020905b81548152906001019060200180831161265957829003601f168201915b5050505050816080018190525085828151811061269557612695613d80565b60200260200101518160e001818152505060088783815181106126ba576126ba613d80565b6020026020010151815481106126d2576126d2613d80565b90600052602060002090600a0201600601548683815181106126f6576126f6613d80565b60200260200101516127089190613e5a565b610100820152426101208201526101408101859052610160810184905280516000908152600b60209081526040808320805460018181018355918552938390208551600d90950201938455828501519084015583015180518493926127749260028501929101906135a2565b50606082015180516127909160038401916020909101906135a2565b50608082015180516127ac9160048401916020909101906135a2565b5060a08201516005820180546001600160a01b039283166001600160a01b03199182161790915560c084015160068401805491909316911617905560e0820151600782015561010082015160088201556101208201516009820155610140820151805161282391600a8401916020909101906135a2565b50610160820151805161284091600b8401916020909101906135a2565b50610180820151600c8201805460ff191660018360038111156128655761286561374d565b02179055505081516000908152600f6020908152604080832082860180518552908352818420805460ff191660019081179091558151855260098452938290208651815590519381019390935584015180518594506128ca92600285019201906135a2565b50606082015180516128e69160038401916020909101906135a2565b50608082015180516129029160048401916020909101906135a2565b5060a08201516005820180546001600160a01b039283166001600160a01b03199182161790915560c084015160068401805491909316911617905560e0820151600782015561010082015160088201556101208201516009820155610140820151805161297991600a8401916020909101906135a2565b50610160820151805161299691600b8401916020909101906135a2565b50610180820151600c8201805460ff191660018360038111156129bb576129bb61374d565b0217905550905050600d60008884815181106129d9576129d9613d80565b6020026020010151815260200190815260200160002060405180608001604052808360a001516001600160a01b031681526020018360e00151846101000151612a229190613e79565b815260e0840151602080830191909152426040928301819052845460018082018755600096875295839020855160049092020180546001600160a01b0319166001600160a01b03928316178155858401519681019690965584840151600287015560609485015160039096019590955560c086015160a0870151838801516101008901518651918252948101949094529383019190915284169391909116917ff3debaf22196a6ddf52a60fa71058cd7edf5e25bb98f4e96c994a5d4a9b0dd3e910160405180910390a3505b80612af881613de7565b91505061221e565b50600195945050505050565b6000828152600f6020908152604080832084845290915281205460ff16612b455760405162461bcd60e51b81526004016108d590613e02565b6000838152600b60205260408120805484908110612b6557612b65613d80565b90600052602060002090600d0201604051806101a00160405290816000820154815260200160018201548152602001600282018054612ba390613d96565b80601f0160208091040260200160405190810160405280929190818152602001828054612bcf90613d96565b8015612c1c5780601f10612bf157610100808354040283529160200191612c1c565b820191906000526020600020905b815481529060010190602001808311612bff57829003601f168201915b50505050508152602001600382018054612c3590613d96565b80601f0160208091040260200160405190810160405280929190818152602001828054612c6190613d96565b8015612cae5780601f10612c8357610100808354040283529160200191612cae565b820191906000526020600020905b815481529060010190602001808311612c9157829003601f168201915b50505050508152602001600482018054612cc790613d96565b80601f0160208091040260200160405190810160405280929190818152602001828054612cf390613d96565b8015612d405780601f10612d1557610100808354040283529160200191612d40565b820191906000526020600020905b815481529060010190602001808311612d2357829003601f168201915b505050918352505060058201546001600160a01b03908116602083015260068301541660408201526007820154606082015260088201546080820152600982015460a0820152600a8201805460c090920191612d9b90613d96565b80601f0160208091040260200160405190810160405280929190818152602001828054612dc790613d96565b8015612e145780601f10612de957610100808354040283529160200191612e14565b820191906000526020600020905b815481529060010190602001808311612df757829003601f168201915b50505050508152602001600b82018054612e2d90613d96565b80601f0160208091040260200160405190810160405280929190818152602001828054612e5990613d96565b8015612ea65780601f10612e7b57610100808354040283529160200191612ea6565b820191906000526020600020905b815481529060010190602001808311612e8957829003601f168201915b5050509183525050600c82015460209091019060ff166003811115612ecd57612ecd61374d565b6003811115612ede57612ede61374d565b90525060c08101519091506001600160a01b03163314612f365760405162461bcd60e51b8152602060048201526013602482015272556e617574686f72697a656420456e7469747960681b60448201526064016108d5565b60018161018001516003811115612f4f57612f4f61374d565b1415612f9d5760405162461bcd60e51b815260206004820152601860248201527f4f7264657220616c72656164792064656c69657665726564000000000000000060448201526064016108d5565b60016101808201526000848152600b60205260409020805482919085908110612fc857612fc8613d80565b90600052602060002090600d0201600082015181600001556020820151816001015560408201518160020190805190602001906130069291906135a2565b50606082015180516130229160038401916020909101906135a2565b506080820151805161303e9160048401916020909101906135a2565b5060a08201516005820180546001600160a01b039283166001600160a01b03199182161790915560c084015160068401805491909316911617905560e082015160078201556101008201516008820155610120820151600982015561014082015180516130b591600a8401916020909101906135a2565b5061016082015180516130d291600b8401916020909101906135a2565b50610180820151600c8201805460ff191660018360038111156130f7576130f761374d565b02179055505050600083815260096020908152604091829020835181558184015160018201559183015180518493926131379260028501929101906135a2565b50606082015180516131539160038401916020909101906135a2565b506080820151805161316f9160048401916020909101906135a2565b5060a08201516005820180546001600160a01b039283166001600160a01b03199182161790915560c084015160068401805491909316911617905560e082015160078201556101008201516008820155610120820151600982015561014082015180516131e691600a8401916020909101906135a2565b50610160820151805161320391600b8401916020909101906135a2565b50610180820151600c8201805460ff191660018360038111156132285761322861374d565b0217905550505061010081015160068054600090613247908490613e43565b909155505061010081015160c08201516001600160a01b03166000908152600c602052604081206004018054909190613281908490613e2b565b909155505060c08101516001600160a01b03166000908152600c602052604081206003018054916132b183613de7565b9091555050600480549060006132c683613de7565b91905055506132de8160c00151826101000151613435565b6000928352600d60209081526040808520815160808101835260a08501516001600160a01b03908116825261010086015182860190815260e0909601519382019384524260608301908152835460018082018655948a52959098209151600490950290910180546001600160a01b03191694909116939093178355925182840155516002820155925160039093019290925550919050565b6000336001600160a01b03166008838154811061339557613395613d80565b600091825260209091206002600a9092020101546001600160a01b0316146133f65760405162461bcd60e51b8152602060048201526014602482015273155b985d5d1a1bdc9a5e994814195c9cdbdb995b60621b60448201526064016108d5565b60016008838154811061340b5761340b613d80565b60009182526020909120600a90910201600801805460ff1916911515919091179055506001919050565b6000826001600160a01b03168260405160006040518083038185875af1925050503d8060008114613482576040519150601f19603f3d011682016040523d82523d6000602084013e613487565b606091505b505090508061349557600080fd5b505050565b60008060005b8451811015613510578381815181106134bb576134bb613d80565b6020026020010151600882815481106134d6576134d6613d80565b90600052602060002090600a0201600601546134f29190613e5a565b6134fc9083613e2b565b91508061350881613de7565b9150506134a0565b509392505050565b604051806101a00160405280600081526020016000815260200160608152602001606081526020016060815260200160006001600160a01b0316815260200160006001600160a01b0316815260200160008152602001600081526020016000815260200160608152602001606081526020016000600381111561359d5761359d61374d565b905290565b8280546135ae90613d96565b90600052602060002090601f0160209004810192826135d05760008555613616565b82601f106135e957805160ff1916838001178555613616565b82800160010185558215613616579182015b828111156136165782518255916020019190600101906135fb565b50610890929150613680565b604051806101400160405280600081526020016060815260200160006001600160a01b031681526020016060815260200160608152602001606081526020016000815260200160008152602001600015158152602001600081525090565b5b808211156108905760008155600101613681565b6000602082840312156136a757600080fd5b5035919050565b6000602082840312156136c057600080fd5b81356001600160a01b03811681146136d757600080fd5b9392505050565b600080604083850312156136f157600080fd5b50508035926020909101359150565b6000815180845260005b818110156137265760208185018101518683018201520161370a565b81811115613738576000602083870101525b50601f01601f19169290920160200192915050565b634e487b7160e01b600052602160045260246000fd5b6004811061378157634e487b7160e01b600052602160045260246000fd5b9052565b60006101a0825184526020830151602085015260408301518160408601526137af82860182613700565b915050606083015184820360608601526137c98282613700565b915050608083015184820360808601526137e38282613700565b91505060a083015161380060a08601826001600160a01b03169052565b5060c083015161381b60c08601826001600160a01b03169052565b5060e083810151908501526101008084015190850152610120808401519085015261014080840151858303828701526138548382613700565b9250505061016080840151858303828701526138708382613700565b925050506101808084015161388782870182613763565b5090949350505050565b6000602080830181845280855180835260408601915060408160051b870101925083870160005b828110156138e657603f198886030184526138d4858351613785565b945092850192908501906001016138b8565b5092979650505050505050565b6020815260006136d76020830184613785565b602080825282518282018190526000919060409081850190868401855b8281101561396657815180516001600160a01b03168552868101518786015285810151868601526060908101519085015260809093019290850190600101613923565b5091979650505050505050565b600061014082518452602083015181602086015261399382860182613700565b91505060408301516139b060408601826001600160a01b03169052565b50606083015184820360608601526139c88282613700565b915050608083015184820360808601526139e28282613700565b91505060a083015184820360a08601526139fc8282613700565b91505060c083015160c085015260e083015160e085015261010080840151613a278287018215159052565b5050610120928301519390920192909252919050565b6020815260006136d76020830184613973565b634e487b7160e01b600052604160045260246000fd5b604051601f8201601f1916810167ffffffffffffffff81118282101715613a8f57613a8f613a50565b604052919050565b600082601f830112613aa857600080fd5b813567ffffffffffffffff811115613ac257613ac2613a50565b613ad5601f8201601f1916602001613a66565b818152846020838601011115613aea57600080fd5b816020850160208301376000918101602001919091529392505050565b60008060008060008060c08789031215613b2057600080fd5b86359550602087013567ffffffffffffffff80821115613b3f57600080fd5b613b4b8a838b01613a97565b96506040890135915080821115613b6157600080fd5b613b6d8a838b01613a97565b95506060890135915080821115613b8357600080fd5b50613b9089828a01613a97565b9350506080870135915060a087013590509295509295509295565b6000602080830181845280855180835260408601915060408160051b870101925083870160005b828110156138e657603f19888603018452613bee858351613973565b94509285019290850190600101613bd2565b60008060008060008060c08789031215613c1957600080fd5b863567ffffffffffffffff80821115613c3157600080fd5b613c3d8a838b01613a97565b97506020890135915080821115613b3f57600080fd5b600082601f830112613c6457600080fd5b8135602067ffffffffffffffff821115613c8057613c80613a50565b8160051b613c8f828201613a66565b9283528481018201928281019087851115613ca957600080fd5b83870192505b84831015613cc857823582529183019190830190613caf565b979650505050505050565b60008060008060808587031215613ce957600080fd5b843567ffffffffffffffff80821115613d0157600080fd5b613d0d88838901613c53565b95506020870135915080821115613d2357600080fd5b613d2f88838901613c53565b94506040870135915080821115613d4557600080fd5b613d5188838901613a97565b93506060870135915080821115613d6757600080fd5b50613d7487828801613a97565b91505092959194509250565b634e487b7160e01b600052603260045260246000fd5b600181811c90821680613daa57607f821691505b60208210811415613dcb57634e487b7160e01b600052602260045260246000fd5b50919050565b634e487b7160e01b600052601160045260246000fd5b6000600019821415613dfb57613dfb613dd1565b5060010190565b6020808252600f908201526e13dc99195c881b9bdd08199bdd5b99608a1b604082015260600190565b60008219821115613e3e57613e3e613dd1565b500190565b600082821015613e5557613e55613dd1565b500390565b6000816000190483118215151615613e7457613e74613dd1565b500290565b600082613e9657634e487b7160e01b600052601260045260246000fd5b50049056fea2646970667358221220ae5eedd411b71669923b0051b373ccb31288a44802934d4a6f566f6fd7d4a05564736f6c634300080b0033",
  "linkReferences": {},
  "deployedLinkReferences": {}
}