{
  "_format": "hh-sol-artifact-1",
  "contractName": "Shop",
  "sourceName": "src/contracts/Shop.sol",
  "abi": [
    {
      "inputs": [
        {
          "internalType": "uint256",
          "name": "_fee",
          "type": "uint256"
        }
      ],
      "stateMutability": "nonpayable",
      "type": "constructor"
    },
    {
      "anonymous": false,
      "inputs": [
        {
          "indexed": false,
          "internalType": "uint256",
          "name": "id",
          "type": "uint256"
        },
        {
          "indexed": true,
          "internalType": "address",
          "name": "buyer",
          "type": "address"
        },
        {
          "indexed": true,
          "internalType": "address",
          "name": "seller",
          "type": "address"
        },
        {
          "indexed": false,
          "internalType": "uint256",
          "name": "price",
          "type": "uint256"
        },
        {
          "indexed": false,
          "internalType": "uint256",
          "name": "timestamp",
          "type": "uint256"
        }
      ],
      "name": "Sale",
      "type": "event"
    },
    {
      "inputs": [
        {
          "internalType": "uint256",
          "name": "id",
          "type": "uint256"
        }
      ],
      "name": "cancelOrder",
      "outputs": [
        {
          "internalType": "bool",
          "name": "",
          "type": "bool"
        }
      ],
      "stateMutability": "nonpayable",
      "type": "function"
    },
    {
      "inputs": [
        {
          "internalType": "uint256[]",
          "name": "ids",
          "type": "uint256[]"
        },
        {
          "internalType": "uint256[]",
          "name": "qtys",
          "type": "uint256[]"
        },
        {
          "internalType": "string",
          "name": "destination",
          "type": "string"
        },
        {
          "internalType": "string",
          "name": "phone",
          "type": "string"
        }
      ],
      "name": "createOrder",
      "outputs": [
        {
          "internalType": "bool",
          "name": "",
          "type": "bool"
        }
      ],
      "stateMutability": "payable",
      "type": "function"
    },
    {
      "inputs": [
        {
          "internalType": "string",
          "name": "sku",
          "type": "string"
        },
        {
          "internalType": "string",
          "name": "name",
          "type": "string"
        },
        {
          "internalType": "string",
          "name": "description",
          "type": "string"
        },
        {
          "internalType": "string",
          "name": "imageURL",
          "type": "string"
        },
        {
          "internalType": "uint256",
          "name": "price",
          "type": "uint256"
        },
        {
          "internalType": "uint256",
          "name": "stock",
          "type": "uint256"
        }
      ],
      "name": "createProduct",
      "outputs": [
        {
          "internalType": "bool",
          "name": "",
          "type": "bool"
        }
      ],
      "stateMutability": "payable",
      "type": "function"
    },
    {
      "inputs": [
        {
          "internalType": "uint256",
          "name": "id",
          "type": "uint256"
        }
      ],
      "name": "deleteProduct",
      "outputs": [
        {
          "internalType": "bool",
          "name": "",
          "type": "bool"
        }
      ],
      "stateMutability": "nonpayable",
      "type": "function"
    },
    {
      "inputs": [],
      "name": "fee",
      "outputs": [
        {
          "internalType": "uint256",
          "name": "",
          "type": "uint256"
        }
      ],
      "stateMutability": "view",
      "type": "function"
    },
    {
      "inputs": [
        {
          "internalType": "uint256",
          "name": "id",
          "type": "uint256"
        }
      ],
      "name": "getOrder",
      "outputs": [
        {
          "components": [
            {
              "internalType": "uint256",
              "name": "id",
              "type": "uint256"
            },
            {
              "internalType": "string",
              "name": "sku",
              "type": "string"
            },
            {
              "internalType": "string",
              "name": "imageURL",
              "type": "string"
            },
            {
              "internalType": "address",
              "name": "buyer",
              "type": "address"
            },
            {
              "internalType": "address",
              "name": "seller",
              "type": "address"
            },
            {
              "internalType": "uint256",
              "name": "qty",
              "type": "uint256"
            },
            {
              "internalType": "uint256",
              "name": "total",
              "type": "uint256"
            },
            {
              "internalType": "uint256",
              "name": "timestamp",
              "type": "uint256"
            },
            {
              "internalType": "string",
              "name": "destination",
              "type": "string"
            },
            {
              "internalType": "string",
              "name": "phone",
              "type": "string"
            },
            {
              "internalType": "enum Shop.OrderEnum",
              "name": "status",
              "type": "uint8"
            }
          ],
          "internalType": "struct Shop.OrderStruct",
          "name": "order",
          "type": "tuple"
        }
      ],
      "stateMutability": "view",
      "type": "function"
    },
    {
      "inputs": [],
      "name": "getOrders",
      "outputs": [
        {
          "components": [
            {
              "internalType": "uint256",
              "name": "id",
              "type": "uint256"
            },
            {
              "internalType": "string",
              "name": "sku",
              "type": "string"
            },
            {
              "internalType": "string",
              "name": "imageURL",
              "type": "string"
            },
            {
              "internalType": "address",
              "name": "buyer",
              "type": "address"
            },
            {
              "internalType": "address",
              "name": "seller",
              "type": "address"
            },
            {
              "internalType": "uint256",
              "name": "qty",
              "type": "uint256"
            },
            {
              "internalType": "uint256",
              "name": "total",
              "type": "uint256"
            },
            {
              "internalType": "uint256",
              "name": "timestamp",
              "type": "uint256"
            },
            {
              "internalType": "string",
              "name": "destination",
              "type": "string"
            },
            {
              "internalType": "string",
              "name": "phone",
              "type": "string"
            },
            {
              "internalType": "enum Shop.OrderEnum",
              "name": "status",
              "type": "uint8"
            }
          ],
          "internalType": "struct Shop.OrderStruct[]",
          "name": "",
          "type": "tuple[]"
        }
      ],
      "stateMutability": "view",
      "type": "function"
    },
    {
      "inputs": [
        {
          "internalType": "uint256",
          "name": "id",
          "type": "uint256"
        }
      ],
      "name": "getProduct",
      "outputs": [
        {
          "components": [
            {
              "internalType": "uint256",
              "name": "id",
              "type": "uint256"
            },
            {
              "internalType": "string",
              "name": "sku",
              "type": "string"
            },
            {
              "internalType": "address",
              "name": "seller",
              "type": "address"
            },
            {
              "internalType": "string",
              "name": "name",
              "type": "string"
            },
            {
              "internalType": "string",
              "name": "imageURL",
              "type": "string"
            },
            {
              "internalType": "string",
              "name": "description",
              "type": "string"
            },
            {
              "internalType": "uint256",
              "name": "price",
              "type": "uint256"
            },
            {
              "internalType": "uint256",
              "name": "timestamp",
              "type": "uint256"
            },
            {
              "internalType": "bool",
              "name": "deleted",
              "type": "bool"
            },
            {
              "internalType": "uint256",
              "name": "stock",
              "type": "uint256"
            }
          ],
          "internalType": "struct Shop.ProductStruct",
          "name": "",
          "type": "tuple"
        }
      ],
      "stateMutability": "view",
      "type": "function"
    },
    {
      "inputs": [],
      "name": "getProducts",
      "outputs": [
        {
          "components": [
            {
              "internalType": "uint256",
              "name": "id",
              "type": "uint256"
            },
            {
              "internalType": "string",
              "name": "sku",
              "type": "string"
            },
            {
              "internalType": "address",
              "name": "seller",
              "type": "address"
            },
            {
              "internalType": "string",
              "name": "name",
              "type": "string"
            },
            {
              "internalType": "string",
              "name": "imageURL",
              "type": "string"
            },
            {
              "internalType": "string",
              "name": "description",
              "type": "string"
            },
            {
              "internalType": "uint256",
              "name": "price",
              "type": "uint256"
            },
            {
              "internalType": "uint256",
              "name": "timestamp",
              "type": "uint256"
            },
            {
              "internalType": "bool",
              "name": "deleted",
              "type": "bool"
            },
            {
              "internalType": "uint256",
              "name": "stock",
              "type": "uint256"
            }
          ],
          "internalType": "struct Shop.ProductStruct[]",
          "name": "",
          "type": "tuple[]"
        }
      ],
      "stateMutability": "view",
      "type": "function"
    },
    {
      "inputs": [
        {
          "internalType": "uint256",
          "name": "id",
          "type": "uint256"
        }
      ],
      "name": "getSale",
      "outputs": [
        {
          "components": [
            {
              "internalType": "uint256",
              "name": "id",
              "type": "uint256"
            },
            {
              "internalType": "string",
              "name": "sku",
              "type": "string"
            },
            {
              "internalType": "string",
              "name": "imageURL",
              "type": "string"
            },
            {
              "internalType": "address",
              "name": "buyer",
              "type": "address"
            },
            {
              "internalType": "address",
              "name": "seller",
              "type": "address"
            },
            {
              "internalType": "uint256",
              "name": "qty",
              "type": "uint256"
            },
            {
              "internalType": "uint256",
              "name": "total",
              "type": "uint256"
            },
            {
              "internalType": "uint256",
              "name": "timestamp",
              "type": "uint256"
            },
            {
              "internalType": "string",
              "name": "destination",
              "type": "string"
            },
            {
              "internalType": "string",
              "name": "phone",
              "type": "string"
            },
            {
              "internalType": "enum Shop.OrderEnum",
              "name": "status",
              "type": "uint8"
            }
          ],
          "internalType": "struct Shop.OrderStruct",
          "name": "order",
          "type": "tuple"
        }
      ],
      "stateMutability": "view",
      "type": "function"
    },
    {
      "inputs": [],
      "name": "getSales",
      "outputs": [
        {
          "components": [
            {
              "internalType": "uint256",
              "name": "id",
              "type": "uint256"
            },
            {
              "internalType": "string",
              "name": "sku",
              "type": "string"
            },
            {
              "internalType": "string",
              "name": "imageURL",
              "type": "string"
            },
            {
              "internalType": "address",
              "name": "buyer",
              "type": "address"
            },
            {
              "internalType": "address",
              "name": "seller",
              "type": "address"
            },
            {
              "internalType": "uint256",
              "name": "qty",
              "type": "uint256"
            },
            {
              "internalType": "uint256",
              "name": "total",
              "type": "uint256"
            },
            {
              "internalType": "uint256",
              "name": "timestamp",
              "type": "uint256"
            },
            {
              "internalType": "string",
              "name": "destination",
              "type": "string"
            },
            {
              "internalType": "string",
              "name": "phone",
              "type": "string"
            },
            {
              "internalType": "enum Shop.OrderEnum",
              "name": "status",
              "type": "uint8"
            }
          ],
          "internalType": "struct Shop.OrderStruct[]",
          "name": "",
          "type": "tuple[]"
        }
      ],
      "stateMutability": "view",
      "type": "function"
    },
    {
      "inputs": [
        {
          "internalType": "uint256",
          "name": "id",
          "type": "uint256"
        },
        {
          "internalType": "enum Shop.OrderEnum",
          "name": "status",
          "type": "uint8"
        }
      ],
      "name": "markOrderAs",
      "outputs": [
        {
          "internalType": "bool",
          "name": "",
          "type": "bool"
        }
      ],
      "stateMutability": "nonpayable",
      "type": "function"
    },
    {
      "inputs": [],
      "name": "owner",
      "outputs": [
        {
          "internalType": "address",
          "name": "",
          "type": "address"
        }
      ],
      "stateMutability": "view",
      "type": "function"
    },
    {
      "inputs": [],
      "name": "stats",
      "outputs": [
        {
          "internalType": "uint256",
          "name": "products",
          "type": "uint256"
        },
        {
          "internalType": "uint256",
          "name": "orders",
          "type": "uint256"
        },
        {
          "internalType": "uint256",
          "name": "sellers",
          "type": "uint256"
        },
        {
          "internalType": "uint256",
          "name": "sales",
          "type": "uint256"
        },
        {
          "internalType": "uint256",
          "name": "paid",
          "type": "uint256"
        },
        {
          "internalType": "uint256",
          "name": "balance",
          "type": "uint256"
        }
      ],
      "stateMutability": "view",
      "type": "function"
    },
    {
      "inputs": [
        {
          "internalType": "uint256",
          "name": "id",
          "type": "uint256"
        },
        {
          "internalType": "string",
          "name": "name",
          "type": "string"
        },
        {
          "internalType": "string",
          "name": "description",
          "type": "string"
        },
        {
          "internalType": "string",
          "name": "imageURL",
          "type": "string"
        },
        {
          "internalType": "uint256",
          "name": "price",
          "type": "uint256"
        },
        {
          "internalType": "uint256",
          "name": "stock",
          "type": "uint256"
        }
      ],
      "name": "updateProduct",
      "outputs": [
        {
          "internalType": "bool",
          "name": "",
          "type": "bool"
        }
      ],
      "stateMutability": "nonpayable",
      "type": "function"
    }
  ],
  "bytecode": "0x60806040523480156200001157600080fd5b50604051620035573803806200355783398101604081905262000034916200004f565b600080546001600160a01b0319163317905560075562000069565b6000602082840312156200006257600080fd5b5051919050565b6134de80620000796000396000f3fe6080604052600436106100e85760003560e01c8063c29b2f201161008a578063d8f6d59611610059578063d8f6d596146102bc578063ddca3f43146102dc578063e0e83bb314610300578063ed90c7b71461031357600080fd5b8063c29b2f2014610202578063c39e0b2b14610224578063d09ef24114610237578063d80528ae1461026457600080fd5b806365f3fcd7116100c657806365f3fcd71461015d5780638da5cb5b1461017d578063b9db15b4146101b5578063bab8d872146101e257600080fd5b80630d83304c146100ed5780632e2dc43e14610118578063514fcac71461012d575b600080fd5b3480156100f957600080fd5b50610102610333565b60405161010f9190612f08565b60405180910390f35b34801561012457600080fd5b50610102610665565b34801561013957600080fd5b5061014d610148366004612f6a565b61098e565b604051901515815260200161010f565b34801561016957600080fd5b5061014d610178366004612f83565b610d35565b34801561018957600080fd5b5060005461019d906001600160a01b031681565b6040516001600160a01b03909116815260200161010f565b3480156101c157600080fd5b506101d56101d0366004612f6a565b611213565b60405161010f9190613081565b3480156101ee57600080fd5b5061014d6101fd366004613152565b611537565b34801561020e57600080fd5b5061021761181e565b60405161010f91906131f6565b61014d61023236600461324b565b611b11565b34801561024357600080fd5b50610257610252366004612f6a565b611e1c565b60405161010f919061329e565b34801561027057600080fd5b5060015460025460035460045460055460065461028f95949392919086565b604080519687526020870195909552938501929092526060840152608083015260a082015260c00161010f565b3480156102c857600080fd5b506102576102d7366004612f6a565b61219a565b3480156102e857600080fd5b506102f260075481565b60405190815260200161010f565b61014d61030e366004613331565b61222b565b34801561031f57600080fd5b5061014d61032e366004612f6a565b612a88565b336000908152600b60209081526040808320805482518185028101850190935280835260609492939192909184015b8282101561065c57838290600052602060002090600b020160405180610160016040529081600082015481526020016001820180546103a0906133de565b80601f01602080910402602001604051908101604052809291908181526020018280546103cc906133de565b80156104195780601f106103ee57610100808354040283529160200191610419565b820191906000526020600020905b8154815290600101906020018083116103fc57829003601f168201915b50505050508152602001600282018054610432906133de565b80601f016020809104026020016040519081016040528092919081815260200182805461045e906133de565b80156104ab5780601f10610480576101008083540402835291602001916104ab565b820191906000526020600020905b81548152906001019060200180831161048e57829003601f168201915b505050918352505060038201546001600160a01b03908116602083015260048301541660408201526005820154606082015260068201546080820152600782015460a082015260088201805460c090920191610506906133de565b80601f0160208091040260200160405190810160405280929190818152602001828054610532906133de565b801561057f5780601f106105545761010080835404028352916020019161057f565b820191906000526020600020905b81548152906001019060200180831161056257829003601f168201915b50505050508152602001600982018054610598906133de565b80601f01602080910402602001604051908101604052809291908181526020018280546105c4906133de565b80156106115780601f106105e657610100808354040283529160200191610611565b820191906000526020600020905b8154815290600101906020018083116105f457829003601f168201915b5050509183525050600a82015460209091019060ff16600381111561063857610638612dea565b600381111561064957610649612dea565b8152505081526020019060010190610362565b50505050905090565b336000908152600a60209081526040808320805482518185028101850190935280835260609492939192909184015b8282101561065c57838290600052602060002090600b020160405180610160016040529081600082015481526020016001820180546106d2906133de565b80601f01602080910402602001604051908101604052809291908181526020018280546106fe906133de565b801561074b5780601f106107205761010080835404028352916020019161074b565b820191906000526020600020905b81548152906001019060200180831161072e57829003601f168201915b50505050508152602001600282018054610764906133de565b80601f0160208091040260200160405190810160405280929190818152602001828054610790906133de565b80156107dd5780601f106107b2576101008083540402835291602001916107dd565b820191906000526020600020905b8154815290600101906020018083116107c057829003601f168201915b505050918352505060038201546001600160a01b03908116602083015260048301541660408201526005820154606082015260068201546080820152600782015460a082015260088201805460c090920191610838906133de565b80601f0160208091040260200160405190810160405280929190818152602001828054610864906133de565b80156108b15780601f10610886576101008083540402835291602001916108b1565b820191906000526020600020905b81548152906001019060200180831161089457829003601f168201915b505050505081526020016009820180546108ca906133de565b80601f01602080910402602001604051908101604052809291908181526020018280546108f6906133de565b80156109435780601f1061091857610100808354040283529160200191610943565b820191906000526020600020905b81548152906001019060200180831161092657829003601f168201915b5050509183525050600a82015460209091019060ff16600381111561096a5761096a612dea565b600381111561097b5761097b612dea565b8152505081526020019060010190610694565b6000818152600e602052604081205460ff166109e55760405162461bcd60e51b8152602060048201526011602482015270141c9bd91d58dd081b9bdd08199bdd5b99607a1b60448201526064015b60405180910390fd5b336000818152600a60205260409020805484908110610a0657610a06613413565b600091825260209091206003600b9092020101546001600160a01b031614610a695760405162461bcd60e51b8152602060048201526016602482015275155b985d5d1a1bdc9a5e99590814195c9cdbdb9b995b60521b60448201526064016109dc565b6001336000908152600a60205260409020805484908110610a8c57610a8c613413565b60009182526020909120600a600b90920201015460ff166003811115610ab457610ab4612dea565b10610b015760405162461bcd60e51b815260206004820152601860248201527f4f726465722064656c69766572656420616c726561647921000000000000000060448201526064016109dc565b336000908152600a6020526040902080546002919084908110610b2657610b26613413565b60009182526020909120600a600b9092020101805460ff19166001836003811115610b5357610b53612dea565b0217905550336000908152600a602052604081208054600292600b92909186908110610b8157610b81613413565b600091825260208083206004600b9093020191909101546001600160a01b031683528201929092526040019020805484908110610bc057610bc0613413565b60009182526020909120600a600b9092020101805460ff19166001836003811115610bed57610bed612dea565b02179055506002336000908152600a60205260409020805484908110610c1557610c15613413565b60009182526020909120600a600b90920201015460ff166003811115610c3d57610c3d612dea565b1415610d2d57336000908152600a60205260409020805483908110610c6457610c64613413565b90600052602060002090600b02016005015460088381548110610c8957610c89613413565b90600052602060002090600a02016009016000828254610ca9919061343f565b9091555050336000908152600a602052604090208054610d2d919084908110610cd457610cd4613413565b600091825260208083206003600b909302019190910154338352600a909152604090912080546001600160a01b039092169185908110610d1657610d16613413565b90600052602060002090600b020160060154612b47565b506001919050565b336000908152600f6020908152604080832085845290915281205460ff16610d915760405162461bcd60e51b815260206004820152600f60248201526e13dc99195c881b9bdd08199bdd5b99608a1b60448201526064016109dc565b60005b336000908152600b60205260409020548110156110ed57336000908152600b60205260409020805485919083908110610dcf57610dcf613413565b90600052602060002090600b02016000015414156110db57336000908152600b60205260409020805484919083908110610e0b57610e0b613413565b60009182526020909120600a600b9092020101805460ff19166001836003811115610e3857610e38612dea565b0217905550336000908152600b6020526040812080548592600a92909185908110610e6557610e65613413565b600091825260208083206003600b9093020191909101546001600160a01b031683528201929092526040019020805483908110610ea457610ea4613413565b60009182526020909120600a600b9092020101805460ff19166001836003811115610ed157610ed1612dea565b02179055506001836003811115610eea57610eea612dea565b14156110db57336000908152600b602052604090208054610f53919083908110610f1657610f16613413565b60009182526020808320600b9283020160040154338452919052604090912080546001600160a01b039092169184908110610d1657610d16613413565b336000908152600b60205260409020805482908110610f7457610f74613413565b90600052602060002090600b02016006015460016005016000828254610f9a9190613457565b90915550506000848152600d602090815260408083208151608081018352338552600b9093529220805482919085908110610fd757610fd7613413565b60009182526020808320600b92830201600301546001600160a01b031684523383529081526040909120805492909101918590811061101857611018613413565b90600052602060002090600b0201600601548152602001600b6000336001600160a01b03166001600160a01b03168152602001908152602001600020848154811061106557611065613413565b60009182526020808320600b92909202909101600501548352429281019290925283546001808201865594825290829020835160049092020180546001600160a01b0319166001600160a01b03909216919091178155908201519281019290925560408101516002830155606001516003909101555b806110e58161346e565b915050610d94565b5060005b336000908152600a602052604090205481101561120957336000908152600a6020526040902080548591908390811061112c5761112c613413565b90600052602060002090600b020160000154141561119f57336000908152600a6020526040902080548491908390811061116857611168613413565b60009182526020909120600a600b9092020101805460ff1916600183600381111561119557611195612dea565b02179055506111f7565b60405162461bcd60e51b815260206004820152602760248201527f42757965723a204f72646572206e6f7420666f756e6420776974682070726f766044820152661a59195908125960ca1b60648201526084016109dc565b806112018161346e565b9150506110f1565b5060019392505050565b61121b612c2a565b6000828152600e602052604090205460ff1661126d5760405162461bcd60e51b8152602060048201526011602482015270141c9bd91d58dd081b9bdd08199bdd5b99607a1b60448201526064016109dc565b6008828154811061128057611280613413565b90600052602060002090600a020160405180610140016040529081600082015481526020016001820180546112b4906133de565b80601f01602080910402602001604051908101604052809291908181526020018280546112e0906133de565b801561132d5780601f106113025761010080835404028352916020019161132d565b820191906000526020600020905b81548152906001019060200180831161131057829003601f168201915b505050918352505060028201546001600160a01b0316602082015260038201805460409092019161135d906133de565b80601f0160208091040260200160405190810160405280929190818152602001828054611389906133de565b80156113d65780601f106113ab576101008083540402835291602001916113d6565b820191906000526020600020905b8154815290600101906020018083116113b957829003601f168201915b505050505081526020016004820180546113ef906133de565b80601f016020809104026020016040519081016040528092919081815260200182805461141b906133de565b80156114685780601f1061143d57610100808354040283529160200191611468565b820191906000526020600020905b81548152906001019060200180831161144b57829003601f168201915b50505050508152602001600582018054611481906133de565b80601f01602080910402602001604051908101604052809291908181526020018280546114ad906133de565b80156114fa5780601f106114cf576101008083540402835291602001916114fa565b820191906000526020600020905b8154815290600101906020018083116114dd57829003601f168201915b50505091835250506006820154602082015260078201546040820152600882015460ff161515606082015260099091015460809091015292915050565b6000336001600160a01b03166008888154811061155657611556613413565b600091825260209091206002600a9092020101546001600160a01b0316146115b75760405162461bcd60e51b8152602060048201526014602482015273155b985d5d1a1bdc9a5e994814195c9cdbdb995b60621b60448201526064016109dc565b60008651116115ff5760405162461bcd60e51b81526020600482015260146024820152736e616d652063616e6e6f7420626520656d70747960601b60448201526064016109dc565b60008551116116505760405162461bcd60e51b815260206004820152601b60248201527f6465736372697074696f6e2063616e6e6f7420626520656d707479000000000060448201526064016109dc565b600083116116975760405162461bcd60e51b815260206004820152601460248201527370726963652063616e6e6f74206265207a65726f60601b60448201526064016109dc565b600082116116de5760405162461bcd60e51b815260206004820152601460248201527373746f636b2063616e6e6f74206265207a65726f60601b60448201526064016109dc565b6116e6612c2a565b336040820152606081018790526080810185905260a0810186905260c081018490526101208101839052600880548291908a90811061172757611727613413565b90600052602060002090600a020160008201518160000155602082015181600101908051906020019061175b929190612c88565b5060408201516002820180546001600160a01b0319166001600160a01b039092169190911790556060820151805161179d916003840191602090910190612c88565b50608082015180516117b9916004840191602090910190612c88565b5060a082015180516117d5916005840191602090910190612c88565b5060c0820151600682015560e0820151600782015561010082015160088201805460ff191691151591909117905561012090910151600990910155506001979650505050505050565b60606008805480602002602001604051908101604052809291908181526020016000905b8282101561065c57838290600052602060002090600a02016040518061014001604052908160008201548152602001600182018054611880906133de565b80601f01602080910402602001604051908101604052809291908181526020018280546118ac906133de565b80156118f95780601f106118ce576101008083540402835291602001916118f9565b820191906000526020600020905b8154815290600101906020018083116118dc57829003601f168201915b505050918352505060028201546001600160a01b03166020820152600382018054604090920191611929906133de565b80601f0160208091040260200160405190810160405280929190818152602001828054611955906133de565b80156119a25780601f10611977576101008083540402835291602001916119a2565b820191906000526020600020905b81548152906001019060200180831161198557829003601f168201915b505050505081526020016004820180546119bb906133de565b80601f01602080910402602001604051908101604052809291908181526020018280546119e7906133de565b8015611a345780601f10611a0957610100808354040283529160200191611a34565b820191906000526020600020905b815481529060010190602001808311611a1757829003601f168201915b50505050508152602001600582018054611a4d906133de565b80601f0160208091040260200160405190810160405280929190818152602001828054611a79906133de565b8015611ac65780601f10611a9b57610100808354040283529160200191611ac6565b820191906000526020600020905b815481529060010190602001808311611aa957829003601f168201915b5050509183525050600682015460208083019190915260078301546040830152600883015460ff16151560608301526009909201546080909101529082526001929092019101611842565b6000600754341015611b595760405162461bcd60e51b8152602060048201526011602482015270125b9cdd59999a58da595b9d08199d5b99607a1b60448201526064016109dc565b6000875111611ba05760405162461bcd60e51b8152602060048201526013602482015272736b752063616e6e6f7420626520656d70747960681b60448201526064016109dc565b6000865111611be85760405162461bcd60e51b81526020600482015260146024820152736e616d652063616e6e6f7420626520656d70747960601b60448201526064016109dc565b6000855111611c395760405162461bcd60e51b815260206004820152601b60248201527f6465736372697074696f6e2063616e6e6f7420626520656d707479000000000060448201526064016109dc565b6000845111611c8a5760405162461bcd60e51b815260206004820152601960248201527f696d6167652055524c2063616e6e6f7420626520656d7074790000000000000060448201526064016109dc565b60008311611cd15760405162461bcd60e51b815260206004820152601460248201527370726963652063616e6e6f74206265207a65726f60601b60448201526064016109dc565b60008211611d185760405162461bcd60e51b815260206004820152601460248201527373746f636b2063616e6e6f74206265207a65726f60601b60448201526064016109dc565b600180546000908152600e60209081526040808320805460ff1916909417909355338252600c9052908120805491611d4f8361346e565b9190505550611d5c612c2a565b60018054906000611d6c8361346e565b9091555081526020808201898152336040840152606083018990526080830187905260a0830188905260c0830186905261012083018590524260e08401526008805460018101825560009190915283517ff3f7a9fe364faab93b216da50a3214154f22a0a2b415b23a84c8169e8b636ee3600a90920291820190815591518051859461175b937ff3f7a9fe364faab93b216da50a3214154f22a0a2b415b23a84c8169e8b636ee401920190612c88565b611e24612d0c565b60005b336000908152600a602052604090205481101561219457336000908152600a60205260409020805484919083908110611e6257611e62613413565b90600052602060002090600b020160000154141561218257336000908152600a60205260409020805482908110611e9b57611e9b613413565b90600052602060002090600b02016040518061016001604052908160008201548152602001600182018054611ecf906133de565b80601f0160208091040260200160405190810160405280929190818152602001828054611efb906133de565b8015611f485780601f10611f1d57610100808354040283529160200191611f48565b820191906000526020600020905b815481529060010190602001808311611f2b57829003601f168201915b50505050508152602001600282018054611f61906133de565b80601f0160208091040260200160405190810160405280929190818152602001828054611f8d906133de565b8015611fda5780601f10611faf57610100808354040283529160200191611fda565b820191906000526020600020905b815481529060010190602001808311611fbd57829003601f168201915b505050918352505060038201546001600160a01b03908116602083015260048301541660408201526005820154606082015260068201546080820152600782015460a082015260088201805460c090920191612035906133de565b80601f0160208091040260200160405190810160405280929190818152602001828054612061906133de565b80156120ae5780601f10612083576101008083540402835291602001916120ae565b820191906000526020600020905b81548152906001019060200180831161209157829003601f168201915b505050505081526020016009820180546120c7906133de565b80601f01602080910402602001604051908101604052809291908181526020018280546120f3906133de565b80156121405780601f1061211557610100808354040283529160200191612140565b820191906000526020600020905b81548152906001019060200180831161212357829003601f168201915b5050509183525050600a82015460209091019060ff16600381111561216757612167612dea565b600381111561217857612178612dea565b9052509392505050565b8061218c8161346e565b915050611e27565b50919050565b6121a2612d0c565b60005b336000908152600b602052604090205481101561219457336000908152600b602052604090208054849190839081106121e0576121e0613413565b90600052602060002090600b020160000154141561221957336000908152600b60205260409020805482908110611e9b57611e9b613413565b806122238161346e565b9150506121a5565b60006122378585612bac565b34101561227c5760405162461bcd60e51b8152602060048201526013602482015272125b9cdd59999a58da595b9d08185b5bdd5b9d606a1b60448201526064016109dc565b60008351116122cd5760405162461bcd60e51b815260206004820152601b60248201527f64657374696e6174696f6e2063616e6e6f7420626520656d707479000000000060448201526064016109dc565b60008251116123165760405162461bcd60e51b815260206004820152601560248201527470686f6e652063616e6e6f7420626520656d70747960581b60448201526064016109dc565b6123208585612bac565b6006805460009061233290849061343f565b90915550600090505b8551811015612a7c57600e600087838151811061235a5761235a613413565b60209081029190910181015182528101919091526040016000205460ff1680156123da575084818151811061239157612391613413565b602002602001015160088783815181106123ad576123ad613413565b6020026020010151815481106123c5576123c5613413565b90600052602060002090600a02016009015410155b15612a6a578481815181106123f1576123f1613413565b6020026020010151600887838151811061240d5761240d613413565b60200260200101518154811061242557612425613413565b90600052602060002090600a020160090160008282546124459190613457565b925050819055506001600f6000600889858151811061246657612466613413565b60200260200101518154811061247e5761247e613413565b60009182526020808320600a92909202909101600201546001600160a01b03168352828101939093526040918201812033808352600c80865284842060010180548552928652938320805460ff1916961515969096179095559381529152815491906124e98361346e565b91905055506124f6612d0c565b600280549060006125068361346e565b909155508152865160089088908490811061252357612523613413565b60200260200101518154811061253b5761253b613413565b90600052602060002090600a02016001018054612557906133de565b80601f0160208091040260200160405190810160405280929190818152602001828054612583906133de565b80156125d05780601f106125a5576101008083540402835291602001916125d0565b820191906000526020600020905b8154815290600101906020018083116125b357829003601f168201915b5050505050602082015233606082015286516008908890849081106125f7576125f7613413565b60200260200101518154811061260f5761260f613413565b600091825260209091206002600a9092020101546001600160a01b03166080820152865160089088908490811061264857612648613413565b60200260200101518154811061266057612660613413565b90600052602060002090600a0201600401805461267c906133de565b80601f01602080910402602001604051908101604052809291908181526020018280546126a8906133de565b80156126f55780601f106126ca576101008083540402835291602001916126f5565b820191906000526020600020905b8154815290600101906020018083116126d857829003601f168201915b5050505050816040018190525085828151811061271457612714613413565b60200260200101518160a0018181525050600887838151811061273957612739613413565b60200260200101518154811061275157612751613413565b90600052602060002090600a02016006015486838151811061277557612775613413565b60200260200101516127879190613489565b60c08201524260e08201526101008101859052610120810184905260608101516001600160a01b03166000908152600a602090815260408220805460018181018355918452928290208451600b909402019283558184015180518594936127f2938501920190612c88565b506040820151805161280e916002840191602090910190612c88565b5060608201516003820180546001600160a01b039283166001600160a01b031991821617909155608084015160048401805491909316911617905560a0820151600582015560c0820151600682015560e082015160078201556101008201518051612883916008840191602090910190612c88565b5061012082015180516128a0916009840191602090910190612c88565b50610140820151600a8201805460ff191660018360038111156128c5576128c5612dea565b0217905550505060808101516001600160a01b03166000908152600b6020818152604083208054600181810183559185529382902085519490930290920192835580840151805185949361291e93908501920190612c88565b506040820151805161293a916002840191602090910190612c88565b5060608201516003820180546001600160a01b039283166001600160a01b031991821617909155608084015160048401805491909316911617905560a0820151600582015560c0820151600682015560e0820151600782015561010082015180516129af916008840191602090910190612c88565b5061012082015180516129cc916009840191602090910190612c88565b50610140820151600a8201805460ff191660018360038111156129f1576129f1612dea565b0217905550505080608001516001600160a01b031681606001516001600160a01b03167ff3debaf22196a6ddf52a60fa71058cd7edf5e25bb98f4e96c994a5d4a9b0dd3e83600001518460c0015142604051612a60939291909283526020830191909152604082015260600190565b60405180910390a3505b80612a748161346e565b91505061233b565b50600195945050505050565b6000336001600160a01b031660088381548110612aa757612aa7613413565b600091825260209091206002600a9092020101546001600160a01b031614612b085760405162461bcd60e51b8152602060048201526014602482015273155b985d5d1a1bdc9a5e994814195c9cdbdb995b60621b60448201526064016109dc565b600160088381548110612b1d57612b1d613413565b60009182526020909120600a90910201600801805460ff1916911515919091179055506001919050565b6000826001600160a01b03168260405160006040518083038185875af1925050503d8060008114612b94576040519150601f19603f3d011682016040523d82523d6000602084013e612b99565b606091505b5050905080612ba757600080fd5b505050565b60008060005b8451811015612c2257838181518110612bcd57612bcd613413565b602002602001015160088281548110612be857612be8613413565b90600052602060002090600a020160060154612c049190613489565b612c0e908361343f565b915080612c1a8161346e565b915050612bb2565b509392505050565b604051806101400160405280600081526020016060815260200160006001600160a01b031681526020016060815260200160608152602001606081526020016000815260200160008152602001600015158152602001600081525090565b828054612c94906133de565b90600052602060002090601f016020900481019282612cb65760008555612cfc565b82601f10612ccf57805160ff1916838001178555612cfc565b82800160010185558215612cfc579182015b82811115612cfc578251825591602001919060010190612ce1565b50612d08929150612d88565b5090565b60405180610160016040528060008152602001606081526020016060815260200160006001600160a01b0316815260200160006001600160a01b03168152602001600081526020016000815260200160008152602001606081526020016060815260200160006003811115612d8357612d83612dea565b905290565b5b80821115612d085760008155600101612d89565b6000815180845260005b81811015612dc357602081850181015186830182015201612da7565b81811115612dd5576000602083870101525b50601f01601f19169290920160200192915050565b634e487b7160e01b600052602160045260246000fd5b60048110612e1e57634e487b7160e01b600052602160045260246000fd5b9052565b6000610160825184526020830151816020860152612e4282860182612d9d565b91505060408301518482036040860152612e5c8282612d9d565b9150506060830151612e7960608601826001600160a01b03169052565b506080830151612e9460808601826001600160a01b03169052565b5060a083015160a085015260c083015160c085015260e083015160e08501526101008084015185830382870152612ecb8382612d9d565b925050506101208084015185830382870152612ee78382612d9d565b9250505061014080840151612efe82870182612e00565b5090949350505050565b6000602080830181845280855180835260408601915060408160051b870101925083870160005b82811015612f5d57603f19888603018452612f4b858351612e22565b94509285019290850190600101612f2f565b5092979650505050505050565b600060208284031215612f7c57600080fd5b5035919050565b60008060408385031215612f9657600080fd5b82359150602083013560048110612fac57600080fd5b809150509250929050565b6000610140825184526020830151816020860152612fd782860182612d9d565b9150506040830151612ff460408601826001600160a01b03169052565b506060830151848203606086015261300c8282612d9d565b915050608083015184820360808601526130268282612d9d565b91505060a083015184820360a08601526130408282612d9d565b91505060c083015160c085015260e083015160e08501526101008084015161306b8287018215159052565b5050610120928301519390920192909252919050565b6020815260006130946020830184612fb7565b9392505050565b634e487b7160e01b600052604160045260246000fd5b604051601f8201601f1916810167ffffffffffffffff811182821017156130da576130da61309b565b604052919050565b600082601f8301126130f357600080fd5b813567ffffffffffffffff81111561310d5761310d61309b565b613120601f8201601f19166020016130b1565b81815284602083860101111561313557600080fd5b816020850160208301376000918101602001919091529392505050565b60008060008060008060c0878903121561316b57600080fd5b86359550602087013567ffffffffffffffff8082111561318a57600080fd5b6131968a838b016130e2565b965060408901359150808211156131ac57600080fd5b6131b88a838b016130e2565b955060608901359150808211156131ce57600080fd5b506131db89828a016130e2565b9350506080870135915060a087013590509295509295509295565b6000602080830181845280855180835260408601915060408160051b870101925083870160005b82811015612f5d57603f19888603018452613239858351612fb7565b9450928501929085019060010161321d565b60008060008060008060c0878903121561326457600080fd5b863567ffffffffffffffff8082111561327c57600080fd5b6132888a838b016130e2565b9750602089013591508082111561318a57600080fd5b6020815260006130946020830184612e22565b600082601f8301126132c257600080fd5b8135602067ffffffffffffffff8211156132de576132de61309b565b8160051b6132ed8282016130b1565b928352848101820192828101908785111561330757600080fd5b83870192505b848310156133265782358252918301919083019061330d565b979650505050505050565b6000806000806080858703121561334757600080fd5b843567ffffffffffffffff8082111561335f57600080fd5b61336b888389016132b1565b9550602087013591508082111561338157600080fd5b61338d888389016132b1565b945060408701359150808211156133a357600080fd5b6133af888389016130e2565b935060608701359150808211156133c557600080fd5b506133d2878288016130e2565b91505092959194509250565b600181811c908216806133f257607f821691505b6020821081141561219457634e487b7160e01b600052602260045260246000fd5b634e487b7160e01b600052603260045260246000fd5b634e487b7160e01b600052601160045260246000fd5b6000821982111561345257613452613429565b500190565b60008282101561346957613469613429565b500390565b600060001982141561348257613482613429565b5060010190565b60008160001904831182151516156134a3576134a3613429565b50029056fea2646970667358221220be3ea091937b9cd07e023ebb727cc138e407b6ac7fab332c52e8d92c7a639a9764736f6c634300080b0033",
  "linkReferences": {},
  "deployedLinkReferences": {}
}