{
  "_format": "hh-sol-artifact-1",
  "contractName": "Shop",
  "sourceName": "src/contracts/Shop.sol",
  "abi": [
    {
      "inputs": [
        {
          "internalType": "uint256",
          "name": "_fee",
          "type": "uint256"
        }
      ],
      "stateMutability": "nonpayable",
      "type": "constructor"
    },
    {
      "anonymous": false,
      "inputs": [
        {
          "indexed": false,
          "internalType": "uint256",
          "name": "id",
          "type": "uint256"
        },
        {
          "indexed": true,
          "internalType": "address",
          "name": "buyer",
          "type": "address"
        },
        {
          "indexed": true,
          "internalType": "address",
          "name": "seller",
          "type": "address"
        },
        {
          "indexed": false,
          "internalType": "uint256",
          "name": "price",
          "type": "uint256"
        },
        {
          "indexed": false,
          "internalType": "uint256",
          "name": "timestamp",
          "type": "uint256"
        }
      ],
      "name": "Sale",
      "type": "event"
    },
    {
      "inputs": [
        {
          "internalType": "uint256",
          "name": "id",
          "type": "uint256"
        }
      ],
      "name": "cancelOrder",
      "outputs": [
        {
          "internalType": "bool",
          "name": "",
          "type": "bool"
        }
      ],
      "stateMutability": "nonpayable",
      "type": "function"
    },
    {
      "inputs": [
        {
          "internalType": "uint256[]",
          "name": "ids",
          "type": "uint256[]"
        },
        {
          "internalType": "uint256[]",
          "name": "qtys",
          "type": "uint256[]"
        },
        {
          "internalType": "string",
          "name": "destination",
          "type": "string"
        },
        {
          "internalType": "string",
          "name": "phone",
          "type": "string"
        }
      ],
      "name": "createOrder",
      "outputs": [
        {
          "internalType": "bool",
          "name": "",
          "type": "bool"
        }
      ],
      "stateMutability": "payable",
      "type": "function"
    },
    {
      "inputs": [
        {
          "internalType": "string",
          "name": "sku",
          "type": "string"
        },
        {
          "internalType": "string",
          "name": "name",
          "type": "string"
        },
        {
          "internalType": "string",
          "name": "description",
          "type": "string"
        },
        {
          "internalType": "uint256",
          "name": "price",
          "type": "uint256"
        },
        {
          "internalType": "uint256",
          "name": "stock",
          "type": "uint256"
        }
      ],
      "name": "createProduct",
      "outputs": [
        {
          "internalType": "bool",
          "name": "",
          "type": "bool"
        }
      ],
      "stateMutability": "payable",
      "type": "function"
    },
    {
      "inputs": [
        {
          "internalType": "uint256",
          "name": "id",
          "type": "uint256"
        }
      ],
      "name": "deleteProduct",
      "outputs": [
        {
          "internalType": "bool",
          "name": "",
          "type": "bool"
        }
      ],
      "stateMutability": "nonpayable",
      "type": "function"
    },
    {
      "inputs": [],
      "name": "fee",
      "outputs": [
        {
          "internalType": "uint256",
          "name": "",
          "type": "uint256"
        }
      ],
      "stateMutability": "view",
      "type": "function"
    },
    {
      "inputs": [
        {
          "internalType": "uint256",
          "name": "id",
          "type": "uint256"
        }
      ],
      "name": "getOrder",
      "outputs": [
        {
          "components": [
            {
              "internalType": "uint256",
              "name": "id",
              "type": "uint256"
            },
            {
              "internalType": "string",
              "name": "sku",
              "type": "string"
            },
            {
              "internalType": "address",
              "name": "buyer",
              "type": "address"
            },
            {
              "internalType": "address",
              "name": "seller",
              "type": "address"
            },
            {
              "internalType": "uint256",
              "name": "qty",
              "type": "uint256"
            },
            {
              "internalType": "uint256",
              "name": "total",
              "type": "uint256"
            },
            {
              "internalType": "uint256",
              "name": "timestamp",
              "type": "uint256"
            },
            {
              "internalType": "string",
              "name": "destination",
              "type": "string"
            },
            {
              "internalType": "string",
              "name": "phone",
              "type": "string"
            },
            {
              "internalType": "enum Shop.OrderEnum",
              "name": "status",
              "type": "uint8"
            }
          ],
          "internalType": "struct Shop.OrderStruct",
          "name": "order",
          "type": "tuple"
        }
      ],
      "stateMutability": "view",
      "type": "function"
    },
    {
      "inputs": [],
      "name": "getOrders",
      "outputs": [
        {
          "components": [
            {
              "internalType": "uint256",
              "name": "id",
              "type": "uint256"
            },
            {
              "internalType": "string",
              "name": "sku",
              "type": "string"
            },
            {
              "internalType": "address",
              "name": "buyer",
              "type": "address"
            },
            {
              "internalType": "address",
              "name": "seller",
              "type": "address"
            },
            {
              "internalType": "uint256",
              "name": "qty",
              "type": "uint256"
            },
            {
              "internalType": "uint256",
              "name": "total",
              "type": "uint256"
            },
            {
              "internalType": "uint256",
              "name": "timestamp",
              "type": "uint256"
            },
            {
              "internalType": "string",
              "name": "destination",
              "type": "string"
            },
            {
              "internalType": "string",
              "name": "phone",
              "type": "string"
            },
            {
              "internalType": "enum Shop.OrderEnum",
              "name": "status",
              "type": "uint8"
            }
          ],
          "internalType": "struct Shop.OrderStruct[]",
          "name": "",
          "type": "tuple[]"
        }
      ],
      "stateMutability": "view",
      "type": "function"
    },
    {
      "inputs": [
        {
          "internalType": "uint256",
          "name": "id",
          "type": "uint256"
        }
      ],
      "name": "getProduct",
      "outputs": [
        {
          "components": [
            {
              "internalType": "uint256",
              "name": "id",
              "type": "uint256"
            },
            {
              "internalType": "string",
              "name": "sku",
              "type": "string"
            },
            {
              "internalType": "address",
              "name": "seller",
              "type": "address"
            },
            {
              "internalType": "string",
              "name": "name",
              "type": "string"
            },
            {
              "internalType": "string",
              "name": "description",
              "type": "string"
            },
            {
              "internalType": "uint256",
              "name": "price",
              "type": "uint256"
            },
            {
              "internalType": "uint256",
              "name": "timestamp",
              "type": "uint256"
            },
            {
              "internalType": "bool",
              "name": "deleted",
              "type": "bool"
            },
            {
              "internalType": "uint256",
              "name": "stock",
              "type": "uint256"
            }
          ],
          "internalType": "struct Shop.ProductStruct",
          "name": "",
          "type": "tuple"
        }
      ],
      "stateMutability": "view",
      "type": "function"
    },
    {
      "inputs": [],
      "name": "getProducts",
      "outputs": [
        {
          "components": [
            {
              "internalType": "uint256",
              "name": "id",
              "type": "uint256"
            },
            {
              "internalType": "string",
              "name": "sku",
              "type": "string"
            },
            {
              "internalType": "address",
              "name": "seller",
              "type": "address"
            },
            {
              "internalType": "string",
              "name": "name",
              "type": "string"
            },
            {
              "internalType": "string",
              "name": "description",
              "type": "string"
            },
            {
              "internalType": "uint256",
              "name": "price",
              "type": "uint256"
            },
            {
              "internalType": "uint256",
              "name": "timestamp",
              "type": "uint256"
            },
            {
              "internalType": "bool",
              "name": "deleted",
              "type": "bool"
            },
            {
              "internalType": "uint256",
              "name": "stock",
              "type": "uint256"
            }
          ],
          "internalType": "struct Shop.ProductStruct[]",
          "name": "",
          "type": "tuple[]"
        }
      ],
      "stateMutability": "view",
      "type": "function"
    },
    {
      "inputs": [
        {
          "internalType": "uint256",
          "name": "id",
          "type": "uint256"
        }
      ],
      "name": "getSale",
      "outputs": [
        {
          "components": [
            {
              "internalType": "uint256",
              "name": "id",
              "type": "uint256"
            },
            {
              "internalType": "string",
              "name": "sku",
              "type": "string"
            },
            {
              "internalType": "address",
              "name": "buyer",
              "type": "address"
            },
            {
              "internalType": "address",
              "name": "seller",
              "type": "address"
            },
            {
              "internalType": "uint256",
              "name": "qty",
              "type": "uint256"
            },
            {
              "internalType": "uint256",
              "name": "total",
              "type": "uint256"
            },
            {
              "internalType": "uint256",
              "name": "timestamp",
              "type": "uint256"
            },
            {
              "internalType": "string",
              "name": "destination",
              "type": "string"
            },
            {
              "internalType": "string",
              "name": "phone",
              "type": "string"
            },
            {
              "internalType": "enum Shop.OrderEnum",
              "name": "status",
              "type": "uint8"
            }
          ],
          "internalType": "struct Shop.OrderStruct",
          "name": "order",
          "type": "tuple"
        }
      ],
      "stateMutability": "view",
      "type": "function"
    },
    {
      "inputs": [],
      "name": "getSales",
      "outputs": [
        {
          "components": [
            {
              "internalType": "uint256",
              "name": "id",
              "type": "uint256"
            },
            {
              "internalType": "string",
              "name": "sku",
              "type": "string"
            },
            {
              "internalType": "address",
              "name": "buyer",
              "type": "address"
            },
            {
              "internalType": "address",
              "name": "seller",
              "type": "address"
            },
            {
              "internalType": "uint256",
              "name": "qty",
              "type": "uint256"
            },
            {
              "internalType": "uint256",
              "name": "total",
              "type": "uint256"
            },
            {
              "internalType": "uint256",
              "name": "timestamp",
              "type": "uint256"
            },
            {
              "internalType": "string",
              "name": "destination",
              "type": "string"
            },
            {
              "internalType": "string",
              "name": "phone",
              "type": "string"
            },
            {
              "internalType": "enum Shop.OrderEnum",
              "name": "status",
              "type": "uint8"
            }
          ],
          "internalType": "struct Shop.OrderStruct[]",
          "name": "",
          "type": "tuple[]"
        }
      ],
      "stateMutability": "view",
      "type": "function"
    },
    {
      "inputs": [
        {
          "internalType": "uint256",
          "name": "id",
          "type": "uint256"
        },
        {
          "internalType": "enum Shop.OrderEnum",
          "name": "status",
          "type": "uint8"
        }
      ],
      "name": "markOrderAs",
      "outputs": [
        {
          "internalType": "bool",
          "name": "",
          "type": "bool"
        }
      ],
      "stateMutability": "nonpayable",
      "type": "function"
    },
    {
      "inputs": [],
      "name": "owner",
      "outputs": [
        {
          "internalType": "address",
          "name": "",
          "type": "address"
        }
      ],
      "stateMutability": "view",
      "type": "function"
    },
    {
      "inputs": [],
      "name": "stats",
      "outputs": [
        {
          "internalType": "uint256",
          "name": "products",
          "type": "uint256"
        },
        {
          "internalType": "uint256",
          "name": "orders",
          "type": "uint256"
        },
        {
          "internalType": "uint256",
          "name": "sellers",
          "type": "uint256"
        },
        {
          "internalType": "uint256",
          "name": "sales",
          "type": "uint256"
        },
        {
          "internalType": "uint256",
          "name": "paid",
          "type": "uint256"
        },
        {
          "internalType": "uint256",
          "name": "balance",
          "type": "uint256"
        }
      ],
      "stateMutability": "view",
      "type": "function"
    },
    {
      "inputs": [
        {
          "internalType": "uint256",
          "name": "id",
          "type": "uint256"
        },
        {
          "internalType": "string",
          "name": "name",
          "type": "string"
        },
        {
          "internalType": "string",
          "name": "description",
          "type": "string"
        },
        {
          "internalType": "uint256",
          "name": "price",
          "type": "uint256"
        },
        {
          "internalType": "uint256",
          "name": "stock",
          "type": "uint256"
        }
      ],
      "name": "updateProduct",
      "outputs": [
        {
          "internalType": "bool",
          "name": "",
          "type": "bool"
        }
      ],
      "stateMutability": "nonpayable",
      "type": "function"
    }
  ],
  "bytecode": "0x60806040523480156200001157600080fd5b50604051620030783803806200307883398101604081905262000034916200004f565b600080546001600160a01b0319163317905560075562000069565b6000602082840312156200006257600080fd5b5051919050565b612fff80620000796000396000f3fe6080604052600436106100e85760003560e01c8063c29b2f201161008a578063ddca3f4311610059578063ddca3f43146102bc578063e0e83bb3146102e0578063ed90c7b7146102f3578063f94eb1821461031357600080fd5b8063c29b2f20146101f5578063d09ef24114610217578063d80528ae14610244578063d8f6d5961461029c57600080fd5b8063514fcac7116100c6578063514fcac71461015057806365f3fcd7146101705780638da5cb5b14610190578063b9db15b4146101c857600080fd5b80630d83304c146100ed5780631a481ecf146101185780632e2dc43e1461013b575b600080fd5b3480156100f957600080fd5b50610102610333565b60405161010f9190612a6b565b60405180910390f35b61012b610126366004612b84565b6105d3565b604051901515815260200161010f565b34801561014757600080fd5b50610102610930565b34801561015c57600080fd5b5061012b61016b366004612c1e565b610bc7565b34801561017c57600080fd5b5061012b61018b366004612c37565b610f64565b34801561019c57600080fd5b506000546101b0906001600160a01b031681565b6040516001600160a01b03909116815260200161010f565b3480156101d457600080fd5b506101e86101e3366004612c1e565b61144a565b60405161010f9190612d19565b34801561020157600080fd5b5061020a6116dc565b60405161010f9190612d33565b34801561022357600080fd5b50610237610232366004612c1e565b61193d565b60405161010f9190612d88565b34801561025057600080fd5b5060015460025460035460045460055460065461026f95949392919086565b604080519687526020870195909552938501929092526060840152608083015260a082015260c00161010f565b3480156102a857600080fd5b506102376102b7366004612c1e565b611c29565b3480156102c857600080fd5b506102d260075481565b60405190815260200161010f565b61012b6102ee366004612e1b565b611cba565b3480156102ff57600080fd5b5061012b61030e366004612c1e565b6123f8565b34801561031f57600080fd5b5061012b61032e366004612ec8565b6124b7565b336000908152600b60209081526040808320805482518185028101850190935280835260609492939192909184015b828210156105ca57838290600052602060002090600a020160405180610140016040529081600082015481526020016001820180546103a090612eff565b80601f01602080910402602001604051908101604052809291908181526020018280546103cc90612eff565b80156104195780601f106103ee57610100808354040283529160200191610419565b820191906000526020600020905b8154815290600101906020018083116103fc57829003601f168201915b505050918352505060028201546001600160a01b03908116602083015260038301541660408201526004820154606082015260058201546080820152600682015460a082015260078201805460c09092019161047490612eff565b80601f01602080910402602001604051908101604052809291908181526020018280546104a090612eff565b80156104ed5780601f106104c2576101008083540402835291602001916104ed565b820191906000526020600020905b8154815290600101906020018083116104d057829003601f168201915b5050505050815260200160088201805461050690612eff565b80601f016020809104026020016040519081016040528092919081815260200182805461053290612eff565b801561057f5780601f106105545761010080835404028352916020019161057f565b820191906000526020600020905b81548152906001019060200180831161056257829003601f168201915b5050509183525050600982015460209091019060ff1660038111156105a6576105a6612969565b60038111156105b7576105b7612969565b8152505081526020019060010190610362565b50505050905090565b60006007543410156106205760405162461bcd60e51b8152602060048201526011602482015270125b9cdd59999a58da595b9d08199d5b99607a1b60448201526064015b60405180910390fd5b60008651116106675760405162461bcd60e51b8152602060048201526013602482015272736b752063616e6e6f7420626520656d70747960681b6044820152606401610617565b60008551116106af5760405162461bcd60e51b81526020600482015260146024820152736e616d652063616e6e6f7420626520656d70747960601b6044820152606401610617565b60008451116107005760405162461bcd60e51b815260206004820152601b60248201527f6465736372697074696f6e2063616e6e6f7420626520656d70747900000000006044820152606401610617565b600083116107475760405162461bcd60e51b815260206004820152601460248201527370726963652063616e6e6f74206265207a65726f60601b6044820152606401610617565b6000821161078e5760405162461bcd60e51b815260206004820152601460248201527373746f636b2063616e6e6f74206265207a65726f60601b6044820152606401610617565b600180546000908152600e60209081526040808320805460ff1916909417909355338252600c90529081208054916107c583612f4a565b91905055506107d26127b7565b600180549060006107e283612f4a565b9091555081526020808201888152336040840152606083018890526080830187905260a0830186905261010083018590524260c08401526008805460018101825560009190915283517ff3f7a9fe364faab93b216da50a3214154f22a0a2b415b23a84c8169e8b636ee3600990920291820190815591518051859461088b937ff3f7a9fe364faab93b216da50a3214154f22a0a2b415b23a84c8169e8b636ee40192019061280e565b5060408201516002820180546001600160a01b0319166001600160a01b03909216919091179055606082015180516108cd91600384019160209091019061280e565b50608082015180516108e991600484019160209091019061280e565b5060a0820151600582015560c0820151600682015560e082015160078201805460ff1916911515919091179055610100909101516008909101555060019695505050505050565b336000908152600a60209081526040808320805482518185028101850190935280835260609492939192909184015b828210156105ca57838290600052602060002090600a0201604051806101400160405290816000820154815260200160018201805461099d90612eff565b80601f01602080910402602001604051908101604052809291908181526020018280546109c990612eff565b8015610a165780601f106109eb57610100808354040283529160200191610a16565b820191906000526020600020905b8154815290600101906020018083116109f957829003601f168201915b505050918352505060028201546001600160a01b03908116602083015260038301541660408201526004820154606082015260058201546080820152600682015460a082015260078201805460c090920191610a7190612eff565b80601f0160208091040260200160405190810160405280929190818152602001828054610a9d90612eff565b8015610aea5780601f10610abf57610100808354040283529160200191610aea565b820191906000526020600020905b815481529060010190602001808311610acd57829003601f168201915b50505050508152602001600882018054610b0390612eff565b80601f0160208091040260200160405190810160405280929190818152602001828054610b2f90612eff565b8015610b7c5780601f10610b5157610100808354040283529160200191610b7c565b820191906000526020600020905b815481529060010190602001808311610b5f57829003601f168201915b5050509183525050600982015460209091019060ff166003811115610ba357610ba3612969565b6003811115610bb457610bb4612969565b815250508152602001906001019061095f565b6000818152600e602052604081205460ff16610c195760405162461bcd60e51b8152602060048201526011602482015270141c9bd91d58dd081b9bdd08199bdd5b99607a1b6044820152606401610617565b336000818152600a60205260409020805484908110610c3a57610c3a612f65565b600091825260209091206002600a9092020101546001600160a01b031614610c9d5760405162461bcd60e51b8152602060048201526016602482015275155b985d5d1a1bdc9a5e99590814195c9cdbdb9b995b60521b6044820152606401610617565b6001336000908152600a60205260409020805484908110610cc057610cc0612f65565b600091825260209091206009600a90920201015460ff166003811115610ce857610ce8612969565b10610d355760405162461bcd60e51b815260206004820152601860248201527f4f726465722064656c69766572656420616c72656164792100000000000000006044820152606401610617565b336000908152600a6020526040902080546002919084908110610d5a57610d5a612f65565b600091825260209091206009600a9092020101805460ff19166001836003811115610d8757610d87612969565b0217905550336000908152600a602052604081208054600292600b92909186908110610db557610db5612f65565b600091825260208083206003600a9093020191909101546001600160a01b031683528201929092526040019020805484908110610df457610df4612f65565b600091825260209091206009600a9092020101805460ff19166001836003811115610e2157610e21612969565b02179055506002336000908152600a60205260409020805484908110610e4957610e49612f65565b600091825260209091206009600a90920201015460ff166003811115610e7157610e71612969565b1415610f5c57336000908152600a60205260409020805483908110610e9857610e98612f65565b90600052602060002090600a02016004015460088381548110610ebd57610ebd612f65565b90600052602060002090600902016008016000828254610edd9190612f7b565b9091555050336000908152600a602052604090208054610f5c919084908110610f0857610f08612f65565b60009182526020808320600a9283020160020154338452919052604090912080546001600160a01b039092169185908110610f4557610f45612f65565b90600052602060002090600a0201600501546126d4565b506001919050565b336000908152600f6020908152604080832085845290915281205460ff16610fc05760405162461bcd60e51b815260206004820152600f60248201526e13dc99195c881b9bdd08199bdd5b99608a1b6044820152606401610617565b60005b336000908152600b602052604090205481101561132457336000908152600b60205260409020805485919083908110610ffe57610ffe612f65565b90600052602060002090600a020160000154141561131257336000908152600b6020526040902080548491908390811061103a5761103a612f65565b600091825260209091206009600a9092020101805460ff1916600183600381111561106757611067612969565b0217905550336000908152600b6020526040812080548592600a9290918590811061109457611094612f65565b600091825260208083206002600a9093020191909101546001600160a01b0316835282019290925260400190208054839081106110d3576110d3612f65565b600091825260209091206009600a9092020101805460ff1916600183600381111561110057611100612969565b0217905550600183600381111561111957611119612969565b141561131257336000908152600b60205260409020805461118791908390811061114557611145612f65565b600091825260208083206003600a909302019190910154338352600b909152604090912080546001600160a01b039092169184908110610f4557610f45612f65565b336000908152600b602052604090208054829081106111a8576111a8612f65565b90600052602060002090600a020160050154600160050160008282546111ce9190612f93565b90915550506000848152600d602090815260408083208151608081018352338552600b909352922080548291908590811061120b5761120b612f65565b600091825260208083206002600a9093020191909101546001600160a01b03168352338252600b81526040909120805492909101918590811061125057611250612f65565b90600052602060002090600a0201600501548152602001600b6000336001600160a01b03166001600160a01b03168152602001908152602001600020848154811061129d5761129d612f65565b600091825260208083206004600a9093020182015484524293810193909352845460018181018755958352918390208451929091020180546001600160a01b039092166001600160a01b0319909216919091178155908201519281019290925560408101516002830155606001516003909101555b8061131c81612f4a565b915050610fc3565b5060005b336000908152600a602052604090205481101561144057336000908152600a6020526040902080548591908390811061136357611363612f65565b90600052602060002090600a02016000015414156113d657336000908152600a6020526040902080548491908390811061139f5761139f612f65565b600091825260209091206009600a9092020101805460ff191660018360038111156113cc576113cc612969565b021790555061142e565b60405162461bcd60e51b815260206004820152602760248201527f42757965723a204f72646572206e6f7420666f756e6420776974682070726f766044820152661a59195908125960ca1b6064820152608401610617565b8061143881612f4a565b915050611328565b5060019392505050565b6114526127b7565b6000828152600e602052604090205460ff166114a45760405162461bcd60e51b8152602060048201526011602482015270141c9bd91d58dd081b9bdd08199bdd5b99607a1b6044820152606401610617565b600882815481106114b7576114b7612f65565b906000526020600020906009020160405180610120016040529081600082015481526020016001820180546114eb90612eff565b80601f016020809104026020016040519081016040528092919081815260200182805461151790612eff565b80156115645780601f1061153957610100808354040283529160200191611564565b820191906000526020600020905b81548152906001019060200180831161154757829003601f168201915b505050918352505060028201546001600160a01b0316602082015260038201805460409092019161159490612eff565b80601f01602080910402602001604051908101604052809291908181526020018280546115c090612eff565b801561160d5780601f106115e25761010080835404028352916020019161160d565b820191906000526020600020905b8154815290600101906020018083116115f057829003601f168201915b5050505050815260200160048201805461162690612eff565b80601f016020809104026020016040519081016040528092919081815260200182805461165290612eff565b801561169f5780601f106116745761010080835404028352916020019161169f565b820191906000526020600020905b81548152906001019060200180831161168257829003601f168201915b50505091835250506005820154602082015260068201546040820152600782015460ff161515606082015260089091015460809091015292915050565b60606008805480602002602001604051908101604052809291908181526020016000905b828210156105ca5783829060005260206000209060090201604051806101200160405290816000820154815260200160018201805461173e90612eff565b80601f016020809104026020016040519081016040528092919081815260200182805461176a90612eff565b80156117b75780601f1061178c576101008083540402835291602001916117b7565b820191906000526020600020905b81548152906001019060200180831161179a57829003601f168201915b505050918352505060028201546001600160a01b031660208201526003820180546040909201916117e790612eff565b80601f016020809104026020016040519081016040528092919081815260200182805461181390612eff565b80156118605780601f1061183557610100808354040283529160200191611860565b820191906000526020600020905b81548152906001019060200180831161184357829003601f168201915b5050505050815260200160048201805461187990612eff565b80601f01602080910402602001604051908101604052809291908181526020018280546118a590612eff565b80156118f25780601f106118c7576101008083540402835291602001916118f2565b820191906000526020600020905b8154815290600101906020018083116118d557829003601f168201915b5050509183525050600582015460208083019190915260068301546040830152600783015460ff16151560608301526008909201546080909101529082526001929092019101611700565b611945612892565b60005b336000908152600a6020526040902054811015611c2357336000908152600a6020526040902080548491908390811061198357611983612f65565b90600052602060002090600a0201600001541415611c1157336000908152600a602052604090208054829081106119bc576119bc612f65565b90600052602060002090600a020160405180610140016040529081600082015481526020016001820180546119f090612eff565b80601f0160208091040260200160405190810160405280929190818152602001828054611a1c90612eff565b8015611a695780601f10611a3e57610100808354040283529160200191611a69565b820191906000526020600020905b815481529060010190602001808311611a4c57829003601f168201915b505050918352505060028201546001600160a01b03908116602083015260038301541660408201526004820154606082015260058201546080820152600682015460a082015260078201805460c090920191611ac490612eff565b80601f0160208091040260200160405190810160405280929190818152602001828054611af090612eff565b8015611b3d5780601f10611b1257610100808354040283529160200191611b3d565b820191906000526020600020905b815481529060010190602001808311611b2057829003601f168201915b50505050508152602001600882018054611b5690612eff565b80601f0160208091040260200160405190810160405280929190818152602001828054611b8290612eff565b8015611bcf5780601f10611ba457610100808354040283529160200191611bcf565b820191906000526020600020905b815481529060010190602001808311611bb257829003601f168201915b5050509183525050600982015460209091019060ff166003811115611bf657611bf6612969565b6003811115611c0757611c07612969565b9052509392505050565b80611c1b81612f4a565b915050611948565b50919050565b611c31612892565b60005b336000908152600b6020526040902054811015611c2357336000908152600b60205260409020805484919083908110611c6f57611c6f612f65565b90600052602060002090600a0201600001541415611ca857336000908152600b602052604090208054829081106119bc576119bc612f65565b80611cb281612f4a565b915050611c34565b6000611cc68585612739565b341015611d0b5760405162461bcd60e51b8152602060048201526013602482015272125b9cdd59999a58da595b9d08185b5bdd5b9d606a1b6044820152606401610617565b6000835111611d5c5760405162461bcd60e51b815260206004820152601b60248201527f64657374696e6174696f6e2063616e6e6f7420626520656d70747900000000006044820152606401610617565b6000825111611da55760405162461bcd60e51b815260206004820152601560248201527470686f6e652063616e6e6f7420626520656d70747960581b6044820152606401610617565b611daf8585612739565b60068054600090611dc1908490612f7b565b90915550600090505b85518110156123ec57600e6000878381518110611de957611de9612f65565b60209081029190910181015182528101919091526040016000205460ff168015611e695750848181518110611e2057611e20612f65565b60200260200101516008878381518110611e3c57611e3c612f65565b602002602001015181548110611e5457611e54612f65565b90600052602060002090600902016008015410155b156123da57848181518110611e8057611e80612f65565b60200260200101516008878381518110611e9c57611e9c612f65565b602002602001015181548110611eb457611eb4612f65565b90600052602060002090600902016008016000828254611ed49190612f93565b925050819055506001600f60006008898581518110611ef557611ef5612f65565b602002602001015181548110611f0d57611f0d612f65565b60009182526020808320600992909202909101600201546001600160a01b03168352828101939093526040918201812033808352600c80865284842060010180548552928652938320805460ff191696151596909617909555938152915281549190611f7883612f4a565b9190505550611f85612892565b60028054906000611f9583612f4a565b9091555081528651600890889084908110611fb257611fb2612f65565b602002602001015181548110611fca57611fca612f65565b90600052602060002090600902016001018054611fe690612eff565b80601f016020809104026020016040519081016040528092919081815260200182805461201290612eff565b801561205f5780601f106120345761010080835404028352916020019161205f565b820191906000526020600020905b81548152906001019060200180831161204257829003601f168201915b50505050506020820152336040820152865160089088908490811061208657612086612f65565b60200260200101518154811061209e5761209e612f65565b60009182526020909120600260099092020101546001600160a01b0316606082015285518690839081106120d4576120d4612f65565b602002602001015181608001818152505060088783815181106120f9576120f9612f65565b60200260200101518154811061211157612111612f65565b90600052602060002090600902016005015486838151811061213557612135612f65565b60200260200101516121479190612faa565b60a08201524260c082015260e0810185905261010081018490526040808201516001600160a01b03166000908152600a60208181529282208054600181810183559184529284902085519390920290910191825582840151805185946121b193850192019061280e565b5060408201516002820180546001600160a01b039283166001600160a01b03199182161790915560608401516003840180549190931691161790556080820151600482015560a0820151600582015560c0820151600682015560e0820151805161222591600784019160209091019061280e565b50610100820151805161224291600884019160209091019061280e565b5061012082015160098201805460ff1916600183600381111561226757612267612969565b0217905550505060608101516001600160a01b03166000908152600b602090815260408220805460018181018355918452928290208451600a909402019283558184015180518594936122be93850192019061280e565b5060408201516002820180546001600160a01b039283166001600160a01b03199182161790915560608401516003840180549190931691161790556080820151600482015560a0820151600582015560c0820151600682015560e0820151805161233291600784019160209091019061280e565b50610100820151805161234f91600884019160209091019061280e565b5061012082015160098201805460ff1916600183600381111561237457612374612969565b02179055505050606081810151604080840151845160a086015183519182526020820152428184015291516001600160a01b039384169493909116927ff3debaf22196a6ddf52a60fa71058cd7edf5e25bb98f4e96c994a5d4a9b0dd3e928290030190a3505b806123e481612f4a565b915050611dca565b50600195945050505050565b6000336001600160a01b03166008838154811061241757612417612f65565b60009182526020909120600260099092020101546001600160a01b0316146124785760405162461bcd60e51b8152602060048201526014602482015273155b985d5d1a1bdc9a5e994814195c9cdbdb995b60621b6044820152606401610617565b60016008838154811061248d5761248d612f65565b60009182526020909120600990910201600701805460ff1916911515919091179055506001919050565b6000336001600160a01b0316600887815481106124d6576124d6612f65565b60009182526020909120600260099092020101546001600160a01b0316146125375760405162461bcd60e51b8152602060048201526014602482015273155b985d5d1a1bdc9a5e994814195c9cdbdb995b60621b6044820152606401610617565b600085511161257f5760405162461bcd60e51b81526020600482015260146024820152736e616d652063616e6e6f7420626520656d70747960601b6044820152606401610617565b60008451116125d05760405162461bcd60e51b815260206004820152601b60248201527f6465736372697074696f6e2063616e6e6f7420626520656d70747900000000006044820152606401610617565b600083116126175760405162461bcd60e51b815260206004820152601460248201527370726963652063616e6e6f74206265207a65726f60601b6044820152606401610617565b6000821161265e5760405162461bcd60e51b815260206004820152601460248201527373746f636b2063616e6e6f74206265207a65726f60601b6044820152606401610617565b6126666127b7565b336040820152606081018690526080810185905260a08101849052610100810183905260088054829190899081106126a0576126a0612f65565b906000526020600020906009020160008201518160000155602082015181600101908051906020019061088b92919061280e565b6000826001600160a01b03168260405160006040518083038185875af1925050503d8060008114612721576040519150601f19603f3d011682016040523d82523d6000602084013e612726565b606091505b505090508061273457600080fd5b505050565b60008060005b84518110156127af5783818151811061275a5761275a612f65565b60200260200101516008828154811061277557612775612f65565b9060005260206000209060090201600501546127919190612faa565b61279b9083612f7b565b9150806127a781612f4a565b91505061273f565b509392505050565b604051806101200160405280600081526020016060815260200160006001600160a01b0316815260200160608152602001606081526020016000815260200160008152602001600015158152602001600081525090565b82805461281a90612eff565b90600052602060002090601f01602090048101928261283c5760008555612882565b82601f1061285557805160ff1916838001178555612882565b82800160010185558215612882579182015b82811115612882578251825591602001919060010190612867565b5061288e929150612907565b5090565b604051806101400160405280600081526020016060815260200160006001600160a01b0316815260200160006001600160a01b0316815260200160008152602001600081526020016000815260200160608152602001606081526020016000600381111561290257612902612969565b905290565b5b8082111561288e5760008155600101612908565b6000815180845260005b8181101561294257602081850181015186830182015201612926565b81811115612954576000602083870101525b50601f01601f19169290920160200192915050565b634e487b7160e01b600052602160045260246000fd5b6004811061299d57634e487b7160e01b600052602160045260246000fd5b9052565b60006101408251845260208301518160208601526129c18286018261291c565b91505060408301516129de60408601826001600160a01b03169052565b5060608301516129f960608601826001600160a01b03169052565b506080830151608085015260a083015160a085015260c083015160c085015260e083015184820360e0860152612a2f828261291c565b9150506101008084015185830382870152612a4a838261291c565b9250505061012080840151612a618287018261297f565b5090949350505050565b6000602080830181845280855180835260408601915060408160051b870101925083870160005b82811015612ac057603f19888603018452612aae8583516129a1565b94509285019290850190600101612a92565b5092979650505050505050565b634e487b7160e01b600052604160045260246000fd5b604051601f8201601f1916810167ffffffffffffffff81118282101715612b0c57612b0c612acd565b604052919050565b600082601f830112612b2557600080fd5b813567ffffffffffffffff811115612b3f57612b3f612acd565b612b52601f8201601f1916602001612ae3565b818152846020838601011115612b6757600080fd5b816020850160208301376000918101602001919091529392505050565b600080600080600060a08688031215612b9c57600080fd5b853567ffffffffffffffff80821115612bb457600080fd5b612bc089838a01612b14565b96506020880135915080821115612bd657600080fd5b612be289838a01612b14565b95506040880135915080821115612bf857600080fd5b50612c0588828901612b14565b9598949750949560608101359550608001359392505050565b600060208284031215612c3057600080fd5b5035919050565b60008060408385031215612c4a57600080fd5b82359150602083013560048110612c6057600080fd5b809150509250929050565b6000610120825184526020830151816020860152612c8b8286018261291c565b9150506040830151612ca860408601826001600160a01b03169052565b5060608301518482036060860152612cc0828261291c565b91505060808301518482036080860152612cda828261291c565b91505060a083015160a085015260c083015160c085015260e0830151612d0460e086018215159052565b50610100928301519390920192909252919050565b602081526000612d2c6020830184612c6b565b9392505050565b6000602080830181845280855180835260408601915060408160051b870101925083870160005b82811015612ac057603f19888603018452612d76858351612c6b565b94509285019290850190600101612d5a565b602081526000612d2c60208301846129a1565b600082601f830112612dac57600080fd5b8135602067ffffffffffffffff821115612dc857612dc8612acd565b8160051b612dd7828201612ae3565b9283528481018201928281019087851115612df157600080fd5b83870192505b84831015612e1057823582529183019190830190612df7565b979650505050505050565b60008060008060808587031215612e3157600080fd5b843567ffffffffffffffff80821115612e4957600080fd5b612e5588838901612d9b565b95506020870135915080821115612e6b57600080fd5b612e7788838901612d9b565b94506040870135915080821115612e8d57600080fd5b612e9988838901612b14565b93506060870135915080821115612eaf57600080fd5b50612ebc87828801612b14565b91505092959194509250565b600080600080600060a08688031215612ee057600080fd5b85359450602086013567ffffffffffffffff80821115612bd657600080fd5b600181811c90821680612f1357607f821691505b60208210811415611c2357634e487b7160e01b600052602260045260246000fd5b634e487b7160e01b600052601160045260246000fd5b6000600019821415612f5e57612f5e612f34565b5060010190565b634e487b7160e01b600052603260045260246000fd5b60008219821115612f8e57612f8e612f34565b500190565b600082821015612fa557612fa5612f34565b500390565b6000816000190483118215151615612fc457612fc4612f34565b50029056fea2646970667358221220560533ddab0f129d059933941f5d42dcd195d8a936e11db5cc2f287794c2c5c664736f6c634300080b0033",
  "linkReferences": {},
  "deployedLinkReferences": {}
}